{
    "abi": [
        {
            "type": "constructor",
            "inputs": [],
            "stateMutability": "nonpayable"
        },
        {
            "type": "function",
            "name": "ORI_TOKEN",
            "inputs": [],
            "outputs": [
                {
                    "name": "",
                    "type": "address",
                    "internalType": "contract OreToken"
                }
            ],
            "stateMutability": "view"
        },
        {
            "type": "function",
            "name": "UPGRADE_INTERFACE_VERSION",
            "inputs": [],
            "outputs": [
                {
                    "name": "",
                    "type": "string",
                    "internalType": "string"
                }
            ],
            "stateMutability": "view"
        },
        {
            "type": "function",
            "name": "_executeAutomationInternal",
            "inputs": [
                {
                    "name": "user",
                    "type": "address",
                    "internalType": "address"
                }
            ],
            "outputs": [
                {
                    "name": "deployed",
                    "type": "uint256",
                    "internalType": "uint256"
                },
                {
                    "name": "mask",
                    "type": "uint256",
                    "internalType": "uint256"
                }
            ],
            "stateMutability": "nonpayable"
        },
        {
            "type": "function",
            "name": "adminMint",
            "inputs": [
                {
                    "name": "to",
                    "type": "address",
                    "internalType": "address"
                },
                {
                    "name": "amount",
                    "type": "uint256",
                    "internalType": "uint256"
                }
            ],
            "outputs": [],
            "stateMutability": "nonpayable"
        },
        {
            "type": "function",
            "name": "automations",
            "inputs": [
                {
                    "name": "",
                    "type": "address",
                    "internalType": "address"
                }
            ],
            "outputs": [
                {
                    "name": "owner",
                    "type": "address",
                    "internalType": "address"
                },
                {
                    "name": "balance",
                    "type": "uint256",
                    "internalType": "uint256"
                },
                {
                    "name": "mask",
                    "type": "uint256",
                    "internalType": "uint256"
                },
                {
                    "name": "amountPerSquare",
                    "type": "uint256",
                    "internalType": "uint256"
                },
                {
                    "name": "randomizeMask",
                    "type": "bool",
                    "internalType": "bool"
                },
                {
                    "name": "active",
                    "type": "bool",
                    "internalType": "bool"
                }
            ],
            "stateMutability": "view"
        },
        {
            "type": "function",
            "name": "batchCheckpoint",
            "inputs": [
                {
                    "name": "roundId",
                    "type": "uint64",
                    "internalType": "uint64"
                },
                {
                    "name": "miners",
                    "type": "address[]",
                    "internalType": "address[]"
                }
            ],
            "outputs": [
                {
                    "name": "results",
                    "type": "bool[]",
                    "internalType": "bool[]"
                }
            ],
            "stateMutability": "nonpayable"
        },
        {
            "type": "function",
            "name": "board",
            "inputs": [],
            "outputs": [
                {
                    "name": "currentRoundId",
                    "type": "uint64",
                    "internalType": "uint64"
                },
                {
                    "name": "roundLength",
                    "type": "uint32",
                    "internalType": "uint32"
                },
                {
                    "name": "intermission",
                    "type": "uint32",
                    "internalType": "uint32"
                },
                {
                    "name": "feeBps",
                    "type": "uint16",
                    "internalType": "uint16"
                },
                {
                    "name": "vaultBps",
                    "type": "uint16",
                    "internalType": "uint16"
                },
                {
                    "name": "claimFeeBps",
                    "type": "uint16",
                    "internalType": "uint16"
                },
                {
                    "name": "live",
                    "type": "bool",
                    "internalType": "bool"
                }
            ],
            "stateMutability": "view"
        },
        {
            "type": "function",
            "name": "checkpoint",
            "inputs": [
                {
                    "name": "roundId",
                    "type": "uint64",
                    "internalType": "uint64"
                },
                {
                    "name": "minerAddr",
                    "type": "address",
                    "internalType": "address"
                }
            ],
            "outputs": [],
            "stateMutability": "nonpayable"
        },
        {
            "type": "function",
            "name": "claimAll",
            "inputs": [
                {
                    "name": "to",
                    "type": "address",
                    "internalType": "address payable"
                }
            ],
            "outputs": [
                {
                    "name": "ethAmount",
                    "type": "uint256",
                    "internalType": "uint256"
                },
                {
                    "name": "oriAmount",
                    "type": "uint256",
                    "internalType": "uint256"
                }
            ],
            "stateMutability": "nonpayable"
        },
        {
            "type": "function",
            "name": "claimEth",
            "inputs": [
                {
                    "name": "to",
                    "type": "address",
                    "internalType": "address payable"
                }
            ],
            "outputs": [
                {
                    "name": "amount",
                    "type": "uint256",
                    "internalType": "uint256"
                }
            ],
            "stateMutability": "nonpayable"
        },
        {
            "type": "function",
            "name": "claimStakeYield",
            "inputs": [
                {
                    "name": "to",
                    "type": "address",
                    "internalType": "address"
                }
            ],
            "outputs": [
                {
                    "name": "payout",
                    "type": "uint256",
                    "internalType": "uint256"
                }
            ],
            "stateMutability": "nonpayable"
        },
        {
            "type": "function",
            "name": "config",
            "inputs": [],
            "outputs": [
                {
                    "name": "feeCollector",
                    "type": "address",
                    "internalType": "address"
                },
                {
                    "name": "buryAuthority",
                    "type": "address",
                    "internalType": "address"
                },
                {
                    "name": "swapProgram",
                    "type": "address",
                    "internalType": "address"
                },
                {
                    "name": "vrfKeyHash",
                    "type": "bytes32",
                    "internalType": "bytes32"
                },
                {
                    "name": "vrfSubId",
                    "type": "uint256",
                    "internalType": "uint256"
                },
                {
                    "name": "vrfMinConfirmations",
                    "type": "uint16",
                    "internalType": "uint16"
                },
                {
                    "name": "vrfCallbackGasLimit",
                    "type": "uint32",
                    "internalType": "uint32"
                }
            ],
            "stateMutability": "view"
        },
        {
            "type": "function",
            "name": "coordinator",
            "inputs": [],
            "outputs": [
                {
                    "name": "",
                    "type": "address",
                    "internalType": "contract IVRFCoordinatorV2Plus"
                }
            ],
            "stateMutability": "view"
        },
        {
            "type": "function",
            "name": "deductVaultEth",
            "inputs": [
                {
                    "name": "amount",
                    "type": "uint256",
                    "internalType": "uint256"
                }
            ],
            "outputs": [],
            "stateMutability": "nonpayable"
        },
        {
            "type": "function",
            "name": "deployManual",
            "inputs": [
                {
                    "name": "mask",
                    "type": "uint256",
                    "internalType": "uint256"
                },
                {
                    "name": "amountPerSquare",
                    "type": "uint256",
                    "internalType": "uint256"
                }
            ],
            "outputs": [],
            "stateMutability": "payable"
        },
        {
            "type": "function",
            "name": "depositStake",
            "inputs": [
                {
                    "name": "amount",
                    "type": "uint256",
                    "internalType": "uint256"
                }
            ],
            "outputs": [],
            "stateMutability": "nonpayable"
        },
        {
            "type": "function",
            "name": "distributeStakeRewards",
            "inputs": [
                {
                    "name": "amount",
                    "type": "uint256",
                    "internalType": "uint256"
                }
            ],
            "outputs": [],
            "stateMutability": "nonpayable"
        },
        {
            "type": "function",
            "name": "emergencyResetRound",
            "inputs": [
                {
                    "name": "roundId",
                    "type": "uint64",
                    "internalType": "uint64"
                }
            ],
            "outputs": [],
            "stateMutability": "nonpayable"
        },
        {
            "type": "function",
            "name": "executeAutomation",
            "inputs": [
                {
                    "name": "user",
                    "type": "address",
                    "internalType": "address"
                }
            ],
            "outputs": [],
            "stateMutability": "nonpayable"
        },
        {
            "type": "function",
            "name": "executeAutomationBatch",
            "inputs": [
                {
                    "name": "users",
                    "type": "address[]",
                    "internalType": "address[]"
                }
            ],
            "outputs": [
                {
                    "name": "results",
                    "type": "tuple[]",
                    "internalType": "struct OreProtocol.ExecutionResult[]",
                    "components": [
                        {
                            "name": "user",
                            "type": "address",
                            "internalType": "address"
                        },
                        {
                            "name": "success",
                            "type": "bool",
                            "internalType": "bool"
                        },
                        {
                            "name": "fee",
                            "type": "uint256",
                            "internalType": "uint256"
                        },
                        {
                            "name": "deployed",
                            "type": "uint256",
                            "internalType": "uint256"
                        },
                        {
                            "name": "mask",
                            "type": "uint256",
                            "internalType": "uint256"
                        }
                    ]
                }
            ],
            "stateMutability": "nonpayable"
        },
        {
            "type": "function",
            "name": "getAutomation",
            "inputs": [
                {
                    "name": "user",
                    "type": "address",
                    "internalType": "address"
                }
            ],
            "outputs": [
                {
                    "name": "",
                    "type": "tuple",
                    "internalType": "struct OreProtocol.Automation",
                    "components": [
                        {
                            "name": "owner",
                            "type": "address",
                            "internalType": "address"
                        },
                        {
                            "name": "balance",
                            "type": "uint256",
                            "internalType": "uint256"
                        },
                        {
                            "name": "mask",
                            "type": "uint256",
                            "internalType": "uint256"
                        },
                        {
                            "name": "amountPerSquare",
                            "type": "uint256",
                            "internalType": "uint256"
                        },
                        {
                            "name": "randomizeMask",
                            "type": "bool",
                            "internalType": "bool"
                        },
                        {
                            "name": "active",
                            "type": "bool",
                            "internalType": "bool"
                        }
                    ]
                }
            ],
            "stateMutability": "view"
        },
        {
            "type": "function",
            "name": "getBuryAuthority",
            "inputs": [],
            "outputs": [
                {
                    "name": "",
                    "type": "address",
                    "internalType": "address"
                }
            ],
            "stateMutability": "view"
        },
        {
            "type": "function",
            "name": "getLastRoundWinners",
            "inputs": [],
            "outputs": [
                {
                    "name": "roundId",
                    "type": "uint64",
                    "internalType": "uint64"
                },
                {
                    "name": "winningSquare",
                    "type": "uint8",
                    "internalType": "uint8"
                },
                {
                    "name": "participantList",
                    "type": "tuple[]",
                    "internalType": "struct OreProtocol.SquareParticipant[]",
                    "components": [
                        {
                            "name": "participant",
                            "type": "address",
                            "internalType": "address"
                        },
                        {
                            "name": "amount",
                            "type": "uint256",
                            "internalType": "uint256"
                        }
                    ]
                },
                {
                    "name": "totalDeployed",
                    "type": "uint256",
                    "internalType": "uint256"
                }
            ],
            "stateMutability": "view"
        },
        {
            "type": "function",
            "name": "getMinerRoundInfo",
            "inputs": [
                {
                    "name": "roundId",
                    "type": "uint64",
                    "internalType": "uint64"
                },
                {
                    "name": "miner",
                    "type": "address",
                    "internalType": "address"
                }
            ],
            "outputs": [
                {
                    "name": "checkpointed",
                    "type": "bool",
                    "internalType": "bool"
                },
                {
                    "name": "hasParticipation",
                    "type": "bool",
                    "internalType": "bool"
                },
                {
                    "name": "totalDeployed",
                    "type": "uint256",
                    "internalType": "uint256"
                },
                {
                    "name": "ethReward",
                    "type": "uint256",
                    "internalType": "uint256"
                },
                {
                    "name": "oreShares",
                    "type": "uint256",
                    "internalType": "uint256"
                },
                {
                    "name": "oreBonus",
                    "type": "uint256",
                    "internalType": "uint256"
                }
            ],
            "stateMutability": "view"
        },
        {
            "type": "function",
            "name": "getMinerSquares",
            "inputs": [
                {
                    "name": "roundId",
                    "type": "uint64",
                    "internalType": "uint64"
                },
                {
                    "name": "miner",
                    "type": "address",
                    "internalType": "address"
                }
            ],
            "outputs": [
                {
                    "name": "mask",
                    "type": "uint256",
                    "internalType": "uint256"
                },
                {
                    "name": "squares",
                    "type": "uint8[]",
                    "internalType": "uint8[]"
                },
                {
                    "name": "amounts",
                    "type": "uint256[]",
                    "internalType": "uint256[]"
                }
            ],
            "stateMutability": "view"
        },
        {
            "type": "function",
            "name": "getRoundData",
            "inputs": [
                {
                    "name": "roundId",
                    "type": "uint64",
                    "internalType": "uint64"
                }
            ],
            "outputs": [
                {
                    "name": "",
                    "type": "tuple",
                    "internalType": "struct OreProtocol.RoundData",
                    "components": [
                        {
                            "name": "id",
                            "type": "uint64",
                            "internalType": "uint64"
                        },
                        {
                            "name": "startBlock",
                            "type": "uint64",
                            "internalType": "uint64"
                        },
                        {
                            "name": "endBlock",
                            "type": "uint64",
                            "internalType": "uint64"
                        },
                        {
                            "name": "intermissionEndBlock",
                            "type": "uint64",
                            "internalType": "uint64"
                        },
                        {
                            "name": "totalDeployed",
                            "type": "uint256",
                            "internalType": "uint256"
                        },
                        {
                            "name": "winningsPool",
                            "type": "uint256",
                            "internalType": "uint256"
                        },
                        {
                            "name": "vaultShare",
                            "type": "uint256",
                            "internalType": "uint256"
                        },
                        {
                            "name": "winningSquare",
                            "type": "uint8",
                            "internalType": "uint8"
                        },
                        {
                            "name": "oreReward",
                            "type": "uint256",
                            "internalType": "uint256"
                        },
                        {
                            "name": "topMinerReward",
                            "type": "uint256",
                            "internalType": "uint256"
                        },
                        {
                            "name": "topMinerSample",
                            "type": "uint256",
                            "internalType": "uint256"
                        },
                        {
                            "name": "motherlodePayout",
                            "type": "uint256",
                            "internalType": "uint256"
                        },
                        {
                            "name": "topMiner",
                            "type": "address",
                            "internalType": "address"
                        },
                        {
                            "name": "randomnessRequested",
                            "type": "bool",
                            "internalType": "bool"
                        },
                        {
                            "name": "randomnessFulfilled",
                            "type": "bool",
                            "internalType": "bool"
                        },
                        {
                            "name": "splitReward",
                            "type": "bool",
                            "internalType": "bool"
                        },
                        {
                            "name": "motherlode",
                            "type": "bool",
                            "internalType": "bool"
                        },
                        {
                            "name": "topMinerClaimed",
                            "type": "bool",
                            "internalType": "bool"
                        },
                        {
                            "name": "claimedRewards",
                            "type": "uint256",
                            "internalType": "uint256"
                        },
                        {
                            "name": "deployedPerSquare",
                            "type": "uint256[25]",
                            "internalType": "uint256[25]"
                        },
                        {
                            "name": "minersPerSquare",
                            "type": "uint256[25]",
                            "internalType": "uint256[25]"
                        }
                    ]
                }
            ],
            "stateMutability": "view"
        },
        {
            "type": "function",
            "name": "getSquareParticipants",
            "inputs": [
                {
                    "name": "roundId",
                    "type": "uint64",
                    "internalType": "uint64"
                },
                {
                    "name": "squareId",
                    "type": "uint8",
                    "internalType": "uint8"
                }
            ],
            "outputs": [
                {
                    "name": "participantList",
                    "type": "tuple[]",
                    "internalType": "struct OreProtocol.SquareParticipant[]",
                    "components": [
                        {
                            "name": "participant",
                            "type": "address",
                            "internalType": "address"
                        },
                        {
                            "name": "amount",
                            "type": "uint256",
                            "internalType": "uint256"
                        }
                    ]
                },
                {
                    "name": "totalDeployed",
                    "type": "uint256",
                    "internalType": "uint256"
                }
            ],
            "stateMutability": "view"
        },
        {
            "type": "function",
            "name": "getSwapProgram",
            "inputs": [],
            "outputs": [
                {
                    "name": "",
                    "type": "address",
                    "internalType": "address"
                }
            ],
            "stateMutability": "view"
        },
        {
            "type": "function",
            "name": "getTotalStaked",
            "inputs": [],
            "outputs": [
                {
                    "name": "",
                    "type": "uint256",
                    "internalType": "uint256"
                }
            ],
            "stateMutability": "view"
        },
        {
            "type": "function",
            "name": "getTreasuryState",
            "inputs": [],
            "outputs": [
                {
                    "name": "totalStaked",
                    "type": "uint256",
                    "internalType": "uint256"
                },
                {
                    "name": "stakeRewardsFactor",
                    "type": "uint256",
                    "internalType": "uint256"
                },
                {
                    "name": "totalOreShares",
                    "type": "uint256",
                    "internalType": "uint256"
                },
                {
                    "name": "minerRewardsFactor",
                    "type": "uint256",
                    "internalType": "uint256"
                },
                {
                    "name": "vaultEth",
                    "type": "uint256",
                    "internalType": "uint256"
                },
                {
                    "name": "motherlodeOre",
                    "type": "uint256",
                    "internalType": "uint256"
                }
            ],
            "stateMutability": "view"
        },
        {
            "type": "function",
            "name": "getUserRewards",
            "inputs": [
                {
                    "name": "miner",
                    "type": "address",
                    "internalType": "address"
                }
            ],
            "outputs": [
                {
                    "name": "ethAmount",
                    "type": "uint256",
                    "internalType": "uint256"
                },
                {
                    "name": "oriDirect",
                    "type": "uint256",
                    "internalType": "uint256"
                },
                {
                    "name": "oriRefined",
                    "type": "uint256",
                    "internalType": "uint256"
                }
            ],
            "stateMutability": "view"
        },
        {
            "type": "function",
            "name": "getVaultEth",
            "inputs": [],
            "outputs": [
                {
                    "name": "",
                    "type": "uint256",
                    "internalType": "uint256"
                }
            ],
            "stateMutability": "view"
        },
        {
            "type": "function",
            "name": "getWinningSquareParticipants",
            "inputs": [
                {
                    "name": "roundId",
                    "type": "uint64",
                    "internalType": "uint64"
                }
            ],
            "outputs": [
                {
                    "name": "winningSquare",
                    "type": "uint8",
                    "internalType": "uint8"
                },
                {
                    "name": "participantList",
                    "type": "tuple[]",
                    "internalType": "struct OreProtocol.SquareParticipant[]",
                    "components": [
                        {
                            "name": "participant",
                            "type": "address",
                            "internalType": "address"
                        },
                        {
                            "name": "amount",
                            "type": "uint256",
                            "internalType": "uint256"
                        }
                    ]
                },
                {
                    "name": "totalDeployed",
                    "type": "uint256",
                    "internalType": "uint256"
                }
            ],
            "stateMutability": "view"
        },
        {
            "type": "function",
            "name": "initialize",
            "inputs": [
                {
                    "name": "params",
                    "type": "tuple",
                    "internalType": "struct OreProtocol.InitParams",
                    "components": [
                        {
                            "name": "oriToken",
                            "type": "address",
                            "internalType": "address"
                        },
                        {
                            "name": "feeCollector",
                            "type": "address",
                            "internalType": "address"
                        },
                        {
                            "name": "buryAuthority",
                            "type": "address",
                            "internalType": "address"
                        },
                        {
                            "name": "swapProgram",
                            "type": "address",
                            "internalType": "address"
                        },
                        {
                            "name": "vrfCoordinator",
                            "type": "address",
                            "internalType": "address"
                        },
                        {
                            "name": "vrfKeyHash",
                            "type": "bytes32",
                            "internalType": "bytes32"
                        },
                        {
                            "name": "vrfSubId",
                            "type": "uint256",
                            "internalType": "uint256"
                        },
                        {
                            "name": "vrfMinConfirmations",
                            "type": "uint16",
                            "internalType": "uint16"
                        },
                        {
                            "name": "vrfCallbackGasLimit",
                            "type": "uint32",
                            "internalType": "uint32"
                        },
                        {
                            "name": "roundLength",
                            "type": "uint32",
                            "internalType": "uint32"
                        },
                        {
                            "name": "intermission",
                            "type": "uint32",
                            "internalType": "uint32"
                        },
                        {
                            "name": "feeBps",
                            "type": "uint16",
                            "internalType": "uint16"
                        },
                        {
                            "name": "vaultBps",
                            "type": "uint16",
                            "internalType": "uint16"
                        }
                    ]
                }
            ],
            "outputs": [],
            "stateMutability": "nonpayable"
        },
        {
            "type": "function",
            "name": "owner",
            "inputs": [],
            "outputs": [
                {
                    "name": "",
                    "type": "address",
                    "internalType": "address"
                }
            ],
            "stateMutability": "view"
        },
        {
            "type": "function",
            "name": "proxiableUUID",
            "inputs": [],
            "outputs": [
                {
                    "name": "",
                    "type": "bytes32",
                    "internalType": "bytes32"
                }
            ],
            "stateMutability": "view"
        },
        {
            "type": "function",
            "name": "rawFulfillRandomWords",
            "inputs": [
                {
                    "name": "requestId",
                    "type": "uint256",
                    "internalType": "uint256"
                },
                {
                    "name": "randomWords",
                    "type": "uint256[]",
                    "internalType": "uint256[]"
                }
            ],
            "outputs": [],
            "stateMutability": "nonpayable"
        },
        {
            "type": "function",
            "name": "registerAutomation",
            "inputs": [
                {
                    "name": "params",
                    "type": "tuple",
                    "internalType": "struct OreProtocol.Automation",
                    "components": [
                        {
                            "name": "owner",
                            "type": "address",
                            "internalType": "address"
                        },
                        {
                            "name": "balance",
                            "type": "uint256",
                            "internalType": "uint256"
                        },
                        {
                            "name": "mask",
                            "type": "uint256",
                            "internalType": "uint256"
                        },
                        {
                            "name": "amountPerSquare",
                            "type": "uint256",
                            "internalType": "uint256"
                        },
                        {
                            "name": "randomizeMask",
                            "type": "bool",
                            "internalType": "bool"
                        },
                        {
                            "name": "active",
                            "type": "bool",
                            "internalType": "bool"
                        }
                    ]
                }
            ],
            "outputs": [],
            "stateMutability": "payable"
        },
        {
            "type": "function",
            "name": "renounceOwnership",
            "inputs": [],
            "outputs": [],
            "stateMutability": "nonpayable"
        },
        {
            "type": "function",
            "name": "resetRound",
            "inputs": [],
            "outputs": [
                {
                    "name": "requestId",
                    "type": "uint256",
                    "internalType": "uint256"
                }
            ],
            "stateMutability": "nonpayable"
        },
        {
            "type": "function",
            "name": "roundByRequest",
            "inputs": [
                {
                    "name": "",
                    "type": "uint256",
                    "internalType": "uint256"
                }
            ],
            "outputs": [
                {
                    "name": "",
                    "type": "uint64",
                    "internalType": "uint64"
                }
            ],
            "stateMutability": "view"
        },
        {
            "type": "function",
            "name": "rounds",
            "inputs": [
                {
                    "name": "",
                    "type": "uint64",
                    "internalType": "uint64"
                }
            ],
            "outputs": [
                {
                    "name": "id",
                    "type": "uint64",
                    "internalType": "uint64"
                },
                {
                    "name": "startBlock",
                    "type": "uint64",
                    "internalType": "uint64"
                },
                {
                    "name": "endBlock",
                    "type": "uint64",
                    "internalType": "uint64"
                },
                {
                    "name": "intermissionEndBlock",
                    "type": "uint64",
                    "internalType": "uint64"
                },
                {
                    "name": "totalDeployed",
                    "type": "uint256",
                    "internalType": "uint256"
                },
                {
                    "name": "winningsPool",
                    "type": "uint256",
                    "internalType": "uint256"
                },
                {
                    "name": "vaultShare",
                    "type": "uint256",
                    "internalType": "uint256"
                },
                {
                    "name": "winningSquare",
                    "type": "uint8",
                    "internalType": "uint8"
                },
                {
                    "name": "oreReward",
                    "type": "uint256",
                    "internalType": "uint256"
                },
                {
                    "name": "topMinerReward",
                    "type": "uint256",
                    "internalType": "uint256"
                },
                {
                    "name": "topMinerSample",
                    "type": "uint256",
                    "internalType": "uint256"
                },
                {
                    "name": "motherlodePayout",
                    "type": "uint256",
                    "internalType": "uint256"
                },
                {
                    "name": "topMiner",
                    "type": "address",
                    "internalType": "address"
                },
                {
                    "name": "randomnessRequested",
                    "type": "bool",
                    "internalType": "bool"
                },
                {
                    "name": "randomnessFulfilled",
                    "type": "bool",
                    "internalType": "bool"
                },
                {
                    "name": "splitReward",
                    "type": "bool",
                    "internalType": "bool"
                },
                {
                    "name": "motherlode",
                    "type": "bool",
                    "internalType": "bool"
                },
                {
                    "name": "topMinerClaimed",
                    "type": "bool",
                    "internalType": "bool"
                },
                {
                    "name": "claimedRewards",
                    "type": "uint256",
                    "internalType": "uint256"
                }
            ],
            "stateMutability": "view"
        },
        {
            "type": "function",
            "name": "setConfig",
            "inputs": [
                {
                    "name": "feeCollector_",
                    "type": "address",
                    "internalType": "address"
                },
                {
                    "name": "buryAuthority_",
                    "type": "address",
                    "internalType": "address"
                },
                {
                    "name": "swapProgram_",
                    "type": "address",
                    "internalType": "address"
                }
            ],
            "outputs": [],
            "stateMutability": "nonpayable"
        },
        {
            "type": "function",
            "name": "setRoundParams",
            "inputs": [
                {
                    "name": "roundLength_",
                    "type": "uint32",
                    "internalType": "uint32"
                },
                {
                    "name": "intermission_",
                    "type": "uint32",
                    "internalType": "uint32"
                },
                {
                    "name": "feeBps_",
                    "type": "uint16",
                    "internalType": "uint16"
                },
                {
                    "name": "vaultBps_",
                    "type": "uint16",
                    "internalType": "uint16"
                }
            ],
            "outputs": [],
            "stateMutability": "nonpayable"
        },
        {
            "type": "function",
            "name": "setStakingContract",
            "inputs": [
                {
                    "name": "_stakingContract",
                    "type": "address",
                    "internalType": "address"
                }
            ],
            "outputs": [],
            "stateMutability": "nonpayable"
        },
        {
            "type": "function",
            "name": "setVrfConfig",
            "inputs": [
                {
                    "name": "keyHash",
                    "type": "bytes32",
                    "internalType": "bytes32"
                },
                {
                    "name": "subId",
                    "type": "uint64",
                    "internalType": "uint64"
                },
                {
                    "name": "minConf",
                    "type": "uint16",
                    "internalType": "uint16"
                },
                {
                    "name": "gasLimit",
                    "type": "uint32",
                    "internalType": "uint32"
                }
            ],
            "outputs": [],
            "stateMutability": "nonpayable"
        },
        {
            "type": "function",
            "name": "stakes",
            "inputs": [
                {
                    "name": "",
                    "type": "address",
                    "internalType": "address"
                }
            ],
            "outputs": [
                {
                    "name": "amount",
                    "type": "uint256",
                    "internalType": "uint256"
                },
                {
                    "name": "pending",
                    "type": "uint256",
                    "internalType": "uint256"
                },
                {
                    "name": "rewardDebt",
                    "type": "uint256",
                    "internalType": "uint256"
                },
                {
                    "name": "updatedAt",
                    "type": "uint48",
                    "internalType": "uint48"
                }
            ],
            "stateMutability": "view"
        },
        {
            "type": "function",
            "name": "stakingContract",
            "inputs": [],
            "outputs": [
                {
                    "name": "",
                    "type": "address",
                    "internalType": "address"
                }
            ],
            "stateMutability": "view"
        },
        {
            "type": "function",
            "name": "startGame",
            "inputs": [],
            "outputs": [],
            "stateMutability": "nonpayable"
        },
        {
            "type": "function",
            "name": "stopAutomation",
            "inputs": [
                {
                    "name": "to",
                    "type": "address",
                    "internalType": "address payable"
                }
            ],
            "outputs": [],
            "stateMutability": "nonpayable"
        },
        {
            "type": "function",
            "name": "transferOwnership",
            "inputs": [
                {
                    "name": "newOwner",
                    "type": "address",
                    "internalType": "address"
                }
            ],
            "outputs": [],
            "stateMutability": "nonpayable"
        },
        {
            "type": "function",
            "name": "treasury",
            "inputs": [],
            "outputs": [
                {
                    "name": "totalStaked",
                    "type": "uint256",
                    "internalType": "uint256"
                },
                {
                    "name": "stakeRewardsFactor",
                    "type": "uint256",
                    "internalType": "uint256"
                },
                {
                    "name": "totalOreShares",
                    "type": "uint256",
                    "internalType": "uint256"
                },
                {
                    "name": "minerRewardsFactor",
                    "type": "uint256",
                    "internalType": "uint256"
                },
                {
                    "name": "vaultEth",
                    "type": "uint256",
                    "internalType": "uint256"
                },
                {
                    "name": "motherlodeOre",
                    "type": "uint256",
                    "internalType": "uint256"
                }
            ],
            "stateMutability": "view"
        },
        {
            "type": "function",
            "name": "upgradeToAndCall",
            "inputs": [
                {
                    "name": "newImplementation",
                    "type": "address",
                    "internalType": "address"
                },
                {
                    "name": "data",
                    "type": "bytes",
                    "internalType": "bytes"
                }
            ],
            "outputs": [],
            "stateMutability": "payable"
        },
        {
            "type": "function",
            "name": "withdrawStake",
            "inputs": [
                {
                    "name": "amount",
                    "type": "uint256",
                    "internalType": "uint256"
                },
                {
                    "name": "to",
                    "type": "address",
                    "internalType": "address"
                }
            ],
            "outputs": [],
            "stateMutability": "nonpayable"
        },
        {
            "type": "function",
            "name": "wrap",
            "inputs": [
                {
                    "name": "target",
                    "type": "address",
                    "internalType": "address payable"
                },
                {
                    "name": "amount",
                    "type": "uint256",
                    "internalType": "uint256"
                }
            ],
            "outputs": [],
            "stateMutability": "nonpayable"
        },
        {
            "type": "event",
            "name": "AutomationBatchExecuted",
            "inputs": [
                {
                    "name": "roundId",
                    "type": "uint64",
                    "indexed": true,
                    "internalType": "uint64"
                },
                {
                    "name": "totalUsers",
                    "type": "uint256",
                    "indexed": false,
                    "internalType": "uint256"
                },
                {
                    "name": "successCount",
                    "type": "uint256",
                    "indexed": false,
                    "internalType": "uint256"
                },
                {
                    "name": "totalFee",
                    "type": "uint256",
                    "indexed": false,
                    "internalType": "uint256"
                },
                {
                    "name": "timestamp",
                    "type": "uint64",
                    "indexed": false,
                    "internalType": "uint64"
                }
            ],
            "anonymous": false
        },
        {
            "type": "event",
            "name": "AutomationExecuted",
            "inputs": [
                {
                    "name": "user",
                    "type": "address",
                    "indexed": true,
                    "internalType": "address"
                },
                {
                    "name": "mask",
                    "type": "uint256",
                    "indexed": false,
                    "internalType": "uint256"
                },
                {
                    "name": "totalCost",
                    "type": "uint256",
                    "indexed": false,
                    "internalType": "uint256"
                },
                {
                    "name": "timestamp",
                    "type": "uint64",
                    "indexed": false,
                    "internalType": "uint64"
                }
            ],
            "anonymous": false
        },
        {
            "type": "event",
            "name": "AutomationUpdated",
            "inputs": [
                {
                    "name": "user",
                    "type": "address",
                    "indexed": true,
                    "internalType": "address"
                },
                {
                    "name": "cfg",
                    "type": "tuple",
                    "indexed": false,
                    "internalType": "struct OreProtocol.Automation",
                    "components": [
                        {
                            "name": "owner",
                            "type": "address",
                            "internalType": "address"
                        },
                        {
                            "name": "balance",
                            "type": "uint256",
                            "internalType": "uint256"
                        },
                        {
                            "name": "mask",
                            "type": "uint256",
                            "internalType": "uint256"
                        },
                        {
                            "name": "amountPerSquare",
                            "type": "uint256",
                            "internalType": "uint256"
                        },
                        {
                            "name": "randomizeMask",
                            "type": "bool",
                            "internalType": "bool"
                        },
                        {
                            "name": "active",
                            "type": "bool",
                            "internalType": "bool"
                        }
                    ]
                },
                {
                    "name": "timestamp",
                    "type": "uint64",
                    "indexed": false,
                    "internalType": "uint64"
                }
            ],
            "anonymous": false
        },
        {
            "type": "event",
            "name": "BuryEvent",
            "inputs": [
                {
                    "name": "amountIn",
                    "type": "uint256",
                    "indexed": false,
                    "internalType": "uint256"
                },
                {
                    "name": "oreReceived",
                    "type": "uint256",
                    "indexed": false,
                    "internalType": "uint256"
                },
                {
                    "name": "stakerShare",
                    "type": "uint256",
                    "indexed": false,
                    "internalType": "uint256"
                },
                {
                    "name": "burned",
                    "type": "uint256",
                    "indexed": false,
                    "internalType": "uint256"
                },
                {
                    "name": "router",
                    "type": "address",
                    "indexed": false,
                    "internalType": "address"
                },
                {
                    "name": "timestamp",
                    "type": "uint64",
                    "indexed": false,
                    "internalType": "uint64"
                }
            ],
            "anonymous": false
        },
        {
            "type": "event",
            "name": "CheckpointEvent",
            "inputs": [
                {
                    "name": "roundId",
                    "type": "uint64",
                    "indexed": true,
                    "internalType": "uint64"
                },
                {
                    "name": "miner",
                    "type": "address",
                    "indexed": true,
                    "internalType": "address"
                },
                {
                    "name": "ethReward",
                    "type": "uint256",
                    "indexed": false,
                    "internalType": "uint256"
                },
                {
                    "name": "oreReward",
                    "type": "uint256",
                    "indexed": false,
                    "internalType": "uint256"
                },
                {
                    "name": "bot",
                    "type": "address",
                    "indexed": false,
                    "internalType": "address"
                },
                {
                    "name": "timestamp",
                    "type": "uint64",
                    "indexed": false,
                    "internalType": "uint64"
                }
            ],
            "anonymous": false
        },
        {
            "type": "event",
            "name": "ClaimEth",
            "inputs": [
                {
                    "name": "miner",
                    "type": "address",
                    "indexed": true,
                    "internalType": "address"
                },
                {
                    "name": "roundId",
                    "type": "uint64",
                    "indexed": true,
                    "internalType": "uint64"
                },
                {
                    "name": "amount",
                    "type": "uint256",
                    "indexed": false,
                    "internalType": "uint256"
                },
                {
                    "name": "to",
                    "type": "address",
                    "indexed": false,
                    "internalType": "address"
                },
                {
                    "name": "timestamp",
                    "type": "uint64",
                    "indexed": false,
                    "internalType": "uint64"
                }
            ],
            "anonymous": false
        },
        {
            "type": "event",
            "name": "ClaimOre",
            "inputs": [
                {
                    "name": "miner",
                    "type": "address",
                    "indexed": true,
                    "internalType": "address"
                },
                {
                    "name": "roundId",
                    "type": "uint64",
                    "indexed": true,
                    "internalType": "uint64"
                },
                {
                    "name": "amount",
                    "type": "uint256",
                    "indexed": false,
                    "internalType": "uint256"
                },
                {
                    "name": "tax",
                    "type": "uint256",
                    "indexed": false,
                    "internalType": "uint256"
                },
                {
                    "name": "redistributed",
                    "type": "uint256",
                    "indexed": false,
                    "internalType": "uint256"
                },
                {
                    "name": "timestamp",
                    "type": "uint64",
                    "indexed": false,
                    "internalType": "uint64"
                }
            ],
            "anonymous": false
        },
        {
            "type": "event",
            "name": "ConfigUpdated",
            "inputs": [
                {
                    "name": "field",
                    "type": "bytes32",
                    "indexed": true,
                    "internalType": "bytes32"
                },
                {
                    "name": "timestamp",
                    "type": "uint64",
                    "indexed": false,
                    "internalType": "uint64"
                }
            ],
            "anonymous": false
        },
        {
            "type": "event",
            "name": "DeployEvent",
            "inputs": [
                {
                    "name": "roundId",
                    "type": "uint64",
                    "indexed": true,
                    "internalType": "uint64"
                },
                {
                    "name": "miner",
                    "type": "address",
                    "indexed": true,
                    "internalType": "address"
                },
                {
                    "name": "mask",
                    "type": "uint256",
                    "indexed": false,
                    "internalType": "uint256"
                },
                {
                    "name": "amountPerSquare",
                    "type": "uint256",
                    "indexed": false,
                    "internalType": "uint256"
                },
                {
                    "name": "totalAmount",
                    "type": "uint256",
                    "indexed": false,
                    "internalType": "uint256"
                },
                {
                    "name": "automation",
                    "type": "bool",
                    "indexed": false,
                    "internalType": "bool"
                },
                {
                    "name": "timestamp",
                    "type": "uint64",
                    "indexed": false,
                    "internalType": "uint64"
                }
            ],
            "anonymous": false
        },
        {
            "type": "event",
            "name": "EmergencyRefund",
            "inputs": [
                {
                    "name": "roundId",
                    "type": "uint64",
                    "indexed": true,
                    "internalType": "uint64"
                },
                {
                    "name": "totalDeployed",
                    "type": "uint256",
                    "indexed": false,
                    "internalType": "uint256"
                },
                {
                    "name": "timestamp",
                    "type": "uint64",
                    "indexed": false,
                    "internalType": "uint64"
                }
            ],
            "anonymous": false
        },
        {
            "type": "event",
            "name": "ExpiredRewardsClaimed",
            "inputs": [
                {
                    "name": "roundId",
                    "type": "uint64",
                    "indexed": true,
                    "internalType": "uint64"
                },
                {
                    "name": "unclaimedRewards",
                    "type": "uint256",
                    "indexed": false,
                    "internalType": "uint256"
                },
                {
                    "name": "unclaimedFees",
                    "type": "uint256",
                    "indexed": false,
                    "internalType": "uint256"
                },
                {
                    "name": "timestamp",
                    "type": "uint64",
                    "indexed": false,
                    "internalType": "uint64"
                }
            ],
            "anonymous": false
        },
        {
            "type": "event",
            "name": "Initialized",
            "inputs": [
                {
                    "name": "version",
                    "type": "uint64",
                    "indexed": false,
                    "internalType": "uint64"
                }
            ],
            "anonymous": false
        },
        {
            "type": "event",
            "name": "MotherlodeEvent",
            "inputs": [
                {
                    "name": "roundId",
                    "type": "uint64",
                    "indexed": true,
                    "internalType": "uint64"
                },
                {
                    "name": "amount",
                    "type": "uint256",
                    "indexed": false,
                    "internalType": "uint256"
                },
                {
                    "name": "timestamp",
                    "type": "uint64",
                    "indexed": false,
                    "internalType": "uint64"
                }
            ],
            "anonymous": false
        },
        {
            "type": "event",
            "name": "OwnershipTransferred",
            "inputs": [
                {
                    "name": "previousOwner",
                    "type": "address",
                    "indexed": true,
                    "internalType": "address"
                },
                {
                    "name": "newOwner",
                    "type": "address",
                    "indexed": true,
                    "internalType": "address"
                }
            ],
            "anonymous": false
        },
        {
            "type": "event",
            "name": "ResetEvent",
            "inputs": [
                {
                    "name": "roundId",
                    "type": "uint64",
                    "indexed": true,
                    "internalType": "uint64"
                },
                {
                    "name": "winningSquare",
                    "type": "uint8",
                    "indexed": false,
                    "internalType": "uint8"
                },
                {
                    "name": "winnings",
                    "type": "uint256",
                    "indexed": false,
                    "internalType": "uint256"
                },
                {
                    "name": "vaultShare",
                    "type": "uint256",
                    "indexed": false,
                    "internalType": "uint256"
                },
                {
                    "name": "splitReward",
                    "type": "bool",
                    "indexed": false,
                    "internalType": "bool"
                },
                {
                    "name": "motherlode",
                    "type": "bool",
                    "indexed": false,
                    "internalType": "bool"
                },
                {
                    "name": "topMiner",
                    "type": "address",
                    "indexed": false,
                    "internalType": "address"
                },
                {
                    "name": "numWinners",
                    "type": "uint256",
                    "indexed": false,
                    "internalType": "uint256"
                },
                {
                    "name": "motherlodePayout",
                    "type": "uint256",
                    "indexed": false,
                    "internalType": "uint256"
                },
                {
                    "name": "oreReward",
                    "type": "uint256",
                    "indexed": false,
                    "internalType": "uint256"
                },
                {
                    "name": "timestamp",
                    "type": "uint64",
                    "indexed": false,
                    "internalType": "uint64"
                }
            ],
            "anonymous": false
        },
        {
            "type": "event",
            "name": "ResetRequested",
            "inputs": [
                {
                    "name": "roundId",
                    "type": "uint64",
                    "indexed": true,
                    "internalType": "uint64"
                },
                {
                    "name": "requestId",
                    "type": "uint256",
                    "indexed": false,
                    "internalType": "uint256"
                },
                {
                    "name": "timestamp",
                    "type": "uint64",
                    "indexed": false,
                    "internalType": "uint64"
                }
            ],
            "anonymous": false
        },
        {
            "type": "event",
            "name": "RoundStarted",
            "inputs": [
                {
                    "name": "roundId",
                    "type": "uint64",
                    "indexed": true,
                    "internalType": "uint64"
                },
                {
                    "name": "startBlock",
                    "type": "uint64",
                    "indexed": false,
                    "internalType": "uint64"
                },
                {
                    "name": "endBlock",
                    "type": "uint64",
                    "indexed": false,
                    "internalType": "uint64"
                },
                {
                    "name": "timestamp",
                    "type": "uint64",
                    "indexed": false,
                    "internalType": "uint64"
                }
            ],
            "anonymous": false
        },
        {
            "type": "event",
            "name": "StakeClaimed",
            "inputs": [
                {
                    "name": "user",
                    "type": "address",
                    "indexed": true,
                    "internalType": "address"
                },
                {
                    "name": "to",
                    "type": "address",
                    "indexed": true,
                    "internalType": "address"
                },
                {
                    "name": "amount",
                    "type": "uint256",
                    "indexed": false,
                    "internalType": "uint256"
                },
                {
                    "name": "timestamp",
                    "type": "uint64",
                    "indexed": false,
                    "internalType": "uint64"
                }
            ],
            "anonymous": false
        },
        {
            "type": "event",
            "name": "StakeDeposited",
            "inputs": [
                {
                    "name": "user",
                    "type": "address",
                    "indexed": true,
                    "internalType": "address"
                },
                {
                    "name": "amount",
                    "type": "uint256",
                    "indexed": false,
                    "internalType": "uint256"
                },
                {
                    "name": "timestamp",
                    "type": "uint64",
                    "indexed": false,
                    "internalType": "uint64"
                }
            ],
            "anonymous": false
        },
        {
            "type": "event",
            "name": "StakeWithdrawn",
            "inputs": [
                {
                    "name": "user",
                    "type": "address",
                    "indexed": true,
                    "internalType": "address"
                },
                {
                    "name": "amount",
                    "type": "uint256",
                    "indexed": false,
                    "internalType": "uint256"
                },
                {
                    "name": "timestamp",
                    "type": "uint64",
                    "indexed": false,
                    "internalType": "uint64"
                }
            ],
            "anonymous": false
        },
        {
            "type": "event",
            "name": "Upgraded",
            "inputs": [
                {
                    "name": "implementation",
                    "type": "address",
                    "indexed": true,
                    "internalType": "address"
                }
            ],
            "anonymous": false
        },
        {
            "type": "event",
            "name": "VRFConfigUpdated",
            "inputs": [
                {
                    "name": "keyHash",
                    "type": "bytes32",
                    "indexed": false,
                    "internalType": "bytes32"
                },
                {
                    "name": "subId",
                    "type": "uint64",
                    "indexed": false,
                    "internalType": "uint64"
                },
                {
                    "name": "minConf",
                    "type": "uint16",
                    "indexed": false,
                    "internalType": "uint16"
                },
                {
                    "name": "gasLimit",
                    "type": "uint32",
                    "indexed": false,
                    "internalType": "uint32"
                },
                {
                    "name": "timestamp",
                    "type": "uint64",
                    "indexed": false,
                    "internalType": "uint64"
                }
            ],
            "anonymous": false
        },
        {
            "type": "event",
            "name": "VaultWithdraw",
            "inputs": [
                {
                    "name": "target",
                    "type": "address",
                    "indexed": true,
                    "internalType": "address"
                },
                {
                    "name": "amount",
                    "type": "uint256",
                    "indexed": false,
                    "internalType": "uint256"
                },
                {
                    "name": "timestamp",
                    "type": "uint64",
                    "indexed": false,
                    "internalType": "uint64"
                }
            ],
            "anonymous": false
        },
        {
            "type": "error",
            "name": "AddressEmptyCode",
            "inputs": [
                {
                    "name": "target",
                    "type": "address",
                    "internalType": "address"
                }
            ]
        },
        {
            "type": "error",
            "name": "AlreadyCheckpointed",
            "inputs": []
        },
        {
            "type": "error",
            "name": "AlreadyDeployedThisRound",
            "inputs": []
        },
        {
            "type": "error",
            "name": "AlreadyFinalized",
            "inputs": []
        },
        {
            "type": "error",
            "name": "AutomationAlreadyActive",
            "inputs": []
        },
        {
            "type": "error",
            "name": "AutomationConflictWithManualBet",
            "inputs": []
        },
        {
            "type": "error",
            "name": "AutomationInactive",
            "inputs": []
        },
        {
            "type": "error",
            "name": "AutomationNotAuthorized",
            "inputs": []
        },
        {
            "type": "error",
            "name": "ClaimWindowPassed",
            "inputs": []
        },
        {
            "type": "error",
            "name": "ERC1967InvalidImplementation",
            "inputs": [
                {
                    "name": "implementation",
                    "type": "address",
                    "internalType": "address"
                }
            ]
        },
        {
            "type": "error",
            "name": "ERC1967NonPayable",
            "inputs": []
        },
        {
            "type": "error",
            "name": "FailedCall",
            "inputs": []
        },
        {
            "type": "error",
            "name": "GameAlreadyStarted",
            "inputs": []
        },
        {
            "type": "error",
            "name": "GameNotStarted",
            "inputs": []
        },
        {
            "type": "error",
            "name": "InsufficientAutomationBalance",
            "inputs": []
        },
        {
            "type": "error",
            "name": "InsufficientVault",
            "inputs": []
        },
        {
            "type": "error",
            "name": "InvalidAmount",
            "inputs": []
        },
        {
            "type": "error",
            "name": "InvalidInitialization",
            "inputs": []
        },
        {
            "type": "error",
            "name": "InvalidMask",
            "inputs": []
        },
        {
            "type": "error",
            "name": "InvalidMask",
            "inputs": []
        },
        {
            "type": "error",
            "name": "InvalidRouter",
            "inputs": []
        },
        {
            "type": "error",
            "name": "MustCheckpointPreviousRound",
            "inputs": []
        },
        {
            "type": "error",
            "name": "NotBuryAuthority",
            "inputs": []
        },
        {
            "type": "error",
            "name": "NotInitializing",
            "inputs": []
        },
        {
            "type": "error",
            "name": "NothingToClaim",
            "inputs": []
        },
        {
            "type": "error",
            "name": "OnlyCoordinatorCanFulfill",
            "inputs": [
                {
                    "name": "have",
                    "type": "address",
                    "internalType": "address"
                },
                {
                    "name": "want",
                    "type": "address",
                    "internalType": "address"
                }
            ]
        },
        {
            "type": "error",
            "name": "OwnableInvalidOwner",
            "inputs": [
                {
                    "name": "owner",
                    "type": "address",
                    "internalType": "address"
                }
            ]
        },
        {
            "type": "error",
            "name": "OwnableUnauthorizedAccount",
            "inputs": [
                {
                    "name": "account",
                    "type": "address",
                    "internalType": "address"
                }
            ]
        },
        {
            "type": "error",
            "name": "PleaseWaitForVRF",
            "inputs": []
        },
        {
            "type": "error",
            "name": "RandomnessNotReady",
            "inputs": []
        },
        {
            "type": "error",
            "name": "RandomnessPending",
            "inputs": []
        },
        {
            "type": "error",
            "name": "ReentrancyGuardReentrantCall",
            "inputs": []
        },
        {
            "type": "error",
            "name": "RoundNotLive",
            "inputs": []
        },
        {
            "type": "error",
            "name": "UUPSUnauthorizedCallContext",
            "inputs": []
        },
        {
            "type": "error",
            "name": "UUPSUnsupportedProxiableUUID",
            "inputs": [
                {
                    "name": "slot",
                    "type": "bytes32",
                    "internalType": "bytes32"
                }
            ]
        }
    ],
    "bytecode": {
        "object": "0x60a080604052346100c257306080525f51602061541e5f395f51905f525460ff8160401c166100b3576002600160401b03196001600160401b03821601610060575b60405161535790816100c7823960805181818161292801526129f70152f35b6001600160401b0319166001600160401b039081175f51602061541e5f395f51905f525581527fc7f505b2f371ae2175ee4913f4499e1f2633a7b5936321eed1cdaeb6115181d290602090a15f80610041565b63f92ee8a960e01b5f5260045ffd5b5f80fdfe60806040526004361015610011575f80fd5b5f5f3560e01c8063078b0fb7146136485780630917e7761461362b5780630a009097146136065780630f3e2f51146133225780631325a6d61461329957806316934fc4146132375780631fe543e314612ce1578063228f384514612c5657806323a8bdca146128ca5780633141e25b14612bb957806341a027aa14612b875780634f1ef2861461297c57806352d1902d1461291657806361d027b3146128ca57806366c90c5a146127b8578063676a63001461268157806368bae2f5146125ab5780636c46376d1461243e5780636c6804a7146122af5780636c718385146121e65780636db8b42d146120b8578063715018a6146120645780637655bf501461203557806377329f3514611d8d57806379502c5514611d1c5780637cd3229a14611ca3578063805ccb3e14611bd957806384bf220a14611b6b57806384d452ff14611a9f5780638da5cb5b14611a6a5780638fd2040d146119da578063937a0077146119b1578063940d1f2f146119945780639dd373b91461194f578063a488dcdf146118ef578063a97958c1146117e2578063ad3cb1cc14611795578063b03fd74514611777578063b762e3431461174e578063b9ad4357146116ce578063bc3ac8751461159d578063befdd1ff1461111a578063bf376c7a14610fc8578063cb70ffef14610d77578063cb82cc8f14610c1d578063d65ab5f214610bd4578063db326efc14610b21578063db8343061461091c578063e209e30b146107e3578063e40fd076146107ba578063e58306f91461072a578063edb39d7014610603578063ee99205c146105da578063f2fde38b146105ad5763f921e65c14610277575f80fd5b346105aa5760203660031901126105aa5760406108a091610296613878565b82516102a1816137ae565b82815282602082015282848201528260608201528260808201528260a08201528260c08201528260e08201528261010082015282610120820152826101408201528261016082015282610180820152826101a0820152826101c0820152826101e082015282610200820152826102208201528261024082015261028061032091855161032d84826137ca565b8336823761026082015285519261034481856137ca565b3684370152600180841b0316815260426020522061047460246040519261036a846137ae565b80546001600160401b038082168652604082811c82166020880152608083811c9092169087015260c091821c6060870152600183015490860152600282015460a080870191909152600383015482870152600483015460ff90811660e0880152600584015461010088015260068401546101208801526007840154610140880152600884015461016088015260098401546001600160a01b0381166101808901529182901c811615156101a088015260a882901c811615156101c088015260b082901c811615156101e088015260b882901c81161515610200880152911c161515610220850152600a810154610240850152610468600b8201614060565b61026085015201614060565b6102808201526105a86102806040519260018060401b03815116845260018060401b03602082015116602085015260018060401b03604082015116604085015260018060401b0360608201511660608501526080810151608085015260a081015160a085015260c081015160c085015260ff60e08201511660e085015261010081015161010085015261012081015161012085015261014081015161014085015261016081015161016085015260018060a01b03610180820151166101808501526101a081015115156101a08501526101c081015115156101c08501526101e081015115156101e08501526102008101511515610200850152610220810151151561022085015261024081015161024085015261059b6102608201516102608601906138f4565b01516105808301906138f4565bf35b80fd5b50346105aa5760203660031901126105aa576105d76105ca6136d7565b6105d26140cd565b614002565b80f35b50346105aa57806003193601126105aa576041546040516001600160a01b039091168152602090f35b50346105aa5760203660031901126105aa5761061d6136d7565b610625614095565b33825260466020526040822080549091906001600160a01b03161561071b578290610654600184015493613e45565b923383526046602052826004604082208281558260018201558260028201558260038201550155806106c9575b505050610691604051809261388e565b426001600160401b031660c082015233905f5160206152025f395f51905f529060e090a260015f5160206152c25f395f51905f525580f35b8291829182916001600160a01b03165af16106e26139ff565b50156106f057815f80610681565b606460405162461bcd60e51b81526020600482015260046024820152631cd95b9960e21b6044820152fd5b631fc2483d60e11b8352600483fd5b50346105aa5760403660031901126105aa57806107456136d7565b61074d6140cd565b6032546001600160a01b0316803b156107b6576040516340c10f1960e01b81529183918391829084908290610789906024359060048401613aa1565b03925af180156107ab5761079a5750f35b816107a4916137ca565b6105aa5780f35b6040513d84823e3d90fd5b5050fd5b50346105aa57806003193601126105aa576035546040516001600160a01b039091168152602090f35b5060c03660031901126105aa576107f8614095565b3381526046602052604081206004810160ff815460081c1661090d5761081c613f7b565b156108fc5760ff6044351680159081156108f1575b506108e2575b81546001600160a01b031916331782556044356002830155606435600383015561085f613f7b565b151560ff8019835416911617815560a435801515908181036108de575061ff0082549160081b169061ff0019161790556001810161089e348254613959565b90555f5160206152025f395f51905f52604051806108c7339460018060401b0342169083613f8a565b0390a260015f5160206152c25f395f51905f525580f35b8480fd5b63bf3cad0b60e01b8352600483fd5b60199150115f610831565b610907604435614371565b50610837565b63019b5d0960e71b8352600483fd5b50346105aa5760403660031901126105aa57610936613878565b9061093f6136ed565b909182916001600160401b039091169082906001600160a01b0316815b60ff811660198110156109b757848652604460205260408620835f5260205260405f20815f5260205260405f205461099b575b5060010160ff1661095c565b6109af60ff929794600180931b1794613f6a565b96915061098f565b5050929160ff8516916109c9836137ed565b946109d760405196876137ca565b8386526109e3846137ed565b602087019590601f1901368737610a126109fc866137ed565b95610a0a60405197886137ca565b8087526137ed565b602086019490601f19013686378194825b60ff81166019811015610a9a57838552604460205260408520865f5260205260405f20815f526020528a60405f20549182610a67575b50505060010160ff16610a23565b98600192610a8a610a909360ff969c610a838886168093613997565b528d613997565b52613f6a565b9791508a8c610a59565b868b84878d8d604051958695606087019187526060602088015251809152608086019290845b818110610b0557505050602090858303604087015251918281520192915b818110610aec575050500390f35b8251845285945060209384019390920191600101610ade565b825160ff16855288975060209485019490920191600101610ac0565b50346105aa5760203660031901126105aa57610b3b6136d7565b610b43614095565b610b4b6140cd565b610b5481614100565b610bc5577f26a8dc2b9ccf97caf32e8010963836ad2f7d6132fdabd4c91e71a62fca98d96c6060610b8483613b5d565b604080519182526020820192909252426001600160401b0316918101919091526001600160a01b0390931692a260015f5160206152c25f395f51905f525580f35b630e83a11b60e21b8252600482fd5b50346105aa57806003193601126105aa57610bed6140cd565b60335460ff8160b01c16610c0e5760ff60b01b1916600160b01b1760335580f35b63ba26162b60e01b8252600482fd5b50346105aa5760203660031901126105aa57600435610c3a614095565b8015610d6857338252604760205260408220610c55816146fa565b610c60828254613959565b9055610c6e81603a54613959565b603a556032546040516323b872dd60e01b815233600482015230602482015260448101839052906020908290606490829087906001600160a01b03165af1908115610d5d578391610d2e575b5015610cfa577f6e69bcfef2c5fa29f8823f7e916f754a10da9af7a9e99467cae256619820a9d0604051806108c7339460018060401b0342169083613af3565b60405162461bcd60e51b815260206004820152600c60248201526b7472616e7366657246726f6d60a01b6044820152606490fd5b610d50915060203d602011610d56575b610d4881836137ca565b810190613a89565b5f610cba565b503d610d3e565b6040513d85823e3d90fd5b63162908e360e11b8252600482fd5b50346105aa5760203660031901126105aa57610d91613878565b610d996140cd565b610da1614095565b6001600160401b0316808252604260205260408220600981018054919060a083901c60ff1615610f9a5760ff8360a81c16610f6f576033546001600160401b03168403610f3f5760018060401b03825460801c16611c208101809111610f2b57431115610efa577f9a2d5cccb5b401ebca38c9f2398ac9f3dbcd48391922c21aa633689eb409535e92600160a81b9061ffff60a01b1916179055836008600183019282845494558260028201558260038201556004810160ff8019825416179055826005820155826006820155015560018060401b03421690835f5160206152625f395f51905f5261014060405160ff81528860208201528860408201528860608201528860808201528860a08201528860c08201528860e08201528861010082015285610120820152a2610edb60405192839283613af3565b0390a2610ee6614ee4565b60015f5160206152c25f395f51905f525580f35b60405162461bcd60e51b8152602060048201526009602482015268546f6f206561726c7960b81b6044820152606490fd5b634e487b7160e01b86526011600452602486fd5b60405162461bcd60e51b81526020600482015260086024820152670858dd5c9c995b9d60c21b6044820152606490fd5b606460405162461bcd60e51b8152602060048201526004602482015263446f6e6560e01b6044820152fd5b60405162461bcd60e51b81526020600482015260066024820152652737902b292360d11b6044820152606490fd5b50346105aa5760403660031901126105aa57610fe26136d7565b60243590610fee6140cd565b610ff6614095565b6001600160a01b03169081156110e45780156110b157603e548082116110a257816110209161391b565b603e5582808080848661c350f16110356139ff565b5015611077576040517f2fd5dc1cae0aeef727e9349fc28f7cd04ce60073a57be16a0268ea704462b5519181906108c790426001600160401b03169083613af3565b606460405162461bcd60e51b81526020600482015260046024820152630777261760e41b6044820152fd5b631b74457560e31b8452600484fd5b60405162461bcd60e51b815260206004820152600b60248201526a16995c9bc8185b5bdd5b9d60aa1b6044820152606490fd5b60405162461bcd60e51b815260206004820152600e60248201526d125b9d985b1a59081d185c99d95d60921b6044820152606490fd5b50346105aa576101a03660031901126105aa576040516101a081016001600160401b03811182821017611589576040526111526136d7565b815261115c6136ed565b6020820190815261116b613703565b6040830190815260643592906001600160a01b03841684036108de5760608201938452608435936001600160a01b0385168503611585576080830194855260a0830160a435815260c084019160c435835260e4359361ffff851685036115815760e08601948552610104359663ffffffff8816880361157d5761010087019788526101243563ffffffff81168103611579576101208801908152610144359063ffffffff82168203611575576101408901918252610164359161ffff83168303611571576101608a019283526101843561ffff8116810361156d576101808b019081525f5160206152e25f395f51905f5254604081901c60ff16159d906001600160401b03168015908f82611565575b50600114908161155b575b159081611552575b50611543575f5160206152e25f395f51905f5280546001600160401b03191660011790558d61151f575b8b516001600160a01b0316156114f2576112d06150cb565b6112d86150cb565b6112e133614002565b6112e96150cb565b6112f16150cb565b60015f5160206152c25f395f51905f525561130a6150cb565b80516001600160a01b03169b61131e6150cb565b8c156114a1578f61ffff9d60018060a01b031982541617905560018060a01b0390511660018060a01b0319603254161760325560018060a01b0390511660018060a01b031960405416176040556033549263ffffffff60401b905160401b169163ffffffff60601b905160601b16938b60801b905160801b16908b60901b905160901b169160ff60b01b1994601960a21b948d60a01b19928e60901b199160018060901b031916171617161717171660335560018060a01b0390511660018060a01b0319603454161760345560018060a01b0390511660018060a01b0319603554161760355560018060a01b0390511660018060a01b031960365416176036555160375551603855511665ffffffff0000603954925160101b169165ffffffffffff1916171760395561144e5780f35b60ff60401b195f5160206152e25f395f51905f5254165f5160206152e25f395f51905f52557fc7f505b2f371ae2175ee4913f4499e1f2633a7b5936321eed1cdaeb6115181d2602060405160018152a180f35b60405162461bcd60e51b815260206004820152602360248201527f6d75737420676976652076616c696420636f6f7264696e61746f72206164647260448201526265737360e81b6064820152608490fd5b60405162461bcd60e51b81526020600482015260056024820152643a37b5b2b760d91b6044820152606490fd5b5f5160206152e25f395f51905f52805460ff60401b1916600160401b1790556112b8565b63f92ee8a960e01b8f5260048ffd5b9050155f61128e565b303b159150611286565b91508f61127b565b8d80fd5b8c80fd5b8b80fd5b8a80fd5b8980fd5b8880fd5b8580fd5b634e487b7160e01b83526041600452602483fd5b50346105aa5760203660031901126105aa57610260906040906001600160401b036115c6613878565b16815260426020522080549060ff60018201549160028101546003820154836004840154166005840154600685015491600786015493600887015495600a6009890154980154996040519b60018060401b0381168d528c602060018060401b038360401c169101528c6040600180821b038360801c1691015260c01c60608d015260808c015260a08b015260c08a015260e089015261010088015261012087015261014086015261016085015260018060a01b038116610180850152818160a01c1615156101a0850152818160a81c1615156101c0850152818160b01c1615156101e0850152818160b81c16151561020085015260c01c161515610220830152610240820152f35b50346105aa5760203660031901126105aa5760c0906040906001600160a01b036116f66136d7565b16815260466020522060ff60018060a01b0382541691600181015490600281015460046003830154920154926040519586526020860152604085015260608401528181161515608084015260081c16151560a0820152f35b50346105aa57806003193601126105aa576036546040516001600160a01b039091168152602090f35b50346105aa57806003193601126105aa576020603e54604051908152f35b50346105aa57806003193601126105aa57506117de6040516117b86040826137ca565b60058152640352e302e360dc1b60208201526040519182916020835260208301906138d0565b0390f35b50346105aa5760203660031901126105aa576001600160401b03611804613878565b1680825260426020526040822061182460ff600983015460a81c16613b0c565b60ff60048201541691835260496020526040832060ff83165f526020528160405f20805490611852826137ed565b9561186060405197886137ca565b82875290815260208082209087015b8383106118b35750505050600b6118869201613b4e565b90549060031b1c6118a96040519384938452606060208501526060840190613830565b9060408301520390f35b6001919293945060206002916040516118cb81613778565b848060a01b038654168152848601548382015281520192019201909185939261186f565b50346105aa5760203660031901126105aa57604154600435906001600160a01b0316330361194057603e54818110611931579061192b9161391b565b603e5580f35b631b74457560e31b8352600483fd5b6360c4e54360e01b8252600482fd5b50346105aa5760203660031901126105aa576119696136d7565b6119716140cd565b604180546001600160a01b0319166001600160a01b039290921691909117905580f35b50346105aa5760203660031901126105aa576105d7600435613e9a565b50346105aa57806003193601126105aa576032546040516001600160a01b039091168152602090f35b50346105aa5760403660031901126105aa5760406119f6613878565b916119ff6136ed565b92600180841b031681526043602052209060018060a01b03165f5260205260c060405f208054906001810154906002810154600460038301549201549260ff604051958181161515875260081c161515602086015260408501526060840152608083015260a0820152f35b50346105aa57806003193601126105aa575f5160206151e25f395f51905f52546040516001600160a01b039091168152602090f35b50346105aa57806003193601126105aa57611ab8614095565b6033546001600160401b03908116825260426020526040808320805492909183901c1615611b5c576009015460ff8160a01c16611b4d5760a81c60ff16611b3e5760801c6001600160401b0316431115611b2f576020611b16614ce9565b60015f5160206152c25f395f51905f5255604051908152f35b631328d40b60e31b8152600490fd5b63475a253560e01b8252600482fd5b63319b714360e01b8352600483fd5b631328d40b60e31b8352600483fd5b50346105aa5760203660031901126105aa57611bcc604060c092611b8d6136d7565b8160a08451611b9b81613793565b8281528260208201528286820152826060820152826080820152015260018060a01b03168152604660205220613e45565b6105a8604051809261388e565b50346105aa5760803660031901126105aa576024356001600160401b0381169060043590829003611c9f57611c0c61381f565b9060643563ffffffff811690818103611585577f5c52bd2211f9edb1ae3b3e5d1da8da87ccc689755cd68f9256ddc9f3bd224ca69461ffff60a095611c4f6140cd565b856037558260385516918265ffffffff00006039549260101b169165ffffffffffff1916171760395560405193845260208401526040830152606082015260018060401b0342166080820152a180f35b8280fd5b50346105aa57806003193601126105aa5760e060335460ff6040519160018060401b038116835263ffffffff8160401c16602084015263ffffffff8160601c16604084015261ffff8160801c16606084015261ffff8160901c16608084015261ffff8160a01c1660a084015260b01c16151560c0820152f35b50346105aa57806003193601126105aa57603454603554603654603754603854603954604080516001600160a01b039788168152958716602087015293909516928401929092526060830152608082015261ffff821660a082015260109190911c63ffffffff1660c082015260e090f35b5034611f66576020366003190112611f6657611da76136d7565b611daf614095565b5f611db9336142ba565b335f52604860205260405f20918254928315918215611fdb575b611ddc82614c82565b600182019182549160028201918254928415801590611fd2575b611e43575b50505050505080611e3b575b611e2c576040925060015f5160206152c25f395f51905f525582519182526020820152f35b6312d37ee560e31b8352600483fd5b508015611e07565b60039293949597505f9081603c5499888b118214611fc857611e7d600a8a04995b611e778a611e728d8461391b565b613959565b9c61391b565b603c555555603d549182910155831590811580611fbd575b611f6a575b50506032546001600160a01b031690813b15611f66576040516340c10f1960e01b81526001600160a01b03909116600482015260248101869052905f908290604490829084905af18015611f5b57611f44575b50604080518581526020810193909352820152426001600160401b03166060820152849033907f293210df7133869cdf9d637b506f04baa720687df15b352be9074ccf5e520a4890608090a35f8080808080611dfb565b611f52919296505f906137ca565b5f94905f611eed565b6040513d5f823e3d90fd5b5f80fd5b670de0b6b3a7640000850291858304670de0b6b3a7640000141715611fa957611f99611f9f92603c549061393b565b90613959565b603d555f80611e9a565b634e487b7160e01b5f52601160045260245ffd5b50603c541515611e95565b611e7d8299611e64565b50831515611df6565b5f80835561200190808080896001600160a01b0387165af1611ffb6139ff565b50613a2e565b6040515f9033905f5160206152225f395f51905f52908061202d426001600160401b0316878c84613a60565b0390a3611dd3565b34611f66576020366003190112611f665760406120586120536136d7565b613b5d565b82519182526020820152f35b34611f66575f366003190112611f665761207c6140cd565b5f5160206151e25f395f51905f5280546001600160a01b031981169091555f906001600160a01b03165f5160206152825f395f51905f528280a3005b34611f66576040366003190112611f66576120d1613878565b6024359060ff821690818303611f665760198210156121b05760018060401b031690815f52604960205260405f20905f5260205260405f20908154612115816137ed565b9261212360405194856137ca565b81845260208401905f5260205f205f915b83831061217c576121728661215789885f526042602052600b60405f2001613b4e565b90549060031b1c604051928392604084526040840190613830565b9060208301520390f35b6002602060019260405161218f81613778565b848060a01b0386541681528486015483820152815201920192019190612134565b60405162461bcd60e51b815260206004820152600e60248201526d496e76616c69642073717561726560901b6044820152606490fd5b34611f66576040366003190112611f66576121ff613878565b6122076136ed565b61220f614095565b6001600160401b0382165f8181526042602052604090206009015460a81c60ff16156122a0575f52604360205260405f2060018060a01b0382165f5260205260405f205460ff81166122915760081c60ff16156122825761226f9161477b565b60015f5160206152c25f395f51905f5255005b6312d37ee560e31b5f5260045ffd5b63cdda955f60e01b5f5260045ffd5b637b91e42d60e11b5f5260045ffd5b34611f66576040366003190112611f66576122c8613878565b6024356001600160401b038111611f66576122e7903690600401613719565b91906122f1614095565b6001600160401b0382165f8181526042602052604090206009015490939060a81c60ff16156122a057612323816137ed565b9361233160405195866137ca565b81855261233d826137ed565b602086019490601f19013686375f92835b8185106123ac57868860015f5160206152c25f395f51905f5255604051918291602083019060208452518091526040830191905f5b818110612391575050500390f35b82511515845285945060209384019390920191600101612383565b6123bf6123ba868489613966565b613976565b845f52604360205260405f2060018060a01b0382165f5260205260405f205460ff811690811561242f575b50612419576001916123ff612410928661477b565b8261240a888c613997565b526139ab565b945b019361234e565b5093805f6124296001938b613997565b52612412565b60ff915060081c16158a6123ea565b34611f66575f366003190112611f66576033546001600160401b03166001811115612571575f19016001600160401b038111611fa95760018060401b0316805f52604260205260405f209061249c60ff600984015460a81c16613b0c565b60ff60048301541691815f52604960205260405f2060ff84165f5260205260405f20908382546124cb816137ed565b936124d960405195866137ca565b81855260208501905f5260205f205f915b838310612535575050505061250590600b61252b9301613b4e565b90549060031b1c9160405194859485526020850152608060408501526080840190613830565b9060608301520390f35b60019192939450602060029160405161254d81613778565b848060a01b03865416815284860154838201528152019201920190918793926124ea565b60405162461bcd60e51b8152602060048201526012602482015271139bc818dbdb5c1b195d1959081c9bdd5b9960721b6044820152606490fd5b34611f66576080366003190112611f665760043563ffffffff81168103611f665760243563ffffffff81168103611f66576125e461381f565b906064359261ffff84168403611f66576125fc6140cd565b6033805460809490941b61ffff60801b1660609390931b63ffffffff60601b16600160401b600160a01b0319909416604092831b63ffffffff60401b1617939093179190911760909390931b61ffff60901b1692909217905551426001600160401b03168152641c9bdd5b9960da1b905f5160206152a25f395f51905f5290602090a2005b34611f66576040366003190112611f665760043561269d6136ed565b6126a5614095565b335f52604760205260405f2090821580156127ae575b61279f5782602091836126d0612715956146fa565b6126db83825461391b565b90556126e982603a5461391b565b603a5560018060a01b0360325416905f60405180968195829463a9059cbb60e01b845260048401613aa1565b03925af18015611f5b57612730915f91612780575b50613abc565b7f8c0f54c84dcdcf847dcfa91c4e1067d4790cc58e55568bbc06739ab390e8e3e16040518061276a339460018060401b0342169083613af3565b0390a260015f5160206152c25f395f51905f5255005b612799915060203d602011610d5657610d4881836137ca565b8361272a565b63162908e360e11b5f5260045ffd5b50815483116126bb565b34611f66576020366003190112611f66576127d16136d7565b6127d9614095565b335f526047602052600160405f206127f0816146fa565b018054908115612282575f905560018060a01b0360325416916020604051809463a9059cbb60e01b8252815f8161282b888860048401613aa1565b03925af1928315611f5b57602093612849915f916128ad5750613abc565b6040516001600160a01b039091169033907f0c21507e8db42a7a9af587ae7495dda456eafb18bfd3903be62b511e7399ab5f9080612891426001600160401b03168783613af3565b0390a360015f5160206152c25f395f51905f5255604051908152f35b6128c49150853d8711610d5657610d4881836137ca565b8561272a565b34611f66575f366003190112611f6657603a54603b54603c54603d54603e54603f54604080519687526020870195909552938501929092526060840152608083015260a082015260c090f35b34611f66575f366003190112611f66577f00000000000000000000000000000000000000000000000000000000000000006001600160a01b0316300361296d5760206040515f5160206152425f395f51905f528152f35b63703e46dd60e11b5f5260045ffd5b6040366003190112611f66576129906136d7565b602435906001600160401b038211611f665736602383011215611f66578160040135906129bc82613804565b916129ca60405193846137ca565b80835260208301933660248383010111611f6657815f926024602093018737840101526001600160a01b037f000000000000000000000000000000000000000000000000000000000000000016308114908115612b65575b5061296d57612a2f6140cd565b6040516352d1902d60e01b81526001600160a01b0382169390602081600481885afa5f9181612b31575b50612a715784634c9c8ce360e01b5f5260045260245ffd5b805f5160206152425f395f51905f52869203612b1f5750823b15612b0d575f5160206152425f395f51905f5280546001600160a01b031916821790557fbc7cd75a20ee27fd9adebab32041f755214dbc6bffa90cc0225b39da2e5c2d3b5f80a2825115612af4575f8091612af2945190845af4612aec6139ff565b91615183565b005b50505034612afe57005b63b398979f60e01b5f5260045ffd5b634c9c8ce360e01b5f5260045260245ffd5b632a87526960e21b5f5260045260245ffd5b9091506020813d602011612b5d575b81612b4d602093836137ca565b81010312611f6657519086612a59565b3d9150612b40565b5f5160206152425f395f51905f52546001600160a01b03161415905084612a22565b34611f66576020366003190112611f66576004355f526045602052602060018060401b0360405f205416604051908152f35b34611f66576060366003190112611f6657612bd26136d7565b612bda6136ed565b612be2613703565b91612beb6140cd565b603480546001600160a01b03199081166001600160a01b039384161790915560358054821693831693909317909255603680549092169216919091179055604051426001600160401b0316815263636f726560e01b905f5160206152a25f395f51905f5290602090a2005b34611f66576020366003190112611f6657612c6f6136d7565b612c77614095565b612c80336142ba565b335f52604860205260405f208054908115612282575f90819055602092612cb982808080876001600160a01b0387165af1611ffb6139ff565b5f5160206152225f395f51905f5260405180612891339460018060401b034216908884613a60565b34611f66576040366003190112611f66576004356024356001600160401b038111611f665736602382011215611f6657806004013590612d20826137ed565b91612d2e60405193846137ca565b8083526024602084019160051b83010191368311611f6657602401905b8282106132275750505f546001600160a01b031690503381900361321157505f828152604560205260409020546001600160401b03169182156122a0575f52604560205260405f2060018060401b03198154169055815f52604260205260405f206009810190815460ff8160a81c166132025761ffff60a01b1916600160a81b178255603354612de49060601c63ffffffff1643613959565b81546001600160c01b031660c09190911b6001600160c01b0319161781556019612e0d8461398a565b510660ff60048301911660ff198254161781556001612e2b8561398a565b51845460ff60b01b191660089190911c919091161560b01b60ff60b01b16178355610271612e588561398a565b51845460ff60b81b1916600c9190911c919091061560b81b60ff60b81b1617835560018201548154612e909060ff16600b8501613b4e565b90549060031b1c8060648304928181115f146131f757612ebd91612eb39161391b565b606481049061391b565b90612ecc600a8304809361391b565b60038601838155875460ff60c01b1916885597909190816130ad575050855461ffff60b01b191686555f600586018190556006860181905560078601819055600886015585546001600160a01b0319168655612f3791612f2c9190613959565b808755603e54613959565b603e555f60028401555b80612fff575b50905f5160206152625f395f51905f529360ff6101409493541692612f6f8460248501613b4e565b90549060031b1c905460ff8160b01c16805f14612ff4576005850154945b60028101549454600890910154604080519889526020890196909652948701521515606086015260ff60b882901c16151560808601526001600160a01b031660a085015260c084015260e08301526101008201526001600160401b034216610120820152a2005b600685015494612f8d565b603454919392916001600160a01b031615613084576034545f918291829182916001600160a01b03165af16130326139ff565b5015613059575f5160206152625f395f51905f529360ff610140945b929394505093612f47565b60405162461bcd60e51b815260206004820152600360248201526266656560e81b6044820152606490fd5b9360ff610140946130a55f5160206152625f395f51905f5297603e54613959565b603e5561304e565b919092603f54916702c68af0bb1400008301809311611fa9576130da92603f556002880155603e54613959565b603e558051600110156131e357604001510680600785015560ff855460b01c165f146131a15750670de0b6b3a764000060058401555f600684015583546001600160a01b031916725b1171111111111111111111111111111111111784555b835460b81c60ff161561319657857f59872529ce12f19664dff7653b417a8f9cdf72e5381b48510565adec044e05bf61318a603f5480600888015560405191829160018060401b0342169083613af3565b0390a25f603f55612f41565b5f6008840155612f41565b670de0b6b3a764000060068501555f600585015582546001600160a01b03916131cd9160ff16896150f6565b85546001600160a01b0319169116178455613139565b634e487b7160e01b5f52603260045260245ffd5b5050612ebd5f612eb3565b63475a253560e01b5f5260045ffd5b63073e64fd60e21b5f523360045260245260445ffd5b8135815260209182019101612d4b565b34611f66576020366003190112611f66576001600160a01b036132586136d7565b165f526047602052608060405f2080549060018101549065ffffffffffff600360028301549201541691604051938452602084015260408301526060820152f35b6040366003190112611f66576004356024356132b3614095565b6132bb6141ce565b6132c4336142ba565b6132ff6132f36132d26139b9565b6033546001600160401b031681523360808201526020810185905293614371565b80604085015282613928565b9060608301918083521561279f5760c083015251340361279f5761226f906143f8565b34611f66576020366003190112611f66576004356001600160401b038111611f6657613352903690600401613719565b9061335b614095565b6133636140cd565b61336c826137ed565b9161337a60405193846137ca565b808352601f19613389826137ed565b015f5b8181106135d15750505f915f5b82811061347a57505060807ffdc550c5c39fe5113c6a01574391124646e8cecb23b0631760b82bc951a140ba9160018060401b03603354169360405191825260208201525f604082015260018060401b0342166060820152a260015f5160206152c25f395f51905f52556040518091602082016020835281518091526020604084019201905f5b81811061342e575050500390f35b91935091602060a0600192608087518580851b03815116835284810151151585840152604081015160408401526060810151606084015201516080820152019401910191849392613420565b6134886123ba828585613966565b604080516307655bf560e41b81526001600160a01b039092166004830152816024815f305af1805f925f92613597575b50613532575050806134d06123ba6001938686613966565b604051906134dd82613749565b838060a01b031681525f60208201525f60408201525f60608201525f60808201526135088288613997565b526135138187613997565b5061352a6135256123ba838787613966565b614100565b505b01613399565b946135919183966135496123ba6001968989613966565b916040519261355784613749565b868060a01b031683528560208401525f6040840152606083015260808201526135808789613997565b5261358b8688613997565b506139ab565b9361352c565b925090506040823d82116135c9575b816135b3604093836137ca565b81010312611f66576020825192015190886134b8565b3d91506135a6565b6020906040516135e081613749565b5f81525f838201525f60408201525f60608201525f60808201528282880101520161338c565b34611f66575f366003190112611f6657602060018060a01b0360405416604051908152f35b34611f66575f366003190112611f66576020603a54604051908152f35b34611f66576020366003190112611f66576001600160a01b036136696136d7565b165f526048602052606060405f208054906136946001820154915f90836136a7575b60020154613959565b9060405192835260208301526040820152f35b90506002670de0b6b3a76400006136ce6136c8603d5460038601549061391b565b86613928565b0491905061368b565b600435906001600160a01b0382168203611f6657565b602435906001600160a01b0382168203611f6657565b604435906001600160a01b0382168203611f6657565b9181601f84011215611f66578235916001600160401b038311611f66576020808501948460051b010111611f6657565b60a081019081106001600160401b0382111761376457604052565b634e487b7160e01b5f52604160045260245ffd5b604081019081106001600160401b0382111761376457604052565b60c081019081106001600160401b0382111761376457604052565b6102a081019081106001600160401b0382111761376457604052565b601f909101601f19168101906001600160401b0382119082101761376457604052565b6001600160401b0381116137645760051b60200190565b6001600160401b03811161376457601f01601f191660200190565b6044359061ffff82168203611f6657565b90602080835192838152019201905f5b81811061384d5750505090565b825180516001600160a01b031685526020908101518186015260409094019390920191600101613840565b600435906001600160401b0382168203611f6657565b60a08091600180831b03815116845260208101516020850152604081015160408501526060810151606085015260808101511515608085015201511515910152565b805180835260209291819084018484015e5f828201840152601f01601f1916010190565b905f905b6019821061390557505050565b60208060019285518152019301910190916138f8565b91908203918211611fa957565b81810292918115918404141715611fa957565b8115613945570490565b634e487b7160e01b5f52601260045260245ffd5b91908201809211611fa957565b91908110156131e35760051b0190565b356001600160a01b0381168103611f665790565b8051156131e35760200190565b80518210156131e35760209160051b010190565b5f198114611fa95760010190565b6040519060e082016001600160401b03811183821017613764576040525f60c0838281528260208201528260408201528260608201528260808201528260a08201520152565b3d15613a29573d90613a1082613804565b91613a1e60405193846137ca565b82523d5f602084013e565b606090565b15613a3557565b60405162461bcd60e51b81526020600482015260036024820152620cae8d60eb1b6044820152606490fd5b9081526001600160a01b0390911660208201526001600160401b03909116604082015260600190565b90816020910312611f6657518015158103611f665790565b6001600160a01b039091168152602081019190915260400190565b15613ac357565b60405162461bcd60e51b81526020600482015260086024820152673a3930b739b332b960c11b6044820152606490fd5b9081526001600160401b03909116602082015260400190565b15613b1357565b60405162461bcd60e51b8152602060048201526013602482015272149bdd5b99081b9bdd08199a5b985b1a5e9959606a1b6044820152606490fd5b60198210156131e35701905f90565b3033148015613e25575b15613df857613b746141ce565b60018060a01b0381165f52604660205260405f2090600482019260ff845460081c1615613de9578254613baf906001600160a01b03166142ba565b613bb76139b9565b6033546001600160401b031680825284546001600160a01b0316608083018190525f91825260436020908152604080842092845291905290205490949060081c60ff16613dda575460ff1615613dcc5783519160028401549260ff84169384158015613dc2575b613db9575b60405191602083019342855244604085015260018060601b03199060601b16606084015260018060c01b03199060c01b166074830152607c820152607c8152613c6d609c826137ca565b519020915f915f9284915f5b606460ff82161080613daa575b15613d1b57600160ff601986069560081c95161b80841615613d07575b50831580613cf8575b613cbf575b613cba90613f6a565b613c79565b9250613cba604051602081019088825260ff60f81b8860f81b16604082015260218152613ced6041826137ca565b519020939050613cb1565b5060ff851660ff871610613cac565b613d149196931792613f6a565b945f613ca3565b50959492509250508115613d9b575b50925b613d56613d406020830195808752614371565b80604084015260038401548060c0850152613928565b9060016060820193838552018054838110613d8c57613d8693613d789161391b565b9055600160a08201526143f8565b51915190565b630e83a11b60e21b5f5260045ffd5b60019150601990061b5f613d2a565b5060ff851660ff871610613c86565b60019450613c23565b5060198511613c1e565b919050600281015492613d2d565b6357f24f4960e11b5f5260045ffd5b63b12b38eb60e01b5f5260045ffd5b60405162461bcd60e51b8152602060048201526005602482015264042c2eae8d60db1b6044820152606490fd5b505f5160206151e25f395f51905f52546001600160a01b03163314613b67565b90604051613e5281613793565b60a060ff60048395600180851b03815416855260018101546020860152600281015460408601526003810154606086015201548181161515608085015260081c161515910152565b6041545f906001600160a01b03163303613f5b578115613f5757603a5415613f0a57670de0b6b3a76400008202918204670de0b6b3a764000003613ef65750613ee9613ef191603a549061393b565b603b54613959565b603b55565b634e487b7160e01b81526011600452602490fd5b506032546001600160a01b031690813b15611f66575f91602483926040519485938492630852cd8d60e31b845260048401525af18015611f5b57613f4b5750565b5f613f55916137ca565b565b5050565b6360c4e54360e01b5f5260045ffd5b60ff1660ff8114611fa95760010190565b6084358015158103611f665790565b81546001600160a01b0316815260018201546020820152600282015460408201526003820154606082015260049091015460ff8181161515608084015260089190911c16151560a08201526001600160401b0390911660c082015260e00190565b919082549060031b91821b915f19901b1916179055565b6001600160a01b0316801561404d575f5160206151e25f395f51905f5280546001600160a01b0319811683179091556001600160a01b03165f5160206152825f395f51905f525f80a3565b631e4fbdf760e01b5f525f60045260245ffd5b60405191905f835b6019821061407f57505050613f55610320836137ca565b6001602081928554815201930191019091614068565b60025f5160206152c25f395f51905f5254146140be5760025f5160206152c25f395f51905f5255565b633ee5aeb560e01b5f5260045ffd5b5f5160206151e25f395f51905f52546001600160a01b031633036140ed57565b63118cdaa760e01b5f523360045260245ffd5b6001600160a01b03165f8181526046602052604090206004810180549091600882901c60ff16614133575b505050505f90565b60ff8216156141b95760ff600282015416801580156141af575b6141a7575b614161905b6003830154613928565b6001820154101561412b5761ff00199091169091556040515f5160206152025f395f51905f5291819061419f90426001600160401b03169083613f8a565b0390a2600190565b506001614152565b506019811161414d565b6141616141c96002830154614371565b614157565b6033546001600160401b039081165f908152604260205260409081902080549092911c161561428857805490604082901c6001600160401b031643101580614271575b613f57576009019060ff825460a81c1661424f5760ff825460a01c1661424057631328d40b60e31b5f5260045ffd5b630776f80360e41b5f5260045ffd5b905060c01c431061426257613f55614ee4565b631328d40b60e31b5f5260045ffd5b50608082901c6001600160401b0316431115614211565b50613f55614ee4565b8054600160401b600160801b03191660409290921b600160401b600160801b0316919091179055565b6001600160a01b0381165f908152604860205260409081902060040180549092916001600160401b038083169290911c1681111561436c57805f52604260205260ff600960405f20015460a81c161561436c57805f52604360205260405f2060018060a01b0383165f5260205260405f205460ff81168091811561435d575b506143495750613f55925061477b565b909150614354575050565b613f5591614291565b60ff915060081c16155f614339565b505050565b905f91801580156143d3575b6143c4575f905b601960ff831610614393575050565b6001808216146143ad575b600191820160ff16911c614384565b9260016143bb60ff926139ab565b9491505061439e565b63bf3cad0b60e01b5f5260045ffd5b508060191c151561437d565b80548210156131e3575f5260205f209060011b01905f90565b60018060401b038151165f52604260205260405f209060ff60335460b01c161580156146e4575b80156146ce575b6142625760608101805161443f60018501918254613959565b905581516001600160401b03165f9081526043602090815260408083206080860180516001600160a01b039081168652918452828520815190921685526048909352922083516001840180549296939492909161449b91613959565b9055805460ff8160081c16156146bc575b505060c08101519160208201958651905f915b601960ff841610614555575050825160049690960180546001600160401b0319166001600160401b0397881690811790915591519651945160a093840151604080519788526020880196909652948601525091151560608401524290931660808301526001600160a01b039390931692917f13d7440beb63bd461dfc418d23d1095bb97f3b693f75aff8d44d3f26ee923d1e91a3565b60018082161461456f575b600192830160ff16921c6144bf565b84516001600160401b03165f90815260446020908152604080832087516001600160a01b03168452825280832060ff87168452909152902080546143c4576145d7846145ed9289600b8701916145c58484613b4e565b90549060031b1c600182015555613b4e565b6145e78983548360031b1c613959565b91613feb565b6145fa8360248401613b4e565b81548160031b1c9060018201809211611fa95761461692613feb565b60018060401b038551165f52604960205260405f2060ff84165f5260205260405f2060018060a01b03855116916040519261465084613778565b835260208301918883528054600160401b81101561376457614677916001820181556143df565b6146a957925183546001600160a01b0319166001600160a01b0391909116178355905160019290920191909155614560565b634e487b7160e01b5f525f60045260245ffd5b61ff0019166101001790555f806144ac565b50815460801c6001600160401b03164311614426565b50815460401c6001600160401b0316431061441f565b60039080546002820190815490603b54915f9282614753575b5050508061473c575b50603b54905501805465ffffffffffff19164265ffffffffffff16179055565b61474b60018401918254613959565b90555f61471c565b670de0b6b3a76400009350614772929161476c9161391b565b90613928565b045f8080614713565b6001600160401b0381165f818152604260209081526040808320604383528184206001600160a01b03881685529092529091206001820154939492939092919015614b8d5760ff60048201541692845f52604460205260405f2060018060a01b0384165f5260205260405f2060ff85165f5260205260405f20928354948515614b245761480b90600b8501613b4e565b90549060031b1c80156122825761ffff60335460a01c1661271061482f8289613928565b049081159081614b1b575b81614b11575b50614b09575b868111614b02575b80614a44575b908661488e614877608098979695945f5160206153025f395f51905f529a61391b565b611f99846148898560028b0154613928565b61393b565b9586614a1e575b600285016148a4888254613959565b9055845460ff191660011785556001600160a01b0384165f818152604860205260409020909b6148d691600401614291565b600a86016148e5888254613959565b90555f906009870180549160ff8360b01c16808091614a11575b156149795750505050614920600891611f99856148898660058c0154613928565b955b01548061495a575b505050614938918391615022565b604051918252602082015233604082015260018060401b0342166060820152a3565b61497092614889614938969793611f9993613928565b92915f8061492a565b9893981580614a03575b806149f6575b614999575b505050600890614922565b600101546149a78582613959565b60078501549182101591826149ec575b50506149c4575b8061498e565b6006830180545f9182905560ff60c01b19909316600160c01b179091559096506008906149be565b1090505f806149b7565b5060068401541515614989565b5060ff8360c01c1615614983565b5060058a015415156148ff565b60018060a01b0384165f52604860205260405f20614a3d888254613959565b9055614895565b603454909594939291906001600160a01b031615614ad6575f8080808960018060a01b03603454165af1614a766139ff565b5015614aa5575f5160206153025f395f51905f529661488e6148776080985b9394959697985050509650614854565b60405162461bcd60e51b81526020600482015260096024820152686d696e65722066656560b81b6044820152606490fd5b5f5160206153025f395f51905f529661488e61487788614afa60809a603e54613959565b603e55614a95565b508561484e565b506001614846565b905015155f614840565b6001915061483a565b50815460ff19166001179091556001600160a01b03165f8181526048602052604090209095614b5a945092506004019050614291565b5f5160206153025f395f51905f5260806040515f81525f602082015233604082015260018060401b0342166060820152a3565b505f915f5b601960ff821610614c41575091614be66080925f5160206153025f395f51905f529483614c0a575b805460ff191660011790556001600160a01b03165f818152604860205260409020909690600401614291565b604080519182525f60208301523390820152426001600160401b03166060820152a3565b60018060a01b0382165f52604860205260405f20614c29858254613959565b905560028101614c3a858254613959565b9055614bba565b926001614c7a60ff92875f52604460205260405f20838060a01b0387165f5260205260405f208488165f5260205260405f205490613959565b940116614b92565b60018101546003820191825491603d54925f9382614cc5575b50505081614cad575b5050603d549055565b6002614cbc9101918254613959565b90555f80614ca4565b670de0b6b3a7640000939450614cdf929161476c9161391b565b04905f8080614c9b565b60018060401b03603354165f52604260205260405f2090600182015415614eca5760098201805460ff60a01b1916600160a01b1790556037546038546039546040516020810193929091906001600160401b03851183861017613764575f60209461ffff966040528185526040519463125fa26760e31b87870152511515602486015260248552614d7b6044866137ca565b60405190614d8882613793565b8152858101928352614e1b6040820195888616875263ffffffff606084019660101c16865263ffffffff608084016002815260a085019283528160018060a01b0360405416986040519c8d9b8c9a8b99634d8e1c2f60e11b8b528f60048c01525160248b01525160448a01525116606488015251166084860152511660a48401525160c060c484015260e48301906138d0565b03925af1908115611f5b575f91614e98575b5082545f828152604560205260409081902080546001600160401b0319166001600160401b039384161790559354935191938116917f9153817ff8f2c303ed190879da7ba58c0608016146e69f34fd7e5b006e560cf6918190614e939042168783613af3565b0390a2565b90506020813d602011614ec2575b81614eb3602093836137ca565b81010312611f6657515f614e2d565b3d9150614ea6565b6009909101805460ff60a81b1916600160a81b1790555f90565b6033546001600160401b03808216600101908111611fa9576001600160401b039081166001600160401b031992831681176033555f8181526042602052604090208054909316811783559190614f3c90431682614291565b80549063ffffffff60335460401c1660018060401b038360401c16019060018060401b038211611fa9575f600182018190556002820181905560038201819055600582018190556006820181905560078201819055600882018190556009820180546001600160c81b0319169055600a8201556001600160801b03909216608091821b600160801b600160c01b031617918290556040805183821c6001600160401b0390811682529390921c8316602083015242909216918101919091527f94bff5a899e601756cf70b973df79e33ddc4794997b73d67d87e831845ba2c2290606090a2565b90821561436c576003810161503d8482548061509157613959565b90556005603d5491015561505382603c54613959565b603c556001600160a01b03165f9081526048602052604090209061507682614c82565b61508560018301918254613959565b90556003603d54910155565b670de0b6b3a76400006150b46150ae603d5460058901549061391b565b83613928565b046150c460048701918254613959565b9055613959565b60ff5f5160206152e25f395f51905f525460401c16156150e757565b631afcd79f60e31b5f5260045ffd5b60018060401b03165f52604960205260ff60405f2091165f5260205260405f20905f915f918154935b84841061512f5750505050505f90565b615147600161513e86866143df565b50015482613959565b908210158061517a575b6151605760019093019261511f565b505061516c92506143df565b50546001600160a01b031690565b50808210615151565b906151a7575080511561519857602081519101fd5b63d6bda27560e01b5f5260045ffd5b815115806151d8575b6151b8575090565b639996b31560e01b5f9081526001600160a01b0391909116600452602490fd5b50803b156151b056fe9016d09d72d40fdae2fd8ceac6b6234c7706214fd39c1cd1e609a0528c1993009e1e68d420a99abc1af6bb4911a49524d16bc331ca111e56d796707836b73127bc5ffecda03feb624bf3a030ac85b0990d6606c094b444519b282c031fbe2efb360894a13ba1a3210667c828492db98dca3e2076cc3735a920a3ca505d382bbc81fa2c7772aa5abdc3ad284879e95a0242648f9bf182f900f753a71877963acf8be0079c531659141344cd1fd0a4f28419497f9722a3daafe3b4186f6b6457e076855322c5cc7335ce7f03ab0323699af75ee9c167c9c3c15f63a103065425d09b779b17422d0df92223018b32b4d1fa46e071723d6817e2486d003becc55f00f0c57e16840df040f15088dc2f81fe391c3923bec73e23a9662efc9c229c6a00eea8330ac3d746dfcc2004c5a1ab2beb43845d77de0081c4412d539aea1204e1a2646970667358221220d627467e3cc91077a4a34ff42d11314a9a763ca10a8bd56154cfddb895adaf9f64736f6c634300081e0033f0c57e16840df040f15088dc2f81fe391c3923bec73e23a9662efc9c229c6a00",
        "linkReferences": {}
    },
    "methodIdentifiers": {
        "ORI_TOKEN()": "937a0077",
        "UPGRADE_INTERFACE_VERSION()": "ad3cb1cc",
        "_executeAutomationInternal(address)": "7655bf50",
        "adminMint(address,uint256)": "e58306f9",
        "automations(address)": "b9ad4357",
        "batchCheckpoint(uint64,address[])": "6c6804a7",
        "board()": "7cd3229a",
        "checkpoint(uint64,address)": "6c718385",
        "claimAll(address)": "77329f35",
        "claimEth(address)": "228f3845",
        "claimStakeYield(address)": "66c90c5a",
        "config()": "79502c55",
        "coordinator()": "0a009097",
        "deductVaultEth(uint256)": "a488dcdf",
        "deployManual(uint256,uint256)": "1325a6d6",
        "depositStake(uint256)": "cb82cc8f",
        "distributeStakeRewards(uint256)": "940d1f2f",
        "emergencyResetRound(uint64)": "cb70ffef",
        "executeAutomation(address)": "db326efc",
        "executeAutomationBatch(address[])": "0f3e2f51",
        "getAutomation(address)": "84bf220a",
        "getBuryAuthority()": "e40fd076",
        "getLastRoundWinners()": "6c46376d",
        "getMinerRoundInfo(uint64,address)": "8fd2040d",
        "getMinerSquares(uint64,address)": "db834306",
        "getRoundData(uint64)": "f921e65c",
        "getSquareParticipants(uint64,uint8)": "6db8b42d",
        "getSwapProgram()": "b762e343",
        "getTotalStaked()": "0917e776",
        "getTreasuryState()": "23a8bdca",
        "getUserRewards(address)": "078b0fb7",
        "getVaultEth()": "b03fd745",
        "getWinningSquareParticipants(uint64)": "a97958c1",
        "initialize((address,address,address,address,address,bytes32,uint256,uint16,uint32,uint32,uint32,uint16,uint16))": "befdd1ff",
        "owner()": "8da5cb5b",
        "proxiableUUID()": "52d1902d",
        "rawFulfillRandomWords(uint256,uint256[])": "1fe543e3",
        "registerAutomation((address,uint256,uint256,uint256,bool,bool))": "e209e30b",
        "renounceOwnership()": "715018a6",
        "resetRound()": "84d452ff",
        "roundByRequest(uint256)": "41a027aa",
        "rounds(uint64)": "bc3ac875",
        "setConfig(address,address,address)": "3141e25b",
        "setRoundParams(uint32,uint32,uint16,uint16)": "68bae2f5",
        "setStakingContract(address)": "9dd373b9",
        "setVrfConfig(bytes32,uint64,uint16,uint32)": "805ccb3e",
        "stakes(address)": "16934fc4",
        "stakingContract()": "ee99205c",
        "startGame()": "d65ab5f2",
        "stopAutomation(address)": "edb39d70",
        "transferOwnership(address)": "f2fde38b",
        "treasury()": "61d027b3",
        "upgradeToAndCall(address,bytes)": "4f1ef286",
        "withdrawStake(uint256,address)": "676a6300",
        "wrap(address,uint256)": "bf376c7a"
    },
    "id": 67
}