{
    "abi": [
        {
            "type": "constructor",
            "inputs": [
                {
                    "name": "params",
                    "type": "tuple",
                    "internalType": "struct OreProtocol.InitParams",
                    "components": [
                        {
                            "name": "oriToken",
                            "type": "address",
                            "internalType": "contract OreToken"
                        },
                        {
                            "name": "feeCollector",
                            "type": "address",
                            "internalType": "address"
                        },
                        {
                            "name": "buryAuthority",
                            "type": "address",
                            "internalType": "address"
                        },
                        {
                            "name": "swapProgram",
                            "type": "address",
                            "internalType": "address"
                        },
                        {
                            "name": "vrfCoordinator",
                            "type": "address",
                            "internalType": "address"
                        },
                        {
                            "name": "vrfKeyHash",
                            "type": "bytes32",
                            "internalType": "bytes32"
                        },
                        {
                            "name": "vrfSubId",
                            "type": "uint256",
                            "internalType": "uint256"
                        },
                        {
                            "name": "vrfMinConfirmations",
                            "type": "uint16",
                            "internalType": "uint16"
                        },
                        {
                            "name": "vrfCallbackGasLimit",
                            "type": "uint32",
                            "internalType": "uint32"
                        },
                        {
                            "name": "roundLength",
                            "type": "uint32",
                            "internalType": "uint32"
                        },
                        {
                            "name": "intermission",
                            "type": "uint32",
                            "internalType": "uint32"
                        },
                        {
                            "name": "checkpointGrace",
                            "type": "uint32",
                            "internalType": "uint32"
                        },
                        {
                            "name": "checkpointFeeWindow",
                            "type": "uint32",
                            "internalType": "uint32"
                        },
                        {
                            "name": "feeBps",
                            "type": "uint16",
                            "internalType": "uint16"
                        },
                        {
                            "name": "vaultBps",
                            "type": "uint16",
                            "internalType": "uint16"
                        },
                        {
                            "name": "checkpointFee",
                            "type": "uint256",
                            "internalType": "uint256"
                        }
                    ]
                }
            ],
            "stateMutability": "nonpayable"
        },
        {
            "type": "function",
            "name": "ORI_TOKEN",
            "inputs": [],
            "outputs": [
                {
                    "name": "",
                    "type": "address",
                    "internalType": "contract OreToken"
                }
            ],
            "stateMutability": "view"
        },
        {
            "type": "function",
            "name": "_executeAutomationInternal",
            "inputs": [
                {
                    "name": "user",
                    "type": "address",
                    "internalType": "address"
                },
                {
                    "name": "executor",
                    "type": "address",
                    "internalType": "address"
                }
            ],
            "outputs": [
                {
                    "name": "fee",
                    "type": "uint256",
                    "internalType": "uint256"
                },
                {
                    "name": "deployed",
                    "type": "uint256",
                    "internalType": "uint256"
                },
                {
                    "name": "mask",
                    "type": "uint256",
                    "internalType": "uint256"
                }
            ],
            "stateMutability": "nonpayable"
        },
        {
            "type": "function",
            "name": "acceptOwnership",
            "inputs": [],
            "outputs": [],
            "stateMutability": "nonpayable"
        },
        {
            "type": "function",
            "name": "adminMint",
            "inputs": [
                {
                    "name": "to",
                    "type": "address",
                    "internalType": "address"
                },
                {
                    "name": "amount",
                    "type": "uint256",
                    "internalType": "uint256"
                }
            ],
            "outputs": [],
            "stateMutability": "nonpayable"
        },
        {
            "type": "function",
            "name": "automations",
            "inputs": [
                {
                    "name": "",
                    "type": "address",
                    "internalType": "address"
                }
            ],
            "outputs": [
                {
                    "name": "owner",
                    "type": "address",
                    "internalType": "address"
                },
                {
                    "name": "executor",
                    "type": "address",
                    "internalType": "address"
                },
                {
                    "name": "balance",
                    "type": "uint256",
                    "internalType": "uint256"
                },
                {
                    "name": "mask",
                    "type": "uint256",
                    "internalType": "uint256"
                },
                {
                    "name": "amountPerSquare",
                    "type": "uint256",
                    "internalType": "uint256"
                },
                {
                    "name": "feePerCall",
                    "type": "uint256",
                    "internalType": "uint256"
                },
                {
                    "name": "randomizeMask",
                    "type": "bool",
                    "internalType": "bool"
                },
                {
                    "name": "active",
                    "type": "bool",
                    "internalType": "bool"
                }
            ],
            "stateMutability": "view"
        },
        {
            "type": "function",
            "name": "batchCheckpoint",
            "inputs": [
                {
                    "name": "roundId",
                    "type": "uint64",
                    "internalType": "uint64"
                },
                {
                    "name": "miners",
                    "type": "address[]",
                    "internalType": "address[]"
                }
            ],
            "outputs": [
                {
                    "name": "results",
                    "type": "bool[]",
                    "internalType": "bool[]"
                }
            ],
            "stateMutability": "nonpayable"
        },
        {
            "type": "function",
            "name": "board",
            "inputs": [],
            "outputs": [
                {
                    "name": "currentRoundId",
                    "type": "uint64",
                    "internalType": "uint64"
                },
                {
                    "name": "roundLength",
                    "type": "uint32",
                    "internalType": "uint32"
                },
                {
                    "name": "intermission",
                    "type": "uint32",
                    "internalType": "uint32"
                },
                {
                    "name": "checkpointGrace",
                    "type": "uint32",
                    "internalType": "uint32"
                },
                {
                    "name": "checkpointFeeWindow",
                    "type": "uint32",
                    "internalType": "uint32"
                },
                {
                    "name": "feeBps",
                    "type": "uint16",
                    "internalType": "uint16"
                },
                {
                    "name": "vaultBps",
                    "type": "uint16",
                    "internalType": "uint16"
                },
                {
                    "name": "claimFeeBps",
                    "type": "uint16",
                    "internalType": "uint16"
                },
                {
                    "name": "live",
                    "type": "bool",
                    "internalType": "bool"
                }
            ],
            "stateMutability": "view"
        },
        {
            "type": "function",
            "name": "bury",
            "inputs": [
                {
                    "name": "swapData",
                    "type": "bytes",
                    "internalType": "bytes"
                },
                {
                    "name": "amountIn",
                    "type": "uint256",
                    "internalType": "uint256"
                },
                {
                    "name": "minOreOut",
                    "type": "uint256",
                    "internalType": "uint256"
                }
            ],
            "outputs": [],
            "stateMutability": "nonpayable"
        },
        {
            "type": "function",
            "name": "checkpoint",
            "inputs": [
                {
                    "name": "roundId",
                    "type": "uint64",
                    "internalType": "uint64"
                },
                {
                    "name": "minerAddr",
                    "type": "address",
                    "internalType": "address"
                }
            ],
            "outputs": [],
            "stateMutability": "nonpayable"
        },
        {
            "type": "function",
            "name": "claimEth",
            "inputs": [
                {
                    "name": "roundId",
                    "type": "uint64",
                    "internalType": "uint64"
                },
                {
                    "name": "to",
                    "type": "address",
                    "internalType": "address payable"
                }
            ],
            "outputs": [
                {
                    "name": "amount",
                    "type": "uint256",
                    "internalType": "uint256"
                }
            ],
            "stateMutability": "nonpayable"
        },
        {
            "type": "function",
            "name": "claimOre",
            "inputs": [
                {
                    "name": "roundId",
                    "type": "uint64",
                    "internalType": "uint64"
                },
                {
                    "name": "to",
                    "type": "address",
                    "internalType": "address"
                }
            ],
            "outputs": [
                {
                    "name": "payout",
                    "type": "uint256",
                    "internalType": "uint256"
                }
            ],
            "stateMutability": "nonpayable"
        },
        {
            "type": "function",
            "name": "claimStakeYield",
            "inputs": [
                {
                    "name": "to",
                    "type": "address",
                    "internalType": "address"
                }
            ],
            "outputs": [
                {
                    "name": "payout",
                    "type": "uint256",
                    "internalType": "uint256"
                }
            ],
            "stateMutability": "nonpayable"
        },
        {
            "type": "function",
            "name": "config",
            "inputs": [],
            "outputs": [
                {
                    "name": "feeCollector",
                    "type": "address",
                    "internalType": "address"
                },
                {
                    "name": "buryAuthority",
                    "type": "address",
                    "internalType": "address"
                },
                {
                    "name": "swapProgram",
                    "type": "address",
                    "internalType": "address"
                },
                {
                    "name": "vrfKeyHash",
                    "type": "bytes32",
                    "internalType": "bytes32"
                },
                {
                    "name": "vrfSubId",
                    "type": "uint256",
                    "internalType": "uint256"
                },
                {
                    "name": "vrfMinConfirmations",
                    "type": "uint16",
                    "internalType": "uint16"
                },
                {
                    "name": "vrfCallbackGasLimit",
                    "type": "uint32",
                    "internalType": "uint32"
                },
                {
                    "name": "checkpointFee",
                    "type": "uint256",
                    "internalType": "uint256"
                }
            ],
            "stateMutability": "view"
        },
        {
            "type": "function",
            "name": "deployManual",
            "inputs": [
                {
                    "name": "mask",
                    "type": "uint256",
                    "internalType": "uint256"
                },
                {
                    "name": "amountPerSquare",
                    "type": "uint256",
                    "internalType": "uint256"
                }
            ],
            "outputs": [],
            "stateMutability": "payable"
        },
        {
            "type": "function",
            "name": "depositStake",
            "inputs": [
                {
                    "name": "amount",
                    "type": "uint256",
                    "internalType": "uint256"
                }
            ],
            "outputs": [],
            "stateMutability": "nonpayable"
        },
        {
            "type": "function",
            "name": "emergencyResetRound",
            "inputs": [
                {
                    "name": "roundId",
                    "type": "uint64",
                    "internalType": "uint64"
                }
            ],
            "outputs": [],
            "stateMutability": "nonpayable"
        },
        {
            "type": "function",
            "name": "executeAutomation",
            "inputs": [
                {
                    "name": "user",
                    "type": "address",
                    "internalType": "address"
                }
            ],
            "outputs": [],
            "stateMutability": "nonpayable"
        },
        {
            "type": "function",
            "name": "executeAutomationBatch",
            "inputs": [
                {
                    "name": "users",
                    "type": "address[]",
                    "internalType": "address[]"
                }
            ],
            "outputs": [
                {
                    "name": "results",
                    "type": "tuple[]",
                    "internalType": "struct OreProtocol.ExecutionResult[]",
                    "components": [
                        {
                            "name": "user",
                            "type": "address",
                            "internalType": "address"
                        },
                        {
                            "name": "success",
                            "type": "bool",
                            "internalType": "bool"
                        },
                        {
                            "name": "fee",
                            "type": "uint256",
                            "internalType": "uint256"
                        },
                        {
                            "name": "deployed",
                            "type": "uint256",
                            "internalType": "uint256"
                        },
                        {
                            "name": "mask",
                            "type": "uint256",
                            "internalType": "uint256"
                        }
                    ]
                }
            ],
            "stateMutability": "nonpayable"
        },
        {
            "type": "function",
            "name": "getAutomation",
            "inputs": [
                {
                    "name": "user",
                    "type": "address",
                    "internalType": "address"
                }
            ],
            "outputs": [
                {
                    "name": "",
                    "type": "tuple",
                    "internalType": "struct OreProtocol.Automation",
                    "components": [
                        {
                            "name": "owner",
                            "type": "address",
                            "internalType": "address"
                        },
                        {
                            "name": "executor",
                            "type": "address",
                            "internalType": "address"
                        },
                        {
                            "name": "balance",
                            "type": "uint256",
                            "internalType": "uint256"
                        },
                        {
                            "name": "mask",
                            "type": "uint256",
                            "internalType": "uint256"
                        },
                        {
                            "name": "amountPerSquare",
                            "type": "uint256",
                            "internalType": "uint256"
                        },
                        {
                            "name": "feePerCall",
                            "type": "uint256",
                            "internalType": "uint256"
                        },
                        {
                            "name": "randomizeMask",
                            "type": "bool",
                            "internalType": "bool"
                        },
                        {
                            "name": "active",
                            "type": "bool",
                            "internalType": "bool"
                        }
                    ]
                }
            ],
            "stateMutability": "view"
        },
        {
            "type": "function",
            "name": "getCurrentRoundInfo",
            "inputs": [],
            "outputs": [
                {
                    "name": "roundId",
                    "type": "uint64",
                    "internalType": "uint64"
                },
                {
                    "name": "startBlock",
                    "type": "uint64",
                    "internalType": "uint64"
                },
                {
                    "name": "endBlock",
                    "type": "uint64",
                    "internalType": "uint64"
                },
                {
                    "name": "totalDeployed",
                    "type": "uint256",
                    "internalType": "uint256"
                },
                {
                    "name": "canDeploy",
                    "type": "bool",
                    "internalType": "bool"
                },
                {
                    "name": "canReset",
                    "type": "bool",
                    "internalType": "bool"
                },
                {
                    "name": "randomnessRequested",
                    "type": "bool",
                    "internalType": "bool"
                }
            ],
            "stateMutability": "view"
        },
        {
            "type": "function",
            "name": "getCurrentRoundSquareStats",
            "inputs": [],
            "outputs": [
                {
                    "name": "squareAmounts",
                    "type": "uint256[25]",
                    "internalType": "uint256[25]"
                },
                {
                    "name": "totalDeployed",
                    "type": "uint256",
                    "internalType": "uint256"
                }
            ],
            "stateMutability": "view"
        },
        {
            "type": "function",
            "name": "getCurrentRoundSquares",
            "inputs": [
                {
                    "name": "miner",
                    "type": "address",
                    "internalType": "address"
                }
            ],
            "outputs": [
                {
                    "name": "mask",
                    "type": "uint256",
                    "internalType": "uint256"
                },
                {
                    "name": "squares",
                    "type": "uint8[]",
                    "internalType": "uint8[]"
                },
                {
                    "name": "amounts",
                    "type": "uint256[]",
                    "internalType": "uint256[]"
                }
            ],
            "stateMutability": "view"
        },
        {
            "type": "function",
            "name": "getEthReward",
            "inputs": [
                {
                    "name": "roundId",
                    "type": "uint64",
                    "internalType": "uint64"
                },
                {
                    "name": "miner",
                    "type": "address",
                    "internalType": "address"
                }
            ],
            "outputs": [
                {
                    "name": "",
                    "type": "uint256",
                    "internalType": "uint256"
                }
            ],
            "stateMutability": "view"
        },
        {
            "type": "function",
            "name": "getEthRewards",
            "inputs": [
                {
                    "name": "roundIds",
                    "type": "uint64[]",
                    "internalType": "uint64[]"
                },
                {
                    "name": "miner",
                    "type": "address",
                    "internalType": "address"
                }
            ],
            "outputs": [
                {
                    "name": "totalReward",
                    "type": "uint256",
                    "internalType": "uint256"
                },
                {
                    "name": "rewards",
                    "type": "uint256[]",
                    "internalType": "uint256[]"
                }
            ],
            "stateMutability": "view"
        },
        {
            "type": "function",
            "name": "getLastRoundWinners",
            "inputs": [],
            "outputs": [
                {
                    "name": "roundId",
                    "type": "uint64",
                    "internalType": "uint64"
                },
                {
                    "name": "winningSquare",
                    "type": "uint8",
                    "internalType": "uint8"
                },
                {
                    "name": "participantList",
                    "type": "tuple[]",
                    "internalType": "struct OreProtocol.SquareParticipant[]",
                    "components": [
                        {
                            "name": "participant",
                            "type": "address",
                            "internalType": "address"
                        },
                        {
                            "name": "amount",
                            "type": "uint256",
                            "internalType": "uint256"
                        }
                    ]
                },
                {
                    "name": "totalDeployed",
                    "type": "uint256",
                    "internalType": "uint256"
                }
            ],
            "stateMutability": "view"
        },
        {
            "type": "function",
            "name": "getMinerRoundInfo",
            "inputs": [
                {
                    "name": "roundId",
                    "type": "uint64",
                    "internalType": "uint64"
                },
                {
                    "name": "miner",
                    "type": "address",
                    "internalType": "address"
                }
            ],
            "outputs": [
                {
                    "name": "checkpointed",
                    "type": "bool",
                    "internalType": "bool"
                },
                {
                    "name": "hasParticipation",
                    "type": "bool",
                    "internalType": "bool"
                },
                {
                    "name": "totalDeployed",
                    "type": "uint256",
                    "internalType": "uint256"
                },
                {
                    "name": "ethReward",
                    "type": "uint256",
                    "internalType": "uint256"
                },
                {
                    "name": "oreShares",
                    "type": "uint256",
                    "internalType": "uint256"
                },
                {
                    "name": "oreBonus",
                    "type": "uint256",
                    "internalType": "uint256"
                }
            ],
            "stateMutability": "view"
        },
        {
            "type": "function",
            "name": "getMinerSquares",
            "inputs": [
                {
                    "name": "roundId",
                    "type": "uint64",
                    "internalType": "uint64"
                },
                {
                    "name": "miner",
                    "type": "address",
                    "internalType": "address"
                }
            ],
            "outputs": [
                {
                    "name": "mask",
                    "type": "uint256",
                    "internalType": "uint256"
                },
                {
                    "name": "squares",
                    "type": "uint8[]",
                    "internalType": "uint8[]"
                },
                {
                    "name": "amounts",
                    "type": "uint256[]",
                    "internalType": "uint256[]"
                }
            ],
            "stateMutability": "view"
        },
        {
            "type": "function",
            "name": "getRoundData",
            "inputs": [
                {
                    "name": "roundId",
                    "type": "uint64",
                    "internalType": "uint64"
                }
            ],
            "outputs": [
                {
                    "name": "round",
                    "type": "tuple",
                    "internalType": "struct OreProtocol.RoundData",
                    "components": [
                        {
                            "name": "id",
                            "type": "uint64",
                            "internalType": "uint64"
                        },
                        {
                            "name": "startBlock",
                            "type": "uint64",
                            "internalType": "uint64"
                        },
                        {
                            "name": "endBlock",
                            "type": "uint64",
                            "internalType": "uint64"
                        },
                        {
                            "name": "checkpointDeadlineBlock",
                            "type": "uint64",
                            "internalType": "uint64"
                        },
                        {
                            "name": "checkpointFeeStartBlock",
                            "type": "uint64",
                            "internalType": "uint64"
                        },
                        {
                            "name": "totalDeployed",
                            "type": "uint256",
                            "internalType": "uint256"
                        },
                        {
                            "name": "winningsPool",
                            "type": "uint256",
                            "internalType": "uint256"
                        },
                        {
                            "name": "vaultShare",
                            "type": "uint256",
                            "internalType": "uint256"
                        },
                        {
                            "name": "checkpointPot",
                            "type": "uint256",
                            "internalType": "uint256"
                        },
                        {
                            "name": "winningSquare",
                            "type": "uint8",
                            "internalType": "uint8"
                        },
                        {
                            "name": "oreReward",
                            "type": "uint256",
                            "internalType": "uint256"
                        },
                        {
                            "name": "topMinerReward",
                            "type": "uint256",
                            "internalType": "uint256"
                        },
                        {
                            "name": "topMinerSample",
                            "type": "uint256",
                            "internalType": "uint256"
                        },
                        {
                            "name": "motherlodePayout",
                            "type": "uint256",
                            "internalType": "uint256"
                        },
                        {
                            "name": "topMiner",
                            "type": "address",
                            "internalType": "address"
                        },
                        {
                            "name": "randomnessRequested",
                            "type": "bool",
                            "internalType": "bool"
                        },
                        {
                            "name": "randomnessFulfilled",
                            "type": "bool",
                            "internalType": "bool"
                        },
                        {
                            "name": "splitReward",
                            "type": "bool",
                            "internalType": "bool"
                        },
                        {
                            "name": "motherlode",
                            "type": "bool",
                            "internalType": "bool"
                        },
                        {
                            "name": "topMinerClaimed",
                            "type": "bool",
                            "internalType": "bool"
                        },
                        {
                            "name": "claimedRewards",
                            "type": "uint256",
                            "internalType": "uint256"
                        },
                        {
                            "name": "deployedPerSquare",
                            "type": "uint256[25]",
                            "internalType": "uint256[25]"
                        },
                        {
                            "name": "minersPerSquare",
                            "type": "uint256[25]",
                            "internalType": "uint256[25]"
                        }
                    ]
                }
            ],
            "stateMutability": "view"
        },
        {
            "type": "function",
            "name": "getRoundSquareStats",
            "inputs": [
                {
                    "name": "roundId",
                    "type": "uint64",
                    "internalType": "uint64"
                }
            ],
            "outputs": [
                {
                    "name": "squareAmounts",
                    "type": "uint256[25]",
                    "internalType": "uint256[25]"
                },
                {
                    "name": "totalDeployed",
                    "type": "uint256",
                    "internalType": "uint256"
                }
            ],
            "stateMutability": "view"
        },
        {
            "type": "function",
            "name": "getSquareParticipants",
            "inputs": [
                {
                    "name": "roundId",
                    "type": "uint64",
                    "internalType": "uint64"
                },
                {
                    "name": "squareId",
                    "type": "uint8",
                    "internalType": "uint8"
                }
            ],
            "outputs": [
                {
                    "name": "participantList",
                    "type": "tuple[]",
                    "internalType": "struct OreProtocol.SquareParticipant[]",
                    "components": [
                        {
                            "name": "participant",
                            "type": "address",
                            "internalType": "address"
                        },
                        {
                            "name": "amount",
                            "type": "uint256",
                            "internalType": "uint256"
                        }
                    ]
                },
                {
                    "name": "totalDeployed",
                    "type": "uint256",
                    "internalType": "uint256"
                }
            ],
            "stateMutability": "view"
        },
        {
            "type": "function",
            "name": "getStakeInfo",
            "inputs": [
                {
                    "name": "user",
                    "type": "address",
                    "internalType": "address"
                }
            ],
            "outputs": [
                {
                    "name": "stakedAmount",
                    "type": "uint256",
                    "internalType": "uint256"
                },
                {
                    "name": "pendingRewards",
                    "type": "uint256",
                    "internalType": "uint256"
                },
                {
                    "name": "rewardDebt",
                    "type": "uint256",
                    "internalType": "uint256"
                },
                {
                    "name": "updatedAt",
                    "type": "uint48",
                    "internalType": "uint48"
                }
            ],
            "stateMutability": "view"
        },
        {
            "type": "function",
            "name": "getTreasuryState",
            "inputs": [],
            "outputs": [
                {
                    "name": "totalStaked",
                    "type": "uint256",
                    "internalType": "uint256"
                },
                {
                    "name": "stakeRewardsFactor",
                    "type": "uint256",
                    "internalType": "uint256"
                },
                {
                    "name": "totalOreShares",
                    "type": "uint256",
                    "internalType": "uint256"
                },
                {
                    "name": "minerRewardsFactor",
                    "type": "uint256",
                    "internalType": "uint256"
                },
                {
                    "name": "vaultEth",
                    "type": "uint256",
                    "internalType": "uint256"
                },
                {
                    "name": "motherlodeOre",
                    "type": "uint256",
                    "internalType": "uint256"
                }
            ],
            "stateMutability": "view"
        },
        {
            "type": "function",
            "name": "getUserRewards",
            "inputs": [
                {
                    "name": "miner",
                    "type": "address",
                    "internalType": "address"
                }
            ],
            "outputs": [
                {
                    "name": "ethAmount",
                    "type": "uint256",
                    "internalType": "uint256"
                },
                {
                    "name": "oriDirect",
                    "type": "uint256",
                    "internalType": "uint256"
                },
                {
                    "name": "oriRefined",
                    "type": "uint256",
                    "internalType": "uint256"
                }
            ],
            "stateMutability": "view"
        },
        {
            "type": "function",
            "name": "getWinningSquareParticipants",
            "inputs": [
                {
                    "name": "roundId",
                    "type": "uint64",
                    "internalType": "uint64"
                }
            ],
            "outputs": [
                {
                    "name": "winningSquare",
                    "type": "uint8",
                    "internalType": "uint8"
                },
                {
                    "name": "participantList",
                    "type": "tuple[]",
                    "internalType": "struct OreProtocol.SquareParticipant[]",
                    "components": [
                        {
                            "name": "participant",
                            "type": "address",
                            "internalType": "address"
                        },
                        {
                            "name": "amount",
                            "type": "uint256",
                            "internalType": "uint256"
                        }
                    ]
                },
                {
                    "name": "totalDeployed",
                    "type": "uint256",
                    "internalType": "uint256"
                }
            ],
            "stateMutability": "view"
        },
        {
            "type": "function",
            "name": "owner",
            "inputs": [],
            "outputs": [
                {
                    "name": "",
                    "type": "address",
                    "internalType": "address"
                }
            ],
            "stateMutability": "view"
        },
        {
            "type": "function",
            "name": "rawFulfillRandomWords",
            "inputs": [
                {
                    "name": "requestId",
                    "type": "uint256",
                    "internalType": "uint256"
                },
                {
                    "name": "randomWords",
                    "type": "uint256[]",
                    "internalType": "uint256[]"
                }
            ],
            "outputs": [],
            "stateMutability": "nonpayable"
        },
        {
            "type": "function",
            "name": "reclaimExpiredRewards",
            "inputs": [
                {
                    "name": "roundId",
                    "type": "uint64",
                    "internalType": "uint64"
                }
            ],
            "outputs": [],
            "stateMutability": "nonpayable"
        },
        {
            "type": "function",
            "name": "registerAutomation",
            "inputs": [
                {
                    "name": "params",
                    "type": "tuple",
                    "internalType": "struct OreProtocol.Automation",
                    "components": [
                        {
                            "name": "owner",
                            "type": "address",
                            "internalType": "address"
                        },
                        {
                            "name": "executor",
                            "type": "address",
                            "internalType": "address"
                        },
                        {
                            "name": "balance",
                            "type": "uint256",
                            "internalType": "uint256"
                        },
                        {
                            "name": "mask",
                            "type": "uint256",
                            "internalType": "uint256"
                        },
                        {
                            "name": "amountPerSquare",
                            "type": "uint256",
                            "internalType": "uint256"
                        },
                        {
                            "name": "feePerCall",
                            "type": "uint256",
                            "internalType": "uint256"
                        },
                        {
                            "name": "randomizeMask",
                            "type": "bool",
                            "internalType": "bool"
                        },
                        {
                            "name": "active",
                            "type": "bool",
                            "internalType": "bool"
                        }
                    ]
                }
            ],
            "outputs": [],
            "stateMutability": "payable"
        },
        {
            "type": "function",
            "name": "resetRound",
            "inputs": [],
            "outputs": [
                {
                    "name": "requestId",
                    "type": "uint256",
                    "internalType": "uint256"
                }
            ],
            "stateMutability": "nonpayable"
        },
        {
            "type": "function",
            "name": "roundByRequest",
            "inputs": [
                {
                    "name": "",
                    "type": "uint256",
                    "internalType": "uint256"
                }
            ],
            "outputs": [
                {
                    "name": "",
                    "type": "uint64",
                    "internalType": "uint64"
                }
            ],
            "stateMutability": "view"
        },
        {
            "type": "function",
            "name": "roundWindow",
            "inputs": [
                {
                    "name": "roundId",
                    "type": "uint64",
                    "internalType": "uint64"
                }
            ],
            "outputs": [
                {
                    "name": "startBlock",
                    "type": "uint64",
                    "internalType": "uint64"
                },
                {
                    "name": "endBlock",
                    "type": "uint64",
                    "internalType": "uint64"
                }
            ],
            "stateMutability": "view"
        },
        {
            "type": "function",
            "name": "rounds",
            "inputs": [
                {
                    "name": "",
                    "type": "uint64",
                    "internalType": "uint64"
                }
            ],
            "outputs": [
                {
                    "name": "id",
                    "type": "uint64",
                    "internalType": "uint64"
                },
                {
                    "name": "startBlock",
                    "type": "uint64",
                    "internalType": "uint64"
                },
                {
                    "name": "endBlock",
                    "type": "uint64",
                    "internalType": "uint64"
                },
                {
                    "name": "checkpointDeadlineBlock",
                    "type": "uint64",
                    "internalType": "uint64"
                },
                {
                    "name": "checkpointFeeStartBlock",
                    "type": "uint64",
                    "internalType": "uint64"
                },
                {
                    "name": "totalDeployed",
                    "type": "uint256",
                    "internalType": "uint256"
                },
                {
                    "name": "winningsPool",
                    "type": "uint256",
                    "internalType": "uint256"
                },
                {
                    "name": "vaultShare",
                    "type": "uint256",
                    "internalType": "uint256"
                },
                {
                    "name": "checkpointPot",
                    "type": "uint256",
                    "internalType": "uint256"
                },
                {
                    "name": "winningSquare",
                    "type": "uint8",
                    "internalType": "uint8"
                },
                {
                    "name": "oreReward",
                    "type": "uint256",
                    "internalType": "uint256"
                },
                {
                    "name": "topMinerReward",
                    "type": "uint256",
                    "internalType": "uint256"
                },
                {
                    "name": "topMinerSample",
                    "type": "uint256",
                    "internalType": "uint256"
                },
                {
                    "name": "motherlodePayout",
                    "type": "uint256",
                    "internalType": "uint256"
                },
                {
                    "name": "topMiner",
                    "type": "address",
                    "internalType": "address"
                },
                {
                    "name": "randomnessRequested",
                    "type": "bool",
                    "internalType": "bool"
                },
                {
                    "name": "randomnessFulfilled",
                    "type": "bool",
                    "internalType": "bool"
                },
                {
                    "name": "splitReward",
                    "type": "bool",
                    "internalType": "bool"
                },
                {
                    "name": "motherlode",
                    "type": "bool",
                    "internalType": "bool"
                },
                {
                    "name": "topMinerClaimed",
                    "type": "bool",
                    "internalType": "bool"
                },
                {
                    "name": "claimedRewards",
                    "type": "uint256",
                    "internalType": "uint256"
                }
            ],
            "stateMutability": "view"
        },
        {
            "type": "function",
            "name": "s_vrfCoordinator",
            "inputs": [],
            "outputs": [
                {
                    "name": "",
                    "type": "address",
                    "internalType": "contract IVRFCoordinatorV2Plus"
                }
            ],
            "stateMutability": "view"
        },
        {
            "type": "function",
            "name": "setCheckpointFee",
            "inputs": [
                {
                    "name": "newFee",
                    "type": "uint256",
                    "internalType": "uint256"
                }
            ],
            "outputs": [],
            "stateMutability": "nonpayable"
        },
        {
            "type": "function",
            "name": "setConfig",
            "inputs": [
                {
                    "name": "feeCollector_",
                    "type": "address",
                    "internalType": "address"
                },
                {
                    "name": "buryAuthority_",
                    "type": "address",
                    "internalType": "address"
                },
                {
                    "name": "swapProgram_",
                    "type": "address",
                    "internalType": "address"
                }
            ],
            "outputs": [],
            "stateMutability": "nonpayable"
        },
        {
            "type": "function",
            "name": "setCoordinator",
            "inputs": [
                {
                    "name": "_vrfCoordinator",
                    "type": "address",
                    "internalType": "address"
                }
            ],
            "outputs": [],
            "stateMutability": "nonpayable"
        },
        {
            "type": "function",
            "name": "setRoundParams",
            "inputs": [
                {
                    "name": "roundLength_",
                    "type": "uint32",
                    "internalType": "uint32"
                },
                {
                    "name": "intermission_",
                    "type": "uint32",
                    "internalType": "uint32"
                },
                {
                    "name": "checkpointGrace_",
                    "type": "uint32",
                    "internalType": "uint32"
                },
                {
                    "name": "feeBps_",
                    "type": "uint16",
                    "internalType": "uint16"
                },
                {
                    "name": "vaultBps_",
                    "type": "uint16",
                    "internalType": "uint16"
                }
            ],
            "outputs": [],
            "stateMutability": "nonpayable"
        },
        {
            "type": "function",
            "name": "setVrfConfig",
            "inputs": [
                {
                    "name": "keyHash",
                    "type": "bytes32",
                    "internalType": "bytes32"
                },
                {
                    "name": "subId",
                    "type": "uint64",
                    "internalType": "uint64"
                },
                {
                    "name": "minConf",
                    "type": "uint16",
                    "internalType": "uint16"
                },
                {
                    "name": "gasLimit",
                    "type": "uint32",
                    "internalType": "uint32"
                }
            ],
            "outputs": [],
            "stateMutability": "nonpayable"
        },
        {
            "type": "function",
            "name": "stakes",
            "inputs": [
                {
                    "name": "",
                    "type": "address",
                    "internalType": "address"
                }
            ],
            "outputs": [
                {
                    "name": "amount",
                    "type": "uint256",
                    "internalType": "uint256"
                },
                {
                    "name": "pending",
                    "type": "uint256",
                    "internalType": "uint256"
                },
                {
                    "name": "rewardDebt",
                    "type": "uint256",
                    "internalType": "uint256"
                },
                {
                    "name": "updatedAt",
                    "type": "uint48",
                    "internalType": "uint48"
                }
            ],
            "stateMutability": "view"
        },
        {
            "type": "function",
            "name": "startGame",
            "inputs": [],
            "outputs": [],
            "stateMutability": "nonpayable"
        },
        {
            "type": "function",
            "name": "transferOwnership",
            "inputs": [
                {
                    "name": "to",
                    "type": "address",
                    "internalType": "address"
                }
            ],
            "outputs": [],
            "stateMutability": "nonpayable"
        },
        {
            "type": "function",
            "name": "treasury",
            "inputs": [],
            "outputs": [
                {
                    "name": "totalStaked",
                    "type": "uint256",
                    "internalType": "uint256"
                },
                {
                    "name": "stakeRewardsFactor",
                    "type": "uint256",
                    "internalType": "uint256"
                },
                {
                    "name": "totalOreShares",
                    "type": "uint256",
                    "internalType": "uint256"
                },
                {
                    "name": "minerRewardsFactor",
                    "type": "uint256",
                    "internalType": "uint256"
                },
                {
                    "name": "vaultEth",
                    "type": "uint256",
                    "internalType": "uint256"
                },
                {
                    "name": "motherlodeOre",
                    "type": "uint256",
                    "internalType": "uint256"
                }
            ],
            "stateMutability": "view"
        },
        {
            "type": "function",
            "name": "treasuryVault",
            "inputs": [],
            "outputs": [
                {
                    "name": "",
                    "type": "uint256",
                    "internalType": "uint256"
                }
            ],
            "stateMutability": "view"
        },
        {
            "type": "function",
            "name": "verifyBalance",
            "inputs": [],
            "outputs": [
                {
                    "name": "isBalanced",
                    "type": "bool",
                    "internalType": "bool"
                },
                {
                    "name": "diff",
                    "type": "int256",
                    "internalType": "int256"
                },
                {
                    "name": "contractBalance",
                    "type": "uint256",
                    "internalType": "uint256"
                },
                {
                    "name": "expectedBalance",
                    "type": "uint256",
                    "internalType": "uint256"
                }
            ],
            "stateMutability": "view"
        },
        {
            "type": "function",
            "name": "withdrawAutomation",
            "inputs": [
                {
                    "name": "amount",
                    "type": "uint256",
                    "internalType": "uint256"
                },
                {
                    "name": "to",
                    "type": "address",
                    "internalType": "address payable"
                }
            ],
            "outputs": [],
            "stateMutability": "nonpayable"
        },
        {
            "type": "function",
            "name": "withdrawStake",
            "inputs": [
                {
                    "name": "amount",
                    "type": "uint256",
                    "internalType": "uint256"
                },
                {
                    "name": "to",
                    "type": "address",
                    "internalType": "address"
                }
            ],
            "outputs": [],
            "stateMutability": "nonpayable"
        },
        {
            "type": "function",
            "name": "wrap",
            "inputs": [
                {
                    "name": "target",
                    "type": "address",
                    "internalType": "address payable"
                },
                {
                    "name": "amount",
                    "type": "uint256",
                    "internalType": "uint256"
                }
            ],
            "outputs": [],
            "stateMutability": "nonpayable"
        },
        {
            "type": "event",
            "name": "AutomationBatchExecuted",
            "inputs": [
                {
                    "name": "executor",
                    "type": "address",
                    "indexed": true,
                    "internalType": "address"
                },
                {
                    "name": "roundId",
                    "type": "uint64",
                    "indexed": true,
                    "internalType": "uint64"
                },
                {
                    "name": "totalUsers",
                    "type": "uint256",
                    "indexed": false,
                    "internalType": "uint256"
                },
                {
                    "name": "successCount",
                    "type": "uint256",
                    "indexed": false,
                    "internalType": "uint256"
                },
                {
                    "name": "totalFee",
                    "type": "uint256",
                    "indexed": false,
                    "internalType": "uint256"
                },
                {
                    "name": "timestamp",
                    "type": "uint64",
                    "indexed": false,
                    "internalType": "uint64"
                }
            ],
            "anonymous": false
        },
        {
            "type": "event",
            "name": "AutomationExecuted",
            "inputs": [
                {
                    "name": "user",
                    "type": "address",
                    "indexed": true,
                    "internalType": "address"
                },
                {
                    "name": "executor",
                    "type": "address",
                    "indexed": true,
                    "internalType": "address"
                },
                {
                    "name": "mask",
                    "type": "uint256",
                    "indexed": false,
                    "internalType": "uint256"
                },
                {
                    "name": "totalCost",
                    "type": "uint256",
                    "indexed": false,
                    "internalType": "uint256"
                },
                {
                    "name": "timestamp",
                    "type": "uint64",
                    "indexed": false,
                    "internalType": "uint64"
                }
            ],
            "anonymous": false
        },
        {
            "type": "event",
            "name": "AutomationUpdated",
            "inputs": [
                {
                    "name": "user",
                    "type": "address",
                    "indexed": true,
                    "internalType": "address"
                },
                {
                    "name": "cfg",
                    "type": "tuple",
                    "indexed": false,
                    "internalType": "struct OreProtocol.Automation",
                    "components": [
                        {
                            "name": "owner",
                            "type": "address",
                            "internalType": "address"
                        },
                        {
                            "name": "executor",
                            "type": "address",
                            "internalType": "address"
                        },
                        {
                            "name": "balance",
                            "type": "uint256",
                            "internalType": "uint256"
                        },
                        {
                            "name": "mask",
                            "type": "uint256",
                            "internalType": "uint256"
                        },
                        {
                            "name": "amountPerSquare",
                            "type": "uint256",
                            "internalType": "uint256"
                        },
                        {
                            "name": "feePerCall",
                            "type": "uint256",
                            "internalType": "uint256"
                        },
                        {
                            "name": "randomizeMask",
                            "type": "bool",
                            "internalType": "bool"
                        },
                        {
                            "name": "active",
                            "type": "bool",
                            "internalType": "bool"
                        }
                    ]
                },
                {
                    "name": "timestamp",
                    "type": "uint64",
                    "indexed": false,
                    "internalType": "uint64"
                }
            ],
            "anonymous": false
        },
        {
            "type": "event",
            "name": "BuryEvent",
            "inputs": [
                {
                    "name": "amountIn",
                    "type": "uint256",
                    "indexed": false,
                    "internalType": "uint256"
                },
                {
                    "name": "oreReceived",
                    "type": "uint256",
                    "indexed": false,
                    "internalType": "uint256"
                },
                {
                    "name": "stakerShare",
                    "type": "uint256",
                    "indexed": false,
                    "internalType": "uint256"
                },
                {
                    "name": "burned",
                    "type": "uint256",
                    "indexed": false,
                    "internalType": "uint256"
                },
                {
                    "name": "router",
                    "type": "address",
                    "indexed": false,
                    "internalType": "address"
                },
                {
                    "name": "timestamp",
                    "type": "uint64",
                    "indexed": false,
                    "internalType": "uint64"
                }
            ],
            "anonymous": false
        },
        {
            "type": "event",
            "name": "CheckpointEvent",
            "inputs": [
                {
                    "name": "roundId",
                    "type": "uint64",
                    "indexed": true,
                    "internalType": "uint64"
                },
                {
                    "name": "miner",
                    "type": "address",
                    "indexed": true,
                    "internalType": "address"
                },
                {
                    "name": "ethReward",
                    "type": "uint256",
                    "indexed": false,
                    "internalType": "uint256"
                },
                {
                    "name": "oreReward",
                    "type": "uint256",
                    "indexed": false,
                    "internalType": "uint256"
                },
                {
                    "name": "bot",
                    "type": "address",
                    "indexed": false,
                    "internalType": "address"
                },
                {
                    "name": "timestamp",
                    "type": "uint64",
                    "indexed": false,
                    "internalType": "uint64"
                }
            ],
            "anonymous": false
        },
        {
            "type": "event",
            "name": "ClaimEth",
            "inputs": [
                {
                    "name": "miner",
                    "type": "address",
                    "indexed": true,
                    "internalType": "address"
                },
                {
                    "name": "roundId",
                    "type": "uint64",
                    "indexed": true,
                    "internalType": "uint64"
                },
                {
                    "name": "amount",
                    "type": "uint256",
                    "indexed": false,
                    "internalType": "uint256"
                },
                {
                    "name": "to",
                    "type": "address",
                    "indexed": false,
                    "internalType": "address"
                },
                {
                    "name": "timestamp",
                    "type": "uint64",
                    "indexed": false,
                    "internalType": "uint64"
                }
            ],
            "anonymous": false
        },
        {
            "type": "event",
            "name": "ClaimOre",
            "inputs": [
                {
                    "name": "miner",
                    "type": "address",
                    "indexed": true,
                    "internalType": "address"
                },
                {
                    "name": "roundId",
                    "type": "uint64",
                    "indexed": true,
                    "internalType": "uint64"
                },
                {
                    "name": "amount",
                    "type": "uint256",
                    "indexed": false,
                    "internalType": "uint256"
                },
                {
                    "name": "tax",
                    "type": "uint256",
                    "indexed": false,
                    "internalType": "uint256"
                },
                {
                    "name": "redistributed",
                    "type": "uint256",
                    "indexed": false,
                    "internalType": "uint256"
                },
                {
                    "name": "timestamp",
                    "type": "uint64",
                    "indexed": false,
                    "internalType": "uint64"
                }
            ],
            "anonymous": false
        },
        {
            "type": "event",
            "name": "ConfigUpdated",
            "inputs": [
                {
                    "name": "field",
                    "type": "bytes32",
                    "indexed": true,
                    "internalType": "bytes32"
                },
                {
                    "name": "timestamp",
                    "type": "uint64",
                    "indexed": false,
                    "internalType": "uint64"
                }
            ],
            "anonymous": false
        },
        {
            "type": "event",
            "name": "CoordinatorSet",
            "inputs": [
                {
                    "name": "vrfCoordinator",
                    "type": "address",
                    "indexed": false,
                    "internalType": "address"
                }
            ],
            "anonymous": false
        },
        {
            "type": "event",
            "name": "DeployEvent",
            "inputs": [
                {
                    "name": "roundId",
                    "type": "uint64",
                    "indexed": true,
                    "internalType": "uint64"
                },
                {
                    "name": "miner",
                    "type": "address",
                    "indexed": true,
                    "internalType": "address"
                },
                {
                    "name": "mask",
                    "type": "uint256",
                    "indexed": false,
                    "internalType": "uint256"
                },
                {
                    "name": "amountPerSquare",
                    "type": "uint256",
                    "indexed": false,
                    "internalType": "uint256"
                },
                {
                    "name": "totalAmount",
                    "type": "uint256",
                    "indexed": false,
                    "internalType": "uint256"
                },
                {
                    "name": "automation",
                    "type": "bool",
                    "indexed": false,
                    "internalType": "bool"
                },
                {
                    "name": "timestamp",
                    "type": "uint64",
                    "indexed": false,
                    "internalType": "uint64"
                }
            ],
            "anonymous": false
        },
        {
            "type": "event",
            "name": "EmergencyRefund",
            "inputs": [
                {
                    "name": "roundId",
                    "type": "uint64",
                    "indexed": true,
                    "internalType": "uint64"
                },
                {
                    "name": "totalDeployed",
                    "type": "uint256",
                    "indexed": false,
                    "internalType": "uint256"
                },
                {
                    "name": "timestamp",
                    "type": "uint64",
                    "indexed": false,
                    "internalType": "uint64"
                }
            ],
            "anonymous": false
        },
        {
            "type": "event",
            "name": "ExpiredRewardsClaimed",
            "inputs": [
                {
                    "name": "roundId",
                    "type": "uint64",
                    "indexed": true,
                    "internalType": "uint64"
                },
                {
                    "name": "unclaimedRewards",
                    "type": "uint256",
                    "indexed": false,
                    "internalType": "uint256"
                },
                {
                    "name": "unclaimedFees",
                    "type": "uint256",
                    "indexed": false,
                    "internalType": "uint256"
                },
                {
                    "name": "timestamp",
                    "type": "uint64",
                    "indexed": false,
                    "internalType": "uint64"
                }
            ],
            "anonymous": false
        },
        {
            "type": "event",
            "name": "MotherlodeEvent",
            "inputs": [
                {
                    "name": "roundId",
                    "type": "uint64",
                    "indexed": true,
                    "internalType": "uint64"
                },
                {
                    "name": "amount",
                    "type": "uint256",
                    "indexed": false,
                    "internalType": "uint256"
                },
                {
                    "name": "timestamp",
                    "type": "uint64",
                    "indexed": false,
                    "internalType": "uint64"
                }
            ],
            "anonymous": false
        },
        {
            "type": "event",
            "name": "OwnershipTransferRequested",
            "inputs": [
                {
                    "name": "from",
                    "type": "address",
                    "indexed": true,
                    "internalType": "address"
                },
                {
                    "name": "to",
                    "type": "address",
                    "indexed": true,
                    "internalType": "address"
                }
            ],
            "anonymous": false
        },
        {
            "type": "event",
            "name": "OwnershipTransferred",
            "inputs": [
                {
                    "name": "from",
                    "type": "address",
                    "indexed": true,
                    "internalType": "address"
                },
                {
                    "name": "to",
                    "type": "address",
                    "indexed": true,
                    "internalType": "address"
                }
            ],
            "anonymous": false
        },
        {
            "type": "event",
            "name": "ResetEvent",
            "inputs": [
                {
                    "name": "roundId",
                    "type": "uint64",
                    "indexed": true,
                    "internalType": "uint64"
                },
                {
                    "name": "winningSquare",
                    "type": "uint8",
                    "indexed": false,
                    "internalType": "uint8"
                },
                {
                    "name": "winnings",
                    "type": "uint256",
                    "indexed": false,
                    "internalType": "uint256"
                },
                {
                    "name": "vaultShare",
                    "type": "uint256",
                    "indexed": false,
                    "internalType": "uint256"
                },
                {
                    "name": "splitReward",
                    "type": "bool",
                    "indexed": false,
                    "internalType": "bool"
                },
                {
                    "name": "motherlode",
                    "type": "bool",
                    "indexed": false,
                    "internalType": "bool"
                },
                {
                    "name": "topMiner",
                    "type": "address",
                    "indexed": false,
                    "internalType": "address"
                },
                {
                    "name": "numWinners",
                    "type": "uint256",
                    "indexed": false,
                    "internalType": "uint256"
                },
                {
                    "name": "motherlodePayout",
                    "type": "uint256",
                    "indexed": false,
                    "internalType": "uint256"
                },
                {
                    "name": "oreReward",
                    "type": "uint256",
                    "indexed": false,
                    "internalType": "uint256"
                },
                {
                    "name": "timestamp",
                    "type": "uint64",
                    "indexed": false,
                    "internalType": "uint64"
                }
            ],
            "anonymous": false
        },
        {
            "type": "event",
            "name": "ResetRequested",
            "inputs": [
                {
                    "name": "roundId",
                    "type": "uint64",
                    "indexed": true,
                    "internalType": "uint64"
                },
                {
                    "name": "requestId",
                    "type": "uint256",
                    "indexed": false,
                    "internalType": "uint256"
                },
                {
                    "name": "timestamp",
                    "type": "uint64",
                    "indexed": false,
                    "internalType": "uint64"
                }
            ],
            "anonymous": false
        },
        {
            "type": "event",
            "name": "RoundStarted",
            "inputs": [
                {
                    "name": "roundId",
                    "type": "uint64",
                    "indexed": true,
                    "internalType": "uint64"
                },
                {
                    "name": "startBlock",
                    "type": "uint64",
                    "indexed": false,
                    "internalType": "uint64"
                },
                {
                    "name": "endBlock",
                    "type": "uint64",
                    "indexed": false,
                    "internalType": "uint64"
                },
                {
                    "name": "timestamp",
                    "type": "uint64",
                    "indexed": false,
                    "internalType": "uint64"
                }
            ],
            "anonymous": false
        },
        {
            "type": "event",
            "name": "StakeClaimed",
            "inputs": [
                {
                    "name": "user",
                    "type": "address",
                    "indexed": true,
                    "internalType": "address"
                },
                {
                    "name": "to",
                    "type": "address",
                    "indexed": true,
                    "internalType": "address"
                },
                {
                    "name": "amount",
                    "type": "uint256",
                    "indexed": false,
                    "internalType": "uint256"
                },
                {
                    "name": "timestamp",
                    "type": "uint64",
                    "indexed": false,
                    "internalType": "uint64"
                }
            ],
            "anonymous": false
        },
        {
            "type": "event",
            "name": "StakeDeposited",
            "inputs": [
                {
                    "name": "user",
                    "type": "address",
                    "indexed": true,
                    "internalType": "address"
                },
                {
                    "name": "amount",
                    "type": "uint256",
                    "indexed": false,
                    "internalType": "uint256"
                },
                {
                    "name": "timestamp",
                    "type": "uint64",
                    "indexed": false,
                    "internalType": "uint64"
                }
            ],
            "anonymous": false
        },
        {
            "type": "event",
            "name": "StakeWithdrawn",
            "inputs": [
                {
                    "name": "user",
                    "type": "address",
                    "indexed": true,
                    "internalType": "address"
                },
                {
                    "name": "amount",
                    "type": "uint256",
                    "indexed": false,
                    "internalType": "uint256"
                },
                {
                    "name": "timestamp",
                    "type": "uint64",
                    "indexed": false,
                    "internalType": "uint64"
                }
            ],
            "anonymous": false
        },
        {
            "type": "event",
            "name": "VRFConfigUpdated",
            "inputs": [
                {
                    "name": "keyHash",
                    "type": "bytes32",
                    "indexed": false,
                    "internalType": "bytes32"
                },
                {
                    "name": "subId",
                    "type": "uint64",
                    "indexed": false,
                    "internalType": "uint64"
                },
                {
                    "name": "minConf",
                    "type": "uint16",
                    "indexed": false,
                    "internalType": "uint16"
                },
                {
                    "name": "gasLimit",
                    "type": "uint32",
                    "indexed": false,
                    "internalType": "uint32"
                },
                {
                    "name": "timestamp",
                    "type": "uint64",
                    "indexed": false,
                    "internalType": "uint64"
                }
            ],
            "anonymous": false
        },
        {
            "type": "event",
            "name": "VaultWithdraw",
            "inputs": [
                {
                    "name": "target",
                    "type": "address",
                    "indexed": true,
                    "internalType": "address"
                },
                {
                    "name": "amount",
                    "type": "uint256",
                    "indexed": false,
                    "internalType": "uint256"
                },
                {
                    "name": "timestamp",
                    "type": "uint64",
                    "indexed": false,
                    "internalType": "uint64"
                }
            ],
            "anonymous": false
        },
        {
            "type": "error",
            "name": "AlreadyCheckpointed",
            "inputs": []
        },
        {
            "type": "error",
            "name": "AlreadyDeployedThisRound",
            "inputs": []
        },
        {
            "type": "error",
            "name": "AlreadyFinalized",
            "inputs": []
        },
        {
            "type": "error",
            "name": "AutomationAlreadyActive",
            "inputs": []
        },
        {
            "type": "error",
            "name": "AutomationInactive",
            "inputs": []
        },
        {
            "type": "error",
            "name": "AutomationNotAuthorized",
            "inputs": []
        },
        {
            "type": "error",
            "name": "ClaimWindowPassed",
            "inputs": []
        },
        {
            "type": "error",
            "name": "GameAlreadyStarted",
            "inputs": []
        },
        {
            "type": "error",
            "name": "GameNotStarted",
            "inputs": []
        },
        {
            "type": "error",
            "name": "InsufficientAutomationBalance",
            "inputs": []
        },
        {
            "type": "error",
            "name": "InsufficientVault",
            "inputs": []
        },
        {
            "type": "error",
            "name": "InvalidAmount",
            "inputs": []
        },
        {
            "type": "error",
            "name": "InvalidMask",
            "inputs": []
        },
        {
            "type": "error",
            "name": "InvalidRouter",
            "inputs": []
        },
        {
            "type": "error",
            "name": "MustCheckpointPreviousRound",
            "inputs": []
        },
        {
            "type": "error",
            "name": "NotBuryAuthority",
            "inputs": []
        },
        {
            "type": "error",
            "name": "NothingToClaim",
            "inputs": []
        },
        {
            "type": "error",
            "name": "OnlyCoordinatorCanFulfill",
            "inputs": [
                {
                    "name": "have",
                    "type": "address",
                    "internalType": "address"
                },
                {
                    "name": "want",
                    "type": "address",
                    "internalType": "address"
                }
            ]
        },
        {
            "type": "error",
            "name": "OnlyOwnerOrCoordinator",
            "inputs": [
                {
                    "name": "have",
                    "type": "address",
                    "internalType": "address"
                },
                {
                    "name": "owner",
                    "type": "address",
                    "internalType": "address"
                },
                {
                    "name": "coordinator",
                    "type": "address",
                    "internalType": "address"
                }
            ]
        },
        {
            "type": "error",
            "name": "PleaseWaitForVRF",
            "inputs": []
        },
        {
            "type": "error",
            "name": "RandomnessNotReady",
            "inputs": []
        },
        {
            "type": "error",
            "name": "RandomnessPending",
            "inputs": []
        },
        {
            "type": "error",
            "name": "ReentrancyGuardReentrantCall",
            "inputs": []
        },
        {
            "type": "error",
            "name": "RoundNotLive",
            "inputs": []
        },
        {
            "type": "error",
            "name": "ZeroAddress",
            "inputs": []
        }
    ],
    "bytecode": {
        "object": "0x60a06040523461041c57604051601f61642538819003918201601f19168301916001600160401b03831184841017610420578084926102009460405283398101031261041c5760405161020081016001600160401b038111828210176104205760405281516001600160a01b038116810361041c57815261008260208301610434565b916020820192835261009660408201610434565b604083019081526100a960608301610434565b606084019081526100bc60808401610434565b9182608086015260a08401519260a086019384526101e060c08601519560c088019687526100ec60e08201610448565b60e08901526100fe6101008201610457565b6101008901526101116101208201610457565b6101208901526101246101408201610457565b6101408901526101376101608201610457565b61016089015261014a6101808201610457565b61018089015261015d6101a08201610448565b6101a08901526101706101c08201610448565b6101c089015201516101e087015260015f556001600160a01b031633156103d757600180546001600160a01b0319163317905580156103c857600380546001600160a01b03191691909117905584516001600160a01b03161561039b5784516001600160a01b03166080526004546101208601516101408701516101608801516101808901516101e09a94919360401b6bffffffff0000000000000000169260601b6fffffffff000000000000000000000000169063ffffffff9081169085168082116103935750905b6101a08b01516101c08c015165ffffffffffff60c01b19909216600160a01b600160f01b03196001600160a01b0319958616909617600117959095169490941760809590951b63ffffffff60801b169490941760a09190911b63ffffffff60a01b161760c09290921b61ffff60c01b169190911760d09290921b61ffff60d01b1691909117601960e21b1760ff60f01b191660045590516005805483166001600160a01b0392831617905591516006805483169184169190911790559151600780549093169116179055516008555160095560e0810151600a805461010084015165ffffffffffff1990911661ffff939093169290921760109290921b65ffffffff0000169190911790550151600b55604051615fbc908161046982396080518181816107ef01528181610b6201528181610ec501528181611d5701528181612d5b01528181612e7f0152818161306c0152615dc50152f35b90509061023a565b60405162461bcd60e51b81526020600482015260056024820152643a37b5b2b760d91b6044820152606490fd5b63d92e233d60e01b5f5260045ffd5b60405162461bcd60e51b815260206004820152601860248201527f43616e6e6f7420736574206f776e657220746f207a65726f00000000000000006044820152606490fd5b5f80fd5b634e487b7160e01b5f52604160045260245ffd5b51906001600160a01b038216820361041c57565b519061ffff8216820361041c57565b519063ffffffff8216820361041c5756fe60806040526004361015610011575f80fd5b5f5f3560e01c8063078b0fb714613f315780630f3e2f5114613bf75780631325a6d614613b4857806316934fc414613ae45780631fe543e31461355357806323a8bdca1461323a57806325452dd014613505578063271bc799146133e25780632e1c52271461337f5780633141e25b146132b957806341a027aa1461328657806361d027b31461323a57806362954e5f14612f5057806366c90c5a14612e08578063676a630014612cba5780636c46376d14612b395780636c6804a7146128c45780636c7183851461280c5780636db8b42d146126db578063703a4b04146126aa578063747dff42146125c557806379502c551461254857806379ba5097146124995780637b3f039c146122cf5780637cd3229a14612235578063805ccb3e1461216c57806384bf220a1461207257806384d452ff14611fea5780638da5cb5b14611fc15780638ea9811714611eef5780638fd2040d14611e5d5780639318992b14611d86578063937a007714611d415780639767bae614611c125780639e998c3414611b105780639eccacf614611ae7578063a30988e214611a8a578063a97958c11461197d578063af8b1c6f1461195f578063b00328e5146117e7578063b220cf8b146116bd578063b9ad43571461161f578063bc3ac875146114cd578063bf376c7a14611375578063c3453153146112cd578063cb70ffef14610fc9578063cb82cc8f14610e48578063d4617c4814610ab8578063d65ab5f214610982578063db326efc146108bb578063db8343061461087e578063e58306f9146107ca578063ecae3fa21461077b578063ef84da1214610724578063f2fde38b14610668578063f921e65c146102dc5763fa4d3ab91461028d575f80fd5b346102d95760203660031901126102d957604080916001600160401b036102b2614026565b168152601260205220546001600160401b038251918181851c16835260801c166020820152f35b80fd5b50346102d95760203660031901126102d95760406108e0916001600160401b03610304614026565b835161030f8161421e565b83815283602082015283858201528360608201528360808201528360a08201528360c08201528360e08201528361010082015283610120820152836101408201528361016082015283610180820152836101a0820152836101c0820152836101e082015283610200820152836102208201528361024082015283610260820152836102808201526102c06103209186516103a9848261423a565b833682376102a08201528651926103c0818561423a565b368437015216815260126020522061050d6026604051926103e08461421e565b80546001600160401b03811685526001600160401b038160401c1660208601526001600160401b038160801c16604086015260c01c60608501526001600160401b036001820154166080850152600281015460a0850152600381015460c0850152600481015460e0850152600581015461010085015260ff600682015416610120850152600781015461014085015260088101546101608501526009810154610180850152600a8101546101a085015260ff600b82015460018060a01b0381166101c0870152818160a01c1615156101e0870152818160a81c161515610200870152818160b01c161515610220870152818160b81c16151561024087015260c01c161515610260850152600c810154610280850152610501600d820161433f565b6102a08501520161433f565b6102c08201526106666102c0604051926001600160401b0381511684526001600160401b0360208201511660208501526001600160401b0360408201511660408501526001600160401b0360608201511660608501526001600160401b03608082015116608085015260a081015160a085015260c081015160c085015260e081015160e085015261010081015161010085015260ff610120820151166101208501526101408101516101408501526101608101516101608501526101808101516101808501526101a08101516101a085015260018060a01b036101c0820151166101c08501526101e081015115156101e085015261020081015115156102008501526102208101511515610220850152610240810151151561024085015261026081015115156102608501526102808101516102808501526106596102a08201516102a0860190614146565b01516105c0830190614146565bf35b50346102d95760203660031901126102d957610682613fca565b61068a614e87565b6001600160a01b03163381146106df57600280546001600160a01b031916821790556001546001600160a01b03167fed8889f560326eb138920d842192f0eb3dd22b4f139c87a2c57538e05bae12788380a380f35b60405162461bcd60e51b815260206004820152601760248201527f43616e6e6f74207472616e7366657220746f2073656c660000000000000000006044820152606490fd5b50346102d95760403660031901126102d9576040610740614026565b916001600160401b03610751613fe0565b931681526013602052209060018060a01b03165f526020526020600260405f200154604051908152f35b50346102d95760403660031901126102d9576107c66107a961079b613fca565b6107a3613fe0565b90614694565b604080519384526020840192909252908201529081906060820190565b0390f35b50346102d95760403660031901126102d957806107e5613fca565b6107ed614e87565b7f00000000000000000000000000000000000000000000000000000000000000006001600160a01b0316803b1561087a576040516340c10f1960e01b81526001600160a01b03929092166004830152602480359083015282908290604490829084905af1801561086f5761085e5750f35b816108689161423a565b6102d95780f35b6040513d84823e3d90fd5b5050fd5b50346102d95760403660031901126102d9576107c66108ac61089e614026565b6108a6613fe0565b9061454d565b604093919351938493846140ea565b50346102d95760203660031901126102d9576108d5613fca565b6108dd6148e9565b6109227f851c74a0a45a88d9a2f89b8d073b3258cf368fd731101e9c5df65b43689d376c61095a6109276109113386614694565b959082610964575b600b54906141ab565b6141ab565b604080519485526020850191909152426001600160401b03169084015233936001600160a01b0316929081906060820190565b0390a36001815580f35b61097d8980808087335af16109776142c5565b5061450a565b610919565b50346102d957806003193601126102d95761099b614e87565b60045460ff8160f01c16610aa95760016001600160401b03821603610aa95760ff60f01b1916600160f01b176004556001808252601260205260408220805467ffffffffffffffff1916821781557f94bff5a899e601756cf70b973df79e33ddc4794997b73d67d87e831845ba2c2290610aa390610a22436001600160401b0316826144e2565b610a70610a486001600160401b03835460401c1663ffffffff60045460401c1690614416565b825467ffffffffffffffff60801b191660809190911b67ffffffffffffffff60801b16178255565b54604080516001600160401b0383831c8116825260809390931c8316602082015242909216908201529081906060820190565b0390a280f35b63ba26162b60e01b8252600482fd5b50346102d95760603660031901126102d9576004356001600160401b038111610d1f5736602382011215610d1f5780600401356001600160401b038111610e44573660248284010111610e445760243590610b116148e9565b6006546001600160a01b03163303610e35576007546001600160a01b0316928315610e2657601054838110610e175783610b4a9161416d565b6010556040516370a0823160e01b81523060048201527f00000000000000000000000000000000000000000000000000000000000000006001600160a01b03169490602081602481895afa918215610e0c578585928994610dd2575b506024906044602095966040519889968795869363313eeab560e11b85528a60048601528282860152018484013781810183018d9052601f01601f191681010301925af1918215610dc7578592610d93575b506040516370a0823160e01b815230600482015290602082602481885afa8015610d88578690610d50575b610c2d925061416d565b906044358210908115610d46575b50610d3757600a8102818104600a1482151715610d23576064900484610c61828461416d565b94610c6b83615d65565b803b15610d1f57818091602460405180948193630852cd8d60e31b83528b60048401525af1801561086f57610d00575b50927f83e743814f1efe325554477e59eec75d82026e4308864261a53b80529bbc7c9a928560c09360018060a01b03600754169260405194855260208501526040840152606083015260808201526001600160401b03421660a0820152a16001815580f35b81610d0e919594939561423a565b610d1b579091845f610c9b565b8480fd5b5080fd5b634e487b7160e01b85526011600452602485fd5b63162908e360e11b8452600484fd5b905081105f610c3b565b506020823d602011610d80575b81610d6a6020938361423a565b81010312610d7c57610c2d9151610c23565b5f80fd5b3d9150610d5d565b6040513d88823e3d90fd5b9091506020813d602011610dbf575b81610daf6020938361423a565b81010312610d7c5751905f610bf8565b3d9150610da2565b6040513d87823e3d90fd5b92505091506020813d602011610e04575b81610df06020938361423a565b81010312610d7c5751908390856024610ba6565b3d9150610de3565b6040513d89823e3d90fd5b631b74457560e31b8652600486fd5b63466d7fef60e01b8552600485fd5b6360c4e54360e01b8452600484fd5b8280fd5b50346102d95760203660031901126102d957600435610e656148e9565b8015610fba57338252601760205260408220610e8081614f31565b610e8b8282546141ab565b9055610e9981600c546141ab565b600c556040516323b872dd60e01b815233600482015230602482015260448101829052602081606481867f00000000000000000000000000000000000000000000000000000000000000006001600160a01b03165af1908115610faf578391610f80575b5015610f4c5760408051918252426001600160401b0316602083015233917f6e69bcfef2c5fa29f8823f7e916f754a10da9af7a9e99467cae256619820a9d091819081015b0390a26001815580f35b60405162461bcd60e51b815260206004820152600c60248201526b7472616e7366657246726f6d60a01b6044820152606490fd5b610fa2915060203d602011610fa8575b610f9a818361423a565b810190614376565b5f610efd565b503d610f90565b6040513d85823e3d90fd5b63162908e360e11b8252600482fd5b50346102d95760203660031901126102d9576001600160401b03610feb614026565b610ff3614e87565b610ffb6148e9565b16808252601260205260408220600b81019081549160ff8360a01c161561128f5760ff8360a81c1661124a576001600160401b03600454168403611211576001600160401b03825460801c16611c2081018091116111fd574311156111b8577f9a2d5cccb5b401ebca38c9f2398ac9f3dbcd48391922c21aa633689eb409535e92600160a81b9061ffff60a01b19161790556001600282019185835493558560038201558560048201556006810160ff801982541617905585600782015585600882015585600a8201556111046001600160401b036110e563ffffffff60045460801c16436141ab565b83546001600160c01b0316911660c01b6001600160c01b031916178255565b016001600160401b03804316166001600160401b03198254161790556001600160401b03421690837f81fa2c7772aa5abdc3ad284879e95a0242648f9bf182f900f753a71877963acf61014060405160ff81528860208201528860408201528860608201528860808201528860a08201528860c08201528860e08201528861010082015285610120820152a2604080519182526001600160401b03929092166020820152a26111b1615c11565b6001815580f35b60405162461bcd60e51b815260206004820152601d60248201527f546f6f206561726c7920666f7220656d657267656e63792072657365740000006044820152606490fd5b634e487b7160e01b86526011600452602486fd5b60405162461bcd60e51b8152602060048201526011602482015270139bdd0818dd5c9c995b9d081c9bdd5b99607a1b6044820152606490fd5b60405162461bcd60e51b815260206004820152601760248201527f526f756e6420616c72656164792066696e616c697a65640000000000000000006044820152606490fd5b60405162461bcd60e51b8152602060048201526016602482015275139bc81c195b991a5b99c8159491881c995c5d595cdd60521b6044820152606490fd5b50346102d95760203660031901126102d9576040906112ea613fca565b6001600160a01b0316815260176020522080546001820154918161133b575b60028101546003909101546040805193845260208401949094529282015265ffffffffffff9091166060820152608090f35b9161136d6107c691670de0b6b3a7640000611366611360600d5460028901549061416d565b8661417a565b04906141ab565b929050611309565b50346102d95760403660031901126102d95761138f613fca565b6024359061139b614e87565b6113a36148e9565b6001600160a01b03169081156114975780156114645760105480821161145557816113cd9161416d565b60105582808080848661c350f16113e26142c5565b501561142a5760408051918252426001600160401b031660208301527f2fd5dc1cae0aeef727e9349fc28f7cd04ce60073a57be16a0268ea704462b551919081908101610f42565b606460405162461bcd60e51b81526020600482015260046024820152630777261760e41b6044820152fd5b631b74457560e31b8452600484fd5b60405162461bcd60e51b815260206004820152600b60248201526a16995c9bc8185b5bdd5b9d60aa1b6044820152606490fd5b60405162461bcd60e51b815260206004820152600e60248201526d125b9d985b1a59081d185c99d95d60921b6044820152606490fd5b50346102d95760203660031901126102d95760406102a0916001600160401b036114f5614026565b16815260126020522080549060ff6001600160401b0360018301541691600281015460038201546004830154600584015485600686015416600786015491600887015493600988015495600a89015497600c600b8b01549a01549b60806040519e8f906001600160401b03811682526001600160401b038160401c1660208301526001600160401b0381841c16604083015260c01c6060820152015260a08d015260c08c015260e08b01526101008a01526101208901526101408801526101608701526101808601526101a085015260018060a01b0381166101c0850152818160a01c1615156101e0850152818160a81c161515610200850152818160b01c161515610220850152818160b81c16151561024085015260c01c161515610260830152610280820152f35b50346102d95760203660031901126102d957610100906040906001600160a01b03611648613fca565b16815260166020522060ff60018060a01b038254169160018060a01b0360018201541690600281015460038201546004830154916006600585015494015494604051978852602088015260408701526060860152608085015260a0840152818116151560c084015260081c16151560e0820152f35b506101003660031901126102d9576116d36148e9565b3381526016602052604081206006810160ff815460081c166117d85781546001600160a01b031916331782556024356001600160a01b03811681036117d4576001830180546001600160a01b0319166001600160a01b039092169190911790556064356003830155608435600483015560a435600583015560c43580151590818103610d1b575060ff8019835416911617815560e43580151590818103610d1b575061ff0082549160081b169061ff001916179055600281016117973482546141ab565b90557f95b170f6813e96aa448a914f6a8aed8847ed4d6e0f1c54f12e15ccda05a630da60405180610f4233946001600160401b0342169083614468565b8380fd5b63019b5d0960e71b8352600483fd5b50346102d957806003193601126102d957476010546001600160401b0360045416600a81115f146119585760091981016001600160401b038111610d23575b915b6001600160401b038316828111611874576001600160401b039161185b91875260126020526005604088200154906141ab565b92166001600160401b038114610d235760010191611828565b8482878183106118f0575060019061188c818461416d565b926001600160ff1b0384116118b8576080935b6040519315158452602084015260408301526060820152f35b60405162461bcd60e51b815260206004820152601060248201526f537572706c7573206f766572666c6f7760801b6044820152606490fd5b919082916118fe818361416d565b6001600160ff1b03811161192057600160ff1b8114610d23576080940361189f565b60405162461bcd60e51b815260206004820152601060248201526f44656669636974206f766572666c6f7760801b6044820152606490fd5b6001611826565b50346102d957806003193601126102d9576020601054604051908152f35b50346102d95760203660031901126102d9576001600160401b0361199f614026565b168082526012602052604082206119bf60ff600b83015460a81c166143c5565b60ff60068201541691835260196020526040832060ff83165f526020528160405f208054906119ed8261425b565b956119fb604051978861423a565b82875290815260208082209087015b838310611a4e5750505050600d611a219201614407565b90549060031b1c611a44604051938493845260606020850152606084019061406f565b9060408301520390f35b600191929394506020600291604051611a66816141e7565b848060a01b0386541681528486015483820152815201920192019091859392611a0a565b50346102d957806003193601126102d95780604091506103208251611aaf828261423a565b3690376001600160401b036004541681526012602052206002611ad4600d830161433f565b910154906107c66040519283928361403c565b50346102d957806003193601126102d9576003546040516001600160a01b039091168152602090f35b50346102d95760403660031901126102d957600435611b2d613fe0565b90611b366148e9565b338352601660205260408320913360018060a01b0384541603611c0357600283018054808411611bf45783869493859493611b738695869561416d565b90556001600160a01b03165af1611b886142c5565b5015611bc9577f95b170f6813e96aa448a914f6a8aed8847ed4d6e0f1c54f12e15ccda05a630da60405180610f4233946001600160401b0342169083614468565b606460405162461bcd60e51b81526020600482015260046024820152631cd95b9960e21b6044820152fd5b63162908e360e11b8652600486fd5b631fc2483d60e11b8452600484fd5b50346102d95760a03660031901126102d95760043563ffffffff81168103610d1f5760243563ffffffff81168103610e445760443563ffffffff811681036117d4576064359161ffff83168303610d1b576084359061ffff82168203611d3d57611c7a614e87565b6004805460c09590951b61ffff60c01b1660809490941b63ffffffff60801b167fffffffff00000000ffffffff000000000000000000000000ffffffffffffffff909516604096871b6bffffffff0000000000000000161760609290921b63ffffffff60601b1691909117939093179190911760d09190911b61ffff60d01b1617905551426001600160401b03168152641c9bdd5b9960da1b907f76855322c5cc7335ce7f03ab0323699af75ee9c167c9c3c15f63a103065425d090602090a280f35b8580fd5b50346102d957806003193601126102d9576040517f00000000000000000000000000000000000000000000000000000000000000006001600160a01b03168152602090f35b50346102d95760403660031901126102d9576004356001600160401b038111610d1f57611db7903690600401613ff6565b91611dc0613fe0565b908092611dcc85614436565b94829360018060a01b0316905b808510611dfe5786866107c660405192839283526040602084015260408301906140b7565b9091929394611e0e868386614272565b356001600160401b038116809103611d3d57600191611e52918752601360205260408720855f52602052600260405f2001549081611e4c8a8c6142a3565b526141ab565b950193929190611dd9565b50346102d95760403660031901126102d9576040611e79614026565b916001600160401b03611e8a613fe0565b931681526013602052209060018060a01b03165f5260205260c060405f208054906001810154906002810154600460038301549201549260ff604051958181161515875260081c161515602086015260408501526060840152608083015260a0820152f35b50346102d95760203660031901126102d957611f09613fca565b6001546001600160a01b03163381141580611fac575b611f8457506001600160a01b03168015611f75576020817fd1a6a14209a385a964d036e404cb5cfb71f4000cdb03c9366292430787261be6926001600160601b0360a01b6003541617600355604051908152a180f35b63d92e233d60e01b8252600482fd5b60035463061db9c160e01b8452336004526024919091526001600160a01b0316604452606482fd5b506003546001600160a01b0316331415611f1f565b50346102d957806003193601126102d9576001546040516001600160a01b039091168152602090f35b50346102d957806003193601126102d9576120036148e9565b6001600160401b0360045416815260126020526040812060ff600b82015460a01c16612063575460801c6001600160401b031643111561205457602090600161204a6159d9565b9155604051908152f35b631328d40b60e31b8152600490fd5b63319b714360e01b8252600482fd5b50346102d95760203660031901126102d957604061010091612092613fca565b61209a614303565b506001600160a01b03168152601660205220604051906120b982614202565b60018060a01b038154169182815260018060a01b03600183015416916020820192835260028101546040830190815260038201546060840190815260048301549160808501928352600660058501549460a0870195865201549560ff60e060c0880197828a1615158952019760081c161515875260405197885260018060a01b0390511660208801525160408701525160608601525160808501525160a084015251151560c083015251151560e0820152f35b50346102d95760803660031901126102d957600435602435906001600160401b038216809203610e44576044359061ffff82168092036117d4576064359163ffffffff831690818403611d3d577f5c52bd2211f9edb1ae3b3e5d1da8da87ccc689755cd68f9256ddc9f3bd224ca69460a0946121e6614e87565b84600855816009558265ffffffff0000600a549260101b169165ffffffffffff19161717600a556040519384526020840152604083015260608201526001600160401b0342166080820152a180f35b50346102d957806003193601126102d95761012060045460ff604051916001600160401b038116835263ffffffff8160401c16602084015263ffffffff8160601c16604084015263ffffffff8160801c16606084015263ffffffff8160a01c16608084015261ffff8160c01c1660a084015261ffff8160d01c1660c084015261ffff8160e01c1660e084015260f01c161515610100820152f35b50346102d95760203660031901126102d9576001600160401b036122f1614026565b6122f9614e87565b6123016148e9565b16908181526012602052604081209161232360ff600b85015460a81c166143c5565b825460c01c8015612464576202a3008101809111612450574311156124145761236b61235960ff600686015416600d8601614407565b90549060031b1c6003850154906141ab565b92600c810180548086115f1461240a576123876005918761416d565b925b019485549161239883856141ab565b80156123fb579580976123cf7f24e0d5b62f9d1a04b8fc88102f1e5ad451bb998d67be54c23e4798c350faa9b897986010546141ab565b6010555555604080519283526020830191909152426001600160401b0316908201528060608101610f42565b6312d37ee560e31b8752600487fd5b5060058492612389565b60405162461bcd60e51b8152602060048201526014602482015273546f6f206561726c7920746f207265636c61696d60601b6044820152606490fd5b634e487b7160e01b83526011600452602483fd5b60405162461bcd60e51b815260206004820152600d60248201526c125b9d985b1a59081c9bdd5b99609a1b6044820152606490fd5b50346102d957806003193601126102d9576002546001600160a01b038116330361250a5760018054336001600160a01b03198083168217909355929091166002556001600160a01b03167f8be0079c531659141344cd1fd0a4f28419497f9722a3daafe3b4186f6b6457e08380a380f35b60405162461bcd60e51b815260206004820152601660248201527526bab9ba10313290383937b837b9b2b21037bbb732b960511b6044820152606490fd5b50346102d957806003193601126102d95761010060018060a01b036005541660018060a01b036006541663ffffffff60018060a01b036007541660085460095490600a5492600b5495604051978852602088015260408701526060860152608085015261ffff811660a085015260101c1660c083015260e0820152f35b50346102d957806003193601126102d95760e09060045460406001600160401b038216928381526012602052208054916001600160401b03808460401c169360801c1660028301549060ff8360f01c16928361269e575b83612693575b61263d63ffffffff6001600160401b039260601c1683614416565b164310159384612680575b600b60ff91015460a01c169460405196875260208701526040860152606085015215156080840152151560a0830152151560c0820152f35b600b81015460a01c60ff16159450612648565b438210159350612622565b9250844310159261261c565b50346102d95760203660031901126102d9576107c66108ac6126ca613fca565b6001600160401b036004541661454d565b50346102d95760403660031901126102d9576126f5614026565b60243560ff8116918282036117d45760198310156127d6576001600160401b031691828452601960205260408420905f5260205260405f209283549261273a8461425b565b93612748604051958661423a565b80855260208501958352602083209583905b8282106127a2576127988761277d88600d60408a8a815260126020522001614407565b90549060031b1c60405192839260408452604084019061406f565b9060208301520390f35b600260206001926040516127b5816141e7565b848060a01b038c54168152848c01548382015281520198019101909661275a565b60405162461bcd60e51b815260206004820152600e60248201526d496e76616c69642073717561726560901b6044820152606490fd5b50346102d95760403660031901126102d957612826614026565b61282e613fe0565b906128376148e9565b6001600160401b038116808452601260205260ff600b60408620015460a81c16156128b557835260136020526040832060018060a01b0383165f5260205260405f205460ff81166128a65760081c60ff161561289757906111b191615507565b6312d37ee560e31b8352600483fd5b63cdda955f60e01b8452600484fd5b637b91e42d60e11b8452600484fd5b50346102d95760403660031901126102d9576128de614026565b6024356001600160401b038111610e44576128fd903690600401613ff6565b906129066148e9565b6001600160401b038316918285526012602052604085209160ff600b84015460a81c1615612b2a5792938161293c87949361425b565b9461294a604051968761423a565b8186526129568261425b565b602087019790601f1901368937859386935b808510612a8a5750505050506129c1575b5060019055604080516020808252925192810183905293849391840192905b8181106129a6575050500390f35b82511515845285945060209384019390920191600101612998565b600581018054918215159081612a73575b81612a5b575b506129e4575b50612979565b600b5491808311612a53575b826129fc575b506129de565b82849392612a0c8594859461416d565b9055335af1612a196142c5565b5015612a2857825f80806129f6565b60405162461bcd60e51b8152602060048201526003602482015262189bdd60ea1b6044820152606490fd5b9150816129f0565b6001600160401b03915060010154164310155f6129d8565b60018101546001600160401b0316151591506129d2565b91939596509193612aa4612a9f878488614272565b614282565b848b52601360205260408b2060018060a01b0382165f5260205260405f205460ff8116908115612b1b575b50612b0557600191612ae4612af59286614f9b565b82612aef898c6142a3565b526142b7565b955b019290918996959492612968565b5094808a612b156001938b6142a3565b52612af7565b60ff915060081c16155f612acf565b637b91e42d60e11b8652600486fd5b50346102d957806003193601126102d9576001600160401b03600454166001811115612c80575f19016001600160401b038111612c6c576001600160401b031680825260126020526040822091612b9960ff600b85015460a81c166143c5565b60ff6006840154169282825260196020526040822060ff85165f526020528360405f20805490612bc88261425b565b94612bd6604051968761423a565b82865290815260208082209086015b838310612c305750505050612c0090600d612c269301614407565b90549060031b1c916040519485948552602085015260806040850152608084019061406f565b9060608301520390f35b600191929394506020600291604051612c48816141e7565b848060a01b0386541681528486015483820152815201920192019091879392612be5565b634e487b7160e01b82526011600452602482fd5b60405162461bcd60e51b8152602060048201526012602482015271139bc818dbdb5c1b195d1959081c9bdd5b9960721b6044820152606490fd5b50346102d95760403660031901126102d957600435612cd7613fe0565b612cdf6148e9565b33835260176020526040832082158015612dfe575b610d375782612d569282612d09602094614f31565b612d1483825461416d565b9055612d2282600c5461416d565b600c5560405163a9059cbb60e01b81526001600160a01b039091166004820152602481019190915291829081906044820190565b0381867f00000000000000000000000000000000000000000000000000000000000000006001600160a01b03165af18015610faf57612d9c918491612ddf575b5061438e565b60408051918252426001600160401b0316602083015233917f8c0f54c84dcdcf847dcfa91c4e1067d4790cc58e55568bbc06739ab390e8e3e19181908101610f42565b612df8915060203d602011610fa857610f9a818361423a565b5f612d96565b5080548311612cf4565b50346102d95760203660031901126102d957612e22613fca565b612e2a6148e9565b3382526017602052600160408320612e4181614f31565b01908154918215612f415783905560405163a9059cbb60e01b81526001600160a01b03821660048201526024810183905260208180604481010381877f00000000000000000000000000000000000000000000000000000000000000006001600160a01b03165af1908115612f365791612ec7859260019460209791612f1f575061438e565b60408051858152426001600160401b0316602082015260a085901b8590039092169133917f0c21507e8db42a7a9af587ae7495dda456eafb18bfd3903be62b511e7399ab5f9190819081015b0390a355604051908152f35b612df89150873d8911610fa857610f9a818361423a565b6040513d86823e3d90fd5b6312d37ee560e31b8452600484fd5b5034610d7c576040366003190112610d7c57612f6a614026565b906001600160401b03612f7b613fe0565b92612f846148e9565b16805f52601360205260405f2060018060a01b0333165f5260205260405f209160038301918254158061322e575b61321f57335f52601860205260405f20612fcb81614ed9565b835493600f54916130046004670de0b6b3a7640000612ff9612ff360058c019788549061416d565b8a61417a565b0498019788546141ab565b95869381600e5499818b115f1461320657600a8204996003966130395f9461303386948f610922905b8461416d565b9e61416d565b600e555555600f549055806131db575b50826131b2575b600f5491829101558415908115806131a7575b613154575b50507f00000000000000000000000000000000000000000000000000000000000000006001600160a01b0316803b15610d7c576040516340c10f1960e01b81526001600160a01b03979097166004880152602487018690525f908790604490829084905af193841561314957602096600195613132575b50604080518781526020810192909252810191909152426001600160401b0316606082015233907f293210df7133869cdf9d637b506f04baa720687df15b352be9074ccf5e520a48908060808101612f13565b61313f9194505f9061423a565b5f92612f136130df565b6040513d5f823e3d90fd5b670de0b6b3a7640000860291868304670de0b6b3a76400001417156131935761318361318992600e549061418d565b906141ab565b600f555f80613068565b634e487b7160e01b5f52601160045260245ffd5b50600e541515613063565b60028101805484808211156131d2576131ca9161416d565b905b55613050565b50505f906131cc565b6001820180549091808211156131fd576131f49161416d565b905b555f613049565b50505f906131f6565b5f996003966130395f9461303386948f6109229061302d565b6312d37ee560e31b5f5260045ffd5b50600484015415612fb2565b34610d7c575f366003190112610d7c57600c54600d54600e54600f54601054601154604080519687526020870195909552938501929092526060840152608083015260a082015260c090f35b34610d7c576020366003190112610d7c576004355f52601560205260206001600160401b0360405f205416604051908152f35b34610d7c576060366003190112610d7c576132d2613fca565b6132da613fe0565b6044356001600160a01b0381169290839003610d7c576132f8614e87565b60018060a01b03166001600160601b0360a01b600554161760055560018060a01b03166001600160601b0360a01b60065416176006556001600160601b0360a01b60075416176007556040516001600160401b03421681527f76855322c5cc7335ce7f03ab0323699af75ee9c167c9c3c15f63a103065425d0602063636f726560e01b92a2005b34610d7c576020366003190112610d7c57613398614e87565b600435600b556040516001600160401b03421681527f76855322c5cc7335ce7f03ab0323699af75ee9c167c9c3c15f63a103065425d060206918da1958dadc1bda5b9d60b21b92a2005b34610d7c576040366003190112610d7c576133fb614026565b6001600160401b0361340b613fe0565b916134146148e9565b165f81815260136020908152604080832033845290915290206002018054919290821561321f575f9055335f52601860205260405f208054838082115f146134fc5761345f9161416d565b905b556001600160a01b0316915f80808085875af161347c6142c5565b50156134d15760209260405190838252848201526001600160401b03421660408201527fbc5ffecda03feb624bf3a030ac85b0990d6606c094b444519b282c031fbe2efb60603392a360015f55604051908152f35b60405162461bcd60e51b81526020600482015260036024820152620cae8d60eb1b6044820152606490fd5b50505f90613461565b34610d7c576020366003190112610d7c576001600160401b03613526614026565b610320604051613536828261423a565b369037165f52601260205260405f206002611ad4600d830161433f565b34610d7c576040366003190112610d7c576004356024356001600160401b038111610d7c57613586903690600401613ff6565b6003549091906001600160a01b031633819003613ace5750825f5260156020526001600160401b0360405f205416928315613abf575f52601560205260405f206001600160401b031981541690556135dd8261425b565b916135eb604051938461423a565b808352602083019060051b820191368311610d7c57905b828210613aaf57505050815f52601260205260405f20600b810190815460ff8160a81c16613aa05761ffff60a01b1916600160a81b178255601961364584614296565b51069260ff60068301941660ff19855416178455600161366482614296565b51845460ff60b01b191660089190911c919091161560b01b60ff60b01b1617835561027161369182614296565b51600c1c061583549060ff60b81b9060b81b169060ff60b81b19161783556002820154936136c660ff825416600d8501614407565b90549060031b1c946011546404a817c80081018091116131935760115585811115613a9a576136f5868261416d565b61371e61370660648304809361416d565b916064613717600a8504809561416d565b94046141ab565b9660048601948286556137666001600160401b0361374763ffffffff60045460801c16436141ab565b89546001600160c01b0316911660c01b6001600160c01b031916178855565b60045463ffffffff808260a01c169160801c16808211613a92575b506001600160401b03885460c01c911690036001600160401b038111613193576001600160401b036001890191166001600160401b031982541617905560ff60c01b19885416885581155f1461393e575050917f81fa2c7772aa5abdc3ad284879e95a0242648f9bf182f900f753a71877963acf9661384a61383f60ff946101409998979661ffff60b01b198a54168a555f60078a01555f60088a01555f60098a01555f600a8a01556001600160601b0360a01b8a54168a556141ab565b8086556010546141ab565b6010555f60038601555b806138f6575b5054169261386b8460268501614407565b90549060031b1c905460ff8160b01c16805f146138eb576007850154945b600a6003820154955491015494604051978852602088015260408701521515606086015260ff8160b81c161515608086015260018060a01b031660a085015260c084015260e08301526101008201526001600160401b034216610120820152a2005b600885015494613889565b6005546001600160a01b03161561392a575f8080806139249460018060a01b03600554165af16109776142c5565b8861385a565b613936906010546141ab565b601055613924565b929186959492600361395693999801556010546141ab565b601055815160011015613a7e577f81fa2c7772aa5abdc3ad284879e95a0242648f9bf182f900f753a71877963acf9661014096604060ff9401510680600987015583875460b01c165f14613a40575064174876e80060078601555f600886015585546001600160a01b031916725b1171111111111111111111111111111111111786555b855460b81c831615613a3557601154600a8601819055604080519182526001600160401b03421660208301528a917f59872529ce12f19664dff7653b417a8f9cdf72e5381b48510565adec044e05bf9190a25f601155613854565b5f600a860155613854565b64174876e80060088701555f600787015582546001600160a01b0391613a689186168c615ed8565b87546001600160a01b03191691161786556139da565b634e487b7160e01b5f52603260045260245ffd5b90508b613781565b5f6136f5565b63475a253560e01b5f5260045ffd5b8135815260209182019101613602565b637b91e42d60e11b5f5260045ffd5b63073e64fd60e21b5f523360045260245260445ffd5b34610d7c576020366003190112610d7c576001600160a01b03613b05613fca565b165f908152601760209081526040918290208054600182015460028301546003909301548551928352938201529283015265ffffffffffff166060820152608090f35b6040366003190112610d7c57600435602435613b626148e9565b613b6a614907565b613b73336149d2565b613bad613ba1613b81614303565b936001600160401b03600454168552336080860152806020860152614a7d565b8060408501528261417a565b606083019080825215613be857613bd39160c0840152600b54908160e0850152516141ab565b3403613be857613be290614b04565b60015f55005b63162908e360e11b5f5260045ffd5b34610d7c576020366003190112610d7c576004356001600160401b038111610d7c57613c27903690600401613ff6565b613c2f6148e9565b613c388161425b565b91613c46604051938461423a565b818352601f19613c558361425b565b015f5b818110613efc5750505f915f915f5b828110613d9e57505082613d44575b600454604080519283526020830193909352918101929092526001600160401b034281166060840152169033907ff43f6c7dc8b0d6464004aaeafac9e30d691126bb9e349d0fddbdbab678cbb0ed90608090a360015f556040518091602082016020835281518091526020604084019201905f5b818110613cf8575050500390f35b91935091602060a0600192608087518580851b03815116835284810151151585840152604081015160408401526060810151606084015201516080820152019401910191849392613cea565b5f80808086335af1613d546142c5565b50613c765760405162461bcd60e51b815260206004820152601960248201527f626174636820666565207472616e73666572206661696c6564000000000000006044820152606490fd5b613dac612a9f828585614272565b6040516376571fd160e11b81526001600160a01b0390911660048201523360248201526060816044815f305af15f918291829181613eb9575b50613e495750505080613dfe612a9f6001938686614272565b60405190613e0b826141b8565b838060a01b031681525f60208201525f60408201525f60608201525f6080820152613e3682896142a3565b52613e4181886142a3565b505b01613c67565b91839697613ead92613eb394613e65612a9f6001988b8b614272565b9160405192613e73846141b8565b888060a01b0316835287602084015284604084015260608301526080820152613e9c898c6142a3565b52613ea7888b6142a3565b506141ab565b956142b7565b93613e43565b93509150506060823d8211613ef4575b81613ed66060938361423a565b81010312610d7c57815160208301516040909301519092918a613de5565b3d9150613ec9565b602090604051613f0b816141b8565b5f81525f838201525f60408201525f60608201525f608082015282828801015201613c58565b34610d7c576020366003190112610d7c576001600160a01b03613f52613fca565b165f52601860205260405f2080546107c6613f7d6001840154935f9085613f9a575b600201546141ab565b604051938493846040919493926060820195825260208201520152565b90506002670de0b6b3a7640000613fc1613fbb600f5460038601549061416d565b8861417a565b04919050613f74565b600435906001600160a01b0382168203610d7c57565b602435906001600160a01b0382168203610d7c57565b9181601f84011215610d7c578235916001600160401b038311610d7c576020808501948460051b010111610d7c57565b600435906001600160401b0382168203610d7c57565b61034081019392915f825b60198210614059575050506103200152565b6020806001928551815201930191019091614047565b90602080835192838152019201905f5b81811061408c5750505090565b825180516001600160a01b03168552602090810151818601526040909401939092019160010161407f565b90602080835192838152019201905f5b8181106140d45750505090565b82518452602093840193909201916001016140c7565b939290936060810194815260606020820152825180955260206080820193015f955b80871061412b57505061412893945060408184039101526140b7565b90565b909360208060019260ff88511681520195019601959061410c565b905f905b6019821061415757505050565b602080600192855181520193019101909161414a565b9190820391821161319357565b8181029291811591840414171561319357565b8115614197570490565b634e487b7160e01b5f52601260045260245ffd5b9190820180921161319357565b60a081019081106001600160401b038211176141d357604052565b634e487b7160e01b5f52604160045260245ffd5b604081019081106001600160401b038211176141d357604052565b61010081019081106001600160401b038211176141d357604052565b6102e081019081106001600160401b038211176141d357604052565b90601f801991011681019081106001600160401b038211176141d357604052565b6001600160401b0381116141d35760051b60200190565b9190811015613a7e5760051b0190565b356001600160a01b0381168103610d7c5790565b805115613a7e5760200190565b8051821015613a7e5760209160051b010190565b5f1981146131935760010190565b3d156142fe573d906001600160401b0382116141d357604051916142f3601f8201601f19166020018461423a565b82523d5f602084013e565b606090565b6040519061431082614202565b5f60e0838281528260208201528260408201528260608201528260808201528260a08201528260c08201520152565b60405191905f835b601982106143605750505061435e6103208361423a565b565b6001602081928554815201930191019091614347565b90816020910312610d7c57518015158103610d7c5790565b1561439557565b60405162461bcd60e51b81526020600482015260086024820152673a3930b739b332b960c11b6044820152606490fd5b156143cc57565b60405162461bcd60e51b8152602060048201526013602482015272149bdd5b99081b9bdd08199a5b985b1a5e9959606a1b6044820152606490fd5b6019821015613a7e5701905f90565b906001600160401b03809116911601906001600160401b03821161319357565b906144408261425b565b61444d604051918261423a565b828152809261445e601f199161425b565b0190602036910137565b81546001600160a01b0390811682526001830154166020820152600282015460408201526003820154606082015260048201546080820152600582015460a082015260069091015460ff818116151560c084015260089190911c16151560e08201526001600160401b039091166101008201526101200190565b9067ffffffffffffffff60401b82549160401b169067ffffffffffffffff60401b1916179055565b1561451157565b60405162461bcd60e51b815260206004820152600360248201526266656560e81b6044820152606490fd5b60ff1660ff81146131935760010190565b90915f925f905f5b60ff811660198110156145c1576001600160401b0386165f52601460205260405f2060018060a01b0384165f5260205260405f20815f5260205260405f20546145a5575b5060010160ff16614555565b6145b960ff929497600180931b179761453c565b939150614599565b505060ff90911692916145d38461425b565b916145e1604051938461423a565b848352601f196145f08661425b565b013660208501376146018395614436565b935f965f5b60ff8116601981101561468a576001600160401b0384165f52601460205260405f2060018060a01b0386165f5260205260405f20815f5260205260405f20549081614659575b505060010160ff16614606565b8a60019261467d8a6146839460ff979f88614676911680936142a3565b528c6142a3565b5261453c565b999161464c565b5050965050509050565b9030331480156148d7575b156148a2576146ac614907565b60018060a01b0382165f52601660205260405f2091600683019160ff835460081c16156148935760018401546001600160a01b039081169116036148845782546146fe906001600160a01b03166149d2565b614706614303565b6004546001600160401b038116825284546001600160a01b03166080830152925490929060ff16156148765760038401546040519160208301934285524460408501526001600160601b03199060601b1660608401526001600160401b0360c01b9060c01b166074830152607c820152607c8152614785609c8261423a565b519020925f915f5b60ff811660198110156147be576001901b8087166147b2575b5060010160ff1661478d565b939093179260016147a6565b5050939190918115614867575b50925b6147f76147e16020830195808752614a7d565b80604084015260048501548060c085015261417a565b9261480c6060830194808652600b54906141ab565b91600261481f60058401948554906141ab565b920180548381106148585761484d936148379161416d565b9055600160a0820152600b5460e0820152614b04565b549151925191929190565b630e83a11b60e21b5f5260045ffd5b60019150601990061b5f6147cb565b5050916003820154926147ce565b631fc2483d60e11b5f5260045ffd5b63b12b38eb60e01b5f5260045ffd5b60405162461bcd60e51b815260206004820152600d60248201526c696e7465726e616c206f6e6c7960981b6044820152606490fd5b50336001600160a01b0382161461469f565b60025f54146148f85760025f55565b633ee5aeb560e01b5f5260045ffd5b6004546001600160401b0381165f52601260205260405f208054906001600160401b038260401c16431015806149bc575b6149b757600b019160ff835460a81c166149765760ff835460a01c1661496757631328d40b60e31b5f5260045ffd5b630776f80360e41b5f5260045ffd5b6001600160401b0380935063ffffffff614999939260601c169160801c16614416565b1643106149a85761435e615c11565b631328d40b60e31b5f5260045ffd5b505050565b506001600160401b038260801c16431115614938565b60018060a01b0381165f526018602052600460405f20019081546001600160401b038082169160401c168111156149b757805f52601260205260ff600b60405f20015460a81c16156149b757805f52601360205260405f2060018060a01b0383165f5260205260405f205460ff811680918115614a6e575b50614a5a575061435e9250614f9b565b909150614a65575050565b61435e916144e2565b60ff915060081c16155f614a4a565b905f9180158015614adf575b614ad0575f905b601960ff831610614a9f575050565b600180821614614ab9575b600191820160ff16911c614a90565b926001614ac760ff926142b7565b94915050614aaa565b63bf3cad0b60e01b5f5260045ffd5b508060191c1515614a89565b8054821015613a7e575f5260205f209060011b01905f90565b6001600160401b038151165f52601260205260405f209060ff60045460f01c16158015614e71575b8015614e5b575b6149a857606081018051614b4c600285019182546141ab565b905560e0820151614b62600585019182546141ab565b90556001600160401b038251165f52601360205260405f20608083019060018060a01b0382511660018060a01b03165f5260205260405f209260018060a01b038251165f526018602052600460405f20019384546001600160401b038082169160401c168111614e3257508351614bde600183019182546141ab565b9055805460ff8160081c1615614e20575b505060c08101519160208201958651905f915b601960ff841610614c9757505050918160a080946001600160401b037f13d7440beb63bd461dfc418d23d1095bb97f3b693f75aff8d44d3f26ee923d1e97955116976001600160401b0389166001600160401b0319825416179055600180831b03905116975193519101511515916040519384526020840152604083015260608201526001600160401b0342166080820152a3565b600180821614614cb1575b600192830160ff16921c614c02565b84516001600160401b03165f90815260146020908152604080832087516001600160a01b03168452825280832060ff8716845290915290208054614ad057614d1984614d3f9289600d870191614d078484614407565b90549060031b1c600182015555614407565b614d298983548360031b1c6141ab565b82545f1960039390931b92831b1916911b179055565b614d4c8360268401614407565b81548160031b1c90600182018092116131935782545f1960039290921b91821b191691901b1790556001600160401b038551165f52601960205260405f2060ff84165f5260205260405f2060018060a01b038551169160405192614daf846141e7565b835260208301918883528054680100000000000000008110156141d357614ddb91600182018155614aeb565b614e0d57925183546001600160a01b0319166001600160a01b0391909116178355905160019290920191909155614ca2565b634e487b7160e01b5f525f60045260245ffd5b61ff0019166101001790555f80614bef565b5f52601260205260ff600b60405f20015460a81c1615613abf5763ceb3290760e01b5f5260045ffd5b506001600160401b03825460801c164311614b33565b506001600160401b03825460401c164310614b2c565b6001546001600160a01b03163303614e9b57565b60405162461bcd60e51b815260206004820152601660248201527527b7363c9031b0b63630b1363290313c9037bbb732b960511b6044820152606490fd5b600181015480614eef575b506003600f54910155565b614f13670de0b6b3a764000091614f0d600f5460038601549061416d565b9061417a565b048015614ee457614f29600283019182546141ab565b90555f614ee4565b600390805480614f5f575b50600d54600282015501805465ffffffffffff19164265ffffffffffff16179055565b614f7d670de0b6b3a764000091614f0d600d5460028601549061416d565b048015614f3c57614f93600183019182546141ab565b90555f614f3c565b906001600160401b03821690815f52601260205260405f20825f52601360205260405f2060018060a01b0383165f5260205260405f2090805460c01c80151590816154fd575b506154cd576002810154156153d05760ff60068201541690845f52601460205260405f2060018060a01b0385165f5260205260405f2060ff83165f5260205260405f209283549283156153645761503b90600d8401614407565b90549060031b1c94851561321f5761ffff60045460e01c16612710615060828761417a565b04908115908161535b575b81615351575b50615349575b848111615342575b80615284575b905f516020615f675f395f51905f52966150bf6150a8879695946080999861416d565b613183836150ba8960038a015461417a565b61418d565b958661525e575b600284016150d58882546141ab565b9055835460ff191660011784556001600160a01b0383165f818152601860205260409020909b615107916004016144e2565b600c85016151168882546141ab565b90555f90600b860180549160ff8360b01c16808091615251575b156151be575050505061514f90613183836150ba8960078a015461417a565b945b600a85015480615197575b5050509161516f845f9361517495615e2f565b61593d565b60405191825260208201523360408201526001600160401b0342166060820152a3565b5f949661318361516f946150ba6151749997956151b39561417a565b95938193955061515c565b9893981580615243575b80615236575b6151db575b505050615151565b600101546151e984826141ab565b600989015491821015918261522c575b5050615206575b806151d3565b6008870180545f9182905560ff60c01b19909316600160c01b1790915590965080615200565b1090505f806151f9565b50600888015415156151ce565b5060ff8360c01c16156151c8565b5060078901541515615130565b60018060a01b0383165f52601860205260405f2061527d8882546141ab565b90556150c6565b600554909594939291906001600160a01b031615615316575f8080808960018060a01b03600554165af16152b66142c5565b50156152e5575f516020615f675f395f51905f52966150bf6150a86080985b9394959697985050509650615085565b60405162461bcd60e51b81526020600482015260096024820152686d696e65722066656560b81b6044820152606490fd5b5f516020615f675f395f51905f52966150bf6150a88861533a60809a6010546141ab565b6010556152d5565b508361507f565b506001615077565b905015155f615071565b6001915061506b565b50805460ff191660011790555050506001600160a01b03165f8181526018602052604090209092615397916004016144e2565b604080515f808252602082015233918101919091526001600160401b03421660608201525f516020615f675f395f51905f5290608090a3565b90915f925f5b601960ff82161061548c57505f60809361516f869461542e945f516020615f675f395f51905f5298615452575b805460ff191660011790556001600160a01b03168084526018602052604084209099906004016144e2565b6040519081525f60208201523360408201526001600160401b0342166060820152a3565b6001600160a01b038216855260186020526040852080546154749089906141ab565b9055600281016154858882546141ab565b9055615403565b9360016154c560ff92885f52601460205260405f20838060a01b0387165f5260205260405f208489165f5260205260405f2054906141ab565b9501166153d6565b50805460ff191660011790556001600160a01b03165f8181526018602052604090209092615397916004016144e2565b905043115f614fe1565b906001600160401b03821690815f52601260205260405f20825f52601360205260405f2060018060a01b0383165f5260205260405f2090805460c01c8015159081615933575b506154cd576002810154156158625760ff60068201541690845f52601460205260405f2060018060a01b0385165f5260205260405f2060ff83165f5260205260405f20928354928315615364576155a790600d8401614407565b90549060031b1c94851561321f5761ffff60045460e01c166127106155cc828761417a565b049081159081615859575b8161584f575b50615847575b848111615840575b806157b3575b905f516020615f675f395f51905f52966156146150a8879695946080999861416d565b958661578d575b6002840161562a8882546141ab565b9055835460ff191660011784556001600160a01b0383165f818152601860205260409020909b61565c916004016144e2565b600c850161566b8882546141ab565b90555f90600b860180549160ff8360b01c16808091615780575b156156ed57505050506156a490613183836150ba8960078a015461417a565b945b600a850154806156c5575b5050509161516f8460019361517495615e2f565b6001949661318361516f946150ba6151749997956156e29561417a565b9593819395506156b1565b9893981580615772575b80615765575b61570a575b5050506156a6565b6001015461571884826141ab565b600989015491821015918261575b575b5050615735575b80615702565b6008870180545f9182905560ff60c01b19909316600160c01b179091559096508061572f565b1090505f80615728565b50600888015415156156fd565b5060ff8360c01c16156156f7565b5060078901541515615685565b60018060a01b0383165f52601860205260405f206157ac8882546141ab565b905561561b565b600554909594939291906001600160a01b031615615814575f8080808960018060a01b03600554165af16157e56142c5565b50156152e5575f516020615f675f395f51905f52966156146150a86080985b93949596979850505096506155f1565b5f516020615f675f395f51905f52966156146150a88861583860809a6010546141ab565b601055615804565b50836155eb565b5060016155e3565b905015155f6155dd565b600191506155d7565b90915f925f5b601960ff8216106158f25750600160809361516f869461542e945f516020615f675f395f51905f52986158bc575b8460ff19825416179055838060a01b031698895f526018602052600460405f20016144e2565b848060a01b0382165f52601860205260405f206158da8882546141ab565b9055600281016158eb8882546141ab565b9055615896565b93600161592b60ff92885f52601460205260405f20838060a01b0387165f5260205260405f208489165f5260205260405f2054906141ab565b950116615868565b905043115f61554d565b90156159d6576005810180549182151590816159bf575b816159a7575b50615963575050565b600b549082821161599f575b8161597957505050565b5f8281949261598a8395849561416d565b9055335af16159976142c5565b5015612a2857565b82915061596f565b6001600160401b03915060010154164310155f61595a565b60018101546001600160401b031615159150615954565b50565b6001600160401b03600454165f52601260205260405f2090600282015415615bf757600b8201805460ff60a01b1916600160a01b179055600854600954600a5460405190602082016001600160401b038111838210176141d3576040525f82526040519163125fa26760e31b6020840152511515602483015260248252615a6160448361423a565b6040519260c08401948486106001600160401b038711176141d3576101046020955f9261ffff986040528152868101938452866040820196898716885263ffffffff606084019760101c16875263ffffffff608084016002815260a085019283528160018060a01b0360035416996040519d8e9c8d9b8c99634d8e1c2f60e11b8b528960048c01525160248b01525160448a01525116606488015251166084860152511660a48401525160c060c484015280519182918260e4860152018484015e8181018301849052601f01601f191681010301925af1908115613149575f91615bc5575b507f9153817ff8f2c303ed190879da7ba58c0608016146e69f34fd7e5b006e560cf6615bc06001600160401b03839581815416855f5260156020528260405f20911683198254161790555416926040519182916001600160401b03421690839092916001600160401b036020916040840195845216910152565b0390a2565b90506020813d602011615bef575b81615be06020938361423a565b81010312610d7c57515f615b46565b3d9150615bd3565b600b909101805460ff60a81b1916600160a81b1790555f90565b60045460016001600160401b038216016001600160401b038111613193576001600160401b031680916001600160401b03191617600455805f5260126020527f94bff5a899e601756cf70b973df79e33ddc4794997b73d67d87e831845ba2c22615bc060405f20836001600160401b0319825416178155615c9b6001600160401b034316826144e2565b615cc1610a486001600160401b03835460401c1663ffffffff60045460401c1690614416565b5f60028201819055600382018190556004820181905560058201819055600782018190556008820181905560098201819055600a8201819055600b820180546001600160c81b0319169055600c82015580546001600160c01b03811682556001909101805467ffffffffffffffff19169055604080516001600160401b0383831c8116825260809390931c8316602082015242909216908201529081906060820190565b5f8115615e2b57600c5415615dc257670de0b6b3a76400008202918204670de0b6b3a764000003615dae5750615da1615da991600c549061418d565b600d546141ab565b600d55565b634e487b7160e01b81526011600452602490fd5b507f00000000000000000000000000000000000000000000000000000000000000006001600160a01b031690813b15610d7c575f91602483926040519485938492630852cd8d60e31b845260048401525af1801561314957615e215750565b5f61435e9161423a565b5050565b9082156149b75760038101615e4a84825480615e9e576141ab565b90556005600f54910155615e6082600e546141ab565b600e556001600160a01b03165f90815260186020526040902090615e8382614ed9565b615e92600183019182546141ab565b90556003600f54910155565b670de0b6b3a7640000615ec1615ebb600f5460058901549061416d565b8361417a565b04615ed1600487019182546141ab565b90556141ab565b6001600160401b03165f52601960205260ff60405f2091165f5260205260405f20905f915f918154935b848410615f125750505050505f90565b615f2a6001615f218686614aeb565b500154826141ab565b9082101580615f5d575b615f4357600190930192615f02565b5050615f4f9250614aeb565b50546001600160a01b031690565b50808210615f3456feeea8330ac3d746dfcc2004c5a1ab2beb43845d77de0081c4412d539aea1204e1a26469706673582212206c6feedc96c5888e65100fbf324711a30b8c645081ea6347df4cabf60ea77a6c64736f6c634300081e0033",
        "linkReferences": {}
    },
    "methodIdentifiers": {
        "ORI_TOKEN()": "937a0077",
        "_executeAutomationInternal(address,address)": "ecae3fa2",
        "acceptOwnership()": "79ba5097",
        "adminMint(address,uint256)": "e58306f9",
        "automations(address)": "b9ad4357",
        "batchCheckpoint(uint64,address[])": "6c6804a7",
        "board()": "7cd3229a",
        "bury(bytes,uint256,uint256)": "d4617c48",
        "checkpoint(uint64,address)": "6c718385",
        "claimEth(uint64,address)": "271bc799",
        "claimOre(uint64,address)": "62954e5f",
        "claimStakeYield(address)": "66c90c5a",
        "config()": "79502c55",
        "deployManual(uint256,uint256)": "1325a6d6",
        "depositStake(uint256)": "cb82cc8f",
        "emergencyResetRound(uint64)": "cb70ffef",
        "executeAutomation(address)": "db326efc",
        "executeAutomationBatch(address[])": "0f3e2f51",
        "getAutomation(address)": "84bf220a",
        "getCurrentRoundInfo()": "747dff42",
        "getCurrentRoundSquareStats()": "a30988e2",
        "getCurrentRoundSquares(address)": "703a4b04",
        "getEthReward(uint64,address)": "ef84da12",
        "getEthRewards(uint64[],address)": "9318992b",
        "getLastRoundWinners()": "6c46376d",
        "getMinerRoundInfo(uint64,address)": "8fd2040d",
        "getMinerSquares(uint64,address)": "db834306",
        "getRoundData(uint64)": "f921e65c",
        "getRoundSquareStats(uint64)": "25452dd0",
        "getSquareParticipants(uint64,uint8)": "6db8b42d",
        "getStakeInfo(address)": "c3453153",
        "getTreasuryState()": "23a8bdca",
        "getUserRewards(address)": "078b0fb7",
        "getWinningSquareParticipants(uint64)": "a97958c1",
        "owner()": "8da5cb5b",
        "rawFulfillRandomWords(uint256,uint256[])": "1fe543e3",
        "reclaimExpiredRewards(uint64)": "7b3f039c",
        "registerAutomation((address,address,uint256,uint256,uint256,uint256,bool,bool))": "b220cf8b",
        "resetRound()": "84d452ff",
        "roundByRequest(uint256)": "41a027aa",
        "roundWindow(uint64)": "fa4d3ab9",
        "rounds(uint64)": "bc3ac875",
        "s_vrfCoordinator()": "9eccacf6",
        "setCheckpointFee(uint256)": "2e1c5227",
        "setConfig(address,address,address)": "3141e25b",
        "setCoordinator(address)": "8ea98117",
        "setRoundParams(uint32,uint32,uint32,uint16,uint16)": "9767bae6",
        "setVrfConfig(bytes32,uint64,uint16,uint32)": "805ccb3e",
        "stakes(address)": "16934fc4",
        "startGame()": "d65ab5f2",
        "transferOwnership(address)": "f2fde38b",
        "treasury()": "61d027b3",
        "treasuryVault()": "af8b1c6f",
        "verifyBalance()": "b00328e5",
        "withdrawAutomation(uint256,address)": "9e998c34",
        "withdrawStake(uint256,address)": "676a6300",
        "wrap(address,uint256)": "bf376c7a"
    },
    "id": 36
}