{
    "abi": [
        {
            "type": "constructor",
            "inputs": [
                {
                    "name": "_protocol",
                    "type": "address",
                    "internalType": "address"
                }
            ],
            "stateMutability": "nonpayable"
        },
        {
            "type": "function",
            "name": "getAutomation",
            "inputs": [
                {
                    "name": "user",
                    "type": "address",
                    "internalType": "address"
                }
            ],
            "outputs": [
                {
                    "name": "",
                    "type": "tuple",
                    "internalType": "struct OreProtocol.Automation",
                    "components": [
                        {
                            "name": "owner",
                            "type": "address",
                            "internalType": "address"
                        },
                        {
                            "name": "executor",
                            "type": "address",
                            "internalType": "address"
                        },
                        {
                            "name": "balance",
                            "type": "uint256",
                            "internalType": "uint256"
                        },
                        {
                            "name": "mask",
                            "type": "uint256",
                            "internalType": "uint256"
                        },
                        {
                            "name": "amountPerSquare",
                            "type": "uint256",
                            "internalType": "uint256"
                        },
                        {
                            "name": "feePerCall",
                            "type": "uint256",
                            "internalType": "uint256"
                        },
                        {
                            "name": "randomizeMask",
                            "type": "bool",
                            "internalType": "bool"
                        },
                        {
                            "name": "active",
                            "type": "bool",
                            "internalType": "bool"
                        }
                    ]
                }
            ],
            "stateMutability": "view"
        },
        {
            "type": "function",
            "name": "getCurrentRoundInfo",
            "inputs": [],
            "outputs": [
                {
                    "name": "roundId",
                    "type": "uint64",
                    "internalType": "uint64"
                },
                {
                    "name": "startBlock",
                    "type": "uint64",
                    "internalType": "uint64"
                },
                {
                    "name": "endBlock",
                    "type": "uint64",
                    "internalType": "uint64"
                },
                {
                    "name": "totalDeployed",
                    "type": "uint256",
                    "internalType": "uint256"
                },
                {
                    "name": "canDeploy",
                    "type": "bool",
                    "internalType": "bool"
                },
                {
                    "name": "canReset",
                    "type": "bool",
                    "internalType": "bool"
                },
                {
                    "name": "randomnessRequested",
                    "type": "bool",
                    "internalType": "bool"
                }
            ],
            "stateMutability": "view"
        },
        {
            "type": "function",
            "name": "getCurrentRoundSquareStats",
            "inputs": [],
            "outputs": [
                {
                    "name": "squareAmounts",
                    "type": "uint256[25]",
                    "internalType": "uint256[25]"
                },
                {
                    "name": "totalDeployed",
                    "type": "uint256",
                    "internalType": "uint256"
                }
            ],
            "stateMutability": "view"
        },
        {
            "type": "function",
            "name": "getCurrentRoundSquares",
            "inputs": [
                {
                    "name": "miner",
                    "type": "address",
                    "internalType": "address"
                }
            ],
            "outputs": [
                {
                    "name": "mask",
                    "type": "uint256",
                    "internalType": "uint256"
                },
                {
                    "name": "squares",
                    "type": "uint8[]",
                    "internalType": "uint8[]"
                },
                {
                    "name": "amounts",
                    "type": "uint256[]",
                    "internalType": "uint256[]"
                }
            ],
            "stateMutability": "view"
        },
        {
            "type": "function",
            "name": "getEthReward",
            "inputs": [
                {
                    "name": "roundId",
                    "type": "uint64",
                    "internalType": "uint64"
                },
                {
                    "name": "miner",
                    "type": "address",
                    "internalType": "address"
                }
            ],
            "outputs": [
                {
                    "name": "",
                    "type": "uint256",
                    "internalType": "uint256"
                }
            ],
            "stateMutability": "view"
        },
        {
            "type": "function",
            "name": "getEthRewards",
            "inputs": [
                {
                    "name": "roundIds",
                    "type": "uint64[]",
                    "internalType": "uint64[]"
                },
                {
                    "name": "miner",
                    "type": "address",
                    "internalType": "address"
                }
            ],
            "outputs": [
                {
                    "name": "totalReward",
                    "type": "uint256",
                    "internalType": "uint256"
                },
                {
                    "name": "rewards",
                    "type": "uint256[]",
                    "internalType": "uint256[]"
                }
            ],
            "stateMutability": "view"
        },
        {
            "type": "function",
            "name": "getGameState",
            "inputs": [],
            "outputs": [
                {
                    "name": "state",
                    "type": "uint8",
                    "internalType": "enum OreProtocolView.GameState"
                },
                {
                    "name": "blocksRemaining",
                    "type": "uint256",
                    "internalType": "uint256"
                }
            ],
            "stateMutability": "view"
        },
        {
            "type": "function",
            "name": "getLastRoundWinners",
            "inputs": [],
            "outputs": [
                {
                    "name": "roundId",
                    "type": "uint64",
                    "internalType": "uint64"
                },
                {
                    "name": "winningSquare",
                    "type": "uint8",
                    "internalType": "uint8"
                },
                {
                    "name": "participantList",
                    "type": "tuple[]",
                    "internalType": "struct OreProtocol.SquareParticipant[]",
                    "components": [
                        {
                            "name": "participant",
                            "type": "address",
                            "internalType": "address"
                        },
                        {
                            "name": "amount",
                            "type": "uint256",
                            "internalType": "uint256"
                        }
                    ]
                },
                {
                    "name": "totalDeployed",
                    "type": "uint256",
                    "internalType": "uint256"
                }
            ],
            "stateMutability": "view"
        },
        {
            "type": "function",
            "name": "getMinerRoundInfo",
            "inputs": [
                {
                    "name": "roundId",
                    "type": "uint64",
                    "internalType": "uint64"
                },
                {
                    "name": "miner",
                    "type": "address",
                    "internalType": "address"
                }
            ],
            "outputs": [
                {
                    "name": "checkpointed",
                    "type": "bool",
                    "internalType": "bool"
                },
                {
                    "name": "hasParticipation",
                    "type": "bool",
                    "internalType": "bool"
                },
                {
                    "name": "totalDeployed",
                    "type": "uint256",
                    "internalType": "uint256"
                },
                {
                    "name": "ethReward",
                    "type": "uint256",
                    "internalType": "uint256"
                },
                {
                    "name": "oreShares",
                    "type": "uint256",
                    "internalType": "uint256"
                },
                {
                    "name": "oreBonus",
                    "type": "uint256",
                    "internalType": "uint256"
                }
            ],
            "stateMutability": "view"
        },
        {
            "type": "function",
            "name": "getMinerSquares",
            "inputs": [
                {
                    "name": "roundId",
                    "type": "uint64",
                    "internalType": "uint64"
                },
                {
                    "name": "miner",
                    "type": "address",
                    "internalType": "address"
                }
            ],
            "outputs": [
                {
                    "name": "mask",
                    "type": "uint256",
                    "internalType": "uint256"
                },
                {
                    "name": "squares",
                    "type": "uint8[]",
                    "internalType": "uint8[]"
                },
                {
                    "name": "amounts",
                    "type": "uint256[]",
                    "internalType": "uint256[]"
                }
            ],
            "stateMutability": "view"
        },
        {
            "type": "function",
            "name": "getRoundData",
            "inputs": [
                {
                    "name": "roundId",
                    "type": "uint64",
                    "internalType": "uint64"
                }
            ],
            "outputs": [
                {
                    "name": "",
                    "type": "tuple",
                    "internalType": "struct OreProtocol.RoundData",
                    "components": [
                        {
                            "name": "id",
                            "type": "uint64",
                            "internalType": "uint64"
                        },
                        {
                            "name": "startBlock",
                            "type": "uint64",
                            "internalType": "uint64"
                        },
                        {
                            "name": "endBlock",
                            "type": "uint64",
                            "internalType": "uint64"
                        },
                        {
                            "name": "checkpointDeadlineBlock",
                            "type": "uint64",
                            "internalType": "uint64"
                        },
                        {
                            "name": "checkpointFeeStartBlock",
                            "type": "uint64",
                            "internalType": "uint64"
                        },
                        {
                            "name": "totalDeployed",
                            "type": "uint256",
                            "internalType": "uint256"
                        },
                        {
                            "name": "winningsPool",
                            "type": "uint256",
                            "internalType": "uint256"
                        },
                        {
                            "name": "vaultShare",
                            "type": "uint256",
                            "internalType": "uint256"
                        },
                        {
                            "name": "checkpointPot",
                            "type": "uint256",
                            "internalType": "uint256"
                        },
                        {
                            "name": "winningSquare",
                            "type": "uint8",
                            "internalType": "uint8"
                        },
                        {
                            "name": "oreReward",
                            "type": "uint256",
                            "internalType": "uint256"
                        },
                        {
                            "name": "topMinerReward",
                            "type": "uint256",
                            "internalType": "uint256"
                        },
                        {
                            "name": "topMinerSample",
                            "type": "uint256",
                            "internalType": "uint256"
                        },
                        {
                            "name": "motherlodePayout",
                            "type": "uint256",
                            "internalType": "uint256"
                        },
                        {
                            "name": "topMiner",
                            "type": "address",
                            "internalType": "address"
                        },
                        {
                            "name": "randomnessRequested",
                            "type": "bool",
                            "internalType": "bool"
                        },
                        {
                            "name": "randomnessFulfilled",
                            "type": "bool",
                            "internalType": "bool"
                        },
                        {
                            "name": "splitReward",
                            "type": "bool",
                            "internalType": "bool"
                        },
                        {
                            "name": "motherlode",
                            "type": "bool",
                            "internalType": "bool"
                        },
                        {
                            "name": "topMinerClaimed",
                            "type": "bool",
                            "internalType": "bool"
                        },
                        {
                            "name": "claimedRewards",
                            "type": "uint256",
                            "internalType": "uint256"
                        },
                        {
                            "name": "deployedPerSquare",
                            "type": "uint256[25]",
                            "internalType": "uint256[25]"
                        },
                        {
                            "name": "minersPerSquare",
                            "type": "uint256[25]",
                            "internalType": "uint256[25]"
                        }
                    ]
                }
            ],
            "stateMutability": "view"
        },
        {
            "type": "function",
            "name": "getRoundSquareStats",
            "inputs": [
                {
                    "name": "roundId",
                    "type": "uint64",
                    "internalType": "uint64"
                }
            ],
            "outputs": [
                {
                    "name": "squareAmounts",
                    "type": "uint256[25]",
                    "internalType": "uint256[25]"
                },
                {
                    "name": "totalDeployed",
                    "type": "uint256",
                    "internalType": "uint256"
                }
            ],
            "stateMutability": "view"
        },
        {
            "type": "function",
            "name": "getSquareParticipants",
            "inputs": [
                {
                    "name": "roundId",
                    "type": "uint64",
                    "internalType": "uint64"
                },
                {
                    "name": "squareId",
                    "type": "uint8",
                    "internalType": "uint8"
                }
            ],
            "outputs": [
                {
                    "name": "participantList",
                    "type": "tuple[]",
                    "internalType": "struct OreProtocol.SquareParticipant[]",
                    "components": [
                        {
                            "name": "participant",
                            "type": "address",
                            "internalType": "address"
                        },
                        {
                            "name": "amount",
                            "type": "uint256",
                            "internalType": "uint256"
                        }
                    ]
                },
                {
                    "name": "totalDeployed",
                    "type": "uint256",
                    "internalType": "uint256"
                }
            ],
            "stateMutability": "view"
        },
        {
            "type": "function",
            "name": "getStakeInfo",
            "inputs": [
                {
                    "name": "user",
                    "type": "address",
                    "internalType": "address"
                }
            ],
            "outputs": [
                {
                    "name": "stakedAmount",
                    "type": "uint256",
                    "internalType": "uint256"
                },
                {
                    "name": "pendingRewards",
                    "type": "uint256",
                    "internalType": "uint256"
                },
                {
                    "name": "rewardDebt",
                    "type": "uint256",
                    "internalType": "uint256"
                },
                {
                    "name": "updatedAt",
                    "type": "uint48",
                    "internalType": "uint48"
                }
            ],
            "stateMutability": "view"
        },
        {
            "type": "function",
            "name": "getTreasuryState",
            "inputs": [],
            "outputs": [
                {
                    "name": "totalStaked",
                    "type": "uint256",
                    "internalType": "uint256"
                },
                {
                    "name": "stakeRewardsFactor",
                    "type": "uint256",
                    "internalType": "uint256"
                },
                {
                    "name": "totalOreShares",
                    "type": "uint256",
                    "internalType": "uint256"
                },
                {
                    "name": "minerRewardsFactor",
                    "type": "uint256",
                    "internalType": "uint256"
                },
                {
                    "name": "vaultEth",
                    "type": "uint256",
                    "internalType": "uint256"
                },
                {
                    "name": "motherlodeOre",
                    "type": "uint256",
                    "internalType": "uint256"
                }
            ],
            "stateMutability": "view"
        },
        {
            "type": "function",
            "name": "getUserRewards",
            "inputs": [
                {
                    "name": "miner",
                    "type": "address",
                    "internalType": "address"
                }
            ],
            "outputs": [
                {
                    "name": "ethAmount",
                    "type": "uint256",
                    "internalType": "uint256"
                },
                {
                    "name": "oriDirect",
                    "type": "uint256",
                    "internalType": "uint256"
                },
                {
                    "name": "oriRefined",
                    "type": "uint256",
                    "internalType": "uint256"
                }
            ],
            "stateMutability": "view"
        },
        {
            "type": "function",
            "name": "getWinningSquareParticipants",
            "inputs": [
                {
                    "name": "roundId",
                    "type": "uint64",
                    "internalType": "uint64"
                }
            ],
            "outputs": [
                {
                    "name": "winningSquare",
                    "type": "uint8",
                    "internalType": "uint8"
                },
                {
                    "name": "participantList",
                    "type": "tuple[]",
                    "internalType": "struct OreProtocol.SquareParticipant[]",
                    "components": [
                        {
                            "name": "participant",
                            "type": "address",
                            "internalType": "address"
                        },
                        {
                            "name": "amount",
                            "type": "uint256",
                            "internalType": "uint256"
                        }
                    ]
                },
                {
                    "name": "totalDeployed",
                    "type": "uint256",
                    "internalType": "uint256"
                }
            ],
            "stateMutability": "view"
        },
        {
            "type": "function",
            "name": "protocol",
            "inputs": [],
            "outputs": [
                {
                    "name": "",
                    "type": "address",
                    "internalType": "contract OreProtocol"
                }
            ],
            "stateMutability": "view"
        },
        {
            "type": "function",
            "name": "roundWindow",
            "inputs": [
                {
                    "name": "roundId",
                    "type": "uint64",
                    "internalType": "uint64"
                }
            ],
            "outputs": [
                {
                    "name": "startBlock",
                    "type": "uint64",
                    "internalType": "uint64"
                },
                {
                    "name": "endBlock",
                    "type": "uint64",
                    "internalType": "uint64"
                }
            ],
            "stateMutability": "view"
        },
        {
            "type": "function",
            "name": "treasuryVault",
            "inputs": [],
            "outputs": [
                {
                    "name": "",
                    "type": "uint256",
                    "internalType": "uint256"
                }
            ],
            "stateMutability": "view"
        },
        {
            "type": "function",
            "name": "verifyBalance",
            "inputs": [],
            "outputs": [
                {
                    "name": "isBalanced",
                    "type": "bool",
                    "internalType": "bool"
                },
                {
                    "name": "diff",
                    "type": "int256",
                    "internalType": "int256"
                },
                {
                    "name": "contractBalance",
                    "type": "uint256",
                    "internalType": "uint256"
                },
                {
                    "name": "expectedBalance",
                    "type": "uint256",
                    "internalType": "uint256"
                }
            ],
            "stateMutability": "view"
        }
    ],
    "bytecode": {
        "object": "0x60a0346100f857601f6121b738819003918201601f19168301916001600160401b038311848410176100fc578084926020946040528339810103126100f857516001600160a01b038116908190036100f8576080526040516120a690816101118239608051818181610141015281816102fd0152818161051c015281816105f4015281816106a70152818161088b01528181610aae01528181610b5301528181610c4d01528181610d4c01528181610e7d01528181610f2201528181610fcd01528181611128015281816112db015281816113fd015281816114c5015281816115f7015281816116c201528181611b9a0152611ee40152f35b5f80fd5b634e487b7160e01b5f52604160045260245ffdfe6080806040526004361015610012575f80fd5b5f3560e01c908163078b0fb7146116835750806323a8bdca146115d257806325452dd0146115b15780636c46376d146114a15780636db8b42d146113ac578063703a4b04146112b3578063747dff421461110957806384bf220a14610f515780638ce7442614610f0d5780638fd2040d14610e5b5780639318992b14610cc5578063a30988e214610c14578063a97958c114610b15578063af8b1c6f14610a89578063b00328e51461086c578063b7d0628b14610827578063c34531531461066e578063db83430614610594578063ef84da12146104bb578063f921e65c146101f85763fa4d3ab914610103575f80fd5b346101e15760203660031901126101e15761011c611777565b6040805163fa4d3ab960e01b81526001600160401b03929092166004830152816024817f00000000000000000000000000000000000000000000000000000000000000006001600160a01b03165afa9081156101ed575f905f92610196575b506001600160401b0360409281845193168352166020820152f35b9150506040813d6040116101e5575b816101b26040938361190a565b810103126101e157806001600160401b036101da60206101d3604095611959565b9301611959565b925061017b565b5f80fd5b3d91506101a5565b6040513d5f823e3d90fd5b346101e15760203660031901126101e157610211611777565b60405161021d816118ee565b5f81525f60208201525f60408201525f60608201525f60808201525f60a08201525f60c08201525f60e08201525f6101008201525f6101208201525f6101408201525f6101608201525f6101808201525f6101a08201525f6101c08201525f6101e08201525f6102008201525f6102208201525f6102408201525f6102608201525f6102808201526102c0610320916040516102b9848261190a565b833682376102a0820152604051926102d1818561190a565b3684370152604051633e48799760e21b81526001600160401b039190911660048201526108e0816024817f00000000000000000000000000000000000000000000000000000000000000006001600160a01b03165afa80156101ed576108e0915f9161048e575b5061048c6102c0604051926001600160401b0381511684526001600160401b0360208201511660208501526001600160401b0360408201511660408501526001600160401b0360608201511660608501526001600160401b03608082015116608085015260a081015160a085015260c081015160c085015260e081015160e085015261010081015161010085015260ff610120820151166101208501526101408101516101408501526101608101516101608501526101808101516101808501526101a08101516101a085015260018060a01b036101c0820151166101c08501526101e081015115156101e0850152610200810151151561020085015261022081015115156102208501526102408101511515610240850152610260810151151561026085015261028081015161028085015261047f6102a08201516102a0860190611897565b01516105c0830190611897565bf35b6104ae9150823d81116104b4575b6104a6818361190a565b8101906119e3565b82610338565b503d61049c565b346101e15760403660031901126101e15761051860c06104d9611777565b6104e1611761565b604051638fd2040d60e01b81526001600160401b0390921660048301526001600160a01b0316602482015291829081906044820190565b03817f00000000000000000000000000000000000000000000000000000000000000006001600160a01b03165afa80156101ed576020915f9161055f575b50604051908152f35b610581915060c03d60c01161058d575b610579818361190a565b810190611e48565b50505091505082610556565b503d61056f565b346101e15760403660031901126101e1576105f05f6105b1611777565b6105b9611761565b604051636dc1a18360e11b81526001600160401b0390921660048301526001600160a01b0316602482015291829081906044820190565b03817f00000000000000000000000000000000000000000000000000000000000000006001600160a01b03165afa80156101ed575f905f925f91610644575b50610640906040519384938461183b565b0390f35b9050610640925061066791503d805f833e61065f818361190a565b810190611d4e565b909261062f565b346101e15760203660031901126101e15761068761174b565b6040516305a4d3f160e21b81526001600160a01b039182166004820152907f000000000000000000000000000000000000000000000000000000000000000016608082602481845afa9182156101ed575f915f905f925f956107cc575b50818415918215610715575b60808665ffffffffffff89888860405194855260208501526040840152166060820152f35b600491949296935060c090604051928380926311d45ee560e11b82525afa9081156101ed5761074d9183915f91610797575b50611e91565b94858502958587041417156107835761077a65ffffffffffff93670de0b6b3a76400006080970490611e84565b919481936106f0565b634e487b7160e01b5f52601160045260245ffd5b6107b9915060c03d60c0116107c5575b6107b1818361190a565b81019061192b565b50505050905088610747565b503d6107a7565b9350935050506080813d60801161081f575b816107eb6080938361190a565b810103126101e1578051602082015191606060408201519101519165ffffffffffff831683036101e15792909193856106e4565b3d91506107de565b346101e1575f3660031901126101e15761083f611ed5565b6040519060058310156108585760409282526020820152f35b634e487b7160e01b5f52602160045260245ffd5b346101e1575f3660031901126101e1576040516311d45ee560e11b81527f00000000000000000000000000000000000000000000000000000000000000006001600160a01b03169081319060c081600481865afa9081156101ed575f91610a64575b50604051633e69914d60e11b815261012081600481875afa80156101ed576001600160401b03915f91610a2d575b5016600a811115610a265760091981016001600160401b038111610783575b915b6001600160401b038316908282116109ab5760405191633e48799760e21b835260048301526108e082602481895afa9081156101ed57610100610973926001600160401b03945f9161098c575b50015190611e84565b92166001600160401b038114610783576001019161091d565b6109a591506108e03d81116104b4576104a6818361190a565b8961096a565b84908082106109f157906080916001916109c58282611e91565b6109d86001600160ff1b03821115611e9e565b6040519315158452602084015260408301526060820152f35b5f906109fd8382611e91565b92610a116001600160ff1b03851115611e9e565b600160ff1b8414610783576080935f036109d8565b600161091b565b610a4f91506101203d8111610a5d575b610a47818361190a565b810190611cd1565b5050505050505050856108fc565b503d610a3d565b610a7d915060c03d60c0116107c5576107b1818361190a565b509350505050836108ce565b346101e1575f3660031901126101e1576040516311d45ee560e11b815260c0816004817f00000000000000000000000000000000000000000000000000000000000000006001600160a01b03165afa80156101ed576020915f91610af05750604051908152f35b610b09915060c03d60c0116107c5576107b1818361190a565b50935050505082610556565b346101e15760203660031901126101e157610b2e611777565b60405163a97958c160e01b81526001600160401b039190911660048201525f816024817f00000000000000000000000000000000000000000000000000000000000000006001600160a01b03165afa80156101ed575f905f925f91610bb9575b50610baf60ff936040519485941684526060602085015260608401906117c0565b9060408301520390f35b925050503d805f833e610bcc818361190a565b8101906060818303126101e157610be28161196d565b60208201516001600160401b0381116101e1576040610c0860ff95610baf938601611c17565b93015191929350610b8e565b346101e1575f3660031901126101e157610320604051610c34828261190a565b369037604051633e69914d60e11b8152610120816004817f00000000000000000000000000000000000000000000000000000000000000006001600160a01b03165afa80156101ed57610c8e915f91610c9e575b50611b60565b906106406040519283928361178d565b610cb791506101203d8111610a5d57610a47818361190a565b505050505050505082610c88565b346101e15760403660031901126101e1576004356001600160401b0381116101e157366023820112156101e15780600401356001600160401b0381116101e1573660248260051b840101116101e157610d1c611761565b5f610d2683611c00565b91610d34604051938461190a565b838352601f19610d4385611c00565b013660208501377f00000000000000000000000000000000000000000000000000000000000000006001600160a01b0316915f91905b85831015610e3d578260051b602481890101356001600160401b03811681036101e157604051638fd2040d60e01b81526001600160401b039190911660048201526001600160a01b038416602482015260c081604481895afa9081156101ed575f91610e19575b508651851015610e0557600192816020610dfd948a010152611e84565b920191610d79565b634e487b7160e01b5f52603260045260245ffd5b610e31915060c03d811161058d57610579818361190a565b50505091505089610de0565b84906106406040519283928352604060208401526040830190611808565b346101e15760403660031901126101e157610e7960c06104d9611777565b03817f00000000000000000000000000000000000000000000000000000000000000006001600160a01b03165afa9081156101ed5760c0915f915f5f5f915f935f95610ee6575b5060405195151586521515602086015260408501526060840152608083015260a0820152f35b945050505050610f039150823d841161058d57610579818361190a565b9390929087610ec0565b346101e1575f3660031901126101e1576040517f00000000000000000000000000000000000000000000000000000000000000006001600160a01b03168152602090f35b346101e15760203660031901126101e157610f6a61174b565b5f60e0604051610f79816118be565b8281528260208201528260408201528260608201528260808201528260a08201528260c082015201526040519063425f910560e11b825260018060a01b031660048201526101008160248160018060a01b037f0000000000000000000000000000000000000000000000000000000000000000165afa80156101ed575f90611063575b6101009060e06040519160018060a01b03815116835260018060a01b03602082015116602084015260408101516040840152606081015160608401526080810151608084015260a081015160a084015260c0810151151560c08401520151151560e0820152f35b50610100813d8211611101575b8161107e610100938361190a565b810103126101e157610100906110f760e06040519261109c846118be565b6110a58161197b565b84526110b36020820161197b565b602085015260408101516040850152606081015160608501526080810151608085015260a081015160a08501526110ec60c0820161198f565b60c08501520161198f565b60e0820152610ffc565b3d9150611070565b346101e1575f3660031901126101e157604051633e69914d60e11b81527f00000000000000000000000000000000000000000000000000000000000000006001600160a01b031661012082600481845afa9182156101ed576001600160401b03926108e0915f9161128c575b50602460405180958193633e48799760e21b835216948560048301525afa9182156101ed575f9261126b575b506001600160401b03602083015116916001600160401b03604082015116926101e060a08301519201511515916040519063b7d0628b60e01b8252604082600481305afa9182156101ed575f9261122e575b5060058210156108585760e0956002936040519687526020870152604086015260608501526001811460808501521460a083015260c0820152f35b9091506040813d604011611263575b8161124a6040938361190a565b810103126101e1575160058110156101e15790866111f3565b3d915061123d565b6112859192506108e03d81116104b4576104a6818361190a565b90826111a1565b6112a591506101203d8111610a5d57610a47818361190a565b505050505050505084611175565b346101e15760203660031901126101e1576112cc61174b565b604051633e69914d60e11b81527f00000000000000000000000000000000000000000000000000000000000000006001600160a01b03169161012082600481865afa9283156101ed57611360935f938491611385575b50604051636dc1a18360e11b81526001600160401b0390911660048201526001600160a01b0390921660248301529092839190829081906044820190565b03915afa80156101ed575f905f925f916106445750610640906040519384938461183b565b61139e91506101203d8111610a5d57610a47818361190a565b505050505050505085611322565b346101e15760403660031901126101e1576113c5611777565b60243560ff81168091036101e157604051636db8b42d60e01b81526001600160401b0392909216600483015260248201525f816044817f00000000000000000000000000000000000000000000000000000000000000006001600160a01b03165afa80156101ed575f905f90611459575b61144f92506040519283926040845260408401906117c0565b9060208301520390f35b50503d805f833e61146a818361190a565b8101906040818303126101e1578051916001600160401b0383116101e15761149960209161144f948401611c17565b910151611436565b346101e1575f3660031901126101e157604051636c46376d60e01b81525f816004817f00000000000000000000000000000000000000000000000000000000000000006001600160a01b03165afa80156101ed575f905f5f935f9261153b575b506001600160401b039360ff611531926040519687961686521660208501526080604085015260808401906117c0565b9060608301520390f35b93505050503d805f833e61154f818361190a565b81016080828203126101e15761156482611959565b916115716020820161196d565b916040820151936001600160401b0385116101e15760ff60606115a1611531946001600160401b03988701611c17565b9401519395919492506115019050565b346101e15760203660031901126101e157610c8e6115cd611777565b611b60565b346101e1575f3660031901126101e1576040516311d45ee560e11b815260c0816004817f00000000000000000000000000000000000000000000000000000000000000006001600160a01b03165afa9081156101ed5760c0915f915f5f5f915f935f9561165c575b50604051958652602086015260408501526060840152608083015260a0820152f35b9450505050506116799150823d84116107c5576107b1818361190a565b939092908761163a565b346101e15760203660031901126101e15761169c61174b565b63078b0fb760e01b82526001600160a01b039081166004830152606090829060249082907f0000000000000000000000000000000000000000000000000000000000000000165afa80156101ed575f905f5f9161170a575b6060935060405192835260208301526040820152f35b5050506060813d606011611743575b816117266060938361190a565b810103126101e157805160208201516040909201516060926116f4565b3d9150611719565b600435906001600160a01b03821682036101e157565b602435906001600160a01b03821682036101e157565b600435906001600160401b03821682036101e157565b61034081019392915f825b601982106117aa575050506103200152565b6020806001928551815201930191019091611798565b90602080835192838152019201905f5b8181106117dd5750505090565b825180516001600160a01b0316855260209081015181860152604090940193909201916001016117d0565b90602080835192838152019201905f5b8181106118255750505090565b8251845260209384019390920191600101611818565b939290936060810194815260606020820152825180955260206080820193015f955b80871061187c5750506118799394506040818403910152611808565b90565b909360208060019260ff88511681520195019601959061185d565b905f905b601982106118a857505050565b602080600192855181520193019101909161189b565b61010081019081106001600160401b038211176118da57604052565b634e487b7160e01b5f52604160045260245ffd5b6102e081019081106001600160401b038211176118da57604052565b90601f801991011681019081106001600160401b038211176118da57604052565b91908260c09103126101e15781519160208101519160408201519160608101519160a0608083015192015190565b51906001600160401b03821682036101e157565b519060ff821682036101e157565b51906001600160a01b03821682036101e157565b519081151582036101e157565b9080601f830112156101e157610320604051926119b9828561190a565b839181019283116101e157905b8282106119d35750505090565b81518152602091820191016119c6565b906108e0828203126101e157611b57906105c060405193611a03856118ee565b611a0c81611959565b8552611a1a60208201611959565b6020860152611a2b60408201611959565b6040860152611a3c60608201611959565b6060860152611a4d60808201611959565b608086015260a081015160a086015260c081015160c086015260e081015160e0860152610100810151610100860152611a89610120820161196d565b6101208601526101408101516101408601526101608101516101608601526101808101516101808601526101a08101516101a0860152611acc6101c0820161197b565b6101c0860152611adf6101e0820161198f565b6101e0860152611af2610200820161198f565b610200860152611b05610220820161198f565b610220860152611b18610240820161198f565b610240860152611b2b610260820161198f565b610260860152610280810151610280860152611b4b836102a0830161199c565b6102a08601520161199c565b6102c082015290565b610320604051611b70828261190a565b369037604051633e48799760e21b81526001600160401b039190911660048201526108e0816024817f00000000000000000000000000000000000000000000000000000000000000006001600160a01b03165afa9081156101ed575f91611be1575b506102a060a082015191015191565b611bfa91506108e03d81116104b4576104a6818361190a565b5f611bd2565b6001600160401b0381116118da5760051b60200190565b81601f820112156101e157805190611c2e82611c00565b92611c3c604051948561190a565b82845260208085019360061b830101918183116101e157602001925b828410611c66575050505090565b6040848303126101e1576040519060408201908282106001600160401b038311176118da576040926020928452611c9c8761197b565b81528287015183820152815201930192611c58565b519063ffffffff821682036101e157565b519061ffff821682036101e157565b90816101209103126101e157611ce681611959565b91611cf360208301611cb1565b91611d0060408201611cb1565b91611d0d60608301611cb1565b91611d1a60808201611cb1565b91611d2760a08301611cc2565b91611d3460c08201611cc2565b91611879610100611d4760e08501611cc2565b930161198f565b90916060828403126101e15781519260208301516001600160401b0381116101e157830181601f820112156101e157805190611d8982611c00565b91611d97604051938461190a565b80835260208084019160051b830101918483116101e157602001905b828210611e3057505050926040810151906001600160401b0382116101e157019080601f830112156101e1578151611dea81611c00565b92611df8604051948561190a565b81845260208085019260051b8201019283116101e157602001905b828210611e205750505090565b8151815260209182019101611e13565b60208091611e3d8461196d565b815201910190611db3565b91908260c09103126101e157611e5d8261198f565b91611e6a6020820161198f565b9160408201519160608101519160a0608083015192015190565b9190820180921161078357565b9190820391821161078357565b15611ea557565b60405162461bcd60e51b81526020600482015260086024820152676f766572666c6f7760c01b6044820152606490fd5b604051633e69914d60e11b81527f00000000000000000000000000000000000000000000000000000000000000006001600160a01b03169061012081600481855afa80156101ed575f905f925f91612043575b501561203a576001600160401b0360246108e0926040519586938492633e48799760e21b84521660048301525afa9182156101ed575f92612019575b506001600160401b036020830151161561201057610200820151611fc357506101e0810151611fbb5760406001600160401b039101511680431115611fab57506002905f90565b611fb6904390611e91565b600191565b506003905f90565b906001600160401b03604063ffffffff920151169116016001600160401b038111610783576001600160401b031680431061200057506001905f90565b61200b904390611e91565b600491565b50506001905f90565b6120339192506108e03d81116104b4576104a6818361190a565b905f611f64565b5050505f905f90565b91505061205f91506101203d8111610a5d57610a47818361190a565b97959650505050505090915f611f2856fea26469706673582212200ddde437064f611d7b4e96c1a3b22a1d44e07e6ac794fc5b7835e09edd15d22564736f6c634300081e0033",
        "linkReferences": {}
    },
    "methodIdentifiers": {
        "getAutomation(address)": "84bf220a",
        "getCurrentRoundInfo()": "747dff42",
        "getCurrentRoundSquareStats()": "a30988e2",
        "getCurrentRoundSquares(address)": "703a4b04",
        "getEthReward(uint64,address)": "ef84da12",
        "getEthRewards(uint64[],address)": "9318992b",
        "getGameState()": "b7d0628b",
        "getLastRoundWinners()": "6c46376d",
        "getMinerRoundInfo(uint64,address)": "8fd2040d",
        "getMinerSquares(uint64,address)": "db834306",
        "getRoundData(uint64)": "f921e65c",
        "getRoundSquareStats(uint64)": "25452dd0",
        "getSquareParticipants(uint64,uint8)": "6db8b42d",
        "getStakeInfo(address)": "c3453153",
        "getTreasuryState()": "23a8bdca",
        "getUserRewards(address)": "078b0fb7",
        "getWinningSquareParticipants(uint64)": "a97958c1",
        "protocol()": "8ce74426",
        "roundWindow(uint64)": "fa4d3ab9",
        "treasuryVault()": "af8b1c6f",
        "verifyBalance()": "b00328e5"
    },
    "id": 44
}