{
    "abi": [
        {
            "type": "constructor",
            "inputs": [],
            "stateMutability": "nonpayable"
        },
        {
            "type": "function",
            "name": "ORI_TOKEN",
            "inputs": [],
            "outputs": [
                {
                    "name": "",
                    "type": "address",
                    "internalType": "contract OreToken"
                }
            ],
            "stateMutability": "view"
        },
        {
            "type": "function",
            "name": "UPGRADE_INTERFACE_VERSION",
            "inputs": [],
            "outputs": [
                {
                    "name": "",
                    "type": "string",
                    "internalType": "string"
                }
            ],
            "stateMutability": "view"
        },
        {
            "type": "function",
            "name": "_executeAutomationInternal",
            "inputs": [
                {
                    "name": "user",
                    "type": "address",
                    "internalType": "address"
                }
            ],
            "outputs": [
                {
                    "name": "fee",
                    "type": "uint256",
                    "internalType": "uint256"
                },
                {
                    "name": "deployed",
                    "type": "uint256",
                    "internalType": "uint256"
                },
                {
                    "name": "mask",
                    "type": "uint256",
                    "internalType": "uint256"
                }
            ],
            "stateMutability": "nonpayable"
        },
        {
            "type": "function",
            "name": "adminMint",
            "inputs": [
                {
                    "name": "to",
                    "type": "address",
                    "internalType": "address"
                },
                {
                    "name": "amount",
                    "type": "uint256",
                    "internalType": "uint256"
                }
            ],
            "outputs": [],
            "stateMutability": "nonpayable"
        },
        {
            "type": "function",
            "name": "automations",
            "inputs": [
                {
                    "name": "",
                    "type": "address",
                    "internalType": "address"
                }
            ],
            "outputs": [
                {
                    "name": "owner",
                    "type": "address",
                    "internalType": "address"
                },
                {
                    "name": "balance",
                    "type": "uint256",
                    "internalType": "uint256"
                },
                {
                    "name": "mask",
                    "type": "uint256",
                    "internalType": "uint256"
                },
                {
                    "name": "amountPerSquare",
                    "type": "uint256",
                    "internalType": "uint256"
                },
                {
                    "name": "feePerCall",
                    "type": "uint256",
                    "internalType": "uint256"
                },
                {
                    "name": "randomizeMask",
                    "type": "bool",
                    "internalType": "bool"
                },
                {
                    "name": "active",
                    "type": "bool",
                    "internalType": "bool"
                }
            ],
            "stateMutability": "view"
        },
        {
            "type": "function",
            "name": "batchCheckpoint",
            "inputs": [
                {
                    "name": "roundId",
                    "type": "uint64",
                    "internalType": "uint64"
                },
                {
                    "name": "miners",
                    "type": "address[]",
                    "internalType": "address[]"
                }
            ],
            "outputs": [
                {
                    "name": "results",
                    "type": "bool[]",
                    "internalType": "bool[]"
                }
            ],
            "stateMutability": "nonpayable"
        },
        {
            "type": "function",
            "name": "board",
            "inputs": [],
            "outputs": [
                {
                    "name": "currentRoundId",
                    "type": "uint64",
                    "internalType": "uint64"
                },
                {
                    "name": "roundLength",
                    "type": "uint32",
                    "internalType": "uint32"
                },
                {
                    "name": "intermission",
                    "type": "uint32",
                    "internalType": "uint32"
                },
                {
                    "name": "checkpointGrace",
                    "type": "uint32",
                    "internalType": "uint32"
                },
                {
                    "name": "checkpointFeeWindow",
                    "type": "uint32",
                    "internalType": "uint32"
                },
                {
                    "name": "feeBps",
                    "type": "uint16",
                    "internalType": "uint16"
                },
                {
                    "name": "vaultBps",
                    "type": "uint16",
                    "internalType": "uint16"
                },
                {
                    "name": "claimFeeBps",
                    "type": "uint16",
                    "internalType": "uint16"
                },
                {
                    "name": "live",
                    "type": "bool",
                    "internalType": "bool"
                }
            ],
            "stateMutability": "view"
        },
        {
            "type": "function",
            "name": "checkpoint",
            "inputs": [
                {
                    "name": "roundId",
                    "type": "uint64",
                    "internalType": "uint64"
                },
                {
                    "name": "minerAddr",
                    "type": "address",
                    "internalType": "address"
                }
            ],
            "outputs": [],
            "stateMutability": "nonpayable"
        },
        {
            "type": "function",
            "name": "claimAll",
            "inputs": [
                {
                    "name": "to",
                    "type": "address",
                    "internalType": "address payable"
                }
            ],
            "outputs": [
                {
                    "name": "ethAmount",
                    "type": "uint256",
                    "internalType": "uint256"
                },
                {
                    "name": "oriAmount",
                    "type": "uint256",
                    "internalType": "uint256"
                }
            ],
            "stateMutability": "nonpayable"
        },
        {
            "type": "function",
            "name": "claimEth",
            "inputs": [
                {
                    "name": "to",
                    "type": "address",
                    "internalType": "address payable"
                }
            ],
            "outputs": [
                {
                    "name": "amount",
                    "type": "uint256",
                    "internalType": "uint256"
                }
            ],
            "stateMutability": "nonpayable"
        },
        {
            "type": "function",
            "name": "claimStakeYield",
            "inputs": [
                {
                    "name": "to",
                    "type": "address",
                    "internalType": "address"
                }
            ],
            "outputs": [
                {
                    "name": "payout",
                    "type": "uint256",
                    "internalType": "uint256"
                }
            ],
            "stateMutability": "nonpayable"
        },
        {
            "type": "function",
            "name": "config",
            "inputs": [],
            "outputs": [
                {
                    "name": "feeCollector",
                    "type": "address",
                    "internalType": "address"
                },
                {
                    "name": "buryAuthority",
                    "type": "address",
                    "internalType": "address"
                },
                {
                    "name": "swapProgram",
                    "type": "address",
                    "internalType": "address"
                },
                {
                    "name": "vrfKeyHash",
                    "type": "bytes32",
                    "internalType": "bytes32"
                },
                {
                    "name": "vrfSubId",
                    "type": "uint256",
                    "internalType": "uint256"
                },
                {
                    "name": "vrfMinConfirmations",
                    "type": "uint16",
                    "internalType": "uint16"
                },
                {
                    "name": "vrfCallbackGasLimit",
                    "type": "uint32",
                    "internalType": "uint32"
                },
                {
                    "name": "checkpointFee",
                    "type": "uint256",
                    "internalType": "uint256"
                }
            ],
            "stateMutability": "view"
        },
        {
            "type": "function",
            "name": "coordinator",
            "inputs": [],
            "outputs": [
                {
                    "name": "",
                    "type": "address",
                    "internalType": "contract IVRFCoordinatorV2Plus"
                }
            ],
            "stateMutability": "view"
        },
        {
            "type": "function",
            "name": "deductVaultEth",
            "inputs": [
                {
                    "name": "amount",
                    "type": "uint256",
                    "internalType": "uint256"
                }
            ],
            "outputs": [],
            "stateMutability": "nonpayable"
        },
        {
            "type": "function",
            "name": "deployManual",
            "inputs": [
                {
                    "name": "mask",
                    "type": "uint256",
                    "internalType": "uint256"
                },
                {
                    "name": "amountPerSquare",
                    "type": "uint256",
                    "internalType": "uint256"
                }
            ],
            "outputs": [],
            "stateMutability": "payable"
        },
        {
            "type": "function",
            "name": "depositStake",
            "inputs": [
                {
                    "name": "amount",
                    "type": "uint256",
                    "internalType": "uint256"
                }
            ],
            "outputs": [],
            "stateMutability": "nonpayable"
        },
        {
            "type": "function",
            "name": "distributeStakeRewards",
            "inputs": [
                {
                    "name": "amount",
                    "type": "uint256",
                    "internalType": "uint256"
                }
            ],
            "outputs": [],
            "stateMutability": "nonpayable"
        },
        {
            "type": "function",
            "name": "emergencyResetRound",
            "inputs": [
                {
                    "name": "roundId",
                    "type": "uint64",
                    "internalType": "uint64"
                }
            ],
            "outputs": [],
            "stateMutability": "nonpayable"
        },
        {
            "type": "function",
            "name": "executeAutomation",
            "inputs": [
                {
                    "name": "user",
                    "type": "address",
                    "internalType": "address"
                }
            ],
            "outputs": [],
            "stateMutability": "nonpayable"
        },
        {
            "type": "function",
            "name": "executeAutomationBatch",
            "inputs": [
                {
                    "name": "users",
                    "type": "address[]",
                    "internalType": "address[]"
                }
            ],
            "outputs": [
                {
                    "name": "results",
                    "type": "tuple[]",
                    "internalType": "struct OreProtocol.ExecutionResult[]",
                    "components": [
                        {
                            "name": "user",
                            "type": "address",
                            "internalType": "address"
                        },
                        {
                            "name": "success",
                            "type": "bool",
                            "internalType": "bool"
                        },
                        {
                            "name": "fee",
                            "type": "uint256",
                            "internalType": "uint256"
                        },
                        {
                            "name": "deployed",
                            "type": "uint256",
                            "internalType": "uint256"
                        },
                        {
                            "name": "mask",
                            "type": "uint256",
                            "internalType": "uint256"
                        }
                    ]
                }
            ],
            "stateMutability": "nonpayable"
        },
        {
            "type": "function",
            "name": "getAutomation",
            "inputs": [
                {
                    "name": "user",
                    "type": "address",
                    "internalType": "address"
                }
            ],
            "outputs": [
                {
                    "name": "",
                    "type": "tuple",
                    "internalType": "struct OreProtocol.Automation",
                    "components": [
                        {
                            "name": "owner",
                            "type": "address",
                            "internalType": "address"
                        },
                        {
                            "name": "balance",
                            "type": "uint256",
                            "internalType": "uint256"
                        },
                        {
                            "name": "mask",
                            "type": "uint256",
                            "internalType": "uint256"
                        },
                        {
                            "name": "amountPerSquare",
                            "type": "uint256",
                            "internalType": "uint256"
                        },
                        {
                            "name": "feePerCall",
                            "type": "uint256",
                            "internalType": "uint256"
                        },
                        {
                            "name": "randomizeMask",
                            "type": "bool",
                            "internalType": "bool"
                        },
                        {
                            "name": "active",
                            "type": "bool",
                            "internalType": "bool"
                        }
                    ]
                }
            ],
            "stateMutability": "view"
        },
        {
            "type": "function",
            "name": "getBuryAuthority",
            "inputs": [],
            "outputs": [
                {
                    "name": "",
                    "type": "address",
                    "internalType": "address"
                }
            ],
            "stateMutability": "view"
        },
        {
            "type": "function",
            "name": "getDeployedPerSquare",
            "inputs": [
                {
                    "name": "roundId",
                    "type": "uint64",
                    "internalType": "uint64"
                },
                {
                    "name": "squareId",
                    "type": "uint8",
                    "internalType": "uint8"
                }
            ],
            "outputs": [
                {
                    "name": "",
                    "type": "uint256",
                    "internalType": "uint256"
                }
            ],
            "stateMutability": "view"
        },
        {
            "type": "function",
            "name": "getLastRoundWinners",
            "inputs": [],
            "outputs": [
                {
                    "name": "roundId",
                    "type": "uint64",
                    "internalType": "uint64"
                },
                {
                    "name": "winningSquare",
                    "type": "uint8",
                    "internalType": "uint8"
                },
                {
                    "name": "participantList",
                    "type": "tuple[]",
                    "internalType": "struct OreProtocol.SquareParticipant[]",
                    "components": [
                        {
                            "name": "participant",
                            "type": "address",
                            "internalType": "address"
                        },
                        {
                            "name": "amount",
                            "type": "uint256",
                            "internalType": "uint256"
                        }
                    ]
                },
                {
                    "name": "totalDeployed",
                    "type": "uint256",
                    "internalType": "uint256"
                }
            ],
            "stateMutability": "view"
        },
        {
            "type": "function",
            "name": "getMinerRoundInfo",
            "inputs": [
                {
                    "name": "roundId",
                    "type": "uint64",
                    "internalType": "uint64"
                },
                {
                    "name": "miner",
                    "type": "address",
                    "internalType": "address"
                }
            ],
            "outputs": [
                {
                    "name": "checkpointed",
                    "type": "bool",
                    "internalType": "bool"
                },
                {
                    "name": "hasParticipation",
                    "type": "bool",
                    "internalType": "bool"
                },
                {
                    "name": "totalDeployed",
                    "type": "uint256",
                    "internalType": "uint256"
                },
                {
                    "name": "ethReward",
                    "type": "uint256",
                    "internalType": "uint256"
                },
                {
                    "name": "oreShares",
                    "type": "uint256",
                    "internalType": "uint256"
                },
                {
                    "name": "oreBonus",
                    "type": "uint256",
                    "internalType": "uint256"
                }
            ],
            "stateMutability": "view"
        },
        {
            "type": "function",
            "name": "getMinerSquares",
            "inputs": [
                {
                    "name": "roundId",
                    "type": "uint64",
                    "internalType": "uint64"
                },
                {
                    "name": "miner",
                    "type": "address",
                    "internalType": "address"
                }
            ],
            "outputs": [
                {
                    "name": "mask",
                    "type": "uint256",
                    "internalType": "uint256"
                },
                {
                    "name": "squares",
                    "type": "uint8[]",
                    "internalType": "uint8[]"
                },
                {
                    "name": "amounts",
                    "type": "uint256[]",
                    "internalType": "uint256[]"
                }
            ],
            "stateMutability": "view"
        },
        {
            "type": "function",
            "name": "getRoundData",
            "inputs": [
                {
                    "name": "roundId",
                    "type": "uint64",
                    "internalType": "uint64"
                }
            ],
            "outputs": [
                {
                    "name": "",
                    "type": "tuple",
                    "internalType": "struct OreProtocol.RoundData",
                    "components": [
                        {
                            "name": "id",
                            "type": "uint64",
                            "internalType": "uint64"
                        },
                        {
                            "name": "startBlock",
                            "type": "uint64",
                            "internalType": "uint64"
                        },
                        {
                            "name": "endBlock",
                            "type": "uint64",
                            "internalType": "uint64"
                        },
                        {
                            "name": "checkpointDeadlineBlock",
                            "type": "uint64",
                            "internalType": "uint64"
                        },
                        {
                            "name": "checkpointFeeStartBlock",
                            "type": "uint64",
                            "internalType": "uint64"
                        },
                        {
                            "name": "intermissionEndBlock",
                            "type": "uint64",
                            "internalType": "uint64"
                        },
                        {
                            "name": "totalDeployed",
                            "type": "uint256",
                            "internalType": "uint256"
                        },
                        {
                            "name": "winningsPool",
                            "type": "uint256",
                            "internalType": "uint256"
                        },
                        {
                            "name": "vaultShare",
                            "type": "uint256",
                            "internalType": "uint256"
                        },
                        {
                            "name": "checkpointPot",
                            "type": "uint256",
                            "internalType": "uint256"
                        },
                        {
                            "name": "winningSquare",
                            "type": "uint8",
                            "internalType": "uint8"
                        },
                        {
                            "name": "oreReward",
                            "type": "uint256",
                            "internalType": "uint256"
                        },
                        {
                            "name": "topMinerReward",
                            "type": "uint256",
                            "internalType": "uint256"
                        },
                        {
                            "name": "topMinerSample",
                            "type": "uint256",
                            "internalType": "uint256"
                        },
                        {
                            "name": "motherlodePayout",
                            "type": "uint256",
                            "internalType": "uint256"
                        },
                        {
                            "name": "topMiner",
                            "type": "address",
                            "internalType": "address"
                        },
                        {
                            "name": "randomnessRequested",
                            "type": "bool",
                            "internalType": "bool"
                        },
                        {
                            "name": "randomnessFulfilled",
                            "type": "bool",
                            "internalType": "bool"
                        },
                        {
                            "name": "splitReward",
                            "type": "bool",
                            "internalType": "bool"
                        },
                        {
                            "name": "motherlode",
                            "type": "bool",
                            "internalType": "bool"
                        },
                        {
                            "name": "topMinerClaimed",
                            "type": "bool",
                            "internalType": "bool"
                        },
                        {
                            "name": "claimedRewards",
                            "type": "uint256",
                            "internalType": "uint256"
                        },
                        {
                            "name": "deployedPerSquare",
                            "type": "uint256[25]",
                            "internalType": "uint256[25]"
                        },
                        {
                            "name": "minersPerSquare",
                            "type": "uint256[25]",
                            "internalType": "uint256[25]"
                        }
                    ]
                }
            ],
            "stateMutability": "view"
        },
        {
            "type": "function",
            "name": "getSquareParticipants",
            "inputs": [
                {
                    "name": "roundId",
                    "type": "uint64",
                    "internalType": "uint64"
                },
                {
                    "name": "squareId",
                    "type": "uint8",
                    "internalType": "uint8"
                }
            ],
            "outputs": [
                {
                    "name": "participantList",
                    "type": "tuple[]",
                    "internalType": "struct OreProtocol.SquareParticipant[]",
                    "components": [
                        {
                            "name": "participant",
                            "type": "address",
                            "internalType": "address"
                        },
                        {
                            "name": "amount",
                            "type": "uint256",
                            "internalType": "uint256"
                        }
                    ]
                },
                {
                    "name": "totalDeployed",
                    "type": "uint256",
                    "internalType": "uint256"
                }
            ],
            "stateMutability": "view"
        },
        {
            "type": "function",
            "name": "getSwapProgram",
            "inputs": [],
            "outputs": [
                {
                    "name": "",
                    "type": "address",
                    "internalType": "address"
                }
            ],
            "stateMutability": "view"
        },
        {
            "type": "function",
            "name": "getTotalStaked",
            "inputs": [],
            "outputs": [
                {
                    "name": "",
                    "type": "uint256",
                    "internalType": "uint256"
                }
            ],
            "stateMutability": "view"
        },
        {
            "type": "function",
            "name": "getTreasuryState",
            "inputs": [],
            "outputs": [
                {
                    "name": "totalStaked",
                    "type": "uint256",
                    "internalType": "uint256"
                },
                {
                    "name": "stakeRewardsFactor",
                    "type": "uint256",
                    "internalType": "uint256"
                },
                {
                    "name": "totalOreShares",
                    "type": "uint256",
                    "internalType": "uint256"
                },
                {
                    "name": "minerRewardsFactor",
                    "type": "uint256",
                    "internalType": "uint256"
                },
                {
                    "name": "vaultEth",
                    "type": "uint256",
                    "internalType": "uint256"
                },
                {
                    "name": "motherlodeOre",
                    "type": "uint256",
                    "internalType": "uint256"
                }
            ],
            "stateMutability": "view"
        },
        {
            "type": "function",
            "name": "getUserRewards",
            "inputs": [
                {
                    "name": "miner",
                    "type": "address",
                    "internalType": "address"
                }
            ],
            "outputs": [
                {
                    "name": "ethAmount",
                    "type": "uint256",
                    "internalType": "uint256"
                },
                {
                    "name": "oriDirect",
                    "type": "uint256",
                    "internalType": "uint256"
                },
                {
                    "name": "oriRefined",
                    "type": "uint256",
                    "internalType": "uint256"
                }
            ],
            "stateMutability": "view"
        },
        {
            "type": "function",
            "name": "getVaultEth",
            "inputs": [],
            "outputs": [
                {
                    "name": "",
                    "type": "uint256",
                    "internalType": "uint256"
                }
            ],
            "stateMutability": "view"
        },
        {
            "type": "function",
            "name": "getWinningSquareParticipants",
            "inputs": [
                {
                    "name": "roundId",
                    "type": "uint64",
                    "internalType": "uint64"
                }
            ],
            "outputs": [
                {
                    "name": "winningSquare",
                    "type": "uint8",
                    "internalType": "uint8"
                },
                {
                    "name": "participantList",
                    "type": "tuple[]",
                    "internalType": "struct OreProtocol.SquareParticipant[]",
                    "components": [
                        {
                            "name": "participant",
                            "type": "address",
                            "internalType": "address"
                        },
                        {
                            "name": "amount",
                            "type": "uint256",
                            "internalType": "uint256"
                        }
                    ]
                },
                {
                    "name": "totalDeployed",
                    "type": "uint256",
                    "internalType": "uint256"
                }
            ],
            "stateMutability": "view"
        },
        {
            "type": "function",
            "name": "initialize",
            "inputs": [
                {
                    "name": "params",
                    "type": "tuple",
                    "internalType": "struct OreProtocol.InitParams",
                    "components": [
                        {
                            "name": "oriToken",
                            "type": "address",
                            "internalType": "address"
                        },
                        {
                            "name": "feeCollector",
                            "type": "address",
                            "internalType": "address"
                        },
                        {
                            "name": "buryAuthority",
                            "type": "address",
                            "internalType": "address"
                        },
                        {
                            "name": "swapProgram",
                            "type": "address",
                            "internalType": "address"
                        },
                        {
                            "name": "vrfCoordinator",
                            "type": "address",
                            "internalType": "address"
                        },
                        {
                            "name": "vrfKeyHash",
                            "type": "bytes32",
                            "internalType": "bytes32"
                        },
                        {
                            "name": "vrfSubId",
                            "type": "uint256",
                            "internalType": "uint256"
                        },
                        {
                            "name": "vrfMinConfirmations",
                            "type": "uint16",
                            "internalType": "uint16"
                        },
                        {
                            "name": "vrfCallbackGasLimit",
                            "type": "uint32",
                            "internalType": "uint32"
                        },
                        {
                            "name": "roundLength",
                            "type": "uint32",
                            "internalType": "uint32"
                        },
                        {
                            "name": "intermission",
                            "type": "uint32",
                            "internalType": "uint32"
                        },
                        {
                            "name": "checkpointGrace",
                            "type": "uint32",
                            "internalType": "uint32"
                        },
                        {
                            "name": "checkpointFeeWindow",
                            "type": "uint32",
                            "internalType": "uint32"
                        },
                        {
                            "name": "feeBps",
                            "type": "uint16",
                            "internalType": "uint16"
                        },
                        {
                            "name": "vaultBps",
                            "type": "uint16",
                            "internalType": "uint16"
                        },
                        {
                            "name": "checkpointFee",
                            "type": "uint256",
                            "internalType": "uint256"
                        }
                    ]
                }
            ],
            "outputs": [],
            "stateMutability": "nonpayable"
        },
        {
            "type": "function",
            "name": "owner",
            "inputs": [],
            "outputs": [
                {
                    "name": "",
                    "type": "address",
                    "internalType": "address"
                }
            ],
            "stateMutability": "view"
        },
        {
            "type": "function",
            "name": "proxiableUUID",
            "inputs": [],
            "outputs": [
                {
                    "name": "",
                    "type": "bytes32",
                    "internalType": "bytes32"
                }
            ],
            "stateMutability": "view"
        },
        {
            "type": "function",
            "name": "rawFulfillRandomWords",
            "inputs": [
                {
                    "name": "requestId",
                    "type": "uint256",
                    "internalType": "uint256"
                },
                {
                    "name": "randomWords",
                    "type": "uint256[]",
                    "internalType": "uint256[]"
                }
            ],
            "outputs": [],
            "stateMutability": "nonpayable"
        },
        {
            "type": "function",
            "name": "reclaimExpiredRewards",
            "inputs": [
                {
                    "name": "roundId",
                    "type": "uint64",
                    "internalType": "uint64"
                }
            ],
            "outputs": [],
            "stateMutability": "nonpayable"
        },
        {
            "type": "function",
            "name": "registerAutomation",
            "inputs": [
                {
                    "name": "params",
                    "type": "tuple",
                    "internalType": "struct OreProtocol.Automation",
                    "components": [
                        {
                            "name": "owner",
                            "type": "address",
                            "internalType": "address"
                        },
                        {
                            "name": "balance",
                            "type": "uint256",
                            "internalType": "uint256"
                        },
                        {
                            "name": "mask",
                            "type": "uint256",
                            "internalType": "uint256"
                        },
                        {
                            "name": "amountPerSquare",
                            "type": "uint256",
                            "internalType": "uint256"
                        },
                        {
                            "name": "feePerCall",
                            "type": "uint256",
                            "internalType": "uint256"
                        },
                        {
                            "name": "randomizeMask",
                            "type": "bool",
                            "internalType": "bool"
                        },
                        {
                            "name": "active",
                            "type": "bool",
                            "internalType": "bool"
                        }
                    ]
                }
            ],
            "outputs": [],
            "stateMutability": "payable"
        },
        {
            "type": "function",
            "name": "renounceOwnership",
            "inputs": [],
            "outputs": [],
            "stateMutability": "nonpayable"
        },
        {
            "type": "function",
            "name": "resetRound",
            "inputs": [],
            "outputs": [
                {
                    "name": "requestId",
                    "type": "uint256",
                    "internalType": "uint256"
                }
            ],
            "stateMutability": "nonpayable"
        },
        {
            "type": "function",
            "name": "roundByRequest",
            "inputs": [
                {
                    "name": "",
                    "type": "uint256",
                    "internalType": "uint256"
                }
            ],
            "outputs": [
                {
                    "name": "",
                    "type": "uint64",
                    "internalType": "uint64"
                }
            ],
            "stateMutability": "view"
        },
        {
            "type": "function",
            "name": "roundWindow",
            "inputs": [
                {
                    "name": "roundId",
                    "type": "uint64",
                    "internalType": "uint64"
                }
            ],
            "outputs": [
                {
                    "name": "startBlock",
                    "type": "uint64",
                    "internalType": "uint64"
                },
                {
                    "name": "endBlock",
                    "type": "uint64",
                    "internalType": "uint64"
                }
            ],
            "stateMutability": "view"
        },
        {
            "type": "function",
            "name": "rounds",
            "inputs": [
                {
                    "name": "",
                    "type": "uint64",
                    "internalType": "uint64"
                }
            ],
            "outputs": [
                {
                    "name": "id",
                    "type": "uint64",
                    "internalType": "uint64"
                },
                {
                    "name": "startBlock",
                    "type": "uint64",
                    "internalType": "uint64"
                },
                {
                    "name": "endBlock",
                    "type": "uint64",
                    "internalType": "uint64"
                },
                {
                    "name": "checkpointDeadlineBlock",
                    "type": "uint64",
                    "internalType": "uint64"
                },
                {
                    "name": "checkpointFeeStartBlock",
                    "type": "uint64",
                    "internalType": "uint64"
                },
                {
                    "name": "intermissionEndBlock",
                    "type": "uint64",
                    "internalType": "uint64"
                },
                {
                    "name": "totalDeployed",
                    "type": "uint256",
                    "internalType": "uint256"
                },
                {
                    "name": "winningsPool",
                    "type": "uint256",
                    "internalType": "uint256"
                },
                {
                    "name": "vaultShare",
                    "type": "uint256",
                    "internalType": "uint256"
                },
                {
                    "name": "checkpointPot",
                    "type": "uint256",
                    "internalType": "uint256"
                },
                {
                    "name": "winningSquare",
                    "type": "uint8",
                    "internalType": "uint8"
                },
                {
                    "name": "oreReward",
                    "type": "uint256",
                    "internalType": "uint256"
                },
                {
                    "name": "topMinerReward",
                    "type": "uint256",
                    "internalType": "uint256"
                },
                {
                    "name": "topMinerSample",
                    "type": "uint256",
                    "internalType": "uint256"
                },
                {
                    "name": "motherlodePayout",
                    "type": "uint256",
                    "internalType": "uint256"
                },
                {
                    "name": "topMiner",
                    "type": "address",
                    "internalType": "address"
                },
                {
                    "name": "randomnessRequested",
                    "type": "bool",
                    "internalType": "bool"
                },
                {
                    "name": "randomnessFulfilled",
                    "type": "bool",
                    "internalType": "bool"
                },
                {
                    "name": "splitReward",
                    "type": "bool",
                    "internalType": "bool"
                },
                {
                    "name": "motherlode",
                    "type": "bool",
                    "internalType": "bool"
                },
                {
                    "name": "topMinerClaimed",
                    "type": "bool",
                    "internalType": "bool"
                },
                {
                    "name": "claimedRewards",
                    "type": "uint256",
                    "internalType": "uint256"
                }
            ],
            "stateMutability": "view"
        },
        {
            "type": "function",
            "name": "setCheckpointFee",
            "inputs": [
                {
                    "name": "newFee",
                    "type": "uint256",
                    "internalType": "uint256"
                }
            ],
            "outputs": [],
            "stateMutability": "nonpayable"
        },
        {
            "type": "function",
            "name": "setConfig",
            "inputs": [
                {
                    "name": "feeCollector_",
                    "type": "address",
                    "internalType": "address"
                },
                {
                    "name": "buryAuthority_",
                    "type": "address",
                    "internalType": "address"
                },
                {
                    "name": "swapProgram_",
                    "type": "address",
                    "internalType": "address"
                }
            ],
            "outputs": [],
            "stateMutability": "nonpayable"
        },
        {
            "type": "function",
            "name": "setRoundParams",
            "inputs": [
                {
                    "name": "roundLength_",
                    "type": "uint32",
                    "internalType": "uint32"
                },
                {
                    "name": "intermission_",
                    "type": "uint32",
                    "internalType": "uint32"
                },
                {
                    "name": "checkpointGrace_",
                    "type": "uint32",
                    "internalType": "uint32"
                },
                {
                    "name": "feeBps_",
                    "type": "uint16",
                    "internalType": "uint16"
                },
                {
                    "name": "vaultBps_",
                    "type": "uint16",
                    "internalType": "uint16"
                }
            ],
            "outputs": [],
            "stateMutability": "nonpayable"
        },
        {
            "type": "function",
            "name": "setStakingContract",
            "inputs": [
                {
                    "name": "_stakingContract",
                    "type": "address",
                    "internalType": "address"
                }
            ],
            "outputs": [],
            "stateMutability": "nonpayable"
        },
        {
            "type": "function",
            "name": "setVrfConfig",
            "inputs": [
                {
                    "name": "keyHash",
                    "type": "bytes32",
                    "internalType": "bytes32"
                },
                {
                    "name": "subId",
                    "type": "uint64",
                    "internalType": "uint64"
                },
                {
                    "name": "minConf",
                    "type": "uint16",
                    "internalType": "uint16"
                },
                {
                    "name": "gasLimit",
                    "type": "uint32",
                    "internalType": "uint32"
                }
            ],
            "outputs": [],
            "stateMutability": "nonpayable"
        },
        {
            "type": "function",
            "name": "stakes",
            "inputs": [
                {
                    "name": "",
                    "type": "address",
                    "internalType": "address"
                }
            ],
            "outputs": [
                {
                    "name": "amount",
                    "type": "uint256",
                    "internalType": "uint256"
                },
                {
                    "name": "pending",
                    "type": "uint256",
                    "internalType": "uint256"
                },
                {
                    "name": "rewardDebt",
                    "type": "uint256",
                    "internalType": "uint256"
                },
                {
                    "name": "updatedAt",
                    "type": "uint48",
                    "internalType": "uint48"
                }
            ],
            "stateMutability": "view"
        },
        {
            "type": "function",
            "name": "stakingContract",
            "inputs": [],
            "outputs": [
                {
                    "name": "",
                    "type": "address",
                    "internalType": "address"
                }
            ],
            "stateMutability": "view"
        },
        {
            "type": "function",
            "name": "startGame",
            "inputs": [],
            "outputs": [],
            "stateMutability": "nonpayable"
        },
        {
            "type": "function",
            "name": "stopAutomation",
            "inputs": [
                {
                    "name": "to",
                    "type": "address",
                    "internalType": "address payable"
                }
            ],
            "outputs": [],
            "stateMutability": "nonpayable"
        },
        {
            "type": "function",
            "name": "transferOwnership",
            "inputs": [
                {
                    "name": "newOwner",
                    "type": "address",
                    "internalType": "address"
                }
            ],
            "outputs": [],
            "stateMutability": "nonpayable"
        },
        {
            "type": "function",
            "name": "treasury",
            "inputs": [],
            "outputs": [
                {
                    "name": "totalStaked",
                    "type": "uint256",
                    "internalType": "uint256"
                },
                {
                    "name": "stakeRewardsFactor",
                    "type": "uint256",
                    "internalType": "uint256"
                },
                {
                    "name": "totalOreShares",
                    "type": "uint256",
                    "internalType": "uint256"
                },
                {
                    "name": "minerRewardsFactor",
                    "type": "uint256",
                    "internalType": "uint256"
                },
                {
                    "name": "vaultEth",
                    "type": "uint256",
                    "internalType": "uint256"
                },
                {
                    "name": "motherlodeOre",
                    "type": "uint256",
                    "internalType": "uint256"
                }
            ],
            "stateMutability": "view"
        },
        {
            "type": "function",
            "name": "upgradeToAndCall",
            "inputs": [
                {
                    "name": "newImplementation",
                    "type": "address",
                    "internalType": "address"
                },
                {
                    "name": "data",
                    "type": "bytes",
                    "internalType": "bytes"
                }
            ],
            "outputs": [],
            "stateMutability": "payable"
        },
        {
            "type": "function",
            "name": "withdrawStake",
            "inputs": [
                {
                    "name": "amount",
                    "type": "uint256",
                    "internalType": "uint256"
                },
                {
                    "name": "to",
                    "type": "address",
                    "internalType": "address"
                }
            ],
            "outputs": [],
            "stateMutability": "nonpayable"
        },
        {
            "type": "function",
            "name": "wrap",
            "inputs": [
                {
                    "name": "target",
                    "type": "address",
                    "internalType": "address payable"
                },
                {
                    "name": "amount",
                    "type": "uint256",
                    "internalType": "uint256"
                }
            ],
            "outputs": [],
            "stateMutability": "nonpayable"
        },
        {
            "type": "event",
            "name": "AutomationBatchExecuted",
            "inputs": [
                {
                    "name": "roundId",
                    "type": "uint64",
                    "indexed": true,
                    "internalType": "uint64"
                },
                {
                    "name": "totalUsers",
                    "type": "uint256",
                    "indexed": false,
                    "internalType": "uint256"
                },
                {
                    "name": "successCount",
                    "type": "uint256",
                    "indexed": false,
                    "internalType": "uint256"
                },
                {
                    "name": "totalFee",
                    "type": "uint256",
                    "indexed": false,
                    "internalType": "uint256"
                },
                {
                    "name": "timestamp",
                    "type": "uint64",
                    "indexed": false,
                    "internalType": "uint64"
                }
            ],
            "anonymous": false
        },
        {
            "type": "event",
            "name": "AutomationExecuted",
            "inputs": [
                {
                    "name": "user",
                    "type": "address",
                    "indexed": true,
                    "internalType": "address"
                },
                {
                    "name": "mask",
                    "type": "uint256",
                    "indexed": false,
                    "internalType": "uint256"
                },
                {
                    "name": "totalCost",
                    "type": "uint256",
                    "indexed": false,
                    "internalType": "uint256"
                },
                {
                    "name": "timestamp",
                    "type": "uint64",
                    "indexed": false,
                    "internalType": "uint64"
                }
            ],
            "anonymous": false
        },
        {
            "type": "event",
            "name": "AutomationUpdated",
            "inputs": [
                {
                    "name": "user",
                    "type": "address",
                    "indexed": true,
                    "internalType": "address"
                },
                {
                    "name": "cfg",
                    "type": "tuple",
                    "indexed": false,
                    "internalType": "struct OreProtocol.Automation",
                    "components": [
                        {
                            "name": "owner",
                            "type": "address",
                            "internalType": "address"
                        },
                        {
                            "name": "balance",
                            "type": "uint256",
                            "internalType": "uint256"
                        },
                        {
                            "name": "mask",
                            "type": "uint256",
                            "internalType": "uint256"
                        },
                        {
                            "name": "amountPerSquare",
                            "type": "uint256",
                            "internalType": "uint256"
                        },
                        {
                            "name": "feePerCall",
                            "type": "uint256",
                            "internalType": "uint256"
                        },
                        {
                            "name": "randomizeMask",
                            "type": "bool",
                            "internalType": "bool"
                        },
                        {
                            "name": "active",
                            "type": "bool",
                            "internalType": "bool"
                        }
                    ]
                },
                {
                    "name": "timestamp",
                    "type": "uint64",
                    "indexed": false,
                    "internalType": "uint64"
                }
            ],
            "anonymous": false
        },
        {
            "type": "event",
            "name": "BuryEvent",
            "inputs": [
                {
                    "name": "amountIn",
                    "type": "uint256",
                    "indexed": false,
                    "internalType": "uint256"
                },
                {
                    "name": "oreReceived",
                    "type": "uint256",
                    "indexed": false,
                    "internalType": "uint256"
                },
                {
                    "name": "stakerShare",
                    "type": "uint256",
                    "indexed": false,
                    "internalType": "uint256"
                },
                {
                    "name": "burned",
                    "type": "uint256",
                    "indexed": false,
                    "internalType": "uint256"
                },
                {
                    "name": "router",
                    "type": "address",
                    "indexed": false,
                    "internalType": "address"
                },
                {
                    "name": "timestamp",
                    "type": "uint64",
                    "indexed": false,
                    "internalType": "uint64"
                }
            ],
            "anonymous": false
        },
        {
            "type": "event",
            "name": "CheckpointEvent",
            "inputs": [
                {
                    "name": "roundId",
                    "type": "uint64",
                    "indexed": true,
                    "internalType": "uint64"
                },
                {
                    "name": "miner",
                    "type": "address",
                    "indexed": true,
                    "internalType": "address"
                },
                {
                    "name": "ethReward",
                    "type": "uint256",
                    "indexed": false,
                    "internalType": "uint256"
                },
                {
                    "name": "oreReward",
                    "type": "uint256",
                    "indexed": false,
                    "internalType": "uint256"
                },
                {
                    "name": "bot",
                    "type": "address",
                    "indexed": false,
                    "internalType": "address"
                },
                {
                    "name": "timestamp",
                    "type": "uint64",
                    "indexed": false,
                    "internalType": "uint64"
                }
            ],
            "anonymous": false
        },
        {
            "type": "event",
            "name": "ClaimEth",
            "inputs": [
                {
                    "name": "miner",
                    "type": "address",
                    "indexed": true,
                    "internalType": "address"
                },
                {
                    "name": "roundId",
                    "type": "uint64",
                    "indexed": true,
                    "internalType": "uint64"
                },
                {
                    "name": "amount",
                    "type": "uint256",
                    "indexed": false,
                    "internalType": "uint256"
                },
                {
                    "name": "to",
                    "type": "address",
                    "indexed": false,
                    "internalType": "address"
                },
                {
                    "name": "timestamp",
                    "type": "uint64",
                    "indexed": false,
                    "internalType": "uint64"
                }
            ],
            "anonymous": false
        },
        {
            "type": "event",
            "name": "ClaimOre",
            "inputs": [
                {
                    "name": "miner",
                    "type": "address",
                    "indexed": true,
                    "internalType": "address"
                },
                {
                    "name": "roundId",
                    "type": "uint64",
                    "indexed": true,
                    "internalType": "uint64"
                },
                {
                    "name": "amount",
                    "type": "uint256",
                    "indexed": false,
                    "internalType": "uint256"
                },
                {
                    "name": "tax",
                    "type": "uint256",
                    "indexed": false,
                    "internalType": "uint256"
                },
                {
                    "name": "redistributed",
                    "type": "uint256",
                    "indexed": false,
                    "internalType": "uint256"
                },
                {
                    "name": "timestamp",
                    "type": "uint64",
                    "indexed": false,
                    "internalType": "uint64"
                }
            ],
            "anonymous": false
        },
        {
            "type": "event",
            "name": "ConfigUpdated",
            "inputs": [
                {
                    "name": "field",
                    "type": "bytes32",
                    "indexed": true,
                    "internalType": "bytes32"
                },
                {
                    "name": "timestamp",
                    "type": "uint64",
                    "indexed": false,
                    "internalType": "uint64"
                }
            ],
            "anonymous": false
        },
        {
            "type": "event",
            "name": "DeployEvent",
            "inputs": [
                {
                    "name": "roundId",
                    "type": "uint64",
                    "indexed": true,
                    "internalType": "uint64"
                },
                {
                    "name": "miner",
                    "type": "address",
                    "indexed": true,
                    "internalType": "address"
                },
                {
                    "name": "mask",
                    "type": "uint256",
                    "indexed": false,
                    "internalType": "uint256"
                },
                {
                    "name": "amountPerSquare",
                    "type": "uint256",
                    "indexed": false,
                    "internalType": "uint256"
                },
                {
                    "name": "totalAmount",
                    "type": "uint256",
                    "indexed": false,
                    "internalType": "uint256"
                },
                {
                    "name": "automation",
                    "type": "bool",
                    "indexed": false,
                    "internalType": "bool"
                },
                {
                    "name": "timestamp",
                    "type": "uint64",
                    "indexed": false,
                    "internalType": "uint64"
                }
            ],
            "anonymous": false
        },
        {
            "type": "event",
            "name": "EmergencyRefund",
            "inputs": [
                {
                    "name": "roundId",
                    "type": "uint64",
                    "indexed": true,
                    "internalType": "uint64"
                },
                {
                    "name": "totalDeployed",
                    "type": "uint256",
                    "indexed": false,
                    "internalType": "uint256"
                },
                {
                    "name": "timestamp",
                    "type": "uint64",
                    "indexed": false,
                    "internalType": "uint64"
                }
            ],
            "anonymous": false
        },
        {
            "type": "event",
            "name": "ExpiredRewardsClaimed",
            "inputs": [
                {
                    "name": "roundId",
                    "type": "uint64",
                    "indexed": true,
                    "internalType": "uint64"
                },
                {
                    "name": "unclaimedRewards",
                    "type": "uint256",
                    "indexed": false,
                    "internalType": "uint256"
                },
                {
                    "name": "unclaimedFees",
                    "type": "uint256",
                    "indexed": false,
                    "internalType": "uint256"
                },
                {
                    "name": "timestamp",
                    "type": "uint64",
                    "indexed": false,
                    "internalType": "uint64"
                }
            ],
            "anonymous": false
        },
        {
            "type": "event",
            "name": "Initialized",
            "inputs": [
                {
                    "name": "version",
                    "type": "uint64",
                    "indexed": false,
                    "internalType": "uint64"
                }
            ],
            "anonymous": false
        },
        {
            "type": "event",
            "name": "MotherlodeEvent",
            "inputs": [
                {
                    "name": "roundId",
                    "type": "uint64",
                    "indexed": true,
                    "internalType": "uint64"
                },
                {
                    "name": "amount",
                    "type": "uint256",
                    "indexed": false,
                    "internalType": "uint256"
                },
                {
                    "name": "timestamp",
                    "type": "uint64",
                    "indexed": false,
                    "internalType": "uint64"
                }
            ],
            "anonymous": false
        },
        {
            "type": "event",
            "name": "OwnershipTransferred",
            "inputs": [
                {
                    "name": "previousOwner",
                    "type": "address",
                    "indexed": true,
                    "internalType": "address"
                },
                {
                    "name": "newOwner",
                    "type": "address",
                    "indexed": true,
                    "internalType": "address"
                }
            ],
            "anonymous": false
        },
        {
            "type": "event",
            "name": "ResetEvent",
            "inputs": [
                {
                    "name": "roundId",
                    "type": "uint64",
                    "indexed": true,
                    "internalType": "uint64"
                },
                {
                    "name": "winningSquare",
                    "type": "uint8",
                    "indexed": false,
                    "internalType": "uint8"
                },
                {
                    "name": "winnings",
                    "type": "uint256",
                    "indexed": false,
                    "internalType": "uint256"
                },
                {
                    "name": "vaultShare",
                    "type": "uint256",
                    "indexed": false,
                    "internalType": "uint256"
                },
                {
                    "name": "splitReward",
                    "type": "bool",
                    "indexed": false,
                    "internalType": "bool"
                },
                {
                    "name": "motherlode",
                    "type": "bool",
                    "indexed": false,
                    "internalType": "bool"
                },
                {
                    "name": "topMiner",
                    "type": "address",
                    "indexed": false,
                    "internalType": "address"
                },
                {
                    "name": "numWinners",
                    "type": "uint256",
                    "indexed": false,
                    "internalType": "uint256"
                },
                {
                    "name": "motherlodePayout",
                    "type": "uint256",
                    "indexed": false,
                    "internalType": "uint256"
                },
                {
                    "name": "oreReward",
                    "type": "uint256",
                    "indexed": false,
                    "internalType": "uint256"
                },
                {
                    "name": "timestamp",
                    "type": "uint64",
                    "indexed": false,
                    "internalType": "uint64"
                }
            ],
            "anonymous": false
        },
        {
            "type": "event",
            "name": "ResetRequested",
            "inputs": [
                {
                    "name": "roundId",
                    "type": "uint64",
                    "indexed": true,
                    "internalType": "uint64"
                },
                {
                    "name": "requestId",
                    "type": "uint256",
                    "indexed": false,
                    "internalType": "uint256"
                },
                {
                    "name": "timestamp",
                    "type": "uint64",
                    "indexed": false,
                    "internalType": "uint64"
                }
            ],
            "anonymous": false
        },
        {
            "type": "event",
            "name": "RoundStarted",
            "inputs": [
                {
                    "name": "roundId",
                    "type": "uint64",
                    "indexed": true,
                    "internalType": "uint64"
                },
                {
                    "name": "startBlock",
                    "type": "uint64",
                    "indexed": false,
                    "internalType": "uint64"
                },
                {
                    "name": "endBlock",
                    "type": "uint64",
                    "indexed": false,
                    "internalType": "uint64"
                },
                {
                    "name": "timestamp",
                    "type": "uint64",
                    "indexed": false,
                    "internalType": "uint64"
                }
            ],
            "anonymous": false
        },
        {
            "type": "event",
            "name": "StakeClaimed",
            "inputs": [
                {
                    "name": "user",
                    "type": "address",
                    "indexed": true,
                    "internalType": "address"
                },
                {
                    "name": "to",
                    "type": "address",
                    "indexed": true,
                    "internalType": "address"
                },
                {
                    "name": "amount",
                    "type": "uint256",
                    "indexed": false,
                    "internalType": "uint256"
                },
                {
                    "name": "timestamp",
                    "type": "uint64",
                    "indexed": false,
                    "internalType": "uint64"
                }
            ],
            "anonymous": false
        },
        {
            "type": "event",
            "name": "StakeDeposited",
            "inputs": [
                {
                    "name": "user",
                    "type": "address",
                    "indexed": true,
                    "internalType": "address"
                },
                {
                    "name": "amount",
                    "type": "uint256",
                    "indexed": false,
                    "internalType": "uint256"
                },
                {
                    "name": "timestamp",
                    "type": "uint64",
                    "indexed": false,
                    "internalType": "uint64"
                }
            ],
            "anonymous": false
        },
        {
            "type": "event",
            "name": "StakeWithdrawn",
            "inputs": [
                {
                    "name": "user",
                    "type": "address",
                    "indexed": true,
                    "internalType": "address"
                },
                {
                    "name": "amount",
                    "type": "uint256",
                    "indexed": false,
                    "internalType": "uint256"
                },
                {
                    "name": "timestamp",
                    "type": "uint64",
                    "indexed": false,
                    "internalType": "uint64"
                }
            ],
            "anonymous": false
        },
        {
            "type": "event",
            "name": "Upgraded",
            "inputs": [
                {
                    "name": "implementation",
                    "type": "address",
                    "indexed": true,
                    "internalType": "address"
                }
            ],
            "anonymous": false
        },
        {
            "type": "event",
            "name": "VRFConfigUpdated",
            "inputs": [
                {
                    "name": "keyHash",
                    "type": "bytes32",
                    "indexed": false,
                    "internalType": "bytes32"
                },
                {
                    "name": "subId",
                    "type": "uint64",
                    "indexed": false,
                    "internalType": "uint64"
                },
                {
                    "name": "minConf",
                    "type": "uint16",
                    "indexed": false,
                    "internalType": "uint16"
                },
                {
                    "name": "gasLimit",
                    "type": "uint32",
                    "indexed": false,
                    "internalType": "uint32"
                },
                {
                    "name": "timestamp",
                    "type": "uint64",
                    "indexed": false,
                    "internalType": "uint64"
                }
            ],
            "anonymous": false
        },
        {
            "type": "event",
            "name": "VaultWithdraw",
            "inputs": [
                {
                    "name": "target",
                    "type": "address",
                    "indexed": true,
                    "internalType": "address"
                },
                {
                    "name": "amount",
                    "type": "uint256",
                    "indexed": false,
                    "internalType": "uint256"
                },
                {
                    "name": "timestamp",
                    "type": "uint64",
                    "indexed": false,
                    "internalType": "uint64"
                }
            ],
            "anonymous": false
        },
        {
            "type": "error",
            "name": "AddressEmptyCode",
            "inputs": [
                {
                    "name": "target",
                    "type": "address",
                    "internalType": "address"
                }
            ]
        },
        {
            "type": "error",
            "name": "AlreadyCheckpointed",
            "inputs": []
        },
        {
            "type": "error",
            "name": "AlreadyDeployedThisRound",
            "inputs": []
        },
        {
            "type": "error",
            "name": "AlreadyFinalized",
            "inputs": []
        },
        {
            "type": "error",
            "name": "AutomationAlreadyActive",
            "inputs": []
        },
        {
            "type": "error",
            "name": "AutomationInactive",
            "inputs": []
        },
        {
            "type": "error",
            "name": "AutomationNotAuthorized",
            "inputs": []
        },
        {
            "type": "error",
            "name": "ClaimWindowPassed",
            "inputs": []
        },
        {
            "type": "error",
            "name": "ERC1967InvalidImplementation",
            "inputs": [
                {
                    "name": "implementation",
                    "type": "address",
                    "internalType": "address"
                }
            ]
        },
        {
            "type": "error",
            "name": "ERC1967NonPayable",
            "inputs": []
        },
        {
            "type": "error",
            "name": "FailedCall",
            "inputs": []
        },
        {
            "type": "error",
            "name": "GameAlreadyStarted",
            "inputs": []
        },
        {
            "type": "error",
            "name": "GameNotStarted",
            "inputs": []
        },
        {
            "type": "error",
            "name": "InsufficientAutomationBalance",
            "inputs": []
        },
        {
            "type": "error",
            "name": "InsufficientVault",
            "inputs": []
        },
        {
            "type": "error",
            "name": "InvalidAmount",
            "inputs": []
        },
        {
            "type": "error",
            "name": "InvalidInitialization",
            "inputs": []
        },
        {
            "type": "error",
            "name": "InvalidMask",
            "inputs": []
        },
        {
            "type": "error",
            "name": "InvalidMask",
            "inputs": []
        },
        {
            "type": "error",
            "name": "InvalidRouter",
            "inputs": []
        },
        {
            "type": "error",
            "name": "MustCheckpointPreviousRound",
            "inputs": []
        },
        {
            "type": "error",
            "name": "NotBuryAuthority",
            "inputs": []
        },
        {
            "type": "error",
            "name": "NotInitializing",
            "inputs": []
        },
        {
            "type": "error",
            "name": "NothingToClaim",
            "inputs": []
        },
        {
            "type": "error",
            "name": "OnlyCoordinatorCanFulfill",
            "inputs": [
                {
                    "name": "have",
                    "type": "address",
                    "internalType": "address"
                },
                {
                    "name": "want",
                    "type": "address",
                    "internalType": "address"
                }
            ]
        },
        {
            "type": "error",
            "name": "OwnableInvalidOwner",
            "inputs": [
                {
                    "name": "owner",
                    "type": "address",
                    "internalType": "address"
                }
            ]
        },
        {
            "type": "error",
            "name": "OwnableUnauthorizedAccount",
            "inputs": [
                {
                    "name": "account",
                    "type": "address",
                    "internalType": "address"
                }
            ]
        },
        {
            "type": "error",
            "name": "PleaseWaitForVRF",
            "inputs": []
        },
        {
            "type": "error",
            "name": "RandomnessNotReady",
            "inputs": []
        },
        {
            "type": "error",
            "name": "RandomnessPending",
            "inputs": []
        },
        {
            "type": "error",
            "name": "ReentrancyGuardReentrantCall",
            "inputs": []
        },
        {
            "type": "error",
            "name": "RoundNotLive",
            "inputs": []
        },
        {
            "type": "error",
            "name": "UUPSUnauthorizedCallContext",
            "inputs": []
        },
        {
            "type": "error",
            "name": "UUPSUnsupportedProxiableUUID",
            "inputs": [
                {
                    "name": "slot",
                    "type": "bytes32",
                    "internalType": "bytes32"
                }
            ]
        }
    ],
    "bytecode": {
        "object": "0x60a080604052346100c257306080525f5160206160325f395f51905f525460ff8160401c166100b3576002600160401b03196001600160401b03821601610060575b604051615f6b90816100c78239608051818181612d030152612dd20152f35b6001600160401b0319166001600160401b039081175f5160206160325f395f51905f525581527fc7f505b2f371ae2175ee4913f4499e1f2633a7b5936321eed1cdaeb6115181d290602090a15f80610041565b63f92ee8a960e01b5f5260045ffd5b5f80fdfe60806040526004361015610011575f80fd5b5f5f3560e01c8063078b0fb714613c3e5780630917e77614613c215780630a00909714613bf95780630c34d7fa14613b1d5780630f3e2f51146137cb5780631325a6d61461373057806316934fc4146136ce5780631734800c1461368d5780631fe543e31461310e578063228f38451461308357806323a8bdca14612ca75780632e1c5227146130315780633141e25b14612f9457806341a027aa14612f625780634f1ef28614612d5757806352d1902d14612cf157806361d027b314612ca757806366c90c5a14612b95578063676a630014612a5e5780636c46376d146128f15780636c6804a7146126855780636c718385146125bc5780636db8b42d146124a3578063715018a61461244f5780637655bf501461241c57806377329f351461218157806379502c55146121045780637b3f039c14611f585780637cd3229a14611ebf578063805ccb3e14611df657806384bf220a14611d8257806384d452ff14611cb65780638da5cb5b14611c815780638fd2040d14611bf1578063937a007714611bc8578063940d1f2f14611bab5780639767bae614611a965780639dd373b914611a51578063a488dcdf146119f1578063a97958c1146118e4578063ad3cb1cc14611897578063b03fd74514611879578063b762e34314611850578063b9ad4357146117c5578063bc3ac87514611662578063bf376c7a14611510578063cb70ffef146112a0578063cb82cc8f14611146578063d65ab5f2146110fd578063db326efc14611014578063db83430614610e0f578063deadd94b146108df578063e40fd076146108b6578063e58306f914610826578063edb39d70146106ee578063ee99205c146106c5578063f2fde38b14610698578063f921e65c146102f75763fa4d3ab9146102a3575f80fd5b346102f45760203660031901126102f45760409081906001600160401b036102c9613d4e565b16815260436020522054815190600180841b0381841c168252600180841b039060801c166020820152f35b80fd5b50346102f45760203660031901126102f457604061090091610317613d4e565b825161032281613df9565b82815282602082015282848201528260608201528260808201528260a08201528260c08201528260e08201528261010082015282610120820152826101408201528261016082015282610180820152826101a0820152826101c0820152826101e08201528261020082015282610220820152826102408201528261026082015282610280820152826102a08201526102e06103209185516103c38482613e15565b833682376102c08201528551926103da8185613e15565b3684370152600180841b0316815260436020522061052e60266040519261040084613df9565b80546001600160401b038082168652604082811c82166020880152608083811c83168883015260c093841c6060890152600185015480841691890191909152901c1660a080870191909152600283015482870152600383015460e087015260048301546101008701526005830154610120870152600683015460ff9081166101408801526007840154610160880152600884015461018088015260098401546101a0880152600a8401546101c0880152600b8401546001600160a01b0381166101e08901529182901c8116151561020088015260a882901c8116151561022088015260b082901c8116151561024088015260b882901c81161515610260880152911c161515610280850152600c8101546102a0850152610522600d82016146bc565b6102c0850152016146bc565b6102e08201526106966102e06040519260018060401b03815116845260018060401b03602082015116602085015260018060401b03604082015116604085015260018060401b03606082015116606085015260018060401b03608082015116608085015260018060401b0360a08201511660a085015260c081015160c085015260e081015160e085015261010081015161010085015261012081015161012085015260ff610140820151166101408501526101608101516101608501526101808101516101808501526101a08101516101a08501526101c08101516101c085015260018060a01b036101e0820151166101e0850152610200810151151561020085015261022081015115156102208501526102408101511515610240850152610260810151151561026085015261028081015115156102808501526102a08101516102a08501526106896102c08201516102c0860190613f23565b01516105e0830190613f23565bf35b50346102f45760203660031901126102f4576106c26106b5613cc6565b6106bd614729565b61465e565b80f35b50346102f457806003193601126102f4576042546040516001600160a01b039091168152602090f35b50346102f45760203660031901126102f457610708613cc6565b6107106146f1565b33825260476020526040822080549091906001600160a01b03161561081757829061073f6001840154936144b1565b923383526047602052826005604082208281558260018201558260028201558260038201558260048201550155806107c5575b505060208201528160c082015261078c6040518092613eb2565b426001600160401b031660e082015233905f516020615ed65f395f51905f529061010090a260015f516020615eb65f395f51905f525580f35b8291829182916001600160a01b03165af16107de614054565b50156107ec57815f80610772565b606460405162461bcd60e51b81526020600482015260046024820152631cd95b9960e21b6044820152fd5b631fc2483d60e11b8352600483fd5b50346102f45760403660031901126102f45780610841613cc6565b610849614729565b6032546001600160a01b0316803b156108b2576040516340c10f1960e01b8152918391839182908490829061088590602435906004840161417b565b03925af180156108a7576108965750f35b816108a091613e15565b6102f45780f35b6040513d84823e3d90fd5b5050fd5b50346102f457806003193601126102f4576035546040516001600160a01b039091168152602090f35b50346102f4576102003660031901126102f45760405161020081016001600160401b03811182821017610dfb57604052610917613cc6565b8152610921613cdc565b602082015261092e613cf2565b60408201526064356001600160a01b0381168103610df75760608201526084356001600160a01b0381168103610df757608082015260a43560a082015260c43560c082015260e43561ffff81168103610df75760e08201526101043563ffffffff81168103610df7576101008201526101243563ffffffff81168103610df7576101208201526101443563ffffffff81168103610df7576101408201526101643563ffffffff81168103610df7576101608201526101843563ffffffff81168103610df7576101808201526101a43561ffff81168103610df7576101a08201526101c43561ffff81168103610df7576101c08201526101e4356101e08201525f516020615ef65f395f51905f52546001600160401b0381161580610de9575b6001600160401b0382166001149081610ddf575b159081610dd6575b50610dc7575f516020615ef65f395f51905f5280546001600160401b0319166001179055604081901c60ff1615610da3575b81516001600160a01b031615610d7657610ab3615cbf565b610abb615cbf565b610ac43361465e565b610acc615cbf565b610ad4615cbf565b60015f516020615eb65f395f51905f5255610aed615cbf565b60808201516001600160a01b0316610b03615cbf565b8015610d255783546001600160a01b0319908116909117845582516032805483166001600160a01b03928316179055608084015160418054909316911617905560335461012083015161014084015161016085015161018086015160ff966101e0959094929360409390931b63ffffffff60401b1692909160609190911b63ffffffff60601b169063ffffffff908116908516808211610d1d5750905b6101a08601516101c087015165ffffffffffff60c01b1963ffffffff60a01b199096166001600160c01b0319909516949094179091179390931660809490941b63ffffffff60801b169390931760a093841b63ffffffff60a01b161760c092831b61ffff60c01b161760d09190911b61ffff60d01b1617601960e21b1760f087901b19166033556020830151603480546001600160a01b03199081166001600160a01b039384161790915560408086015160358054841691851691909117905560608601516036805490931693169290921790559183015160375582015160385560e08201516039805461010085015165ffffffffffff1990911661ffff939093169290921760109290921b65ffffffff000016919091179055910151603a551c1615610cca5780f35b60ff60401b195f516020615ef65f395f51905f5254165f516020615ef65f395f51905f52557fc7f505b2f371ae2175ee4913f4499e1f2633a7b5936321eed1cdaeb6115181d2602060405160018152a180f35b905090610ba0565b60405162461bcd60e51b815260206004820152602360248201527f6d75737420676976652076616c696420636f6f7264696e61746f72206164647260448201526265737360e81b6064820152608490fd5b60405162461bcd60e51b81526020600482015260056024820152643a37b5b2b760d91b6044820152606490fd5b5f516020615ef65f395f51905f52805460ff60401b1916600160401b179055610a9b565b63f92ee8a960e01b8352600483fd5b9050155f610a69565b303b159150610a61565b5060ff8160401c1615610a4d565b8280fd5b634e487b7160e01b83526041600452602483fd5b50346102f45760403660031901126102f457610e29613d4e565b90610e32613cdc565b909182916001600160401b039091169082906001600160a01b0316815b60ff81166019811015610eaa57848652604560205260408620835f5260205260405f20815f5260205260405f2054610e8e575b5060010160ff16610e4f565b610ea260ff929794600180931b1794614636565b969150610e82565b5050929160ff851691610ebc83613e38565b94610eca6040519687613e15565b838652610ed684613e38565b602087019590601f1901368737610f05610eef86613e38565b95610efd6040519788613e15565b808752613e38565b602086019490601f19013686378194825b60ff81166019811015610f8d57838552604560205260408520865f5260205260405f20815f526020528a60405f20549182610f5a575b50505060010160ff16610f16565b98600192610f7d610f839360ff969c610f768886168093614032565b528d614032565b52614636565b9791508a8c610f4c565b868b84878d8d604051958695606087019187526060602088015251809152608086019290845b818110610ff857505050602090858303604087015251918281520192915b818110610fdf575050500390f35b8251845285945060209384019390920191600101610fd1565b825160ff16855288975060209485019490920191600101610fb3565b50346102f45760203660031901126102f45761102e613cc6565b6110366146f1565b61103e614729565b6110478161475c565b6110ee577f26a8dc2b9ccf97caf32e8010963836ad2f7d6132fdabd4c91e71a62fca98d96c61108c61109161107b84614228565b9390826110d0575b603a5490613f88565b613f88565b6040516001600160a01b03909416939182916110b991426001600160401b0316919084614490565b0390a260015f516020615eb65f395f51905f525580f35b6110e98880808087335af16110e3614054565b50614604565b611083565b630e83a11b60e21b8252600482fd5b50346102f457806003193601126102f457611116614729565b60335460ff8160f01c166111375760ff60f01b1916600160f01b1760335580f35b63ba26162b60e01b8252600482fd5b50346102f45760203660031901126102f4576004356111636146f1565b80156112915733825260486020526040822061117e81614d90565b611189828254613f88565b905561119781603b54613f88565b603b556032546040516323b872dd60e01b815233600482015230602482015260448101839052906020908290606490829087906001600160a01b03165af1908115611286578391611257575b5015611223577f6e69bcfef2c5fa29f8823f7e916f754a10da9af7a9e99467cae256619820a9d0604051806110b9339460018060401b03421690836141cd565b60405162461bcd60e51b815260206004820152600c60248201526b7472616e7366657246726f6d60a01b6044820152606490fd5b611279915060203d60201161127f575b6112718183613e15565b810190614163565b5f6111e3565b503d611267565b6040513d85823e3d90fd5b63162908e360e11b8252600482fd5b50346102f45760203660031901126102f4576112ba613d4e565b6112c2614729565b6112ca6146f1565b6001600160401b0316808252604360205260408220600b810180549392919060a085901c60ff16156114e25760ff8560a81c166114b7576033546001600160401b031683036114875760018060401b03825460801c1694611c2086018096116114735761135b7f9a2d5cccb5b401ebca38c9f2398ac9f3dbcd48391922c21aa633689eb409535e9495964311614458565b600160a81b9061ffff60a01b19161790556001600282019185835493558560038201558560048201556006810160ff801982541617905585600782015585600882015585600a8201556113c9828060401b036113c263ffffffff60335460801c1643613f88565b16826145e1565b0160018060401b0360018060401b0343161660018060401b031982541617905560018060401b03421690835f516020615e565f395f51905f5261014060405160ff81528860208201528860408201528860608201528860808201528860a08201528860c08201528860e08201528861010082015285610120820152a2611454604051928392836141cd565b0390a261145f615abe565b60015f516020615eb65f395f51905f525580f35b634e487b7160e01b85526011600452602485fd5b60405162461bcd60e51b81526020600482015260086024820152670858dd5c9c995b9d60c21b6044820152606490fd5b606460405162461bcd60e51b8152602060048201526004602482015263446f6e6560e01b6044820152fd5b60405162461bcd60e51b81526020600482015260066024820152652737902b292360d11b6044820152606490fd5b50346102f45760403660031901126102f45761152a613cc6565b60243590611536614729565b61153e6146f1565b6001600160a01b031690811561162c5780156115f957603f548082116115ea578161156891613f4a565b603f5582808080848661c350f161157d614054565b50156115bf576040517f2fd5dc1cae0aeef727e9349fc28f7cd04ce60073a57be16a0268ea704462b5519181906110b990426001600160401b031690836141cd565b606460405162461bcd60e51b81526020600482015260046024820152630777261760e41b6044820152fd5b631b74457560e31b8452600484fd5b60405162461bcd60e51b815260206004820152600b60248201526a16995c9bc8185b5bdd5b9d60aa1b6044820152606490fd5b60405162461bcd60e51b815260206004820152600e60248201526d125b9d985b1a59081d185c99d95d60921b6044820152606490fd5b50346102f45760203660031901126102f4576102c0906040906001600160401b0361168b613d4e565b168152604360205220805460ff600183015492600281015460038201546004830154600584015485600686015416600786015491600887015493600988015495600a89015497600c600b8b01549a01549b60a06040519e8f9260018060401b038116845260018060401b038160401c16602085015260018060401b038160801c16604085015260c01c606084015260018060401b038116608084015260018060401b039060401c1691015260c08d015260e08c01526101008b01526101208a01526101408901526101608801526101808701526101a08601526101c085015260018060a01b0381166101e0850152818160a01c161515610200850152818160a81c161515610220850152818160b01c161515610240850152818160b81c16151561026085015260c01c1615156102808301526102a0820152f35b50346102f45760203660031901126102f45760e0906040906001600160a01b036117ed613cc6565b16815260476020522060ff60018060a01b0382541691600181015490600281015460038201549060056004840154930154936040519687526020870152604086015260608501526080840152818116151560a084015260081c16151560c0820152f35b50346102f457806003193601126102f4576036546040516001600160a01b039091168152602090f35b50346102f457806003193601126102f4576020603f54604051908152f35b50346102f457806003193601126102f457506118e06040516118ba604082613e15565b60058152640352e302e360dc1b6020820152604051918291602083526020830190613eff565b0390f35b50346102f45760203660031901126102f4576001600160401b03611906613d4e565b1680825260436020526040822061192660ff600b83015460a81c166141e6565b60ff600682015416918352604a6020526040832060ff83165f526020528160405f2080549061195482613e38565b956119626040519788613e15565b82875290815260208082209087015b8383106119b55750505050600d61198892016140f9565b90549060031b1c6119ab6040519384938452606060208501526060840190613e6a565b9060408301520390f35b6001919293945060206002916040516119cd81613dc3565b848060a01b0386541681528486015483820152815201920192019091859392611971565b50346102f45760203660031901126102f457604254600435906001600160a01b03163303611a4257603f54818110611a335790611a2d91613f4a565b603f5580f35b631b74457560e31b8352600483fd5b6360c4e54360e01b8252600482fd5b50346102f45760203660031901126102f457611a6b613cc6565b611a73614729565b604280546001600160a01b0319166001600160a01b039290921691909117905580f35b50346102f45760a03660031901126102f45760043563ffffffff81168103611ba75760243563ffffffff81168103610df75760443563ffffffff81168103611ba3576064359161ffff83168303611b9f576084359061ffff82168203611b9b57611afe614729565b6033805460c09590951b61ffff60c01b1660809490941b63ffffffff60801b16600160401b67ffffffff0000000160a01b0319909516604096871b63ffffffff60401b161760609290921b63ffffffff60601b1691909117939093179190911760d09190911b61ffff60d01b1617905551426001600160401b03168152641c9bdd5b9960da1b905f516020615e965f395f51905f5290602090a280f35b8580fd5b8480fd5b8380fd5b5080fd5b50346102f45760203660031901126102f4576106c2600435614511565b50346102f457806003193601126102f4576032546040516001600160a01b039091168152602090f35b50346102f45760403660031901126102f4576040611c0d613d4e565b91611c16613cdc565b92600180841b031681526044602052209060018060a01b03165f5260205260c060405f208054906001810154906002810154600460038301549201549260ff604051958181161515875260081c161515602086015260408501526060840152608083015260a0820152f35b50346102f457806003193601126102f4575f516020615df65f395f51905f52546040516001600160a01b039091168152602090f35b50346102f457806003193601126102f457611ccf6146f1565b6033546001600160401b03908116825260436020526040808320805492909183901c1615611d7357600b015460ff8160a01c16611d645760a81c60ff16611d555760801c6001600160401b0316431115611d46576020611d2d6158b2565b60015f516020615eb65f395f51905f5255604051908152f35b631328d40b60e31b8152600490fd5b63475a253560e01b8252600482fd5b63319b714360e01b8352600483fd5b631328d40b60e31b8352600483fd5b50346102f45760203660031901126102f457611de9604060e092611da4613cc6565b8160c08451611db281613dde565b82815282602082015282868201528260608201528260808201528260a0820152015260018060a01b031681526047602052206144b1565b6106966040518092613eb2565b50346102f45760803660031901126102f4576024356001600160401b0381169060043590829003610df7576044359061ffff8216809203611ba3576064359163ffffffff831690818403611b9b577f5c52bd2211f9edb1ae3b3e5d1da8da87ccc689755cd68f9256ddc9f3bd224ca69460a094611e71614729565b84603755816038558265ffffffff00006039549260101b169165ffffffffffff1916171760395560405193845260208401526040830152606082015260018060401b0342166080820152a180f35b50346102f457806003193601126102f45761012060335460ff6040519160018060401b038116835263ffffffff8160401c16602084015263ffffffff8160601c16604084015263ffffffff8160801c16606084015263ffffffff8160a01c16608084015261ffff8160c01c1660a084015261ffff8160d01c1660c084015261ffff8160e01c1660e084015260f01c161515610100820152f35b50346102f45760203660031901126102f457611f72613d4e565b611f7a614729565b611f826146f1565b6001600160401b0316808252604360205260408220600b8101549092919060a81c60ff16156120d757825460c01c80156120a9576202a300810180911161209557611fce904311614458565b611ff7611fe560ff600686015416600d86016140f9565b90549060031b1c600385015490613f88565b92600c810180548086115f1461208b5761201360059187613f4a565b925b01948554916120248385613f88565b801561207c5795809761205b7f24e0d5b62f9d1a04b8fc88102f1e5ad451bb998d67be54c23e4798c350faa9b89798603f54613f88565b603f5555556040519182916110b991426001600160401b0316919084614490565b6312d37ee560e31b8752600487fd5b5060058492612015565b634e487b7160e01b83526011600452602483fd5b60405162461bcd60e51b8152602060048201526006602482015265085d985b1a5960d21b6044820152606490fd5b60405162461bcd60e51b815260206004820152600560248201526421646f6e6560d81b6044820152606490fd5b50346102f457806003193601126102f45761010060018060a01b036034541660018060a01b036035541663ffffffff60018060a01b03603654166037546038549060395492603a5495604051978852602088015260408701526060860152608085015261ffff811660a085015260101c1660c083015260e0820152f35b503461234d57602036600319011261234d5761219b613cc6565b6121a36146f1565b5f6121ad336148ff565b335f52604960205260405f2080549283159182156123c2575b6121cf8161584b565b6001810191825490600283019283549383158015906123b9575b612236575b5050505050508061222e575b61221f576040925060015f516020615eb65f395f51905f525582519182526020820152f35b6312d37ee560e31b8352600483fd5b5080156121fa565b60039293949597505f9081603d5499878b1182146123af5761226b600a8904985b6122658b61108c8c84613f4a565b9c613f4a565b603d555555603e5491829101558215908115806123a4575b612351575b50506032546001600160a01b031690813b1561234d576040516340c10f1960e01b81526001600160a01b03909116600482015260248101869052905f908290604490829084905af1801561234257612319575b50604051869233925f516020615dd65f395f51905f529291829161230b91426001600160401b0316918a85614083565b0390a35f80808080806121ee565b61230b96505f61232b91939293613e15565b5f9550905f516020615dd65f395f51905f526122db565b6040513d5f823e3d90fd5b5f80fd5b670de0b6b3a7640000840291848304670de0b6b3a76400001417156123905761238061238692603d5490613f6a565b90613f88565b603e555f80612288565b634e487b7160e01b5f52601160045260245ffd5b50603d541515612283565b61226b8298612257565b508415156121e9565b5f8082556123e890808080896001600160a01b0388165af16123e2614054565b50614108565b6040515f9033905f516020615e165f395f51905f529080612414426001600160401b0316888c8461413a565b0390a36121c6565b3461234d57602036600319011261234d576118e061244061243b613cc6565b614228565b60409391935193849384613d08565b3461234d575f36600319011261234d57612467614729565b5f516020615df65f395f51905f5280546001600160a01b031981169091555f906001600160a01b03165f516020615e765f395f51905f528280a3005b3461234d576124b136613d64565b90601960ff831610156125865760018060401b0316805f52604a60205260405f2060ff83165f5260205260405f209081546124eb81613e38565b926124f96040519485613e15565b81845260208401905f5260205f205f915b838310612552576125488661252d89885f526043602052600d60405f20016140f9565b90549060031b1c604051928392604084526040840190613e6a565b9060208301520390f35b6002602060019260405161256581613dc3565b848060a01b038654168152848601548382015281520192019201919061250a565b60405162461bcd60e51b815260206004820152600e60248201526d496e76616c69642073717561726560901b6044820152606490fd5b3461234d57604036600319011261234d576125d5613d4e565b6125dd613cdc565b6125e56146f1565b6001600160401b0382165f818152604360205260409020600b015460a81c60ff1615612676575f52604460205260405f2060018060a01b0382165f5260205260405f205460ff81166126675760081c60ff16156126585761264591615379565b60015f516020615eb65f395f51905f5255005b6312d37ee560e31b5f5260045ffd5b63cdda955f60e01b5f5260045ffd5b637b91e42d60e11b5f5260045ffd5b3461234d57604036600319011261234d5761269e613d4e565b6024356001600160401b03811161234d576126bd903690600401613d1e565b91906126c76146f1565b60018060401b03821692835f52604360205260405f209160ff600b84015460a81c1615612676579392906126fa81613e38565b946127086040519687613e15565b81865261271482613e38565b602087019590601f19013687375f935f935b80851061285757505050505061278e575b509060015f516020615eb65f395f51905f5255604051918291602083019060208452518091526040830191905f5b818110612773575050500390f35b82511515845285945060209384019390920191600101612765565b600581018054918215159081612840575b81612828575b506127b1575b50612737565b603a5490828211612820575b816127c9575b506127ab565b5f828194926127da83958495613f4a565b9055335af16127e7614054565b50156127f5578280806127c3565b60405162461bcd60e51b8152602060048201526003602482015262189bdd60ea1b6044820152606490fd5b8291506127bd565b600101546001600160401b03164310159050856127a5565b60018101546001600160401b03161515915061279f565b909192939461286f61286a878488614001565b614011565b845f52604460205260405f2060018060a01b0382165f5260205260405f205460ff81169081156128e2575b506128cc576001916128af6128c09286614e0b565b826128ba898d614032565b52614046565b955b0193929190612726565b5094805f6128dc6001938c614032565b526128c2565b60ff915060081c16158b61289a565b3461234d575f36600319011261234d576033546001600160401b03166001811115612a24575f19016001600160401b0381116123905760018060401b0316805f52604360205260405f209061294f60ff600b84015460a81c166141e6565b60ff60068301541691815f52604a60205260405f2060ff84165f5260205260405f209083825461297e81613e38565b9361298c6040519586613e15565b81855260208501905f5260205f205f915b8383106129e857505050506129b890600d6129de93016140f9565b90549060031b1c9160405194859485526020850152608060408501526080840190613e6a565b9060608301520390f35b600191929394506020600291604051612a0081613dc3565b848060a01b038654168152848601548382015281520192019201909187939261299d565b60405162461bcd60e51b8152602060048201526012602482015271139bc818dbdb5c1b195d1959081c9bdd5b9960721b6044820152606490fd5b3461234d57604036600319011261234d57600435612a7a613cdc565b612a826146f1565b335f52604860205260405f209082158015612b8b575b612b7c578260209183612aad612af295614d90565b612ab8838254613f4a565b9055612ac682603b54613f4a565b603b5560018060a01b0360325416905f60405180968195829463a9059cbb60e01b84526004840161417b565b03925af1801561234257612b0d915f91612b5d575b50614196565b7f8c0f54c84dcdcf847dcfa91c4e1067d4790cc58e55568bbc06739ab390e8e3e160405180612b47339460018060401b03421690836141cd565b0390a260015f516020615eb65f395f51905f5255005b612b76915060203d60201161127f576112718183613e15565b83612b07565b63162908e360e11b5f5260045ffd5b5081548311612a98565b3461234d57602036600319011261234d57612bae613cc6565b612bb66146f1565b335f526048602052600160405f20612bcd81614d90565b018054908115612658575f905560018060a01b0360325416916020604051809463a9059cbb60e01b8252815f81612c0888886004840161417b565b03925af192831561234257602093612c26915f91612c8a5750614196565b6040516001600160a01b039091169033907f0c21507e8db42a7a9af587ae7495dda456eafb18bfd3903be62b511e7399ab5f9080612c6e426001600160401b031687836141cd565b0390a360015f516020615eb65f395f51905f5255604051908152f35b612ca19150853d871161127f576112718183613e15565b85612b07565b3461234d575f36600319011261234d57603b54603c54603d54603e54603f5460408054815196875260208701959095528501929092526060840152608083015260a082015260c090f35b3461234d575f36600319011261234d577f00000000000000000000000000000000000000000000000000000000000000006001600160a01b03163003612d485760206040515f516020615e365f395f51905f528152f35b63703e46dd60e11b5f5260045ffd5b604036600319011261234d57612d6b613cc6565b602435906001600160401b03821161234d573660238301121561234d57816004013590612d9782613e4f565b91612da56040519384613e15565b8083526020830193366024838301011161234d57815f926024602093018737840101526001600160a01b037f000000000000000000000000000000000000000000000000000000000000000016308114908115612f40575b50612d4857612e0a614729565b6040516352d1902d60e01b81526001600160a01b0382169390602081600481885afa5f9181612f0c575b50612e4c5784634c9c8ce360e01b5f5260045260245ffd5b805f516020615e365f395f51905f52869203612efa5750823b15612ee8575f516020615e365f395f51905f5280546001600160a01b031916821790557fbc7cd75a20ee27fd9adebab32041f755214dbc6bffa90cc0225b39da2e5c2d3b5f80a2825115612ecf575f8091612ecd945190845af4612ec7614054565b91615d77565b005b50505034612ed957005b63b398979f60e01b5f5260045ffd5b634c9c8ce360e01b5f5260045260245ffd5b632a87526960e21b5f5260045260245ffd5b9091506020813d602011612f38575b81612f2860209383613e15565b8101031261234d57519086612e34565b3d9150612f1b565b5f516020615e365f395f51905f52546001600160a01b03161415905084612dfd565b3461234d57602036600319011261234d576004355f526046602052602060018060401b0360405f205416604051908152f35b3461234d57606036600319011261234d57612fad613cc6565b612fb5613cdc565b612fbd613cf2565b91612fc6614729565b603480546001600160a01b03199081166001600160a01b039384161790915560358054821693831693909317909255603680549092169216919091179055604051426001600160401b0316815263636f726560e01b905f516020615e965f395f51905f5290602090a2005b3461234d57602036600319011261234d5761304a614729565b600435603a55604051426001600160401b031681526918da1958dadc1bda5b9d60b21b905f516020615e965f395f51905f5290602090a2005b3461234d57602036600319011261234d5761309c613cc6565b6130a46146f1565b6130ad336148ff565b335f52604960205260405f208054908115612658575f908190556020926130e682808080876001600160a01b0387165af16123e2614054565b5f516020615e165f395f51905f5260405180612c6e339460018060401b03421690888461413a565b3461234d57604036600319011261234d576004356024356001600160401b03811161234d573660238201121561234d5780600401359061314d82613e38565b9161315b6040519384613e15565b8083526024602084019160051b8301019136831161234d57602401905b82821061367d5750505f546001600160a01b031690503381900361366757505f828152604660205260409020546001600160401b0316918215612676575f52604660205260405f2060018060401b03198154169055815f52604360205260405f20600b810190815460ff8160a81c166136585761ffff60a01b1916600160a81b1782556033546001600160401b039061321a9060601c63ffffffff1643613f88565b166132296001830191826148d6565b601961323485614025565b510660ff60068401911660ff19825416178155600161325286614025565b51855460ff60b01b191660089190911c919091161560b01b60ff60b01b1617845561027161327f86614025565b51600c1c061584549060ff60b81b9060b81b169060ff60b81b19161784556002830154946132b460ff835416600d86016140f9565b90549060031b1c8060648804978181115f1461364d576132e1916132d791613f4a565b6064810490613f4a565b906132f0600a83048093613f4a565b92600487019583875561331f60018060401b0361331863ffffffff60335460801c1643613f88565b16896145e1565b60335463ffffffff808260a01c169160801c16808211613645575b5088546001600160401b0391821660c09190911c039081116123905781546001600160401b0319166001600160401b0391909116179055875460ff60c01b19168855816134e4575050855461ffff60b01b191686555f600786018190556008860181905560098601819055600a86015585546001600160a01b03191686555f516020615e565f395f51905f52966101409695949360ff9390926133eb916133e091613f88565b808655603f54613f88565b603f555f60038601555b8061349c575b5054169261340c84602685016140f9565b90549060031b1c905460ff8160b01c16805f14613491576007850154945b60038101549454600a90910154604080519889526020890196909652948701521515606086015260ff60b882901c16151560808601526001600160a01b031660a085015260c084015260e08301526101008201526001600160401b034216610120820152a2005b60088501549461342a565b6034546001600160a01b0316156134d0575f8080806134ca9460018060a01b03603454165af16110e3614054565b886133fb565b6134dc90603f54613f88565b603f556134ca565b92909695949391604054916702c68af0bb140000830180931161239057613515926040556003870155603f54613f88565b603f55815160011015613631575f516020615e565f395f51905f529661014096604060ff9401510680600987015583875460b01c165f146135f05750670de0b6b3a764000060078601555f600886015585546001600160a01b031916725b1171111111111111111111111111111111111786555b855460b81c8316156135e557887f59872529ce12f19664dff7653b417a8f9cdf72e5381b48510565adec044e05bf6135d960405480600a8a015560405191829160018060401b03421690836141cd565b0390a25f6040556133f5565b5f600a8601556133f5565b670de0b6b3a764000060088701555f600787015582546001600160a01b039161361b9186168c615cea565b87546001600160a01b0319169116178655613589565b634e487b7160e01b5f52603260045260245ffd5b90508c61333a565b50506132e15f6132d7565b63475a253560e01b5f5260045ffd5b63073e64fd60e21b5f523360045260245260445ffd5b8135815260209182019101613178565b3461234d5760206136bf6136a036613d64565b6001600160401b039091165f9081526043845260409020600d016140f9565b90549060031b1c604051908152f35b3461234d57602036600319011261234d576001600160a01b036136ef613cc6565b165f526048602052608060405f2080549060018101549065ffffffffffff600360028301549201541691604051938452602084015260408301526060820152f35b604036600319011261234d5760043560243561374a6146f1565b613752614801565b61375b336148ff565b61379661378a6137696140ac565b6033546001600160401b0316815233608082015260208101859052936149b6565b80604085015282613f57565b606083019080825215612b7c576137bc9160c0840152603a54908160e085015251613f88565b3403612b7c5761264590614a3d565b3461234d57602036600319011261234d576004356001600160401b03811161234d576137fb903690600401613d1e565b6138036146f1565b61380b614729565b61381481613e38565b916138226040519384613e15565b818352601f1961383183613e38565b015f5b818110613ae85750505f5f915f5b84811061397957505080613923575b6033546040516001600160401b03918216947ffdc550c5c39fe5113c6a01574391124646e8cecb23b0631760b82bc951a140ba949193849361389893429091169285614083565b0390a260015f516020615eb65f395f51905f52556040518091602082016020835281518091526020604084019201905f5b8181106138d7575050500390f35b91935091602060a0600192608087518580851b038151168352848101511515858401526040810151604084015260608101516060840152015160808201520194019101918493926138c9565b5f80808084335af1613933614054565b506138515760405162461bcd60e51b815260206004820152601960248201527818985d18da08199959481d1c985b9cd9995c8819985a5b1959603a1b6044820152606490fd5b61398761286a828785614001565b6040516307655bf560e41b81526001600160a01b0390911660048201526060816024815f305af15f918291829181613aa5575b50613a3557505050806139d361286a6001938886614001565b604051906139e082613d94565b838060a01b031681525f60208201525f60408201525f60608201525f6080820152613a0b8289614032565b52613a168188614032565b50613a2d613a2861286a838987614001565b61475c565b505b01613842565b91839695613a9992613a9f94613a5161286a6001988d8b614001565b9160405192613a5f84613d94565b888060a01b0316835287602084015284604084015260608301526080820152613a88898c614032565b52613a93888b614032565b50613f88565b93614046565b93613a2f565b93509150506060823d8211613ae0575b81613ac260609383613e15565b8101031261234d57815160208301516040909301519092918a6139ba565b3d9150613ab5565b602090604051613af781613d94565b5f81525f838201525f60408201525f60608201525f608082015282828801015201613834565b60e036600319011261234d57613b316146f1565b335f52604760205260405f206005810160ff815460081c16613bea5781546001600160a01b0319163317825560443560028301556064356003830155608435600483015560a4358015159081810361234d575060ff8019835416911617815560c4358015159081810361234d575061ff0082549160081b169061ff00191617905560018101613bc1348254613f88565b90555f516020615ed65f395f51905f5260405180612b47339460018060401b0342169083613f95565b63019b5d0960e71b5f5260045ffd5b3461234d575f36600319011261234d576041546040516001600160a01b039091168152602090f35b3461234d575f36600319011261234d576020603b54604051908152f35b3461234d57602036600319011261234d576001600160a01b03613c5f613cc6565b165f52604960205260405f2080546118e0613c8a6001840154935f9085613c96575b60020154613f88565b60405193849384613d08565b90506002670de0b6b3a7640000613cbd613cb7603e54600386015490613f4a565b88613f57565b04919050613c81565b600435906001600160a01b038216820361234d57565b602435906001600160a01b038216820361234d57565b604435906001600160a01b038216820361234d57565b6040919493926060820195825260208201520152565b9181601f8401121561234d578235916001600160401b03831161234d576020808501948460051b01011161234d57565b600435906001600160401b038216820361234d57565b604090600319011261234d576004356001600160401b038116810361234d579060243560ff8116810361234d5790565b60a081019081106001600160401b03821117613daf57604052565b634e487b7160e01b5f52604160045260245ffd5b604081019081106001600160401b03821117613daf57604052565b60e081019081106001600160401b03821117613daf57604052565b61030081019081106001600160401b03821117613daf57604052565b601f909101601f19168101906001600160401b03821190821017613daf57604052565b6001600160401b038111613daf5760051b60200190565b6001600160401b038111613daf57601f01601f191660200190565b90602080835192838152019201905f5b818110613e875750505090565b825180516001600160a01b031685526020908101518186015260409094019390920191600101613e7a565b60c0809160018060a01b0381511684526020810151602085015260408101516040850152606081015160608501526080810151608085015260a0810151151560a085015201511515910152565b805180835260209291819084018484015e5f828201840152601f01601f1916010190565b905f905b60198210613f3457505050565b6020806001928551815201930191019091613f27565b9190820391821161239057565b8181029291811591840414171561239057565b8115613f74570490565b634e487b7160e01b5f52601260045260245ffd5b9190820180921161239057565b81546001600160a01b031681526001820154602082015260028201546040820152600382015460608201526004820154608082015260059091015460ff818116151560a084015260089190911c16151560c08201526001600160401b0390911660e08201526101000190565b91908110156136315760051b0190565b356001600160a01b038116810361234d5790565b8051156136315760200190565b80518210156136315760209160051b010190565b5f1981146123905760010190565b3d1561407e573d9061406582613e4f565b916140736040519384613e15565b82523d5f602084013e565b606090565b908152602081019190915260408101919091526001600160401b03909116606082015260800190565b6040519061010082016001600160401b03811183821017613daf576040525f60e0838281528260208201528260408201528260608201528260808201528260a08201528260c08201520152565b60198210156136315701905f90565b1561410f57565b60405162461bcd60e51b81526020600482015260036024820152620cae8d60eb1b6044820152606490fd5b9081526001600160a01b0390911660208201526001600160401b03909116604082015260600190565b9081602091031261234d5751801515810361234d5790565b6001600160a01b039091168152602081019190915260400190565b1561419d57565b60405162461bcd60e51b81526020600482015260086024820152673a3930b739b332b960c11b6044820152606490fd5b9081526001600160401b03909116602082015260400190565b156141ed57565b60405162461bcd60e51b8152602060048201526013602482015272149bdd5b99081b9bdd08199a5b985b1a5e9959606a1b6044820152606490fd5b3033148015614438575b1561440b5761423f614801565b60018060a01b0381165f52604760205260405f2090600582019060ff825460081c16156143fc57825461427a906001600160a01b03166148ff565b6142826140ac565b6033546001600160401b038116825284546001600160a01b03166080830152925490929060ff16156143ee57600284015460405191602083019342855244604085015260018060601b03199060601b16606084015260018060c01b03199060c01b166074830152607c820152607c81526142fd609c82613e15565b519020925f915f5b60ff81166019811015614336576001901b80871661432a575b5060010160ff16614305565b9390931792600161431e565b50509391909181156143df575b50925b61436f61435960208301958087526149b6565b80604084015260038501548060c0850152613f57565b926143846060830194808652603a5490613f88565b9160016143976004840194855490613f88565b920180548381106143d0576143c5936143af91613f4a565b9055600160a0820152603a5460e0820152614a3d565b549151925191929190565b630e83a11b60e21b5f5260045ffd5b60019150601990061b5f614343565b505091600282015492614346565b63b12b38eb60e01b5f5260045ffd5b60405162461bcd60e51b8152602060048201526005602482015264042c2eae8d60db1b6044820152606490fd5b505f516020615df65f395f51905f52546001600160a01b03163314614232565b1561445f57565b60405162461bcd60e51b8152602060048201526009602482015268546f6f206561726c7960b81b6044820152606490fd5b90815260208101919091526001600160401b03909116604082015260600190565b906040516144be81613dde565b60c060ff6005839560018060a01b038154168552600181015460208601526002810154604086015260038101546060860152600481015460808601520154818116151560a085015260081c161515910152565b6042545f906001600160a01b031633036145d25781156145ce57603b541561458157670de0b6b3a76400008202918204670de0b6b3a76400000361456d575061456061456891603b5490613f6a565b603c54613f88565b603c55565b634e487b7160e01b81526011600452602490fd5b506032546001600160a01b031690813b1561234d575f91602483926040519485938492630852cd8d60e31b845260048401525af18015612342576145c25750565b5f6145cc91613e15565b565b5050565b6360c4e54360e01b5f5260045ffd5b80546001600160c01b031660c09290921b6001600160c01b031916919091179055565b1561460b57565b60405162461bcd60e51b815260206004820152600360248201526266656560e81b6044820152606490fd5b60ff1660ff81146123905760010190565b919082549060031b91821b915f19901b1916179055565b6001600160a01b031680156146a9575f516020615df65f395f51905f5280546001600160a01b0319811683179091556001600160a01b03165f516020615e765f395f51905f525f80a3565b631e4fbdf760e01b5f525f60045260245ffd5b60405191905f835b601982106146db575050506145cc61032083613e15565b60016020819285548152019301910190916146c4565b60025f516020615eb65f395f51905f52541461471a5760025f516020615eb65f395f51905f5255565b633ee5aeb560e01b5f5260045ffd5b5f516020615df65f395f51905f52546001600160a01b0316330361474957565b63118cdaa760e01b5f523360045260245ffd5b6001600160a01b03165f8181526047602052604090206005810180549091600882901c60ff1661478f575b505050505f90565b6147bb6147b061108360038401546147aa60028601546149b6565b90613f57565b600483015490613f88565b600182015410156147875761ff00199091169091556040515f516020615ed65f395f51905f529181906147f990426001600160401b03169083613f95565b0390a2600190565b6033546001600160401b039081165f908152604360205260409081902080549092911c16156148cd578054604081901c6001600160401b031643101590816148b6575b506148b357600b81019060ff825460a81c166148845760ff825460a01c1661487557631328d40b60e31b5f5260045ffd5b630776f80360e41b5f5260045ffd5b6001015460401c6001600160401b0316431090506148a4576145cc615abe565b631328d40b60e31b5f5260045ffd5b50565b60801c6001600160401b031643111590505f614844565b506145cc615abe565b8054600160401b600160801b03191660409290921b600160401b600160801b0316919091179055565b6001600160a01b0381165f908152604960205260409081902060040180549092916001600160401b038083169290911c168111156149b157805f52604360205260ff600b60405f20015460a81c16156149b157805f52604460205260405f2060018060a01b0383165f5260205260405f205460ff8116809181156149a2575b5061498e57506145cc9250614e0b565b909150614999575050565b6145cc916148d6565b60ff915060081c16155f61497e565b505050565b905f9180158015614a18575b614a09575f905b601960ff8316106149d8575050565b6001808216146149f2575b600191820160ff16911c6149c9565b926001614a0060ff92614046565b949150506149e3565b63bf3cad0b60e01b5f5260045ffd5b508060191c15156149c2565b8054821015613631575f5260205f209060011b01905f90565b60018060401b038151165f52604360205260405f209060ff60335460f01c16158015614d7a575b8015614d64575b6148a457606081018051614a8460028501918254613f88565b905560e0820151614a9a60058501918254613f88565b905581516001600160401b039081165f9081526044602090815260408083206080870180516001600160a01b03908116865291845282852081519092168552604990935292819020600401805490969294929392818116929190911c168111614d3b57508351614b0f60018301918254613f88565b9055805460ff8160081c1615614d29575b505060c08101519160208201958651905f915b601960ff841610614bc2575050825186546001600160401b0319166001600160401b0391821690811790975591519651945160a093840151604080519788526020880196909652948601525091151560608401524290911660808301526001600160a01b0393909316927f13d7440beb63bd461dfc418d23d1095bb97f3b693f75aff8d44d3f26ee923d1e91a3565b600180821614614bdc575b600192830160ff16921c614b33565b84516001600160401b03165f90815260456020908152604080832087516001600160a01b03168452825280832060ff8716845290915290208054614a0957614c4484614c5a9289600d870191614c3284846140f9565b90549060031b1c6001820155556140f9565b614c548983548360031b1c613f88565b91614647565b614c6783602684016140f9565b81548160031b1c906001820180921161239057614c8392614647565b60018060401b038551165f52604a60205260405f2060ff84165f5260205260405f2060018060a01b038551169160405192614cbd84613dc3565b835260208301918883528054600160401b811015613daf57614ce491600182018155614a24565b614d1657925183546001600160a01b0319166001600160a01b0391909116178355905160019290920191909155614bcd565b634e487b7160e01b5f525f60045260245ffd5b61ff0019166101001790555f80614b20565b5f52604360205260ff600b60405f20015460a81c16156126765763ceb3290760e01b5f5260045ffd5b50815460801c6001600160401b03164311614a6b565b50815460401c6001600160401b03164310614a64565b60039080546002820190815490603c54915f9282614de9575b50505080614dd2575b50603c54905501805465ffffffffffff19164265ffffffffffff16179055565b614de160018401918254613f88565b90555f614db2565b670de0b6b3a76400009350614e0292916147aa91613f4a565b045f8080614da9565b6001600160401b0381165f818152604360209081526040808320604483528184206001600160a01b038816855290925290912081549394929390919060c01c801515908161536f575b5061533f576002810154156152425760ff60068201541690845f52604560205260405f2060018060a01b0385165f5260205260405f2060ff83165f5260205260405f209283549283156151d657614eae90600d84016140f9565b90549060031b1c9485156126585761ffff60335460e01c16612710614ed38287613f57565b0490811590816151cd575b816151c3575b506151bb575b8481116151b4575b806150f6575b905f516020615f165f395f51905f5296614f32614f1b8796959460809998613f4a565b61238083614f2d8960038a0154613f57565b613f6a565b95866150d0575b60028401614f48888254613f88565b9055835460ff191660011784556001600160a01b0383165f818152604960205260409020909b614f7a916004016148d6565b600c8501614f89888254613f88565b90555f90600b860180549160ff8360b01c168080916150c3575b156150305750505050614fc29061238083614f2d8960078a0154613f57565b945b600a85015480615009575b50505091614fe2845f93614fe795615c16565b6157b2565b604051918252602082015233604082015260018060401b0342166060820152a3565b5f9496612380614fe294614f2d614fe799979561502595613f57565b959381939550614fcf565b98939815806150b5575b806150a8575b61504d575b505050614fc4565b6001015461505b8482613f88565b600989015491821015918261509e575b5050615078575b80615045565b6008870180545f9182905560ff60c01b19909316600160c01b1790915590965080615072565b1090505f8061506b565b5060088801541515615040565b5060ff8360c01c161561503a565b5060078901541515614fa3565b60018060a01b0383165f52604960205260405f206150ef888254613f88565b9055614f39565b603454909594939291906001600160a01b031615615188575f8080808960018060a01b03603454165af1615128614054565b5015615157575f516020615f165f395f51905f5296614f32614f1b6080985b9394959697985050509650614ef8565b60405162461bcd60e51b81526020600482015260096024820152686d696e65722066656560b81b6044820152606490fd5b5f516020615f165f395f51905f5296614f32614f1b886151ac60809a603f54613f88565b603f55615147565b5083614ef2565b506001614eea565b905015155f614ee4565b60019150614ede565b50805460ff191660011790555050506001600160a01b03165f8181526049602052604090209092615209916004016148d6565b604080515f80825260208201523391810191909152426001600160401b031660608201525f516020615f165f395f51905f5290608090a3565b90915f925f5b601960ff8216106152fe57505f608093614fe286946152a0945f516020615f165f395f51905f52986152c4575b805460ff191660011790556001600160a01b03168084526049602052604084209099906004016148d6565b604080519182525f60208301523390820152426001600160401b03166060820152a3565b6001600160a01b038216855260496020526040852080546152e6908990613f88565b9055600281016152f7888254613f88565b9055615275565b93600161533760ff92885f52604560205260405f20838060a01b0387165f5260205260405f208489165f5260205260405f205490613f88565b950116615248565b50805460ff191660011790556001600160a01b03165f8181526049602052604090209092615209916004016148d6565b905043115f614e54565b6001600160401b0381165f818152604360209081526040808320604483528184206001600160a01b038816855290925290912081549394929390919060c01c80151590816157a8575b5061533f576002810154156156d75760ff60068201541690845f52604560205260405f2060018060a01b0385165f5260205260405f2060ff83165f5260205260405f209283549283156151d65761541c90600d84016140f9565b90549060031b1c9485156126585761ffff60335460e01c166127106154418287613f57565b0490811590816156ce575b816156c4575b506156bc575b8481116156b5575b80615628575b905f516020615f165f395f51905f5296615489614f1b8796959460809998613f4a565b9586615602575b6002840161549f888254613f88565b9055835460ff191660011784556001600160a01b0383165f818152604960205260409020909b6154d1916004016148d6565b600c85016154e0888254613f88565b90555f90600b860180549160ff8360b01c168080916155f5575b1561556257505050506155199061238083614f2d8960078a0154613f57565b945b600a8501548061553a575b50505091614fe284600193614fe795615c16565b60019496612380614fe294614f2d614fe799979561555795613f57565b959381939550615526565b98939815806155e7575b806155da575b61557f575b50505061551b565b6001015461558d8482613f88565b60098901549182101591826155d0575b50506155aa575b80615577565b6008870180545f9182905560ff60c01b19909316600160c01b17909155909650806155a4565b1090505f8061559d565b5060088801541515615572565b5060ff8360c01c161561556c565b50600789015415156154fa565b60018060a01b0383165f52604960205260405f20615621888254613f88565b9055615490565b603454909594939291906001600160a01b031615615689575f8080808960018060a01b03603454165af161565a614054565b5015615157575f516020615f165f395f51905f5296615489614f1b6080985b9394959697985050509650615466565b5f516020615f165f395f51905f5296615489614f1b886156ad60809a603f54613f88565b603f55615679565b5083615460565b506001615458565b905015155f615452565b6001915061544c565b90915f925f5b601960ff82161061576757506001608093614fe286946152a0945f516020615f165f395f51905f5298615731575b8460ff19825416179055838060a01b031698895f526049602052600460405f20016148d6565b848060a01b0382165f52604960205260405f2061574f888254613f88565b905560028101615760888254613f88565b905561570b565b9360016157a060ff92885f52604560205260405f20838060a01b0387165f5260205260405f208489165f5260205260405f205490613f88565b9501166156dd565b905043115f6153c2565b90156148b357600581018054918215159081615834575b8161581c575b506157d8575050565b603a5490828211615814575b816157ee57505050565b5f828194926157ff83958495613f4a565b9055335af161580c614054565b50156127f557565b8291506157e4565b600101546001600160401b031643101590505f6157cf565b60018101546001600160401b0316151591506157c9565b60018101546003820191825491603e54925f938261588e575b50505081615876575b5050603e549055565b60026158859101918254613f88565b90555f8061586d565b670de0b6b3a76400009394506158a892916147aa91613f4a565b04905f8080615864565b60018060401b03603354165f52604360205260405f2090600282015415615aa457600b8201805460ff60a01b1916600160a01b17905560375460385460395460405191929190602082016001600160401b03811183821017613daf576040525f82526040519163125fa26760e31b602084015251151560248301526024825261593c604483613e15565b6040519360c085016001600160401b03811186821017613daf5761ffff956020955f9260405281528581019283526159f56040820195888616875263ffffffff606084019660101c16865263ffffffff608084016002815260a085019283528160018060a01b0360415416986040519c8d9b8c9a8b99634d8e1c2f60e11b8b528f60048c01525160248b01525160448a01525116606488015251166084860152511660a48401525160c060c484015260e4830190613eff565b03925af1908115612342575f91615a72575b5082545f828152604660205260409081902080546001600160401b0319166001600160401b039384161790559354935191938116917f9153817ff8f2c303ed190879da7ba58c0608016146e69f34fd7e5b006e560cf6918190615a6d90421687836141cd565b0390a2565b90506020813d602011615a9c575b81615a8d60209383613e15565b8101031261234d57515f615a07565b3d9150615a80565b600b909101805460ff60a81b1916600160a81b1790555f90565b6033546001600160401b03808216600101908111612390576001600160401b039081166001600160401b031992831681176033555f8181526043602052604090208054909316811783559190615b16904316826148d6565b80549063ffffffff60335460401c1660018060401b038360401c16019060018060401b038211612390575f60028201819055600382018190556004820181905560058201819055600782018190556008820181905560098201819055600a8201819055600b820180546001600160c81b0319169055600c8201556001600160801b03909216608091821b600160801b600160c01b03161780835560019290920180546001600160801b03191690556040805183821c6001600160401b0390811682529390921c8316602083015242909216918101919091527f94bff5a899e601756cf70b973df79e33ddc4794997b73d67d87e831845ba2c2290606090a2565b9082156149b15760038101615c3184825480615c8557613f88565b90556005603e54910155615c4782603d54613f88565b603d556001600160a01b03165f90815260496020526040902090615c6a8261584b565b615c7960018301918254613f88565b90556003603e54910155565b670de0b6b3a7640000615ca8615ca2603e54600589015490613f4a565b83613f57565b04615cb860048701918254613f88565b9055613f88565b60ff5f516020615ef65f395f51905f525460401c1615615cdb57565b631afcd79f60e31b5f5260045ffd5b60018060401b03165f52604a60205260ff60405f2091165f5260205260405f20905f915f918154935b848410615d235750505050505f90565b615d3b6001615d328686614a24565b50015482613f88565b9082101580615d6e575b615d5457600190930192615d13565b5050615d609250614a24565b50546001600160a01b031690565b50808210615d45565b90615d9b5750805115615d8c57602081519101fd5b63d6bda27560e01b5f5260045ffd5b81511580615dcc575b615dac575090565b639996b31560e01b5f9081526001600160a01b0391909116600452602490fd5b50803b15615da456fe293210df7133869cdf9d637b506f04baa720687df15b352be9074ccf5e520a489016d09d72d40fdae2fd8ceac6b6234c7706214fd39c1cd1e609a0528c199300bc5ffecda03feb624bf3a030ac85b0990d6606c094b444519b282c031fbe2efb360894a13ba1a3210667c828492db98dca3e2076cc3735a920a3ca505d382bbc81fa2c7772aa5abdc3ad284879e95a0242648f9bf182f900f753a71877963acf8be0079c531659141344cd1fd0a4f28419497f9722a3daafe3b4186f6b6457e076855322c5cc7335ce7f03ab0323699af75ee9c167c9c3c15f63a103065425d09b779b17422d0df92223018b32b4d1fa46e071723d6817e2486d003becc55f008eef97fa43c3f8e5303ca9d5d55e788311d17d2d44058bfca6fd2ba3c6038db2f0c57e16840df040f15088dc2f81fe391c3923bec73e23a9662efc9c229c6a00eea8330ac3d746dfcc2004c5a1ab2beb43845d77de0081c4412d539aea1204e1a2646970667358221220fb61ec519959f20622441c8bd840f8e8f1ef2a36b917e84e9e48cfcb9ed93d2364736f6c634300081e0033f0c57e16840df040f15088dc2f81fe391c3923bec73e23a9662efc9c229c6a00",
        "linkReferences": {}
    },
    "methodIdentifiers": {
        "ORI_TOKEN()": "937a0077",
        "UPGRADE_INTERFACE_VERSION()": "ad3cb1cc",
        "_executeAutomationInternal(address)": "7655bf50",
        "adminMint(address,uint256)": "e58306f9",
        "automations(address)": "b9ad4357",
        "batchCheckpoint(uint64,address[])": "6c6804a7",
        "board()": "7cd3229a",
        "checkpoint(uint64,address)": "6c718385",
        "claimAll(address)": "77329f35",
        "claimEth(address)": "228f3845",
        "claimStakeYield(address)": "66c90c5a",
        "config()": "79502c55",
        "coordinator()": "0a009097",
        "deductVaultEth(uint256)": "a488dcdf",
        "deployManual(uint256,uint256)": "1325a6d6",
        "depositStake(uint256)": "cb82cc8f",
        "distributeStakeRewards(uint256)": "940d1f2f",
        "emergencyResetRound(uint64)": "cb70ffef",
        "executeAutomation(address)": "db326efc",
        "executeAutomationBatch(address[])": "0f3e2f51",
        "getAutomation(address)": "84bf220a",
        "getBuryAuthority()": "e40fd076",
        "getDeployedPerSquare(uint64,uint8)": "1734800c",
        "getLastRoundWinners()": "6c46376d",
        "getMinerRoundInfo(uint64,address)": "8fd2040d",
        "getMinerSquares(uint64,address)": "db834306",
        "getRoundData(uint64)": "f921e65c",
        "getSquareParticipants(uint64,uint8)": "6db8b42d",
        "getSwapProgram()": "b762e343",
        "getTotalStaked()": "0917e776",
        "getTreasuryState()": "23a8bdca",
        "getUserRewards(address)": "078b0fb7",
        "getVaultEth()": "b03fd745",
        "getWinningSquareParticipants(uint64)": "a97958c1",
        "initialize((address,address,address,address,address,bytes32,uint256,uint16,uint32,uint32,uint32,uint32,uint32,uint16,uint16,uint256))": "deadd94b",
        "owner()": "8da5cb5b",
        "proxiableUUID()": "52d1902d",
        "rawFulfillRandomWords(uint256,uint256[])": "1fe543e3",
        "reclaimExpiredRewards(uint64)": "7b3f039c",
        "registerAutomation((address,uint256,uint256,uint256,uint256,bool,bool))": "0c34d7fa",
        "renounceOwnership()": "715018a6",
        "resetRound()": "84d452ff",
        "roundByRequest(uint256)": "41a027aa",
        "roundWindow(uint64)": "fa4d3ab9",
        "rounds(uint64)": "bc3ac875",
        "setCheckpointFee(uint256)": "2e1c5227",
        "setConfig(address,address,address)": "3141e25b",
        "setRoundParams(uint32,uint32,uint32,uint16,uint16)": "9767bae6",
        "setStakingContract(address)": "9dd373b9",
        "setVrfConfig(bytes32,uint64,uint16,uint32)": "805ccb3e",
        "stakes(address)": "16934fc4",
        "stakingContract()": "ee99205c",
        "startGame()": "d65ab5f2",
        "stopAutomation(address)": "edb39d70",
        "transferOwnership(address)": "f2fde38b",
        "treasury()": "61d027b3",
        "upgradeToAndCall(address,bytes)": "4f1ef286",
        "withdrawStake(uint256,address)": "676a6300",
        "wrap(address,uint256)": "bf376c7a"
    },
    "id": 77
}