{
    "abi": [
        {
            "type": "constructor",
            "inputs": [
                {
                    "name": "params",
                    "type": "tuple",
                    "internalType": "struct OreProtocol.InitParams",
                    "components": [
                        {
                            "name": "oriToken",
                            "type": "address",
                            "internalType": "contract OreToken"
                        },
                        {
                            "name": "feeCollector",
                            "type": "address",
                            "internalType": "address"
                        },
                        {
                            "name": "buryAuthority",
                            "type": "address",
                            "internalType": "address"
                        },
                        {
                            "name": "swapProgram",
                            "type": "address",
                            "internalType": "address"
                        },
                        {
                            "name": "vrfCoordinator",
                            "type": "address",
                            "internalType": "address"
                        },
                        {
                            "name": "vrfKeyHash",
                            "type": "bytes32",
                            "internalType": "bytes32"
                        },
                        {
                            "name": "vrfSubId",
                            "type": "uint256",
                            "internalType": "uint256"
                        },
                        {
                            "name": "vrfMinConfirmations",
                            "type": "uint16",
                            "internalType": "uint16"
                        },
                        {
                            "name": "vrfCallbackGasLimit",
                            "type": "uint32",
                            "internalType": "uint32"
                        },
                        {
                            "name": "roundLength",
                            "type": "uint32",
                            "internalType": "uint32"
                        },
                        {
                            "name": "intermission",
                            "type": "uint32",
                            "internalType": "uint32"
                        },
                        {
                            "name": "checkpointGrace",
                            "type": "uint32",
                            "internalType": "uint32"
                        },
                        {
                            "name": "checkpointFeeWindow",
                            "type": "uint32",
                            "internalType": "uint32"
                        },
                        {
                            "name": "feeBps",
                            "type": "uint16",
                            "internalType": "uint16"
                        },
                        {
                            "name": "vaultBps",
                            "type": "uint16",
                            "internalType": "uint16"
                        },
                        {
                            "name": "checkpointFee",
                            "type": "uint256",
                            "internalType": "uint256"
                        }
                    ]
                }
            ],
            "stateMutability": "nonpayable"
        },
        {
            "type": "function",
            "name": "ORI_TOKEN",
            "inputs": [],
            "outputs": [
                {
                    "name": "",
                    "type": "address",
                    "internalType": "contract OreToken"
                }
            ],
            "stateMutability": "view"
        },
        {
            "type": "function",
            "name": "_executeAutomationInternal",
            "inputs": [
                {
                    "name": "user",
                    "type": "address",
                    "internalType": "address"
                },
                {
                    "name": "executor",
                    "type": "address",
                    "internalType": "address"
                }
            ],
            "outputs": [
                {
                    "name": "fee",
                    "type": "uint256",
                    "internalType": "uint256"
                },
                {
                    "name": "deployed",
                    "type": "uint256",
                    "internalType": "uint256"
                },
                {
                    "name": "mask",
                    "type": "uint256",
                    "internalType": "uint256"
                }
            ],
            "stateMutability": "nonpayable"
        },
        {
            "type": "function",
            "name": "acceptOwnership",
            "inputs": [],
            "outputs": [],
            "stateMutability": "nonpayable"
        },
        {
            "type": "function",
            "name": "adminMint",
            "inputs": [
                {
                    "name": "to",
                    "type": "address",
                    "internalType": "address"
                },
                {
                    "name": "amount",
                    "type": "uint256",
                    "internalType": "uint256"
                }
            ],
            "outputs": [],
            "stateMutability": "nonpayable"
        },
        {
            "type": "function",
            "name": "automations",
            "inputs": [
                {
                    "name": "",
                    "type": "address",
                    "internalType": "address"
                }
            ],
            "outputs": [
                {
                    "name": "owner",
                    "type": "address",
                    "internalType": "address"
                },
                {
                    "name": "executor",
                    "type": "address",
                    "internalType": "address"
                },
                {
                    "name": "balance",
                    "type": "uint256",
                    "internalType": "uint256"
                },
                {
                    "name": "mask",
                    "type": "uint256",
                    "internalType": "uint256"
                },
                {
                    "name": "amountPerSquare",
                    "type": "uint256",
                    "internalType": "uint256"
                },
                {
                    "name": "feePerCall",
                    "type": "uint256",
                    "internalType": "uint256"
                },
                {
                    "name": "randomizeMask",
                    "type": "bool",
                    "internalType": "bool"
                },
                {
                    "name": "active",
                    "type": "bool",
                    "internalType": "bool"
                }
            ],
            "stateMutability": "view"
        },
        {
            "type": "function",
            "name": "batchCheckpoint",
            "inputs": [
                {
                    "name": "roundId",
                    "type": "uint64",
                    "internalType": "uint64"
                },
                {
                    "name": "miners",
                    "type": "address[]",
                    "internalType": "address[]"
                }
            ],
            "outputs": [
                {
                    "name": "results",
                    "type": "bool[]",
                    "internalType": "bool[]"
                }
            ],
            "stateMutability": "nonpayable"
        },
        {
            "type": "function",
            "name": "board",
            "inputs": [],
            "outputs": [
                {
                    "name": "currentRoundId",
                    "type": "uint64",
                    "internalType": "uint64"
                },
                {
                    "name": "roundLength",
                    "type": "uint32",
                    "internalType": "uint32"
                },
                {
                    "name": "intermission",
                    "type": "uint32",
                    "internalType": "uint32"
                },
                {
                    "name": "checkpointGrace",
                    "type": "uint32",
                    "internalType": "uint32"
                },
                {
                    "name": "checkpointFeeWindow",
                    "type": "uint32",
                    "internalType": "uint32"
                },
                {
                    "name": "feeBps",
                    "type": "uint16",
                    "internalType": "uint16"
                },
                {
                    "name": "vaultBps",
                    "type": "uint16",
                    "internalType": "uint16"
                },
                {
                    "name": "claimFeeBps",
                    "type": "uint16",
                    "internalType": "uint16"
                },
                {
                    "name": "live",
                    "type": "bool",
                    "internalType": "bool"
                }
            ],
            "stateMutability": "view"
        },
        {
            "type": "function",
            "name": "bury",
            "inputs": [
                {
                    "name": "swapData",
                    "type": "bytes",
                    "internalType": "bytes"
                },
                {
                    "name": "amountIn",
                    "type": "uint256",
                    "internalType": "uint256"
                },
                {
                    "name": "minOreOut",
                    "type": "uint256",
                    "internalType": "uint256"
                }
            ],
            "outputs": [],
            "stateMutability": "nonpayable"
        },
        {
            "type": "function",
            "name": "checkpoint",
            "inputs": [
                {
                    "name": "roundId",
                    "type": "uint64",
                    "internalType": "uint64"
                },
                {
                    "name": "minerAddr",
                    "type": "address",
                    "internalType": "address"
                }
            ],
            "outputs": [],
            "stateMutability": "nonpayable"
        },
        {
            "type": "function",
            "name": "claimEth",
            "inputs": [
                {
                    "name": "roundId",
                    "type": "uint64",
                    "internalType": "uint64"
                },
                {
                    "name": "to",
                    "type": "address",
                    "internalType": "address payable"
                }
            ],
            "outputs": [
                {
                    "name": "amount",
                    "type": "uint256",
                    "internalType": "uint256"
                }
            ],
            "stateMutability": "nonpayable"
        },
        {
            "type": "function",
            "name": "claimOre",
            "inputs": [
                {
                    "name": "roundId",
                    "type": "uint64",
                    "internalType": "uint64"
                },
                {
                    "name": "to",
                    "type": "address",
                    "internalType": "address"
                }
            ],
            "outputs": [
                {
                    "name": "payout",
                    "type": "uint256",
                    "internalType": "uint256"
                }
            ],
            "stateMutability": "nonpayable"
        },
        {
            "type": "function",
            "name": "claimStakeYield",
            "inputs": [
                {
                    "name": "to",
                    "type": "address",
                    "internalType": "address"
                }
            ],
            "outputs": [
                {
                    "name": "payout",
                    "type": "uint256",
                    "internalType": "uint256"
                }
            ],
            "stateMutability": "nonpayable"
        },
        {
            "type": "function",
            "name": "config",
            "inputs": [],
            "outputs": [
                {
                    "name": "feeCollector",
                    "type": "address",
                    "internalType": "address"
                },
                {
                    "name": "buryAuthority",
                    "type": "address",
                    "internalType": "address"
                },
                {
                    "name": "swapProgram",
                    "type": "address",
                    "internalType": "address"
                },
                {
                    "name": "vrfKeyHash",
                    "type": "bytes32",
                    "internalType": "bytes32"
                },
                {
                    "name": "vrfSubId",
                    "type": "uint256",
                    "internalType": "uint256"
                },
                {
                    "name": "vrfMinConfirmations",
                    "type": "uint16",
                    "internalType": "uint16"
                },
                {
                    "name": "vrfCallbackGasLimit",
                    "type": "uint32",
                    "internalType": "uint32"
                },
                {
                    "name": "checkpointFee",
                    "type": "uint256",
                    "internalType": "uint256"
                }
            ],
            "stateMutability": "view"
        },
        {
            "type": "function",
            "name": "deployManual",
            "inputs": [
                {
                    "name": "mask",
                    "type": "uint256",
                    "internalType": "uint256"
                },
                {
                    "name": "amountPerSquare",
                    "type": "uint256",
                    "internalType": "uint256"
                }
            ],
            "outputs": [],
            "stateMutability": "payable"
        },
        {
            "type": "function",
            "name": "depositStake",
            "inputs": [
                {
                    "name": "amount",
                    "type": "uint256",
                    "internalType": "uint256"
                }
            ],
            "outputs": [],
            "stateMutability": "nonpayable"
        },
        {
            "type": "function",
            "name": "emergencyResetRound",
            "inputs": [
                {
                    "name": "roundId",
                    "type": "uint64",
                    "internalType": "uint64"
                }
            ],
            "outputs": [],
            "stateMutability": "nonpayable"
        },
        {
            "type": "function",
            "name": "executeAutomation",
            "inputs": [
                {
                    "name": "user",
                    "type": "address",
                    "internalType": "address"
                }
            ],
            "outputs": [],
            "stateMutability": "nonpayable"
        },
        {
            "type": "function",
            "name": "executeAutomationBatch",
            "inputs": [
                {
                    "name": "users",
                    "type": "address[]",
                    "internalType": "address[]"
                }
            ],
            "outputs": [
                {
                    "name": "results",
                    "type": "tuple[]",
                    "internalType": "struct OreProtocol.ExecutionResult[]",
                    "components": [
                        {
                            "name": "user",
                            "type": "address",
                            "internalType": "address"
                        },
                        {
                            "name": "success",
                            "type": "bool",
                            "internalType": "bool"
                        },
                        {
                            "name": "fee",
                            "type": "uint256",
                            "internalType": "uint256"
                        },
                        {
                            "name": "deployed",
                            "type": "uint256",
                            "internalType": "uint256"
                        },
                        {
                            "name": "mask",
                            "type": "uint256",
                            "internalType": "uint256"
                        }
                    ]
                }
            ],
            "stateMutability": "nonpayable"
        },
        {
            "type": "function",
            "name": "getAutomation",
            "inputs": [
                {
                    "name": "user",
                    "type": "address",
                    "internalType": "address"
                }
            ],
            "outputs": [
                {
                    "name": "",
                    "type": "tuple",
                    "internalType": "struct OreProtocol.Automation",
                    "components": [
                        {
                            "name": "owner",
                            "type": "address",
                            "internalType": "address"
                        },
                        {
                            "name": "executor",
                            "type": "address",
                            "internalType": "address"
                        },
                        {
                            "name": "balance",
                            "type": "uint256",
                            "internalType": "uint256"
                        },
                        {
                            "name": "mask",
                            "type": "uint256",
                            "internalType": "uint256"
                        },
                        {
                            "name": "amountPerSquare",
                            "type": "uint256",
                            "internalType": "uint256"
                        },
                        {
                            "name": "feePerCall",
                            "type": "uint256",
                            "internalType": "uint256"
                        },
                        {
                            "name": "randomizeMask",
                            "type": "bool",
                            "internalType": "bool"
                        },
                        {
                            "name": "active",
                            "type": "bool",
                            "internalType": "bool"
                        }
                    ]
                }
            ],
            "stateMutability": "view"
        },
        {
            "type": "function",
            "name": "getCurrentRoundInfo",
            "inputs": [],
            "outputs": [
                {
                    "name": "roundId",
                    "type": "uint64",
                    "internalType": "uint64"
                },
                {
                    "name": "startBlock",
                    "type": "uint64",
                    "internalType": "uint64"
                },
                {
                    "name": "endBlock",
                    "type": "uint64",
                    "internalType": "uint64"
                },
                {
                    "name": "totalDeployed",
                    "type": "uint256",
                    "internalType": "uint256"
                },
                {
                    "name": "canDeploy",
                    "type": "bool",
                    "internalType": "bool"
                },
                {
                    "name": "canReset",
                    "type": "bool",
                    "internalType": "bool"
                },
                {
                    "name": "randomnessRequested",
                    "type": "bool",
                    "internalType": "bool"
                }
            ],
            "stateMutability": "view"
        },
        {
            "type": "function",
            "name": "getCurrentRoundSquareStats",
            "inputs": [],
            "outputs": [
                {
                    "name": "squareAmounts",
                    "type": "uint256[25]",
                    "internalType": "uint256[25]"
                },
                {
                    "name": "totalDeployed",
                    "type": "uint256",
                    "internalType": "uint256"
                }
            ],
            "stateMutability": "view"
        },
        {
            "type": "function",
            "name": "getCurrentRoundSquares",
            "inputs": [
                {
                    "name": "miner",
                    "type": "address",
                    "internalType": "address"
                }
            ],
            "outputs": [
                {
                    "name": "mask",
                    "type": "uint256",
                    "internalType": "uint256"
                },
                {
                    "name": "squares",
                    "type": "uint8[]",
                    "internalType": "uint8[]"
                },
                {
                    "name": "amounts",
                    "type": "uint256[]",
                    "internalType": "uint256[]"
                }
            ],
            "stateMutability": "view"
        },
        {
            "type": "function",
            "name": "getEthReward",
            "inputs": [
                {
                    "name": "roundId",
                    "type": "uint64",
                    "internalType": "uint64"
                },
                {
                    "name": "miner",
                    "type": "address",
                    "internalType": "address"
                }
            ],
            "outputs": [
                {
                    "name": "",
                    "type": "uint256",
                    "internalType": "uint256"
                }
            ],
            "stateMutability": "view"
        },
        {
            "type": "function",
            "name": "getEthRewards",
            "inputs": [
                {
                    "name": "roundIds",
                    "type": "uint64[]",
                    "internalType": "uint64[]"
                },
                {
                    "name": "miner",
                    "type": "address",
                    "internalType": "address"
                }
            ],
            "outputs": [
                {
                    "name": "totalReward",
                    "type": "uint256",
                    "internalType": "uint256"
                },
                {
                    "name": "rewards",
                    "type": "uint256[]",
                    "internalType": "uint256[]"
                }
            ],
            "stateMutability": "view"
        },
        {
            "type": "function",
            "name": "getLastRoundWinners",
            "inputs": [],
            "outputs": [
                {
                    "name": "roundId",
                    "type": "uint64",
                    "internalType": "uint64"
                },
                {
                    "name": "winningSquare",
                    "type": "uint8",
                    "internalType": "uint8"
                },
                {
                    "name": "participantList",
                    "type": "tuple[]",
                    "internalType": "struct OreProtocol.SquareParticipant[]",
                    "components": [
                        {
                            "name": "participant",
                            "type": "address",
                            "internalType": "address"
                        },
                        {
                            "name": "amount",
                            "type": "uint256",
                            "internalType": "uint256"
                        }
                    ]
                },
                {
                    "name": "totalDeployed",
                    "type": "uint256",
                    "internalType": "uint256"
                }
            ],
            "stateMutability": "view"
        },
        {
            "type": "function",
            "name": "getMinerRoundInfo",
            "inputs": [
                {
                    "name": "roundId",
                    "type": "uint64",
                    "internalType": "uint64"
                },
                {
                    "name": "miner",
                    "type": "address",
                    "internalType": "address"
                }
            ],
            "outputs": [
                {
                    "name": "checkpointed",
                    "type": "bool",
                    "internalType": "bool"
                },
                {
                    "name": "hasParticipation",
                    "type": "bool",
                    "internalType": "bool"
                },
                {
                    "name": "totalDeployed",
                    "type": "uint256",
                    "internalType": "uint256"
                },
                {
                    "name": "ethReward",
                    "type": "uint256",
                    "internalType": "uint256"
                },
                {
                    "name": "oreShares",
                    "type": "uint256",
                    "internalType": "uint256"
                },
                {
                    "name": "oreBonus",
                    "type": "uint256",
                    "internalType": "uint256"
                }
            ],
            "stateMutability": "view"
        },
        {
            "type": "function",
            "name": "getMinerSquares",
            "inputs": [
                {
                    "name": "roundId",
                    "type": "uint64",
                    "internalType": "uint64"
                },
                {
                    "name": "miner",
                    "type": "address",
                    "internalType": "address"
                }
            ],
            "outputs": [
                {
                    "name": "mask",
                    "type": "uint256",
                    "internalType": "uint256"
                },
                {
                    "name": "squares",
                    "type": "uint8[]",
                    "internalType": "uint8[]"
                },
                {
                    "name": "amounts",
                    "type": "uint256[]",
                    "internalType": "uint256[]"
                }
            ],
            "stateMutability": "view"
        },
        {
            "type": "function",
            "name": "getRoundData",
            "inputs": [
                {
                    "name": "roundId",
                    "type": "uint64",
                    "internalType": "uint64"
                }
            ],
            "outputs": [
                {
                    "name": "round",
                    "type": "tuple",
                    "internalType": "struct OreProtocol.RoundData",
                    "components": [
                        {
                            "name": "id",
                            "type": "uint64",
                            "internalType": "uint64"
                        },
                        {
                            "name": "startBlock",
                            "type": "uint64",
                            "internalType": "uint64"
                        },
                        {
                            "name": "endBlock",
                            "type": "uint64",
                            "internalType": "uint64"
                        },
                        {
                            "name": "checkpointDeadlineBlock",
                            "type": "uint64",
                            "internalType": "uint64"
                        },
                        {
                            "name": "checkpointFeeStartBlock",
                            "type": "uint64",
                            "internalType": "uint64"
                        },
                        {
                            "name": "totalDeployed",
                            "type": "uint256",
                            "internalType": "uint256"
                        },
                        {
                            "name": "winningsPool",
                            "type": "uint256",
                            "internalType": "uint256"
                        },
                        {
                            "name": "vaultShare",
                            "type": "uint256",
                            "internalType": "uint256"
                        },
                        {
                            "name": "checkpointPot",
                            "type": "uint256",
                            "internalType": "uint256"
                        },
                        {
                            "name": "winningSquare",
                            "type": "uint8",
                            "internalType": "uint8"
                        },
                        {
                            "name": "oreReward",
                            "type": "uint256",
                            "internalType": "uint256"
                        },
                        {
                            "name": "topMinerReward",
                            "type": "uint256",
                            "internalType": "uint256"
                        },
                        {
                            "name": "topMinerSample",
                            "type": "uint256",
                            "internalType": "uint256"
                        },
                        {
                            "name": "motherlodePayout",
                            "type": "uint256",
                            "internalType": "uint256"
                        },
                        {
                            "name": "topMiner",
                            "type": "address",
                            "internalType": "address"
                        },
                        {
                            "name": "randomnessRequested",
                            "type": "bool",
                            "internalType": "bool"
                        },
                        {
                            "name": "randomnessFulfilled",
                            "type": "bool",
                            "internalType": "bool"
                        },
                        {
                            "name": "splitReward",
                            "type": "bool",
                            "internalType": "bool"
                        },
                        {
                            "name": "motherlode",
                            "type": "bool",
                            "internalType": "bool"
                        },
                        {
                            "name": "topMinerClaimed",
                            "type": "bool",
                            "internalType": "bool"
                        },
                        {
                            "name": "claimedRewards",
                            "type": "uint256",
                            "internalType": "uint256"
                        },
                        {
                            "name": "deployedPerSquare",
                            "type": "uint256[25]",
                            "internalType": "uint256[25]"
                        },
                        {
                            "name": "minersPerSquare",
                            "type": "uint256[25]",
                            "internalType": "uint256[25]"
                        }
                    ]
                }
            ],
            "stateMutability": "view"
        },
        {
            "type": "function",
            "name": "getRoundSquareStats",
            "inputs": [
                {
                    "name": "roundId",
                    "type": "uint64",
                    "internalType": "uint64"
                }
            ],
            "outputs": [
                {
                    "name": "squareAmounts",
                    "type": "uint256[25]",
                    "internalType": "uint256[25]"
                },
                {
                    "name": "totalDeployed",
                    "type": "uint256",
                    "internalType": "uint256"
                }
            ],
            "stateMutability": "view"
        },
        {
            "type": "function",
            "name": "getSquareParticipants",
            "inputs": [
                {
                    "name": "roundId",
                    "type": "uint64",
                    "internalType": "uint64"
                },
                {
                    "name": "squareId",
                    "type": "uint8",
                    "internalType": "uint8"
                }
            ],
            "outputs": [
                {
                    "name": "participantList",
                    "type": "tuple[]",
                    "internalType": "struct OreProtocol.SquareParticipant[]",
                    "components": [
                        {
                            "name": "participant",
                            "type": "address",
                            "internalType": "address"
                        },
                        {
                            "name": "amount",
                            "type": "uint256",
                            "internalType": "uint256"
                        }
                    ]
                },
                {
                    "name": "totalDeployed",
                    "type": "uint256",
                    "internalType": "uint256"
                }
            ],
            "stateMutability": "view"
        },
        {
            "type": "function",
            "name": "getStakeInfo",
            "inputs": [
                {
                    "name": "user",
                    "type": "address",
                    "internalType": "address"
                }
            ],
            "outputs": [
                {
                    "name": "stakedAmount",
                    "type": "uint256",
                    "internalType": "uint256"
                },
                {
                    "name": "pendingRewards",
                    "type": "uint256",
                    "internalType": "uint256"
                },
                {
                    "name": "rewardDebt",
                    "type": "uint256",
                    "internalType": "uint256"
                },
                {
                    "name": "updatedAt",
                    "type": "uint48",
                    "internalType": "uint48"
                }
            ],
            "stateMutability": "view"
        },
        {
            "type": "function",
            "name": "getTreasuryState",
            "inputs": [],
            "outputs": [
                {
                    "name": "totalStaked",
                    "type": "uint256",
                    "internalType": "uint256"
                },
                {
                    "name": "stakeRewardsFactor",
                    "type": "uint256",
                    "internalType": "uint256"
                },
                {
                    "name": "totalOreShares",
                    "type": "uint256",
                    "internalType": "uint256"
                },
                {
                    "name": "minerRewardsFactor",
                    "type": "uint256",
                    "internalType": "uint256"
                },
                {
                    "name": "vaultEth",
                    "type": "uint256",
                    "internalType": "uint256"
                },
                {
                    "name": "motherlodeOre",
                    "type": "uint256",
                    "internalType": "uint256"
                }
            ],
            "stateMutability": "view"
        },
        {
            "type": "function",
            "name": "getUserRewards",
            "inputs": [
                {
                    "name": "miner",
                    "type": "address",
                    "internalType": "address"
                }
            ],
            "outputs": [
                {
                    "name": "ethAmount",
                    "type": "uint256",
                    "internalType": "uint256"
                },
                {
                    "name": "oriDirect",
                    "type": "uint256",
                    "internalType": "uint256"
                },
                {
                    "name": "oriRefined",
                    "type": "uint256",
                    "internalType": "uint256"
                }
            ],
            "stateMutability": "view"
        },
        {
            "type": "function",
            "name": "getWinningSquareParticipants",
            "inputs": [
                {
                    "name": "roundId",
                    "type": "uint64",
                    "internalType": "uint64"
                }
            ],
            "outputs": [
                {
                    "name": "winningSquare",
                    "type": "uint8",
                    "internalType": "uint8"
                },
                {
                    "name": "participantList",
                    "type": "tuple[]",
                    "internalType": "struct OreProtocol.SquareParticipant[]",
                    "components": [
                        {
                            "name": "participant",
                            "type": "address",
                            "internalType": "address"
                        },
                        {
                            "name": "amount",
                            "type": "uint256",
                            "internalType": "uint256"
                        }
                    ]
                },
                {
                    "name": "totalDeployed",
                    "type": "uint256",
                    "internalType": "uint256"
                }
            ],
            "stateMutability": "view"
        },
        {
            "type": "function",
            "name": "owner",
            "inputs": [],
            "outputs": [
                {
                    "name": "",
                    "type": "address",
                    "internalType": "address"
                }
            ],
            "stateMutability": "view"
        },
        {
            "type": "function",
            "name": "rawFulfillRandomWords",
            "inputs": [
                {
                    "name": "requestId",
                    "type": "uint256",
                    "internalType": "uint256"
                },
                {
                    "name": "randomWords",
                    "type": "uint256[]",
                    "internalType": "uint256[]"
                }
            ],
            "outputs": [],
            "stateMutability": "nonpayable"
        },
        {
            "type": "function",
            "name": "reclaimExpiredRewards",
            "inputs": [
                {
                    "name": "roundId",
                    "type": "uint64",
                    "internalType": "uint64"
                }
            ],
            "outputs": [],
            "stateMutability": "nonpayable"
        },
        {
            "type": "function",
            "name": "registerAutomation",
            "inputs": [
                {
                    "name": "params",
                    "type": "tuple",
                    "internalType": "struct OreProtocol.Automation",
                    "components": [
                        {
                            "name": "owner",
                            "type": "address",
                            "internalType": "address"
                        },
                        {
                            "name": "executor",
                            "type": "address",
                            "internalType": "address"
                        },
                        {
                            "name": "balance",
                            "type": "uint256",
                            "internalType": "uint256"
                        },
                        {
                            "name": "mask",
                            "type": "uint256",
                            "internalType": "uint256"
                        },
                        {
                            "name": "amountPerSquare",
                            "type": "uint256",
                            "internalType": "uint256"
                        },
                        {
                            "name": "feePerCall",
                            "type": "uint256",
                            "internalType": "uint256"
                        },
                        {
                            "name": "randomizeMask",
                            "type": "bool",
                            "internalType": "bool"
                        },
                        {
                            "name": "active",
                            "type": "bool",
                            "internalType": "bool"
                        }
                    ]
                }
            ],
            "outputs": [],
            "stateMutability": "payable"
        },
        {
            "type": "function",
            "name": "resetRound",
            "inputs": [],
            "outputs": [
                {
                    "name": "requestId",
                    "type": "uint256",
                    "internalType": "uint256"
                }
            ],
            "stateMutability": "nonpayable"
        },
        {
            "type": "function",
            "name": "roundByRequest",
            "inputs": [
                {
                    "name": "",
                    "type": "uint256",
                    "internalType": "uint256"
                }
            ],
            "outputs": [
                {
                    "name": "",
                    "type": "uint64",
                    "internalType": "uint64"
                }
            ],
            "stateMutability": "view"
        },
        {
            "type": "function",
            "name": "roundWindow",
            "inputs": [
                {
                    "name": "roundId",
                    "type": "uint64",
                    "internalType": "uint64"
                }
            ],
            "outputs": [
                {
                    "name": "startBlock",
                    "type": "uint64",
                    "internalType": "uint64"
                },
                {
                    "name": "endBlock",
                    "type": "uint64",
                    "internalType": "uint64"
                }
            ],
            "stateMutability": "view"
        },
        {
            "type": "function",
            "name": "rounds",
            "inputs": [
                {
                    "name": "",
                    "type": "uint64",
                    "internalType": "uint64"
                }
            ],
            "outputs": [
                {
                    "name": "id",
                    "type": "uint64",
                    "internalType": "uint64"
                },
                {
                    "name": "startBlock",
                    "type": "uint64",
                    "internalType": "uint64"
                },
                {
                    "name": "endBlock",
                    "type": "uint64",
                    "internalType": "uint64"
                },
                {
                    "name": "checkpointDeadlineBlock",
                    "type": "uint64",
                    "internalType": "uint64"
                },
                {
                    "name": "checkpointFeeStartBlock",
                    "type": "uint64",
                    "internalType": "uint64"
                },
                {
                    "name": "totalDeployed",
                    "type": "uint256",
                    "internalType": "uint256"
                },
                {
                    "name": "winningsPool",
                    "type": "uint256",
                    "internalType": "uint256"
                },
                {
                    "name": "vaultShare",
                    "type": "uint256",
                    "internalType": "uint256"
                },
                {
                    "name": "checkpointPot",
                    "type": "uint256",
                    "internalType": "uint256"
                },
                {
                    "name": "winningSquare",
                    "type": "uint8",
                    "internalType": "uint8"
                },
                {
                    "name": "oreReward",
                    "type": "uint256",
                    "internalType": "uint256"
                },
                {
                    "name": "topMinerReward",
                    "type": "uint256",
                    "internalType": "uint256"
                },
                {
                    "name": "topMinerSample",
                    "type": "uint256",
                    "internalType": "uint256"
                },
                {
                    "name": "motherlodePayout",
                    "type": "uint256",
                    "internalType": "uint256"
                },
                {
                    "name": "topMiner",
                    "type": "address",
                    "internalType": "address"
                },
                {
                    "name": "randomnessRequested",
                    "type": "bool",
                    "internalType": "bool"
                },
                {
                    "name": "randomnessFulfilled",
                    "type": "bool",
                    "internalType": "bool"
                },
                {
                    "name": "splitReward",
                    "type": "bool",
                    "internalType": "bool"
                },
                {
                    "name": "motherlode",
                    "type": "bool",
                    "internalType": "bool"
                },
                {
                    "name": "topMinerClaimed",
                    "type": "bool",
                    "internalType": "bool"
                },
                {
                    "name": "claimedRewards",
                    "type": "uint256",
                    "internalType": "uint256"
                }
            ],
            "stateMutability": "view"
        },
        {
            "type": "function",
            "name": "s_vrfCoordinator",
            "inputs": [],
            "outputs": [
                {
                    "name": "",
                    "type": "address",
                    "internalType": "contract IVRFCoordinatorV2Plus"
                }
            ],
            "stateMutability": "view"
        },
        {
            "type": "function",
            "name": "setCheckpointFee",
            "inputs": [
                {
                    "name": "newFee",
                    "type": "uint256",
                    "internalType": "uint256"
                }
            ],
            "outputs": [],
            "stateMutability": "nonpayable"
        },
        {
            "type": "function",
            "name": "setConfig",
            "inputs": [
                {
                    "name": "feeCollector_",
                    "type": "address",
                    "internalType": "address"
                },
                {
                    "name": "buryAuthority_",
                    "type": "address",
                    "internalType": "address"
                },
                {
                    "name": "swapProgram_",
                    "type": "address",
                    "internalType": "address"
                }
            ],
            "outputs": [],
            "stateMutability": "nonpayable"
        },
        {
            "type": "function",
            "name": "setCoordinator",
            "inputs": [
                {
                    "name": "_vrfCoordinator",
                    "type": "address",
                    "internalType": "address"
                }
            ],
            "outputs": [],
            "stateMutability": "nonpayable"
        },
        {
            "type": "function",
            "name": "setRoundParams",
            "inputs": [
                {
                    "name": "roundLength_",
                    "type": "uint32",
                    "internalType": "uint32"
                },
                {
                    "name": "intermission_",
                    "type": "uint32",
                    "internalType": "uint32"
                },
                {
                    "name": "checkpointGrace_",
                    "type": "uint32",
                    "internalType": "uint32"
                },
                {
                    "name": "feeBps_",
                    "type": "uint16",
                    "internalType": "uint16"
                },
                {
                    "name": "vaultBps_",
                    "type": "uint16",
                    "internalType": "uint16"
                }
            ],
            "outputs": [],
            "stateMutability": "nonpayable"
        },
        {
            "type": "function",
            "name": "setVrfConfig",
            "inputs": [
                {
                    "name": "keyHash",
                    "type": "bytes32",
                    "internalType": "bytes32"
                },
                {
                    "name": "subId",
                    "type": "uint64",
                    "internalType": "uint64"
                },
                {
                    "name": "minConf",
                    "type": "uint16",
                    "internalType": "uint16"
                },
                {
                    "name": "gasLimit",
                    "type": "uint32",
                    "internalType": "uint32"
                }
            ],
            "outputs": [],
            "stateMutability": "nonpayable"
        },
        {
            "type": "function",
            "name": "stakes",
            "inputs": [
                {
                    "name": "",
                    "type": "address",
                    "internalType": "address"
                }
            ],
            "outputs": [
                {
                    "name": "amount",
                    "type": "uint256",
                    "internalType": "uint256"
                },
                {
                    "name": "pending",
                    "type": "uint256",
                    "internalType": "uint256"
                },
                {
                    "name": "rewardDebt",
                    "type": "uint256",
                    "internalType": "uint256"
                },
                {
                    "name": "updatedAt",
                    "type": "uint48",
                    "internalType": "uint48"
                }
            ],
            "stateMutability": "view"
        },
        {
            "type": "function",
            "name": "startGame",
            "inputs": [],
            "outputs": [],
            "stateMutability": "nonpayable"
        },
        {
            "type": "function",
            "name": "transferOwnership",
            "inputs": [
                {
                    "name": "to",
                    "type": "address",
                    "internalType": "address"
                }
            ],
            "outputs": [],
            "stateMutability": "nonpayable"
        },
        {
            "type": "function",
            "name": "treasury",
            "inputs": [],
            "outputs": [
                {
                    "name": "totalStaked",
                    "type": "uint256",
                    "internalType": "uint256"
                },
                {
                    "name": "stakeRewardsFactor",
                    "type": "uint256",
                    "internalType": "uint256"
                },
                {
                    "name": "totalOreShares",
                    "type": "uint256",
                    "internalType": "uint256"
                },
                {
                    "name": "minerRewardsFactor",
                    "type": "uint256",
                    "internalType": "uint256"
                },
                {
                    "name": "vaultEth",
                    "type": "uint256",
                    "internalType": "uint256"
                },
                {
                    "name": "motherlodeOre",
                    "type": "uint256",
                    "internalType": "uint256"
                }
            ],
            "stateMutability": "view"
        },
        {
            "type": "function",
            "name": "treasuryVault",
            "inputs": [],
            "outputs": [
                {
                    "name": "",
                    "type": "uint256",
                    "internalType": "uint256"
                }
            ],
            "stateMutability": "view"
        },
        {
            "type": "function",
            "name": "verifyBalance",
            "inputs": [],
            "outputs": [
                {
                    "name": "isBalanced",
                    "type": "bool",
                    "internalType": "bool"
                },
                {
                    "name": "diff",
                    "type": "int256",
                    "internalType": "int256"
                },
                {
                    "name": "contractBalance",
                    "type": "uint256",
                    "internalType": "uint256"
                },
                {
                    "name": "expectedBalance",
                    "type": "uint256",
                    "internalType": "uint256"
                }
            ],
            "stateMutability": "view"
        },
        {
            "type": "function",
            "name": "withdrawAutomation",
            "inputs": [
                {
                    "name": "amount",
                    "type": "uint256",
                    "internalType": "uint256"
                },
                {
                    "name": "to",
                    "type": "address",
                    "internalType": "address payable"
                }
            ],
            "outputs": [],
            "stateMutability": "nonpayable"
        },
        {
            "type": "function",
            "name": "withdrawStake",
            "inputs": [
                {
                    "name": "amount",
                    "type": "uint256",
                    "internalType": "uint256"
                },
                {
                    "name": "to",
                    "type": "address",
                    "internalType": "address"
                }
            ],
            "outputs": [],
            "stateMutability": "nonpayable"
        },
        {
            "type": "function",
            "name": "wrap",
            "inputs": [
                {
                    "name": "target",
                    "type": "address",
                    "internalType": "address payable"
                },
                {
                    "name": "amount",
                    "type": "uint256",
                    "internalType": "uint256"
                }
            ],
            "outputs": [],
            "stateMutability": "nonpayable"
        },
        {
            "type": "event",
            "name": "AutomationBatchExecuted",
            "inputs": [
                {
                    "name": "executor",
                    "type": "address",
                    "indexed": true,
                    "internalType": "address"
                },
                {
                    "name": "roundId",
                    "type": "uint64",
                    "indexed": true,
                    "internalType": "uint64"
                },
                {
                    "name": "totalUsers",
                    "type": "uint256",
                    "indexed": false,
                    "internalType": "uint256"
                },
                {
                    "name": "successCount",
                    "type": "uint256",
                    "indexed": false,
                    "internalType": "uint256"
                },
                {
                    "name": "totalFee",
                    "type": "uint256",
                    "indexed": false,
                    "internalType": "uint256"
                },
                {
                    "name": "timestamp",
                    "type": "uint64",
                    "indexed": false,
                    "internalType": "uint64"
                }
            ],
            "anonymous": false
        },
        {
            "type": "event",
            "name": "AutomationExecuted",
            "inputs": [
                {
                    "name": "user",
                    "type": "address",
                    "indexed": true,
                    "internalType": "address"
                },
                {
                    "name": "executor",
                    "type": "address",
                    "indexed": true,
                    "internalType": "address"
                },
                {
                    "name": "mask",
                    "type": "uint256",
                    "indexed": false,
                    "internalType": "uint256"
                },
                {
                    "name": "totalCost",
                    "type": "uint256",
                    "indexed": false,
                    "internalType": "uint256"
                },
                {
                    "name": "timestamp",
                    "type": "uint64",
                    "indexed": false,
                    "internalType": "uint64"
                }
            ],
            "anonymous": false
        },
        {
            "type": "event",
            "name": "AutomationUpdated",
            "inputs": [
                {
                    "name": "user",
                    "type": "address",
                    "indexed": true,
                    "internalType": "address"
                },
                {
                    "name": "cfg",
                    "type": "tuple",
                    "indexed": false,
                    "internalType": "struct OreProtocol.Automation",
                    "components": [
                        {
                            "name": "owner",
                            "type": "address",
                            "internalType": "address"
                        },
                        {
                            "name": "executor",
                            "type": "address",
                            "internalType": "address"
                        },
                        {
                            "name": "balance",
                            "type": "uint256",
                            "internalType": "uint256"
                        },
                        {
                            "name": "mask",
                            "type": "uint256",
                            "internalType": "uint256"
                        },
                        {
                            "name": "amountPerSquare",
                            "type": "uint256",
                            "internalType": "uint256"
                        },
                        {
                            "name": "feePerCall",
                            "type": "uint256",
                            "internalType": "uint256"
                        },
                        {
                            "name": "randomizeMask",
                            "type": "bool",
                            "internalType": "bool"
                        },
                        {
                            "name": "active",
                            "type": "bool",
                            "internalType": "bool"
                        }
                    ]
                },
                {
                    "name": "timestamp",
                    "type": "uint64",
                    "indexed": false,
                    "internalType": "uint64"
                }
            ],
            "anonymous": false
        },
        {
            "type": "event",
            "name": "BuryEvent",
            "inputs": [
                {
                    "name": "amountIn",
                    "type": "uint256",
                    "indexed": false,
                    "internalType": "uint256"
                },
                {
                    "name": "oreReceived",
                    "type": "uint256",
                    "indexed": false,
                    "internalType": "uint256"
                },
                {
                    "name": "stakerShare",
                    "type": "uint256",
                    "indexed": false,
                    "internalType": "uint256"
                },
                {
                    "name": "burned",
                    "type": "uint256",
                    "indexed": false,
                    "internalType": "uint256"
                },
                {
                    "name": "router",
                    "type": "address",
                    "indexed": false,
                    "internalType": "address"
                },
                {
                    "name": "timestamp",
                    "type": "uint64",
                    "indexed": false,
                    "internalType": "uint64"
                }
            ],
            "anonymous": false
        },
        {
            "type": "event",
            "name": "CheckpointEvent",
            "inputs": [
                {
                    "name": "roundId",
                    "type": "uint64",
                    "indexed": true,
                    "internalType": "uint64"
                },
                {
                    "name": "miner",
                    "type": "address",
                    "indexed": true,
                    "internalType": "address"
                },
                {
                    "name": "ethReward",
                    "type": "uint256",
                    "indexed": false,
                    "internalType": "uint256"
                },
                {
                    "name": "oreReward",
                    "type": "uint256",
                    "indexed": false,
                    "internalType": "uint256"
                },
                {
                    "name": "bot",
                    "type": "address",
                    "indexed": false,
                    "internalType": "address"
                },
                {
                    "name": "timestamp",
                    "type": "uint64",
                    "indexed": false,
                    "internalType": "uint64"
                }
            ],
            "anonymous": false
        },
        {
            "type": "event",
            "name": "ClaimEth",
            "inputs": [
                {
                    "name": "miner",
                    "type": "address",
                    "indexed": true,
                    "internalType": "address"
                },
                {
                    "name": "roundId",
                    "type": "uint64",
                    "indexed": true,
                    "internalType": "uint64"
                },
                {
                    "name": "amount",
                    "type": "uint256",
                    "indexed": false,
                    "internalType": "uint256"
                },
                {
                    "name": "to",
                    "type": "address",
                    "indexed": false,
                    "internalType": "address"
                },
                {
                    "name": "timestamp",
                    "type": "uint64",
                    "indexed": false,
                    "internalType": "uint64"
                }
            ],
            "anonymous": false
        },
        {
            "type": "event",
            "name": "ClaimOre",
            "inputs": [
                {
                    "name": "miner",
                    "type": "address",
                    "indexed": true,
                    "internalType": "address"
                },
                {
                    "name": "roundId",
                    "type": "uint64",
                    "indexed": true,
                    "internalType": "uint64"
                },
                {
                    "name": "amount",
                    "type": "uint256",
                    "indexed": false,
                    "internalType": "uint256"
                },
                {
                    "name": "tax",
                    "type": "uint256",
                    "indexed": false,
                    "internalType": "uint256"
                },
                {
                    "name": "redistributed",
                    "type": "uint256",
                    "indexed": false,
                    "internalType": "uint256"
                },
                {
                    "name": "timestamp",
                    "type": "uint64",
                    "indexed": false,
                    "internalType": "uint64"
                }
            ],
            "anonymous": false
        },
        {
            "type": "event",
            "name": "ConfigUpdated",
            "inputs": [
                {
                    "name": "field",
                    "type": "bytes32",
                    "indexed": true,
                    "internalType": "bytes32"
                },
                {
                    "name": "timestamp",
                    "type": "uint64",
                    "indexed": false,
                    "internalType": "uint64"
                }
            ],
            "anonymous": false
        },
        {
            "type": "event",
            "name": "CoordinatorSet",
            "inputs": [
                {
                    "name": "vrfCoordinator",
                    "type": "address",
                    "indexed": false,
                    "internalType": "address"
                }
            ],
            "anonymous": false
        },
        {
            "type": "event",
            "name": "DeployEvent",
            "inputs": [
                {
                    "name": "roundId",
                    "type": "uint64",
                    "indexed": true,
                    "internalType": "uint64"
                },
                {
                    "name": "miner",
                    "type": "address",
                    "indexed": true,
                    "internalType": "address"
                },
                {
                    "name": "mask",
                    "type": "uint256",
                    "indexed": false,
                    "internalType": "uint256"
                },
                {
                    "name": "amountPerSquare",
                    "type": "uint256",
                    "indexed": false,
                    "internalType": "uint256"
                },
                {
                    "name": "totalAmount",
                    "type": "uint256",
                    "indexed": false,
                    "internalType": "uint256"
                },
                {
                    "name": "automation",
                    "type": "bool",
                    "indexed": false,
                    "internalType": "bool"
                },
                {
                    "name": "timestamp",
                    "type": "uint64",
                    "indexed": false,
                    "internalType": "uint64"
                }
            ],
            "anonymous": false
        },
        {
            "type": "event",
            "name": "EmergencyRefund",
            "inputs": [
                {
                    "name": "roundId",
                    "type": "uint64",
                    "indexed": true,
                    "internalType": "uint64"
                },
                {
                    "name": "totalDeployed",
                    "type": "uint256",
                    "indexed": false,
                    "internalType": "uint256"
                },
                {
                    "name": "timestamp",
                    "type": "uint64",
                    "indexed": false,
                    "internalType": "uint64"
                }
            ],
            "anonymous": false
        },
        {
            "type": "event",
            "name": "ExpiredRewardsClaimed",
            "inputs": [
                {
                    "name": "roundId",
                    "type": "uint64",
                    "indexed": true,
                    "internalType": "uint64"
                },
                {
                    "name": "unclaimedRewards",
                    "type": "uint256",
                    "indexed": false,
                    "internalType": "uint256"
                },
                {
                    "name": "unclaimedFees",
                    "type": "uint256",
                    "indexed": false,
                    "internalType": "uint256"
                },
                {
                    "name": "timestamp",
                    "type": "uint64",
                    "indexed": false,
                    "internalType": "uint64"
                }
            ],
            "anonymous": false
        },
        {
            "type": "event",
            "name": "GameStarted",
            "inputs": [
                {
                    "name": "firstRoundId",
                    "type": "uint64",
                    "indexed": false,
                    "internalType": "uint64"
                },
                {
                    "name": "startBlock",
                    "type": "uint64",
                    "indexed": false,
                    "internalType": "uint64"
                },
                {
                    "name": "endBlock",
                    "type": "uint64",
                    "indexed": false,
                    "internalType": "uint64"
                },
                {
                    "name": "timestamp",
                    "type": "uint64",
                    "indexed": false,
                    "internalType": "uint64"
                }
            ],
            "anonymous": false
        },
        {
            "type": "event",
            "name": "MotherlodeEvent",
            "inputs": [
                {
                    "name": "roundId",
                    "type": "uint64",
                    "indexed": true,
                    "internalType": "uint64"
                },
                {
                    "name": "amount",
                    "type": "uint256",
                    "indexed": false,
                    "internalType": "uint256"
                },
                {
                    "name": "timestamp",
                    "type": "uint64",
                    "indexed": false,
                    "internalType": "uint64"
                }
            ],
            "anonymous": false
        },
        {
            "type": "event",
            "name": "OwnershipTransferRequested",
            "inputs": [
                {
                    "name": "from",
                    "type": "address",
                    "indexed": true,
                    "internalType": "address"
                },
                {
                    "name": "to",
                    "type": "address",
                    "indexed": true,
                    "internalType": "address"
                }
            ],
            "anonymous": false
        },
        {
            "type": "event",
            "name": "OwnershipTransferred",
            "inputs": [
                {
                    "name": "from",
                    "type": "address",
                    "indexed": true,
                    "internalType": "address"
                },
                {
                    "name": "to",
                    "type": "address",
                    "indexed": true,
                    "internalType": "address"
                }
            ],
            "anonymous": false
        },
        {
            "type": "event",
            "name": "ResetEvent",
            "inputs": [
                {
                    "name": "roundId",
                    "type": "uint64",
                    "indexed": true,
                    "internalType": "uint64"
                },
                {
                    "name": "winningSquare",
                    "type": "uint8",
                    "indexed": false,
                    "internalType": "uint8"
                },
                {
                    "name": "winnings",
                    "type": "uint256",
                    "indexed": false,
                    "internalType": "uint256"
                },
                {
                    "name": "vaultShare",
                    "type": "uint256",
                    "indexed": false,
                    "internalType": "uint256"
                },
                {
                    "name": "splitReward",
                    "type": "bool",
                    "indexed": false,
                    "internalType": "bool"
                },
                {
                    "name": "motherlode",
                    "type": "bool",
                    "indexed": false,
                    "internalType": "bool"
                },
                {
                    "name": "topMiner",
                    "type": "address",
                    "indexed": false,
                    "internalType": "address"
                },
                {
                    "name": "numWinners",
                    "type": "uint256",
                    "indexed": false,
                    "internalType": "uint256"
                },
                {
                    "name": "motherlodePayout",
                    "type": "uint256",
                    "indexed": false,
                    "internalType": "uint256"
                },
                {
                    "name": "oreReward",
                    "type": "uint256",
                    "indexed": false,
                    "internalType": "uint256"
                },
                {
                    "name": "timestamp",
                    "type": "uint64",
                    "indexed": false,
                    "internalType": "uint64"
                }
            ],
            "anonymous": false
        },
        {
            "type": "event",
            "name": "ResetRequested",
            "inputs": [
                {
                    "name": "roundId",
                    "type": "uint64",
                    "indexed": true,
                    "internalType": "uint64"
                },
                {
                    "name": "requestId",
                    "type": "uint256",
                    "indexed": false,
                    "internalType": "uint256"
                },
                {
                    "name": "timestamp",
                    "type": "uint64",
                    "indexed": false,
                    "internalType": "uint64"
                }
            ],
            "anonymous": false
        },
        {
            "type": "event",
            "name": "StakeClaimed",
            "inputs": [
                {
                    "name": "user",
                    "type": "address",
                    "indexed": true,
                    "internalType": "address"
                },
                {
                    "name": "to",
                    "type": "address",
                    "indexed": true,
                    "internalType": "address"
                },
                {
                    "name": "amount",
                    "type": "uint256",
                    "indexed": false,
                    "internalType": "uint256"
                },
                {
                    "name": "timestamp",
                    "type": "uint64",
                    "indexed": false,
                    "internalType": "uint64"
                }
            ],
            "anonymous": false
        },
        {
            "type": "event",
            "name": "StakeDeposited",
            "inputs": [
                {
                    "name": "user",
                    "type": "address",
                    "indexed": true,
                    "internalType": "address"
                },
                {
                    "name": "amount",
                    "type": "uint256",
                    "indexed": false,
                    "internalType": "uint256"
                },
                {
                    "name": "timestamp",
                    "type": "uint64",
                    "indexed": false,
                    "internalType": "uint64"
                }
            ],
            "anonymous": false
        },
        {
            "type": "event",
            "name": "StakeWithdrawn",
            "inputs": [
                {
                    "name": "user",
                    "type": "address",
                    "indexed": true,
                    "internalType": "address"
                },
                {
                    "name": "amount",
                    "type": "uint256",
                    "indexed": false,
                    "internalType": "uint256"
                },
                {
                    "name": "timestamp",
                    "type": "uint64",
                    "indexed": false,
                    "internalType": "uint64"
                }
            ],
            "anonymous": false
        },
        {
            "type": "event",
            "name": "VRFConfigUpdated",
            "inputs": [
                {
                    "name": "keyHash",
                    "type": "bytes32",
                    "indexed": false,
                    "internalType": "bytes32"
                },
                {
                    "name": "subId",
                    "type": "uint64",
                    "indexed": false,
                    "internalType": "uint64"
                },
                {
                    "name": "minConf",
                    "type": "uint16",
                    "indexed": false,
                    "internalType": "uint16"
                },
                {
                    "name": "gasLimit",
                    "type": "uint32",
                    "indexed": false,
                    "internalType": "uint32"
                },
                {
                    "name": "timestamp",
                    "type": "uint64",
                    "indexed": false,
                    "internalType": "uint64"
                }
            ],
            "anonymous": false
        },
        {
            "type": "event",
            "name": "VaultWithdraw",
            "inputs": [
                {
                    "name": "target",
                    "type": "address",
                    "indexed": true,
                    "internalType": "address"
                },
                {
                    "name": "amount",
                    "type": "uint256",
                    "indexed": false,
                    "internalType": "uint256"
                },
                {
                    "name": "timestamp",
                    "type": "uint64",
                    "indexed": false,
                    "internalType": "uint64"
                }
            ],
            "anonymous": false
        },
        {
            "type": "error",
            "name": "AlreadyCheckpointed",
            "inputs": []
        },
        {
            "type": "error",
            "name": "AlreadyDeployedThisRound",
            "inputs": []
        },
        {
            "type": "error",
            "name": "AlreadyFinalized",
            "inputs": []
        },
        {
            "type": "error",
            "name": "AutomationAlreadyActive",
            "inputs": []
        },
        {
            "type": "error",
            "name": "AutomationInactive",
            "inputs": []
        },
        {
            "type": "error",
            "name": "AutomationNotAuthorized",
            "inputs": []
        },
        {
            "type": "error",
            "name": "ClaimWindowPassed",
            "inputs": []
        },
        {
            "type": "error",
            "name": "GameAlreadyStarted",
            "inputs": []
        },
        {
            "type": "error",
            "name": "GameNotStarted",
            "inputs": []
        },
        {
            "type": "error",
            "name": "InsufficientAutomationBalance",
            "inputs": []
        },
        {
            "type": "error",
            "name": "InsufficientVault",
            "inputs": []
        },
        {
            "type": "error",
            "name": "InvalidAmount",
            "inputs": []
        },
        {
            "type": "error",
            "name": "InvalidMask",
            "inputs": []
        },
        {
            "type": "error",
            "name": "InvalidRouter",
            "inputs": []
        },
        {
            "type": "error",
            "name": "MustCheckpointPreviousRound",
            "inputs": []
        },
        {
            "type": "error",
            "name": "NotBuryAuthority",
            "inputs": []
        },
        {
            "type": "error",
            "name": "NothingToClaim",
            "inputs": []
        },
        {
            "type": "error",
            "name": "OnlyCoordinatorCanFulfill",
            "inputs": [
                {
                    "name": "have",
                    "type": "address",
                    "internalType": "address"
                },
                {
                    "name": "want",
                    "type": "address",
                    "internalType": "address"
                }
            ]
        },
        {
            "type": "error",
            "name": "OnlyOwnerOrCoordinator",
            "inputs": [
                {
                    "name": "have",
                    "type": "address",
                    "internalType": "address"
                },
                {
                    "name": "owner",
                    "type": "address",
                    "internalType": "address"
                },
                {
                    "name": "coordinator",
                    "type": "address",
                    "internalType": "address"
                }
            ]
        },
        {
            "type": "error",
            "name": "RandomnessNotReady",
            "inputs": []
        },
        {
            "type": "error",
            "name": "RandomnessPending",
            "inputs": []
        },
        {
            "type": "error",
            "name": "ReentrancyGuardReentrantCall",
            "inputs": []
        },
        {
            "type": "error",
            "name": "RoundNotLive",
            "inputs": []
        },
        {
            "type": "error",
            "name": "ZeroAddress",
            "inputs": []
        }
    ],
    "bytecode": {
        "object": "0x60a06040523461041c57604051601f6162f438819003918201601f19168301916001600160401b03831184841017610420578084926102009460405283398101031261041c5760405161020081016001600160401b038111828210176104205760405281516001600160a01b038116810361041c57815261008260208301610434565b916020820192835261009660408201610434565b604083019081526100a960608301610434565b606084019081526100bc60808401610434565b9182608086015260a08401519260a086019384526101e060c08601519560c088019687526100ec60e08201610448565b60e08901526100fe6101008201610457565b6101008901526101116101208201610457565b6101208901526101246101408201610457565b6101408901526101376101608201610457565b61016089015261014a6101808201610457565b61018089015261015d6101a08201610448565b6101a08901526101706101c08201610448565b6101c089015201516101e087015260015f556001600160a01b031633156103d757600180546001600160a01b0319163317905580156103c857600380546001600160a01b03191691909117905584516001600160a01b03161561039b5784516001600160a01b03166080526004546101208601516101408701516101608801516101808901516101e09a94919360401b6bffffffff0000000000000000169260601b6fffffffff000000000000000000000000169063ffffffff9081169085168082116103935750905b6101a08b01516101c08c015165ffffffffffff60c01b19909216600160a01b600160f01b03196001600160a01b0319958616909617600117959095169490941760809590951b63ffffffff60801b169490941760a09190911b63ffffffff60a01b161760c09290921b61ffff60c01b169190911760d09290921b61ffff60d01b1691909117601960e21b1760ff60f01b191660045590516005805483166001600160a01b0392831617905591516006805483169184169190911790559151600780549093169116179055516008555160095560e0810151600a805461010084015165ffffffffffff1990911661ffff939093169290921760109290921b65ffffffff0000169190911790550151600b55604051615e8b908161046982396080518181816107ef01528181610b6001528181610ec301528181611d6c01528181612d1801528181612e3c015281816130290152615c940152f35b90509061023a565b60405162461bcd60e51b81526020600482015260056024820152643a37b5b2b760d91b6044820152606490fd5b63d92e233d60e01b5f5260045ffd5b60405162461bcd60e51b815260206004820152601860248201527f43616e6e6f7420736574206f776e657220746f207a65726f00000000000000006044820152606490fd5b5f80fd5b634e487b7160e01b5f52604160045260245ffd5b51906001600160a01b038216820361041c57565b519061ffff8216820361041c57565b519063ffffffff8216820361041c5756fe60806040526004361015610011575f80fd5b5f5f3560e01c8063078b0fb714613eee5780630f3e2f5114613bb45780631325a6d614613b0d57806316934fc414613aa95780631fe543e31461351057806323a8bdca146131f757806325452dd0146134c2578063271bc7991461339f5780632e1c52271461333c5780633141e25b1461327657806341a027aa1461324357806361d027b3146131f757806362954e5f14612f0d57806366c90c5a14612dc5578063676a630014612c775780636c46376d14612af65780636c6804a7146128815780636c718385146127c95780636db8b42d14612698578063703a4b0414612667578063747dff421461258257806379502c551461250557806379ba5097146124565780637b3f039c1461228c5780637cd3229a146121f2578063805ccb3e1461212957806384bf220a1461202f57806384d452ff14611fff5780638da5cb5b14611fd65780638ea9811714611f045780638fd2040d14611e725780639318992b14611d9b578063937a007714611d565780639767bae614611c275780639e998c3414611b255780639eccacf614611afc578063a30988e214611a9f578063a97958c114611992578063af8b1c6f14611974578063b00328e5146117fc578063b220cf8b146116d2578063b9ad435714611634578063bc3ac875146114e2578063bf376c7a1461138a578063c3453153146112e2578063cb70ffef14610fc7578063cb82cc8f14610e46578063d4617c4814610ab6578063d65ab5f214610982578063db326efc146108bb578063db8343061461087e578063e58306f9146107ca578063ecae3fa21461077b578063ef84da1214610724578063f2fde38b14610668578063f921e65c146102dc5763fa4d3ab91461028d575f80fd5b346102d95760203660031901126102d957604080916001600160401b036102b2613fe3565b168152601260205220546001600160401b038251918181851c16835260801c166020820152f35b80fd5b50346102d95760203660031901126102d95760406108e0916001600160401b03610304613fe3565b835161030f816141db565b83815283602082015283858201528360608201528360808201528360a08201528360c08201528360e08201528361010082015283610120820152836101408201528361016082015283610180820152836101a0820152836101c0820152836101e082015283610200820152836102208201528361024082015283610260820152836102808201526102c06103209186516103a984826141f7565b833682376102a08201528651926103c081856141f7565b368437015216815260126020522061050d6026604051926103e0846141db565b80546001600160401b03811685526001600160401b038160401c1660208601526001600160401b038160801c16604086015260c01c60608501526001600160401b036001820154166080850152600281015460a0850152600381015460c0850152600481015460e0850152600581015461010085015260ff600682015416610120850152600781015461014085015260088101546101608501526009810154610180850152600a8101546101a085015260ff600b82015460018060a01b0381166101c0870152818160a01c1615156101e0870152818160a81c161515610200870152818160b01c161515610220870152818160b81c16151561024087015260c01c161515610260850152600c810154610280850152610501600d82016142fc565b6102a0850152016142fc565b6102c08201526106666102c0604051926001600160401b0381511684526001600160401b0360208201511660208501526001600160401b0360408201511660408501526001600160401b0360608201511660608501526001600160401b03608082015116608085015260a081015160a085015260c081015160c085015260e081015160e085015261010081015161010085015260ff610120820151166101208501526101408101516101408501526101608101516101608501526101808101516101808501526101a08101516101a085015260018060a01b036101c0820151166101c08501526101e081015115156101e085015261020081015115156102008501526102208101511515610220850152610240810151151561024085015261026081015115156102608501526102808101516102808501526106596102a08201516102a0860190614103565b01516105c0830190614103565bf35b50346102d95760203660031901126102d957610682613f87565b61068a614fe3565b6001600160a01b03163381146106df57600280546001600160a01b031916821790556001546001600160a01b03167fed8889f560326eb138920d842192f0eb3dd22b4f139c87a2c57538e05bae12788380a380f35b60405162461bcd60e51b815260206004820152601760248201527f43616e6e6f74207472616e7366657220746f2073656c660000000000000000006044820152606490fd5b50346102d95760403660031901126102d9576040610740613fe3565b916001600160401b03610751613f9d565b931681526013602052209060018060a01b03165f526020526020600260405f200154604051908152f35b50346102d95760403660031901126102d9576107c66107a961079b613f87565b6107a3613f9d565b906148d5565b604080519384526020840192909252908201529081906060820190565b0390f35b50346102d95760403660031901126102d957806107e5613f87565b6107ed614fe3565b7f00000000000000000000000000000000000000000000000000000000000000006001600160a01b0316803b1561087a576040516340c10f1960e01b81526001600160a01b03929092166004830152602480359083015282908290604490829084905af1801561086f5761085e5750f35b81610868916141f7565b6102d95780f35b6040513d84823e3d90fd5b5050fd5b50346102d95760403660031901126102d9576107c66108ac61089e613fe3565b6108a6613f9d565b9061478e565b604093919351938493846140a7565b50346102d95760203660031901126102d9576108d5613f87565b6108dd614b0b565b6109227f851c74a0a45a88d9a2f89b8d073b3258cf368fd731101e9c5df65b43689d376c61095a61092761091133866148d5565b959082610964575b600b5490614168565b614168565b604080519485526020850191909152426001600160401b03169084015233936001600160a01b0316929081906060820190565b0390a36001815580f35b61097d8980808087335af1610977614282565b5061474b565b610919565b50346102d957806003193601126102d95761099b614fe3565b60045460ff8160f01c16610aa75760016001600160401b03821603610aa75760ff60f01b1916600160f01b176004556001808252601260205260408220805467ffffffffffffffff191690911781557f2262b0daef5905de71c0e65d62cb23b297e9b50299750506a778afbc578ee87890608090610a22436001600160401b031682614723565b610a70610a486001600160401b03835460401c1663ffffffff60045460401c16906143d3565b825467ffffffffffffffff60801b191660809190911b67ffffffffffffffff60801b16178255565b546001600160401b036040519160018352818160401c166020840152831c1660408201526001600160401b0342166060820152a180f35b63ba26162b60e01b8252600482fd5b50346102d95760603660031901126102d9576004356001600160401b038111610d1d5736602382011215610d1d5780600401356001600160401b038111610e42573660248284010111610e425760243590610b0f614b0b565b6006546001600160a01b03163303610e33576007546001600160a01b0316928315610e2457601054838110610e155783610b489161412a565b6010556040516370a0823160e01b81523060048201527f00000000000000000000000000000000000000000000000000000000000000006001600160a01b03169490602081602481895afa918215610e0a578585928994610dd0575b506024906044602095966040519889968795869363313eeab560e11b85528a60048601528282860152018484013781810183018d9052601f01601f191681010301925af1918215610dc5578592610d91575b506040516370a0823160e01b815230600482015290602082602481885afa8015610d86578690610d4e575b610c2b925061412a565b906044358210908115610d44575b50610d3557600a8102818104600a1482151715610d21576064900484610c5f828461412a565b94610c6983615c34565b803b15610d1d57818091602460405180948193630852cd8d60e31b83528b60048401525af1801561086f57610cfe575b50927f83e743814f1efe325554477e59eec75d82026e4308864261a53b80529bbc7c9a928560c09360018060a01b03600754169260405194855260208501526040840152606083015260808201526001600160401b03421660a0820152a16001815580f35b81610d0c91959493956141f7565b610d19579091845f610c99565b8480fd5b5080fd5b634e487b7160e01b85526011600452602485fd5b63162908e360e11b8452600484fd5b905081105f610c39565b506020823d602011610d7e575b81610d68602093836141f7565b81010312610d7a57610c2b9151610c21565b5f80fd5b3d9150610d5b565b6040513d88823e3d90fd5b9091506020813d602011610dbd575b81610dad602093836141f7565b81010312610d7a5751905f610bf6565b3d9150610da0565b6040513d87823e3d90fd5b92505091506020813d602011610e02575b81610dee602093836141f7565b81010312610d7a5751908390856024610ba4565b3d9150610de1565b6040513d89823e3d90fd5b631b74457560e31b8652600486fd5b63466d7fef60e01b8552600485fd5b6360c4e54360e01b8452600484fd5b8280fd5b50346102d95760203660031901126102d957600435610e63614b0b565b8015610fb857338252601760205260408220610e7e8161508d565b610e89828254614168565b9055610e9781600c54614168565b600c556040516323b872dd60e01b815233600482015230602482015260448101829052602081606481867f00000000000000000000000000000000000000000000000000000000000000006001600160a01b03165af1908115610fad578391610f7e575b5015610f4a5760408051918252426001600160401b0316602083015233917f6e69bcfef2c5fa29f8823f7e916f754a10da9af7a9e99467cae256619820a9d091819081015b0390a26001815580f35b60405162461bcd60e51b815260206004820152600c60248201526b7472616e7366657246726f6d60a01b6044820152606490fd5b610fa0915060203d602011610fa6575b610f9881836141f7565b810190614333565b5f610efb565b503d610f8e565b6040513d85823e3d90fd5b63162908e360e11b8252600482fd5b50346102d95760203660031901126102d9576001600160401b03610fe9613fe3565b610ff1614fe3565b610ff9614b0b565b16808252601260205260408220600b81019081549160ff8360a01c16156112a45760ff8360a81c1661125f576004546001600160401b03811685036112265761105b6001600160401b039163ffffffff83865460801c169160601c16906143d3565b16611c208101809111611212574311156111cd577f9a2d5cccb5b401ebca38c9f2398ac9f3dbcd48391922c21aa633689eb409535e92600160a81b9061ffff60a01b19161790556001600282019185835493558560038201558560048201556006810160ff801982541617905585600782015585600882015585600a8201556111196001600160401b036110fa63ffffffff60045460801c1643614168565b83546001600160c01b0316911660c01b6001600160c01b031916178255565b016001600160401b03804316166001600160401b03198254161790556001600160401b03421690837f81fa2c7772aa5abdc3ad284879e95a0242648f9bf182f900f753a71877963acf61014060405160ff81528860208201528860408201528860608201528860808201528860a08201528860c08201528860e08201528861010082015285610120820152a2604080519182526001600160401b03929092166020820152a26111c6615b35565b6001815580f35b60405162461bcd60e51b815260206004820152601d60248201527f546f6f206561726c7920666f7220656d657267656e63792072657365740000006044820152606490fd5b634e487b7160e01b86526011600452602486fd5b60405162461bcd60e51b8152602060048201526011602482015270139bdd0818dd5c9c995b9d081c9bdd5b99607a1b6044820152606490fd5b60405162461bcd60e51b815260206004820152601760248201527f526f756e6420616c72656164792066696e616c697a65640000000000000000006044820152606490fd5b60405162461bcd60e51b8152602060048201526016602482015275139bc81c195b991a5b99c8159491881c995c5d595cdd60521b6044820152606490fd5b50346102d95760203660031901126102d9576040906112ff613f87565b6001600160a01b03168152601760205220805460018201549181611350575b60028101546003909101546040805193845260208401949094529282015265ffffffffffff9091166060820152608090f35b916113826107c691670de0b6b3a764000061137b611375600d5460028901549061412a565b86614137565b0490614168565b92905061131e565b50346102d95760403660031901126102d9576113a4613f87565b602435906113b0614fe3565b6113b8614b0b565b6001600160a01b03169081156114ac5780156114795760105480821161146a57816113e29161412a565b60105582808080848661c350f16113f7614282565b501561143f5760408051918252426001600160401b031660208301527f2fd5dc1cae0aeef727e9349fc28f7cd04ce60073a57be16a0268ea704462b551919081908101610f40565b606460405162461bcd60e51b81526020600482015260046024820152630777261760e41b6044820152fd5b631b74457560e31b8452600484fd5b60405162461bcd60e51b815260206004820152600b60248201526a16995c9bc8185b5bdd5b9d60aa1b6044820152606490fd5b60405162461bcd60e51b815260206004820152600e60248201526d125b9d985b1a59081d185c99d95d60921b6044820152606490fd5b50346102d95760203660031901126102d95760406102a0916001600160401b0361150a613fe3565b16815260126020522080549060ff6001600160401b0360018301541691600281015460038201546004830154600584015485600686015416600786015491600887015493600988015495600a89015497600c600b8b01549a01549b60806040519e8f906001600160401b03811682526001600160401b038160401c1660208301526001600160401b0381841c16604083015260c01c6060820152015260a08d015260c08c015260e08b01526101008a01526101208901526101408801526101608701526101808601526101a085015260018060a01b0381166101c0850152818160a01c1615156101e0850152818160a81c161515610200850152818160b01c161515610220850152818160b81c16151561024085015260c01c161515610260830152610280820152f35b50346102d95760203660031901126102d957610100906040906001600160a01b0361165d613f87565b16815260166020522060ff60018060a01b038254169160018060a01b0360018201541690600281015460038201546004830154916006600585015494015494604051978852602088015260408701526060860152608085015260a0840152818116151560c084015260081c16151560e0820152f35b506101003660031901126102d9576116e8614b0b565b3381526016602052604081206006810160ff815460081c166117ed5781546001600160a01b031916331782556024356001600160a01b03811681036117e9576001830180546001600160a01b0319166001600160a01b039092169190911790556064356003830155608435600483015560a435600583015560c43580151590818103610d19575060ff8019835416911617815560e43580151590818103610d19575061ff0082549160081b169061ff001916179055600281016117ac348254614168565b90557f95b170f6813e96aa448a914f6a8aed8847ed4d6e0f1c54f12e15ccda05a630da60405180610f4033946001600160401b03421690836146a9565b8380fd5b63019b5d0960e71b8352600483fd5b50346102d957806003193601126102d957476010546001600160401b0360045416600a81115f1461196d5760091981016001600160401b038111610d21575b915b6001600160401b038316828111611889576001600160401b03916118709187526012602052600560408820015490614168565b92166001600160401b038114610d21576001019161183d565b84828781831061190557506001906118a1818461412a565b926001600160ff1b0384116118cd576080935b6040519315158452602084015260408301526060820152f35b60405162461bcd60e51b815260206004820152601060248201526f537572706c7573206f766572666c6f7760801b6044820152606490fd5b91908291611913818361412a565b6001600160ff1b03811161193557600160ff1b8114610d2157608094036118b4565b60405162461bcd60e51b815260206004820152601060248201526f44656669636974206f766572666c6f7760801b6044820152606490fd5b600161183b565b50346102d957806003193601126102d9576020601054604051908152f35b50346102d95760203660031901126102d9576001600160401b036119b4613fe3565b168082526012602052604082206119d460ff600b83015460a81c16614382565b60ff60068201541691835260196020526040832060ff83165f526020528160405f20805490611a0282614218565b95611a1060405197886141f7565b82875290815260208082209087015b838310611a635750505050600d611a3692016143c4565b90549060031b1c611a59604051938493845260606020850152606084019061402c565b9060408301520390f35b600191929394506020600291604051611a7b816141a4565b848060a01b0386541681528486015483820152815201920192019091859392611a1f565b50346102d957806003193601126102d95780604091506103208251611ac482826141f7565b3690376001600160401b036004541681526012602052206002611ae9600d83016142fc565b910154906107c660405192839283613ff9565b50346102d957806003193601126102d9576003546040516001600160a01b039091168152602090f35b50346102d95760403660031901126102d957600435611b42613f9d565b90611b4b614b0b565b338352601660205260408320913360018060a01b0384541603611c1857600283018054808411611c095783869493859493611b888695869561412a565b90556001600160a01b03165af1611b9d614282565b5015611bde577f95b170f6813e96aa448a914f6a8aed8847ed4d6e0f1c54f12e15ccda05a630da60405180610f4033946001600160401b03421690836146a9565b606460405162461bcd60e51b81526020600482015260046024820152631cd95b9960e21b6044820152fd5b63162908e360e11b8652600486fd5b631fc2483d60e11b8452600484fd5b50346102d95760a03660031901126102d95760043563ffffffff81168103610d1d5760243563ffffffff81168103610e425760443563ffffffff811681036117e9576064359161ffff83168303610d19576084359061ffff82168203611d5257611c8f614fe3565b6004805460c09590951b61ffff60c01b1660809490941b63ffffffff60801b167fffffffff00000000ffffffff000000000000000000000000ffffffffffffffff909516604096871b6bffffffff0000000000000000161760609290921b63ffffffff60601b1691909117939093179190911760d09190911b61ffff60d01b1617905551426001600160401b03168152641c9bdd5b9960da1b907f76855322c5cc7335ce7f03ab0323699af75ee9c167c9c3c15f63a103065425d090602090a280f35b8580fd5b50346102d957806003193601126102d9576040517f00000000000000000000000000000000000000000000000000000000000000006001600160a01b03168152602090f35b50346102d95760403660031901126102d9576004356001600160401b038111610d1d57611dcc903690600401613fb3565b91611dd5613f9d565b908092611de185614677565b94829360018060a01b0316905b808510611e135786866107c66040519283928352604060208401526040830190614074565b9091929394611e2386838661422f565b356001600160401b038116809103611d5257600191611e67918752601360205260408720855f52602052600260405f2001549081611e618a8c614260565b52614168565b950193929190611dee565b50346102d95760403660031901126102d9576040611e8e613fe3565b916001600160401b03611e9f613f9d565b931681526013602052209060018060a01b03165f5260205260c060405f208054906001810154906002810154600460038301549201549260ff604051958181161515875260081c161515602086015260408501526060840152608083015260a0820152f35b50346102d95760203660031901126102d957611f1e613f87565b6001546001600160a01b03163381141580611fc1575b611f9957506001600160a01b03168015611f8a576020817fd1a6a14209a385a964d036e404cb5cfb71f4000cdb03c9366292430787261be6926001600160601b0360a01b6003541617600355604051908152a180f35b63d92e233d60e01b8252600482fd5b60035463061db9c160e01b8452336004526024919091526001600160a01b0316604452606482fd5b506003546001600160a01b0316331415611f34565b50346102d957806003193601126102d9576001546040516001600160a01b039091168152602090f35b50346102d957806003193601126102d95760209061201b614b0b565b60016120256143f3565b9155604051908152f35b50346102d95760203660031901126102d95760406101009161204f613f87565b6120576142c0565b506001600160a01b0316815260166020522060405190612076826141bf565b60018060a01b038154169182815260018060a01b03600183015416916020820192835260028101546040830190815260038201546060840190815260048301549160808501928352600660058501549460a0870195865201549560ff60e060c0880197828a1615158952019760081c161515875260405197885260018060a01b0390511660208801525160408701525160608601525160808501525160a084015251151560c083015251151560e0820152f35b50346102d95760803660031901126102d957600435602435906001600160401b038216809203610e42576044359061ffff82168092036117e9576064359163ffffffff831690818403611d52577f5c52bd2211f9edb1ae3b3e5d1da8da87ccc689755cd68f9256ddc9f3bd224ca69460a0946121a3614fe3565b84600855816009558265ffffffff0000600a549260101b169165ffffffffffff19161717600a556040519384526020840152604083015260608201526001600160401b0342166080820152a180f35b50346102d957806003193601126102d95761012060045460ff604051916001600160401b038116835263ffffffff8160401c16602084015263ffffffff8160601c16604084015263ffffffff8160801c16606084015263ffffffff8160a01c16608084015261ffff8160c01c1660a084015261ffff8160d01c1660c084015261ffff8160e01c1660e084015260f01c161515610100820152f35b50346102d95760203660031901126102d9576001600160401b036122ae613fe3565b6122b6614fe3565b6122be614b0b565b1690818152601260205260408120916122e060ff600b85015460a81c16614382565b825460c01c8015612421576202a300810180911161240d574311156123d15761232861231660ff600686015416600d86016143c4565b90549060031b1c600385015490614168565b92600c810180548086115f146123c7576123446005918761412a565b925b01948554916123558385614168565b80156123b85795809761238c7f24e0d5b62f9d1a04b8fc88102f1e5ad451bb998d67be54c23e4798c350faa9b89798601054614168565b6010555555604080519283526020830191909152426001600160401b0316908201528060608101610f40565b6312d37ee560e31b8752600487fd5b5060058492612346565b60405162461bcd60e51b8152602060048201526014602482015273546f6f206561726c7920746f207265636c61696d60601b6044820152606490fd5b634e487b7160e01b83526011600452602483fd5b60405162461bcd60e51b815260206004820152600d60248201526c125b9d985b1a59081c9bdd5b99609a1b6044820152606490fd5b50346102d957806003193601126102d9576002546001600160a01b03811633036124c75760018054336001600160a01b03198083168217909355929091166002556001600160a01b03167f8be0079c531659141344cd1fd0a4f28419497f9722a3daafe3b4186f6b6457e08380a380f35b60405162461bcd60e51b815260206004820152601660248201527526bab9ba10313290383937b837b9b2b21037bbb732b960511b6044820152606490fd5b50346102d957806003193601126102d95761010060018060a01b036005541660018060a01b036006541663ffffffff60018060a01b036007541660085460095490600a5492600b5495604051978852602088015260408701526060860152608085015261ffff811660a085015260101c1660c083015260e0820152f35b50346102d957806003193601126102d95760e09060045460406001600160401b038216928381526012602052208054916001600160401b03808460401c169360801c1660028301549060ff8360f01c16928361265b575b83612650575b6125fa63ffffffff6001600160401b039260601c16836143d3565b16431015938461263d575b600b60ff91015460a01c169460405196875260208701526040860152606085015215156080840152151560a0830152151560c0820152f35b600b81015460a01c60ff16159450612605565b4382101593506125df565b925084431015926125d9565b50346102d95760203660031901126102d9576107c66108ac612687613f87565b6001600160401b036004541661478e565b50346102d95760403660031901126102d9576126b2613fe3565b60243560ff8116918282036117e9576019831015612793576001600160401b031691828452601960205260408420905f5260205260405f20928354926126f784614218565b9361270560405195866141f7565b80855260208501958352602083209583905b82821061275f576127558761273a88600d60408a8a8152601260205220016143c4565b90549060031b1c60405192839260408452604084019061402c565b9060208301520390f35b60026020600192604051612772816141a4565b848060a01b038c54168152848c015483820152815201980191019096612717565b60405162461bcd60e51b815260206004820152600e60248201526d496e76616c69642073717561726560901b6044820152606490fd5b50346102d95760403660031901126102d9576127e3613fe3565b6127eb613f9d565b906127f4614b0b565b6001600160401b038116808452601260205260ff600b60408620015460a81c161561287257835260136020526040832060018060a01b0383165f5260205260405f205460ff81166128635760081c60ff161561285457906111c691615663565b6312d37ee560e31b8352600483fd5b63cdda955f60e01b8452600484fd5b637b91e42d60e11b8452600484fd5b50346102d95760403660031901126102d95761289b613fe3565b6024356001600160401b038111610e42576128ba903690600401613fb3565b906128c3614b0b565b6001600160401b038316918285526012602052604085209160ff600b84015460a81c1615612ae7579293816128f9879493614218565b9461290760405196876141f7565b81865261291382614218565b602087019790601f1901368937859386935b808510612a4757505050505061297e575b5060019055604080516020808252925192810183905293849391840192905b818110612963575050500390f35b82511515845285945060209384019390920191600101612955565b600581018054918215159081612a30575b81612a18575b506129a1575b50612936565b600b5491808311612a10575b826129b9575b5061299b565b828493926129c98594859461412a565b9055335af16129d6614282565b50156129e557825f80806129b3565b60405162461bcd60e51b8152602060048201526003602482015262189bdd60ea1b6044820152606490fd5b9150816129ad565b6001600160401b03915060010154164310155f612995565b60018101546001600160401b03161515915061298f565b91939596509193612a61612a5c87848861422f565b61423f565b848b52601360205260408b2060018060a01b0382165f5260205260405f205460ff8116908115612ad8575b50612ac257600191612aa1612ab292866150f7565b82612aac898c614260565b52614274565b955b019290918996959492612925565b5094808a612ad26001938b614260565b52612ab4565b60ff915060081c16155f612a8c565b637b91e42d60e11b8652600486fd5b50346102d957806003193601126102d9576001600160401b03600454166001811115612c3d575f19016001600160401b038111612c29576001600160401b031680825260126020526040822091612b5660ff600b85015460a81c16614382565b60ff6006840154169282825260196020526040822060ff85165f526020528360405f20805490612b8582614218565b94612b9360405196876141f7565b82865290815260208082209086015b838310612bed5750505050612bbd90600d612be393016143c4565b90549060031b1c916040519485948552602085015260806040850152608084019061402c565b9060608301520390f35b600191929394506020600291604051612c05816141a4565b848060a01b0386541681528486015483820152815201920192019091879392612ba2565b634e487b7160e01b82526011600452602482fd5b60405162461bcd60e51b8152602060048201526012602482015271139bc818dbdb5c1b195d1959081c9bdd5b9960721b6044820152606490fd5b50346102d95760403660031901126102d957600435612c94613f9d565b612c9c614b0b565b33835260176020526040832082158015612dbb575b610d355782612d139282612cc660209461508d565b612cd183825461412a565b9055612cdf82600c5461412a565b600c5560405163a9059cbb60e01b81526001600160a01b039091166004820152602481019190915291829081906044820190565b0381867f00000000000000000000000000000000000000000000000000000000000000006001600160a01b03165af18015610fad57612d59918491612d9c575b5061434b565b60408051918252426001600160401b0316602083015233917f8c0f54c84dcdcf847dcfa91c4e1067d4790cc58e55568bbc06739ab390e8e3e19181908101610f40565b612db5915060203d602011610fa657610f9881836141f7565b5f612d53565b5080548311612cb1565b50346102d95760203660031901126102d957612ddf613f87565b612de7614b0b565b3382526017602052600160408320612dfe8161508d565b01908154918215612efe5783905560405163a9059cbb60e01b81526001600160a01b03821660048201526024810183905260208180604481010381877f00000000000000000000000000000000000000000000000000000000000000006001600160a01b03165af1908115612ef35791612e84859260019460209791612edc575061434b565b60408051858152426001600160401b0316602082015260a085901b8590039092169133917f0c21507e8db42a7a9af587ae7495dda456eafb18bfd3903be62b511e7399ab5f9190819081015b0390a355604051908152f35b612db59150873d8911610fa657610f9881836141f7565b6040513d86823e3d90fd5b6312d37ee560e31b8452600484fd5b5034610d7a576040366003190112610d7a57612f27613fe3565b906001600160401b03612f38613f9d565b92612f41614b0b565b16805f52601360205260405f2060018060a01b0333165f5260205260405f20916003830191825415806131eb575b6131dc57335f52601860205260405f20612f8881615035565b835493600f5491612fc16004670de0b6b3a7640000612fb6612fb060058c019788549061412a565b8a614137565b049801978854614168565b95869381600e5499818b115f146131c357600a820499600396612ff65f94612ff086948f610922905b8461412a565b9e61412a565b600e555555600f54905580613198575b508261316f575b600f549182910155841590811580613164575b613111575b50507f00000000000000000000000000000000000000000000000000000000000000006001600160a01b0316803b15610d7a576040516340c10f1960e01b81526001600160a01b03979097166004880152602487018690525f908790604490829084905af1938415613106576020966001956130ef575b50604080518781526020810192909252810191909152426001600160401b0316606082015233907f293210df7133869cdf9d637b506f04baa720687df15b352be9074ccf5e520a48908060808101612ed0565b6130fc9194505f906141f7565b5f92612ed061309c565b6040513d5f823e3d90fd5b670de0b6b3a7640000860291868304670de0b6b3a76400001417156131505761314061314692600e549061414a565b90614168565b600f555f80613025565b634e487b7160e01b5f52601160045260245ffd5b50600e541515613020565b600281018054848082111561318f576131879161412a565b905b5561300d565b50505f90613189565b6001820180549091808211156131ba576131b19161412a565b905b555f613006565b50505f906131b3565b5f99600396612ff65f94612ff086948f61092290612fea565b6312d37ee560e31b5f5260045ffd5b50600484015415612f6f565b34610d7a575f366003190112610d7a57600c54600d54600e54600f54601054601154604080519687526020870195909552938501929092526060840152608083015260a082015260c090f35b34610d7a576020366003190112610d7a576004355f52601560205260206001600160401b0360405f205416604051908152f35b34610d7a576060366003190112610d7a5761328f613f87565b613297613f9d565b6044356001600160a01b0381169290839003610d7a576132b5614fe3565b60018060a01b03166001600160601b0360a01b600554161760055560018060a01b03166001600160601b0360a01b60065416176006556001600160601b0360a01b60075416176007556040516001600160401b03421681527f76855322c5cc7335ce7f03ab0323699af75ee9c167c9c3c15f63a103065425d0602063636f726560e01b92a2005b34610d7a576020366003190112610d7a57613355614fe3565b600435600b556040516001600160401b03421681527f76855322c5cc7335ce7f03ab0323699af75ee9c167c9c3c15f63a103065425d060206918da1958dadc1bda5b9d60b21b92a2005b34610d7a576040366003190112610d7a576133b8613fe3565b6001600160401b036133c8613f9d565b916133d1614b0b565b165f8181526013602090815260408083203384529091529020600201805491929082156131dc575f9055335f52601860205260405f208054838082115f146134b95761341c9161412a565b905b556001600160a01b0316915f80808085875af1613439614282565b501561348e5760209260405190838252848201526001600160401b03421660408201527fbc5ffecda03feb624bf3a030ac85b0990d6606c094b444519b282c031fbe2efb60603392a360015f55604051908152f35b60405162461bcd60e51b81526020600482015260036024820152620cae8d60eb1b6044820152606490fd5b50505f9061341e565b34610d7a576020366003190112610d7a576001600160401b036134e3613fe3565b6103206040516134f382826141f7565b369037165f52601260205260405f206002611ae9600d83016142fc565b34610d7a576040366003190112610d7a576004356024356001600160401b038111610d7a57613543903690600401613fb3565b6003549091906001600160a01b031633819003613a935750825f5260156020526001600160401b0360405f205416928315613a84575f52601560205260405f206001600160401b0319815416905561359a82614218565b916135a860405193846141f7565b808352602083019060051b820191368311610d7a57905b828210613a7457505050815f52601260205260405f20600b810190815460ff8160a81c16613a655761ffff60a01b1916600160a81b178255601961360284614253565b51069260ff60068301941660ff19855416178455600161362182614253565b51845460ff60b01b191660089190911c919091161560b01b60ff60b01b1617835561027161364e82614253565b51600c1c061583549060ff60b81b9060b81b169060ff60b81b191617835560028201549361368360ff825416600d85016143c4565b90549060031b1c946011546404a817c80081018091116131505760115585811115613a5f576136b2868261412a565b6136db6136c360648304809361412a565b9160646136d4600a8504809561412a565b9404614168565b9660048601948286556137236001600160401b0361370463ffffffff60045460801c1643614168565b89546001600160c01b0316911660c01b6001600160c01b031916178855565b60045463ffffffff808260a01c169160801c16808211613a57575b506001600160401b03885460c01c911690036001600160401b038111613150576001600160401b036001890191166001600160401b031982541617905560ff60c01b19885416885581155f14613903575050917f81fa2c7772aa5abdc3ad284879e95a0242648f9bf182f900f753a71877963acf966138076137fc60ff946101409998979661ffff60b01b198a54168a555f60078a01555f60088a01555f60098a01555f600a8a01556001600160601b0360a01b8a54168a55614168565b808655601054614168565b6010555f60038601555b806138bb575b5054169261382884602685016143c4565b90549060031b1c905460ff8160b01c16805f146138b0576007850154945b600a6003820154955491015494604051978852602088015260408701521515606086015260ff8160b81c161515608086015260018060a01b031660a085015260c084015260e08301526101008201526001600160401b034216610120820152a26138ae615b35565b005b600885015494613846565b6005546001600160a01b0316156138ef575f8080806138e99460018060a01b03600554165af1610977614282565b88613817565b6138fb90601054614168565b6010556138e9565b929186959492600361391b9399980155601054614168565b601055815160011015613a43577f81fa2c7772aa5abdc3ad284879e95a0242648f9bf182f900f753a71877963acf9661014096604060ff9401510680600987015583875460b01c165f14613a05575064174876e80060078601555f600886015585546001600160a01b031916725b1171111111111111111111111111111111111786555b855460b81c8316156139fa57601154600a8601819055604080519182526001600160401b03421660208301528a917f59872529ce12f19664dff7653b417a8f9cdf72e5381b48510565adec044e05bf9190a25f601155613811565b5f600a860155613811565b64174876e80060088701555f600787015582546001600160a01b0391613a2d9186168c615da7565b87546001600160a01b031916911617865561399f565b634e487b7160e01b5f52603260045260245ffd5b90508b61373e565b5f6136b2565b63475a253560e01b5f5260045ffd5b81358152602091820191016135bf565b637b91e42d60e11b5f5260045ffd5b63073e64fd60e21b5f523360045260245260445ffd5b34610d7a576020366003190112610d7a576001600160a01b03613aca613f87565b165f908152601760209081526040918290208054600182015460028301546003909301548551928352938201529283015265ffffffffffff166060820152608090f35b6040366003190112610d7a57600435602435613b27614b0b565b613b3033614b29565b613b6a613b5e613b3e6142c0565b936001600160401b03600454168552336080860152806020860152614bd9565b80604085015282614137565b606083019080825215613ba557613b909160c0840152600b54908160e085015251614168565b3403613ba557613b9f90614c60565b60015f55005b63162908e360e11b5f5260045ffd5b34610d7a576020366003190112610d7a576004356001600160401b038111610d7a57613be4903690600401613fb3565b613bec614b0b565b613bf581614218565b91613c0360405193846141f7565b818352601f19613c1283614218565b015f5b818110613eb95750505f915f915f5b828110613d5b57505082613d01575b600454604080519283526020830193909352918101929092526001600160401b034281166060840152169033907ff43f6c7dc8b0d6464004aaeafac9e30d691126bb9e349d0fddbdbab678cbb0ed90608090a360015f556040518091602082016020835281518091526020604084019201905f5b818110613cb5575050500390f35b91935091602060a0600192608087518580851b03815116835284810151151585840152604081015160408401526060810151606084015201516080820152019401910191849392613ca7565b5f80808086335af1613d11614282565b50613c335760405162461bcd60e51b815260206004820152601960248201527f626174636820666565207472616e73666572206661696c6564000000000000006044820152606490fd5b613d69612a5c82858561422f565b6040516376571fd160e11b81526001600160a01b0390911660048201523360248201526060816044815f305af15f918291829181613e76575b50613e065750505080613dbb612a5c600193868661422f565b60405190613dc882614175565b838060a01b031681525f60208201525f60408201525f60608201525f6080820152613df38289614260565b52613dfe8188614260565b505b01613c24565b91839697613e6a92613e7094613e22612a5c6001988b8b61422f565b9160405192613e3084614175565b888060a01b0316835287602084015284604084015260608301526080820152613e59898c614260565b52613e64888b614260565b50614168565b95614274565b93613e00565b93509150506060823d8211613eb1575b81613e93606093836141f7565b81010312610d7a57815160208301516040909301519092918a613da2565b3d9150613e86565b602090604051613ec881614175565b5f81525f838201525f60408201525f60608201525f608082015282828801015201613c15565b34610d7a576020366003190112610d7a576001600160a01b03613f0f613f87565b165f52601860205260405f2080546107c6613f3a6001840154935f9085613f57575b60020154614168565b604051938493846040919493926060820195825260208201520152565b90506002670de0b6b3a7640000613f7e613f78600f5460038601549061412a565b88614137565b04919050613f31565b600435906001600160a01b0382168203610d7a57565b602435906001600160a01b0382168203610d7a57565b9181601f84011215610d7a578235916001600160401b038311610d7a576020808501948460051b010111610d7a57565b600435906001600160401b0382168203610d7a57565b61034081019392915f825b60198210614016575050506103200152565b6020806001928551815201930191019091614004565b90602080835192838152019201905f5b8181106140495750505090565b825180516001600160a01b03168552602090810151818601526040909401939092019160010161403c565b90602080835192838152019201905f5b8181106140915750505090565b8251845260209384019390920191600101614084565b939290936060810194815260606020820152825180955260206080820193015f955b8087106140e85750506140e59394506040818403910152614074565b90565b909360208060019260ff8851168152019501960195906140c9565b905f905b6019821061411457505050565b6020806001928551815201930191019091614107565b9190820391821161315057565b8181029291811591840414171561315057565b8115614154570490565b634e487b7160e01b5f52601260045260245ffd5b9190820180921161315057565b60a081019081106001600160401b0382111761419057604052565b634e487b7160e01b5f52604160045260245ffd5b604081019081106001600160401b0382111761419057604052565b61010081019081106001600160401b0382111761419057604052565b6102e081019081106001600160401b0382111761419057604052565b90601f801991011681019081106001600160401b0382111761419057604052565b6001600160401b0381116141905760051b60200190565b9190811015613a435760051b0190565b356001600160a01b0381168103610d7a5790565b805115613a435760200190565b8051821015613a435760209160051b010190565b5f1981146131505760010190565b3d156142bb573d906001600160401b03821161419057604051916142b0601f8201601f1916602001846141f7565b82523d5f602084013e565b606090565b604051906142cd826141bf565b5f60e0838281528260208201528260408201528260608201528260808201528260a08201528260c08201520152565b60405191905f835b6019821061431d5750505061431b610320836141f7565b565b6001602081928554815201930191019091614304565b90816020910312610d7a57518015158103610d7a5790565b1561435257565b60405162461bcd60e51b81526020600482015260086024820152673a3930b739b332b960c11b6044820152606490fd5b1561438957565b60405162461bcd60e51b8152602060048201526013602482015272149bdd5b99081b9bdd08199a5b985b1a5e9959606a1b6044820152606490fd5b6019821015613a435701905f90565b906001600160401b03809116911601906001600160401b03821161315057565b600454906001600160401b0382165f52601260205260405f2091600b83019060ff825460a01c16614668576144416001600160401b039163ffffffff83875460801c169160601c16906143d3565b1643106146595760028301541561464a57805460ff60a01b1916600160a01b179055600854600954600a5460405190602082016001600160401b03811183821017614190576040525f82526040519163125fa26760e31b60208401525115156024830152602482526144b46044836141f7565b6040519260c08401948486106001600160401b03871117614190576101046020955f9261ffff986040528152868101938452866040820196898716885263ffffffff606084019760101c16875263ffffffff608084016002815260a085019283528160018060a01b0360035416996040519d8e9c8d9b8c99634d8e1c2f60e11b8b528960048c01525160248b01525160448a01525116606488015251166084860152511660a48401525160c060c484015280519182918260e4860152018484015e8181018301849052601f01601f191681010301925af1908115613106575f91614618575b507f9153817ff8f2c303ed190879da7ba58c0608016146e69f34fd7e5b006e560cf66146136001600160401b03839581815416855f5260156020528260405f20911683198254161790555416926040519182916001600160401b03421690839092916001600160401b036020916040840195845216910152565b0390a2565b90506020813d602011614642575b81614633602093836141f7565b81010312610d7a57515f614599565b3d9150614626565b509050614655615b35565b5f90565b631328d40b60e31b5f5260045ffd5b63319b714360e01b5f5260045ffd5b9061468182614218565b61468e60405191826141f7565b828152809261469f601f1991614218565b0190602036910137565b81546001600160a01b0390811682526001830154166020820152600282015460408201526003820154606082015260048201546080820152600582015460a082015260069091015460ff818116151560c084015260089190911c16151560e08201526001600160401b039091166101008201526101200190565b9067ffffffffffffffff60401b82549160401b169067ffffffffffffffff60401b1916179055565b1561475257565b60405162461bcd60e51b815260206004820152600360248201526266656560e81b6044820152606490fd5b60ff1660ff81146131505760010190565b90915f925f905f5b60ff81166019811015614802576001600160401b0386165f52601460205260405f2060018060a01b0384165f5260205260405f20815f5260205260405f20546147e6575b5060010160ff16614796565b6147fa60ff929497600180931b179761477d565b9391506147da565b505060ff909116929161481484614218565b9161482260405193846141f7565b848352601f1961483186614218565b013660208501376148428395614677565b935f965f5b60ff811660198110156148cb576001600160401b0384165f52601460205260405f2060018060a01b0386165f5260205260405f20815f5260205260405f2054908161489a575b505060010160ff16614847565b8a6001926148be8a6148c49460ff979f886148b791168093614260565b528c614260565b5261477d565b999161488d565b5050965050509050565b903033148015614af9575b15614ac45760018060a01b0382165f52601660205260405f209160068301549160ff8360081c1615614ab55760018401546001600160a01b03908116911603614aa65761492b6142c0565b6004546001600160401b038116825284546001600160a01b03166080830152909260ff1615614a985760038401546040519160208301934285524460408501526001600160601b03199060601b1660608401526001600160401b0360c01b9060c01b166074830152607c820152607c81526149a7609c826141f7565b519020925f915f5b60ff811660198110156149e0576001901b8087166149d4575b5060010160ff166149af565b939093179260016149c8565b5050939190918115614a89575b50925b614a19614a036020830195808752614bd9565b80604084015260048501548060c0850152614137565b92614a2e6060830194808652600b5490614168565b916002614a416005840194855490614168565b92018054838110614a7a57614a6f93614a599161412a565b9055600160a0820152600b5460e0820152614c60565b549151925191929190565b630e83a11b60e21b5f5260045ffd5b60019150601990061b5f6149ed565b5050916003820154926149f0565b631fc2483d60e11b5f5260045ffd5b63b12b38eb60e01b5f5260045ffd5b60405162461bcd60e51b815260206004820152600d60248201526c696e7465726e616c206f6e6c7960981b6044820152606490fd5b50336001600160a01b038216146148e0565b60025f5414614b1a5760025f55565b633ee5aeb560e01b5f5260045ffd5b60018060a01b0381165f526018602052600460405f20019081546001600160401b038082169160401c16811115614bd457805f52601260205260ff600b60405f20015460a81c1615614bd457805f52601360205260405f2060018060a01b0383165f5260205260405f205460ff811680918115614bc5575b50614bb1575061431b92506150f7565b909150614bbc575050565b61431b91614723565b60ff915060081c16155f614ba1565b505050565b905f9180158015614c3b575b614c2c575f905b601960ff831610614bfb575050565b600180821614614c15575b600191820160ff16911c614bec565b926001614c2360ff92614274565b94915050614c06565b63bf3cad0b60e01b5f5260045ffd5b508060191c1515614be5565b8054821015613a43575f5260205f209060011b01905f90565b6001600160401b038151165f52601260205260405f209060ff60045460f01c16158015614fcd575b8015614fb7575b61465957606081018051614ca860028501918254614168565b905560e0820151614cbe60058501918254614168565b90556001600160401b038251165f52601360205260405f20608083019060018060a01b0382511660018060a01b03165f5260205260405f209260018060a01b038251165f526018602052600460405f20019384546001600160401b038082169160401c168111614f8e57508351614d3a60018301918254614168565b9055805460ff8160081c1615614f7c575b505060c08101519160208201958651905f915b601960ff841610614df357505050918160a080946001600160401b037f13d7440beb63bd461dfc418d23d1095bb97f3b693f75aff8d44d3f26ee923d1e97955116976001600160401b0389166001600160401b0319825416179055600180831b03905116975193519101511515916040519384526020840152604083015260608201526001600160401b0342166080820152a3565b600180821614614e0d575b600192830160ff16921c614d5e565b84516001600160401b03165f90815260146020908152604080832087516001600160a01b03168452825280832060ff8716845290915290208054614c2c57614e7584614e9b9289600d870191614e6384846143c4565b90549060031b1c6001820155556143c4565b614e858983548360031b1c614168565b82545f1960039390931b92831b1916911b179055565b614ea883602684016143c4565b81548160031b1c90600182018092116131505782545f1960039290921b91821b191691901b1790556001600160401b038551165f52601960205260405f2060ff84165f5260205260405f2060018060a01b038551169160405192614f0b846141a4565b8352602083019188835280546801000000000000000081101561419057614f3791600182018155614c47565b614f6957925183546001600160a01b0319166001600160a01b0391909116178355905160019290920191909155614dfe565b634e487b7160e01b5f525f60045260245ffd5b61ff0019166101001790555f80614d4b565b5f52601260205260ff600b60405f20015460a81c1615613a845763ceb3290760e01b5f5260045ffd5b506001600160401b03825460801c164311614c8f565b506001600160401b03825460401c164310614c88565b6001546001600160a01b03163303614ff757565b60405162461bcd60e51b815260206004820152601660248201527527b7363c9031b0b63630b1363290313c9037bbb732b960511b6044820152606490fd5b60018101548061504b575b506003600f54910155565b61506f670de0b6b3a764000091615069600f5460038601549061412a565b90614137565b0480156150405761508560028301918254614168565b90555f615040565b6003908054806150bb575b50600d54600282015501805465ffffffffffff19164265ffffffffffff16179055565b6150d9670de0b6b3a764000091615069600d5460028601549061412a565b048015615098576150ef60018301918254614168565b90555f615098565b906001600160401b03821690815f52601260205260405f20825f52601360205260405f2060018060a01b0383165f5260205260405f2090805460c01c8015159081615659575b506156295760028101541561552c5760ff60068201541690845f52601460205260405f2060018060a01b0385165f5260205260405f2060ff83165f5260205260405f209283549283156154c05761519790600d84016143c4565b90549060031b1c9485156131dc5761ffff60045460e01c166127106151bc8287614137565b0490811590816154b7575b816154ad575b506154a5575b84811161549e575b806153e0575b905f516020615e365f395f51905f529661521b615204879695946080999861412a565b613140836152168960038a0154614137565b61414a565b95866153ba575b60028401615231888254614168565b9055835460ff191660011784556001600160a01b0383165f818152601860205260409020909b61526391600401614723565b600c8501615272888254614168565b90555f90600b860180549160ff8360b01c168080916153ad575b1561531a57505050506152ab90613140836152168960078a0154614137565b945b600a850154806152f3575b505050916152cb845f936152d095615cfe565b615a99565b60405191825260208201523360408201526001600160401b0342166060820152a3565b5f94966131406152cb946152166152d099979561530f95614137565b9593819395506152b8565b989398158061539f575b80615392575b615337575b5050506152ad565b600101546153458482614168565b6009890154918210159182615388575b5050615362575b8061532f565b6008870180545f9182905560ff60c01b19909316600160c01b179091559096508061535c565b1090505f80615355565b506008880154151561532a565b5060ff8360c01c1615615324565b506007890154151561528c565b60018060a01b0383165f52601860205260405f206153d9888254614168565b9055615222565b600554909594939291906001600160a01b031615615472575f8080808960018060a01b03600554165af1615412614282565b5015615441575f516020615e365f395f51905f529661521b6152046080985b93949596979850505096506151e1565b60405162461bcd60e51b81526020600482015260096024820152686d696e65722066656560b81b6044820152606490fd5b5f516020615e365f395f51905f529661521b6152048861549660809a601054614168565b601055615431565b50836151db565b5060016151d3565b905015155f6151cd565b600191506151c7565b50805460ff191660011790555050506001600160a01b03165f81815260186020526040902090926154f391600401614723565b604080515f808252602082015233918101919091526001600160401b03421660608201525f516020615e365f395f51905f5290608090a3565b90915f925f5b601960ff8216106155e857505f6080936152cb869461558a945f516020615e365f395f51905f52986155ae575b805460ff191660011790556001600160a01b0316808452601860205260408420909990600401614723565b6040519081525f60208201523360408201526001600160401b0342166060820152a3565b6001600160a01b038216855260186020526040852080546155d0908990614168565b9055600281016155e1888254614168565b905561555f565b93600161562160ff92885f52601460205260405f20838060a01b0387165f5260205260405f208489165f5260205260405f205490614168565b950116615532565b50805460ff191660011790556001600160a01b03165f81815260186020526040902090926154f391600401614723565b905043115f61513d565b906001600160401b03821690815f52601260205260405f20825f52601360205260405f2060018060a01b0383165f5260205260405f2090805460c01c8015159081615a8f575b50615629576002810154156159be5760ff60068201541690845f52601460205260405f2060018060a01b0385165f5260205260405f2060ff83165f5260205260405f209283549283156154c05761570390600d84016143c4565b90549060031b1c9485156131dc5761ffff60045460e01c166127106157288287614137565b0490811590816159b5575b816159ab575b506159a3575b84811161599c575b8061590f575b905f516020615e365f395f51905f5296615770615204879695946080999861412a565b95866158e9575b60028401615786888254614168565b9055835460ff191660011784556001600160a01b0383165f818152601860205260409020909b6157b891600401614723565b600c85016157c7888254614168565b90555f90600b860180549160ff8360b01c168080916158dc575b15615849575050505061580090613140836152168960078a0154614137565b945b600a85015480615821575b505050916152cb846001936152d095615cfe565b600194966131406152cb946152166152d099979561583e95614137565b95938193955061580d565b98939815806158ce575b806158c1575b615866575b505050615802565b600101546158748482614168565b60098901549182101591826158b7575b5050615891575b8061585e565b6008870180545f9182905560ff60c01b19909316600160c01b179091559096508061588b565b1090505f80615884565b5060088801541515615859565b5060ff8360c01c1615615853565b50600789015415156157e1565b60018060a01b0383165f52601860205260405f20615908888254614168565b9055615777565b600554909594939291906001600160a01b031615615970575f8080808960018060a01b03600554165af1615941614282565b5015615441575f516020615e365f395f51905f52966157706152046080985b939495969798505050965061574d565b5f516020615e365f395f51905f52966157706152048861599460809a601054614168565b601055615960565b5083615747565b50600161573f565b905015155f615739565b60019150615733565b90915f925f5b601960ff821610615a4e575060016080936152cb869461558a945f516020615e365f395f51905f5298615a18575b8460ff19825416179055838060a01b031698895f526018602052600460405f2001614723565b848060a01b0382165f52601860205260405f20615a36888254614168565b905560028101615a47888254614168565b90556159f2565b936001615a8760ff92885f52601460205260405f20838060a01b0387165f5260205260405f208489165f5260205260405f205490614168565b9501166159c4565b905043115f6156a9565b9015615b3257600581018054918215159081615b1b575b81615b03575b50615abf575050565b600b5490828211615afb575b81615ad557505050565b5f82819492615ae68395849561412a565b9055335af1615af3614282565b50156129e557565b829150615acb565b6001600160401b03915060010154164310155f615ab6565b60018101546001600160401b031615159150615ab0565b50565b60045460016001600160401b03821601906001600160401b038211613150576001600160401b036001921680916001600160401b03191617600455805f52601260205260405f20906001600160401b0319825416178155615b9f6001600160401b03431682614723565b615bc5610a486001600160401b03835460401c1663ffffffff60045460401c16906143d3565b5f60028201819055600382018190556004820181905560058201819055600782018190556008820181905560098201819055600a8201819055600b820180546001600160c81b0319169055600c820155805460c083901b83900316815501805467ffffffffffffffff19169055565b5f8115615cfa57600c5415615c9157670de0b6b3a76400008202918204670de0b6b3a764000003615c7d5750615c70615c7891600c549061414a565b600d54614168565b600d55565b634e487b7160e01b81526011600452602490fd5b507f00000000000000000000000000000000000000000000000000000000000000006001600160a01b031690813b15610d7a575f91602483926040519485938492630852cd8d60e31b845260048401525af1801561310657615cf05750565b5f61431b916141f7565b5050565b908215614bd45760038101615d1984825480615d6d57614168565b90556005600f54910155615d2f82600e54614168565b600e556001600160a01b03165f90815260186020526040902090615d5282615035565b615d6160018301918254614168565b90556003600f54910155565b670de0b6b3a7640000615d90615d8a600f5460058901549061412a565b83614137565b04615da060048701918254614168565b9055614168565b6001600160401b03165f52601960205260ff60405f2091165f5260205260405f20905f915f918154935b848410615de15750505050505f90565b615df96001615df08686614c47565b50015482614168565b9082101580615e2c575b615e1257600190930192615dd1565b5050615e1e9250614c47565b50546001600160a01b031690565b50808210615e0356feeea8330ac3d746dfcc2004c5a1ab2beb43845d77de0081c4412d539aea1204e1a2646970667358221220ef20689afd78cc3f13d81c426c3fbf9793310bd6c7c99f0cecd21def1d41e5f264736f6c634300081e0033",
        "linkReferences": {}
    },
    "methodIdentifiers": {
        "ORI_TOKEN()": "937a0077",
        "_executeAutomationInternal(address,address)": "ecae3fa2",
        "acceptOwnership()": "79ba5097",
        "adminMint(address,uint256)": "e58306f9",
        "automations(address)": "b9ad4357",
        "batchCheckpoint(uint64,address[])": "6c6804a7",
        "board()": "7cd3229a",
        "bury(bytes,uint256,uint256)": "d4617c48",
        "checkpoint(uint64,address)": "6c718385",
        "claimEth(uint64,address)": "271bc799",
        "claimOre(uint64,address)": "62954e5f",
        "claimStakeYield(address)": "66c90c5a",
        "config()": "79502c55",
        "deployManual(uint256,uint256)": "1325a6d6",
        "depositStake(uint256)": "cb82cc8f",
        "emergencyResetRound(uint64)": "cb70ffef",
        "executeAutomation(address)": "db326efc",
        "executeAutomationBatch(address[])": "0f3e2f51",
        "getAutomation(address)": "84bf220a",
        "getCurrentRoundInfo()": "747dff42",
        "getCurrentRoundSquareStats()": "a30988e2",
        "getCurrentRoundSquares(address)": "703a4b04",
        "getEthReward(uint64,address)": "ef84da12",
        "getEthRewards(uint64[],address)": "9318992b",
        "getLastRoundWinners()": "6c46376d",
        "getMinerRoundInfo(uint64,address)": "8fd2040d",
        "getMinerSquares(uint64,address)": "db834306",
        "getRoundData(uint64)": "f921e65c",
        "getRoundSquareStats(uint64)": "25452dd0",
        "getSquareParticipants(uint64,uint8)": "6db8b42d",
        "getStakeInfo(address)": "c3453153",
        "getTreasuryState()": "23a8bdca",
        "getUserRewards(address)": "078b0fb7",
        "getWinningSquareParticipants(uint64)": "a97958c1",
        "owner()": "8da5cb5b",
        "rawFulfillRandomWords(uint256,uint256[])": "1fe543e3",
        "reclaimExpiredRewards(uint64)": "7b3f039c",
        "registerAutomation((address,address,uint256,uint256,uint256,uint256,bool,bool))": "b220cf8b",
        "resetRound()": "84d452ff",
        "roundByRequest(uint256)": "41a027aa",
        "roundWindow(uint64)": "fa4d3ab9",
        "rounds(uint64)": "bc3ac875",
        "s_vrfCoordinator()": "9eccacf6",
        "setCheckpointFee(uint256)": "2e1c5227",
        "setConfig(address,address,address)": "3141e25b",
        "setCoordinator(address)": "8ea98117",
        "setRoundParams(uint32,uint32,uint32,uint16,uint16)": "9767bae6",
        "setVrfConfig(bytes32,uint64,uint16,uint32)": "805ccb3e",
        "stakes(address)": "16934fc4",
        "startGame()": "d65ab5f2",
        "transferOwnership(address)": "f2fde38b",
        "treasury()": "61d027b3",
        "treasuryVault()": "af8b1c6f",
        "verifyBalance()": "b00328e5",
        "withdrawAutomation(uint256,address)": "9e998c34",
        "withdrawStake(uint256,address)": "676a6300",
        "wrap(address,uint256)": "bf376c7a"
    },
    "id": 51
}