{
    "abi": [
        {
            "type": "constructor",
            "inputs": [],
            "stateMutability": "nonpayable"
        },
        {
            "type": "function",
            "name": "ORI_TOKEN",
            "inputs": [],
            "outputs": [
                {
                    "name": "",
                    "type": "address",
                    "internalType": "contract OreToken"
                }
            ],
            "stateMutability": "view"
        },
        {
            "type": "function",
            "name": "UPGRADE_INTERFACE_VERSION",
            "inputs": [],
            "outputs": [
                {
                    "name": "",
                    "type": "string",
                    "internalType": "string"
                }
            ],
            "stateMutability": "view"
        },
        {
            "type": "function",
            "name": "_executeAutomationInternal",
            "inputs": [
                {
                    "name": "user",
                    "type": "address",
                    "internalType": "address"
                }
            ],
            "outputs": [
                {
                    "name": "fee",
                    "type": "uint256",
                    "internalType": "uint256"
                },
                {
                    "name": "deployed",
                    "type": "uint256",
                    "internalType": "uint256"
                },
                {
                    "name": "mask",
                    "type": "uint256",
                    "internalType": "uint256"
                }
            ],
            "stateMutability": "nonpayable"
        },
        {
            "type": "function",
            "name": "adminMint",
            "inputs": [
                {
                    "name": "to",
                    "type": "address",
                    "internalType": "address"
                },
                {
                    "name": "amount",
                    "type": "uint256",
                    "internalType": "uint256"
                }
            ],
            "outputs": [],
            "stateMutability": "nonpayable"
        },
        {
            "type": "function",
            "name": "automations",
            "inputs": [
                {
                    "name": "",
                    "type": "address",
                    "internalType": "address"
                }
            ],
            "outputs": [
                {
                    "name": "owner",
                    "type": "address",
                    "internalType": "address"
                },
                {
                    "name": "balance",
                    "type": "uint256",
                    "internalType": "uint256"
                },
                {
                    "name": "mask",
                    "type": "uint256",
                    "internalType": "uint256"
                },
                {
                    "name": "amountPerSquare",
                    "type": "uint256",
                    "internalType": "uint256"
                },
                {
                    "name": "feePerCall",
                    "type": "uint256",
                    "internalType": "uint256"
                },
                {
                    "name": "randomizeMask",
                    "type": "bool",
                    "internalType": "bool"
                },
                {
                    "name": "active",
                    "type": "bool",
                    "internalType": "bool"
                }
            ],
            "stateMutability": "view"
        },
        {
            "type": "function",
            "name": "batchCheckpoint",
            "inputs": [
                {
                    "name": "roundId",
                    "type": "uint64",
                    "internalType": "uint64"
                },
                {
                    "name": "miners",
                    "type": "address[]",
                    "internalType": "address[]"
                }
            ],
            "outputs": [
                {
                    "name": "results",
                    "type": "bool[]",
                    "internalType": "bool[]"
                }
            ],
            "stateMutability": "nonpayable"
        },
        {
            "type": "function",
            "name": "board",
            "inputs": [],
            "outputs": [
                {
                    "name": "currentRoundId",
                    "type": "uint64",
                    "internalType": "uint64"
                },
                {
                    "name": "roundLength",
                    "type": "uint32",
                    "internalType": "uint32"
                },
                {
                    "name": "intermission",
                    "type": "uint32",
                    "internalType": "uint32"
                },
                {
                    "name": "checkpointGrace",
                    "type": "uint32",
                    "internalType": "uint32"
                },
                {
                    "name": "checkpointFeeWindow",
                    "type": "uint32",
                    "internalType": "uint32"
                },
                {
                    "name": "feeBps",
                    "type": "uint16",
                    "internalType": "uint16"
                },
                {
                    "name": "vaultBps",
                    "type": "uint16",
                    "internalType": "uint16"
                },
                {
                    "name": "claimFeeBps",
                    "type": "uint16",
                    "internalType": "uint16"
                },
                {
                    "name": "live",
                    "type": "bool",
                    "internalType": "bool"
                }
            ],
            "stateMutability": "view"
        },
        {
            "type": "function",
            "name": "checkpoint",
            "inputs": [
                {
                    "name": "roundId",
                    "type": "uint64",
                    "internalType": "uint64"
                },
                {
                    "name": "minerAddr",
                    "type": "address",
                    "internalType": "address"
                }
            ],
            "outputs": [],
            "stateMutability": "nonpayable"
        },
        {
            "type": "function",
            "name": "claimAll",
            "inputs": [
                {
                    "name": "to",
                    "type": "address",
                    "internalType": "address payable"
                }
            ],
            "outputs": [
                {
                    "name": "ethAmount",
                    "type": "uint256",
                    "internalType": "uint256"
                },
                {
                    "name": "oriAmount",
                    "type": "uint256",
                    "internalType": "uint256"
                }
            ],
            "stateMutability": "nonpayable"
        },
        {
            "type": "function",
            "name": "claimEth",
            "inputs": [
                {
                    "name": "to",
                    "type": "address",
                    "internalType": "address payable"
                }
            ],
            "outputs": [
                {
                    "name": "amount",
                    "type": "uint256",
                    "internalType": "uint256"
                }
            ],
            "stateMutability": "nonpayable"
        },
        {
            "type": "function",
            "name": "claimStakeYield",
            "inputs": [
                {
                    "name": "to",
                    "type": "address",
                    "internalType": "address"
                }
            ],
            "outputs": [
                {
                    "name": "payout",
                    "type": "uint256",
                    "internalType": "uint256"
                }
            ],
            "stateMutability": "nonpayable"
        },
        {
            "type": "function",
            "name": "config",
            "inputs": [],
            "outputs": [
                {
                    "name": "feeCollector",
                    "type": "address",
                    "internalType": "address"
                },
                {
                    "name": "buryAuthority",
                    "type": "address",
                    "internalType": "address"
                },
                {
                    "name": "swapProgram",
                    "type": "address",
                    "internalType": "address"
                },
                {
                    "name": "vrfKeyHash",
                    "type": "bytes32",
                    "internalType": "bytes32"
                },
                {
                    "name": "vrfSubId",
                    "type": "uint256",
                    "internalType": "uint256"
                },
                {
                    "name": "vrfMinConfirmations",
                    "type": "uint16",
                    "internalType": "uint16"
                },
                {
                    "name": "vrfCallbackGasLimit",
                    "type": "uint32",
                    "internalType": "uint32"
                },
                {
                    "name": "checkpointFee",
                    "type": "uint256",
                    "internalType": "uint256"
                }
            ],
            "stateMutability": "view"
        },
        {
            "type": "function",
            "name": "coordinator",
            "inputs": [],
            "outputs": [
                {
                    "name": "",
                    "type": "address",
                    "internalType": "contract IVRFCoordinatorV2Plus"
                }
            ],
            "stateMutability": "view"
        },
        {
            "type": "function",
            "name": "deductVaultEth",
            "inputs": [
                {
                    "name": "amount",
                    "type": "uint256",
                    "internalType": "uint256"
                }
            ],
            "outputs": [],
            "stateMutability": "nonpayable"
        },
        {
            "type": "function",
            "name": "deployManual",
            "inputs": [
                {
                    "name": "mask",
                    "type": "uint256",
                    "internalType": "uint256"
                },
                {
                    "name": "amountPerSquare",
                    "type": "uint256",
                    "internalType": "uint256"
                }
            ],
            "outputs": [],
            "stateMutability": "payable"
        },
        {
            "type": "function",
            "name": "depositStake",
            "inputs": [
                {
                    "name": "amount",
                    "type": "uint256",
                    "internalType": "uint256"
                }
            ],
            "outputs": [],
            "stateMutability": "nonpayable"
        },
        {
            "type": "function",
            "name": "distributeStakeRewards",
            "inputs": [
                {
                    "name": "amount",
                    "type": "uint256",
                    "internalType": "uint256"
                }
            ],
            "outputs": [],
            "stateMutability": "nonpayable"
        },
        {
            "type": "function",
            "name": "emergencyResetRound",
            "inputs": [
                {
                    "name": "roundId",
                    "type": "uint64",
                    "internalType": "uint64"
                }
            ],
            "outputs": [],
            "stateMutability": "nonpayable"
        },
        {
            "type": "function",
            "name": "executeAutomation",
            "inputs": [
                {
                    "name": "user",
                    "type": "address",
                    "internalType": "address"
                }
            ],
            "outputs": [],
            "stateMutability": "nonpayable"
        },
        {
            "type": "function",
            "name": "executeAutomationBatch",
            "inputs": [
                {
                    "name": "users",
                    "type": "address[]",
                    "internalType": "address[]"
                }
            ],
            "outputs": [
                {
                    "name": "results",
                    "type": "tuple[]",
                    "internalType": "struct OreProtocol.ExecutionResult[]",
                    "components": [
                        {
                            "name": "user",
                            "type": "address",
                            "internalType": "address"
                        },
                        {
                            "name": "success",
                            "type": "bool",
                            "internalType": "bool"
                        },
                        {
                            "name": "fee",
                            "type": "uint256",
                            "internalType": "uint256"
                        },
                        {
                            "name": "deployed",
                            "type": "uint256",
                            "internalType": "uint256"
                        },
                        {
                            "name": "mask",
                            "type": "uint256",
                            "internalType": "uint256"
                        }
                    ]
                }
            ],
            "stateMutability": "nonpayable"
        },
        {
            "type": "function",
            "name": "getAutomation",
            "inputs": [
                {
                    "name": "user",
                    "type": "address",
                    "internalType": "address"
                }
            ],
            "outputs": [
                {
                    "name": "",
                    "type": "tuple",
                    "internalType": "struct OreProtocol.Automation",
                    "components": [
                        {
                            "name": "owner",
                            "type": "address",
                            "internalType": "address"
                        },
                        {
                            "name": "balance",
                            "type": "uint256",
                            "internalType": "uint256"
                        },
                        {
                            "name": "mask",
                            "type": "uint256",
                            "internalType": "uint256"
                        },
                        {
                            "name": "amountPerSquare",
                            "type": "uint256",
                            "internalType": "uint256"
                        },
                        {
                            "name": "feePerCall",
                            "type": "uint256",
                            "internalType": "uint256"
                        },
                        {
                            "name": "randomizeMask",
                            "type": "bool",
                            "internalType": "bool"
                        },
                        {
                            "name": "active",
                            "type": "bool",
                            "internalType": "bool"
                        }
                    ]
                }
            ],
            "stateMutability": "view"
        },
        {
            "type": "function",
            "name": "getBuryAuthority",
            "inputs": [],
            "outputs": [
                {
                    "name": "",
                    "type": "address",
                    "internalType": "address"
                }
            ],
            "stateMutability": "view"
        },
        {
            "type": "function",
            "name": "getDeployedPerSquare",
            "inputs": [
                {
                    "name": "roundId",
                    "type": "uint64",
                    "internalType": "uint64"
                },
                {
                    "name": "squareId",
                    "type": "uint8",
                    "internalType": "uint8"
                }
            ],
            "outputs": [
                {
                    "name": "",
                    "type": "uint256",
                    "internalType": "uint256"
                }
            ],
            "stateMutability": "view"
        },
        {
            "type": "function",
            "name": "getLastRoundWinners",
            "inputs": [],
            "outputs": [
                {
                    "name": "roundId",
                    "type": "uint64",
                    "internalType": "uint64"
                },
                {
                    "name": "winningSquare",
                    "type": "uint8",
                    "internalType": "uint8"
                },
                {
                    "name": "participantList",
                    "type": "tuple[]",
                    "internalType": "struct OreProtocol.SquareParticipant[]",
                    "components": [
                        {
                            "name": "participant",
                            "type": "address",
                            "internalType": "address"
                        },
                        {
                            "name": "amount",
                            "type": "uint256",
                            "internalType": "uint256"
                        }
                    ]
                },
                {
                    "name": "totalDeployed",
                    "type": "uint256",
                    "internalType": "uint256"
                }
            ],
            "stateMutability": "view"
        },
        {
            "type": "function",
            "name": "getMinerRoundInfo",
            "inputs": [
                {
                    "name": "roundId",
                    "type": "uint64",
                    "internalType": "uint64"
                },
                {
                    "name": "miner",
                    "type": "address",
                    "internalType": "address"
                }
            ],
            "outputs": [
                {
                    "name": "checkpointed",
                    "type": "bool",
                    "internalType": "bool"
                },
                {
                    "name": "hasParticipation",
                    "type": "bool",
                    "internalType": "bool"
                },
                {
                    "name": "totalDeployed",
                    "type": "uint256",
                    "internalType": "uint256"
                },
                {
                    "name": "ethReward",
                    "type": "uint256",
                    "internalType": "uint256"
                },
                {
                    "name": "oreShares",
                    "type": "uint256",
                    "internalType": "uint256"
                },
                {
                    "name": "oreBonus",
                    "type": "uint256",
                    "internalType": "uint256"
                }
            ],
            "stateMutability": "view"
        },
        {
            "type": "function",
            "name": "getMinerSquares",
            "inputs": [
                {
                    "name": "roundId",
                    "type": "uint64",
                    "internalType": "uint64"
                },
                {
                    "name": "miner",
                    "type": "address",
                    "internalType": "address"
                }
            ],
            "outputs": [
                {
                    "name": "mask",
                    "type": "uint256",
                    "internalType": "uint256"
                },
                {
                    "name": "squares",
                    "type": "uint8[]",
                    "internalType": "uint8[]"
                },
                {
                    "name": "amounts",
                    "type": "uint256[]",
                    "internalType": "uint256[]"
                }
            ],
            "stateMutability": "view"
        },
        {
            "type": "function",
            "name": "getRoundData",
            "inputs": [
                {
                    "name": "roundId",
                    "type": "uint64",
                    "internalType": "uint64"
                }
            ],
            "outputs": [
                {
                    "name": "",
                    "type": "tuple",
                    "internalType": "struct OreProtocol.RoundData",
                    "components": [
                        {
                            "name": "id",
                            "type": "uint64",
                            "internalType": "uint64"
                        },
                        {
                            "name": "startBlock",
                            "type": "uint64",
                            "internalType": "uint64"
                        },
                        {
                            "name": "endBlock",
                            "type": "uint64",
                            "internalType": "uint64"
                        },
                        {
                            "name": "checkpointDeadlineBlock",
                            "type": "uint64",
                            "internalType": "uint64"
                        },
                        {
                            "name": "checkpointFeeStartBlock",
                            "type": "uint64",
                            "internalType": "uint64"
                        },
                        {
                            "name": "totalDeployed",
                            "type": "uint256",
                            "internalType": "uint256"
                        },
                        {
                            "name": "winningsPool",
                            "type": "uint256",
                            "internalType": "uint256"
                        },
                        {
                            "name": "vaultShare",
                            "type": "uint256",
                            "internalType": "uint256"
                        },
                        {
                            "name": "checkpointPot",
                            "type": "uint256",
                            "internalType": "uint256"
                        },
                        {
                            "name": "winningSquare",
                            "type": "uint8",
                            "internalType": "uint8"
                        },
                        {
                            "name": "oreReward",
                            "type": "uint256",
                            "internalType": "uint256"
                        },
                        {
                            "name": "topMinerReward",
                            "type": "uint256",
                            "internalType": "uint256"
                        },
                        {
                            "name": "topMinerSample",
                            "type": "uint256",
                            "internalType": "uint256"
                        },
                        {
                            "name": "motherlodePayout",
                            "type": "uint256",
                            "internalType": "uint256"
                        },
                        {
                            "name": "topMiner",
                            "type": "address",
                            "internalType": "address"
                        },
                        {
                            "name": "randomnessRequested",
                            "type": "bool",
                            "internalType": "bool"
                        },
                        {
                            "name": "randomnessFulfilled",
                            "type": "bool",
                            "internalType": "bool"
                        },
                        {
                            "name": "splitReward",
                            "type": "bool",
                            "internalType": "bool"
                        },
                        {
                            "name": "motherlode",
                            "type": "bool",
                            "internalType": "bool"
                        },
                        {
                            "name": "topMinerClaimed",
                            "type": "bool",
                            "internalType": "bool"
                        },
                        {
                            "name": "claimedRewards",
                            "type": "uint256",
                            "internalType": "uint256"
                        },
                        {
                            "name": "deployedPerSquare",
                            "type": "uint256[25]",
                            "internalType": "uint256[25]"
                        },
                        {
                            "name": "minersPerSquare",
                            "type": "uint256[25]",
                            "internalType": "uint256[25]"
                        }
                    ]
                }
            ],
            "stateMutability": "view"
        },
        {
            "type": "function",
            "name": "getSquareParticipants",
            "inputs": [
                {
                    "name": "roundId",
                    "type": "uint64",
                    "internalType": "uint64"
                },
                {
                    "name": "squareId",
                    "type": "uint8",
                    "internalType": "uint8"
                }
            ],
            "outputs": [
                {
                    "name": "participantList",
                    "type": "tuple[]",
                    "internalType": "struct OreProtocol.SquareParticipant[]",
                    "components": [
                        {
                            "name": "participant",
                            "type": "address",
                            "internalType": "address"
                        },
                        {
                            "name": "amount",
                            "type": "uint256",
                            "internalType": "uint256"
                        }
                    ]
                },
                {
                    "name": "totalDeployed",
                    "type": "uint256",
                    "internalType": "uint256"
                }
            ],
            "stateMutability": "view"
        },
        {
            "type": "function",
            "name": "getSwapProgram",
            "inputs": [],
            "outputs": [
                {
                    "name": "",
                    "type": "address",
                    "internalType": "address"
                }
            ],
            "stateMutability": "view"
        },
        {
            "type": "function",
            "name": "getTotalStaked",
            "inputs": [],
            "outputs": [
                {
                    "name": "",
                    "type": "uint256",
                    "internalType": "uint256"
                }
            ],
            "stateMutability": "view"
        },
        {
            "type": "function",
            "name": "getTreasuryState",
            "inputs": [],
            "outputs": [
                {
                    "name": "totalStaked",
                    "type": "uint256",
                    "internalType": "uint256"
                },
                {
                    "name": "stakeRewardsFactor",
                    "type": "uint256",
                    "internalType": "uint256"
                },
                {
                    "name": "totalOreShares",
                    "type": "uint256",
                    "internalType": "uint256"
                },
                {
                    "name": "minerRewardsFactor",
                    "type": "uint256",
                    "internalType": "uint256"
                },
                {
                    "name": "vaultEth",
                    "type": "uint256",
                    "internalType": "uint256"
                },
                {
                    "name": "motherlodeOre",
                    "type": "uint256",
                    "internalType": "uint256"
                }
            ],
            "stateMutability": "view"
        },
        {
            "type": "function",
            "name": "getUserRewards",
            "inputs": [
                {
                    "name": "miner",
                    "type": "address",
                    "internalType": "address"
                }
            ],
            "outputs": [
                {
                    "name": "ethAmount",
                    "type": "uint256",
                    "internalType": "uint256"
                },
                {
                    "name": "oriDirect",
                    "type": "uint256",
                    "internalType": "uint256"
                },
                {
                    "name": "oriRefined",
                    "type": "uint256",
                    "internalType": "uint256"
                }
            ],
            "stateMutability": "view"
        },
        {
            "type": "function",
            "name": "getVaultEth",
            "inputs": [],
            "outputs": [
                {
                    "name": "",
                    "type": "uint256",
                    "internalType": "uint256"
                }
            ],
            "stateMutability": "view"
        },
        {
            "type": "function",
            "name": "getWinningSquareParticipants",
            "inputs": [
                {
                    "name": "roundId",
                    "type": "uint64",
                    "internalType": "uint64"
                }
            ],
            "outputs": [
                {
                    "name": "winningSquare",
                    "type": "uint8",
                    "internalType": "uint8"
                },
                {
                    "name": "participantList",
                    "type": "tuple[]",
                    "internalType": "struct OreProtocol.SquareParticipant[]",
                    "components": [
                        {
                            "name": "participant",
                            "type": "address",
                            "internalType": "address"
                        },
                        {
                            "name": "amount",
                            "type": "uint256",
                            "internalType": "uint256"
                        }
                    ]
                },
                {
                    "name": "totalDeployed",
                    "type": "uint256",
                    "internalType": "uint256"
                }
            ],
            "stateMutability": "view"
        },
        {
            "type": "function",
            "name": "initialize",
            "inputs": [
                {
                    "name": "params",
                    "type": "tuple",
                    "internalType": "struct OreProtocol.InitParams",
                    "components": [
                        {
                            "name": "oriToken",
                            "type": "address",
                            "internalType": "address"
                        },
                        {
                            "name": "feeCollector",
                            "type": "address",
                            "internalType": "address"
                        },
                        {
                            "name": "buryAuthority",
                            "type": "address",
                            "internalType": "address"
                        },
                        {
                            "name": "swapProgram",
                            "type": "address",
                            "internalType": "address"
                        },
                        {
                            "name": "vrfCoordinator",
                            "type": "address",
                            "internalType": "address"
                        },
                        {
                            "name": "vrfKeyHash",
                            "type": "bytes32",
                            "internalType": "bytes32"
                        },
                        {
                            "name": "vrfSubId",
                            "type": "uint256",
                            "internalType": "uint256"
                        },
                        {
                            "name": "vrfMinConfirmations",
                            "type": "uint16",
                            "internalType": "uint16"
                        },
                        {
                            "name": "vrfCallbackGasLimit",
                            "type": "uint32",
                            "internalType": "uint32"
                        },
                        {
                            "name": "roundLength",
                            "type": "uint32",
                            "internalType": "uint32"
                        },
                        {
                            "name": "intermission",
                            "type": "uint32",
                            "internalType": "uint32"
                        },
                        {
                            "name": "checkpointGrace",
                            "type": "uint32",
                            "internalType": "uint32"
                        },
                        {
                            "name": "checkpointFeeWindow",
                            "type": "uint32",
                            "internalType": "uint32"
                        },
                        {
                            "name": "feeBps",
                            "type": "uint16",
                            "internalType": "uint16"
                        },
                        {
                            "name": "vaultBps",
                            "type": "uint16",
                            "internalType": "uint16"
                        },
                        {
                            "name": "checkpointFee",
                            "type": "uint256",
                            "internalType": "uint256"
                        }
                    ]
                }
            ],
            "outputs": [],
            "stateMutability": "nonpayable"
        },
        {
            "type": "function",
            "name": "owner",
            "inputs": [],
            "outputs": [
                {
                    "name": "",
                    "type": "address",
                    "internalType": "address"
                }
            ],
            "stateMutability": "view"
        },
        {
            "type": "function",
            "name": "proxiableUUID",
            "inputs": [],
            "outputs": [
                {
                    "name": "",
                    "type": "bytes32",
                    "internalType": "bytes32"
                }
            ],
            "stateMutability": "view"
        },
        {
            "type": "function",
            "name": "rawFulfillRandomWords",
            "inputs": [
                {
                    "name": "requestId",
                    "type": "uint256",
                    "internalType": "uint256"
                },
                {
                    "name": "randomWords",
                    "type": "uint256[]",
                    "internalType": "uint256[]"
                }
            ],
            "outputs": [],
            "stateMutability": "nonpayable"
        },
        {
            "type": "function",
            "name": "reclaimExpiredRewards",
            "inputs": [
                {
                    "name": "roundId",
                    "type": "uint64",
                    "internalType": "uint64"
                }
            ],
            "outputs": [],
            "stateMutability": "nonpayable"
        },
        {
            "type": "function",
            "name": "registerAutomation",
            "inputs": [
                {
                    "name": "params",
                    "type": "tuple",
                    "internalType": "struct OreProtocol.Automation",
                    "components": [
                        {
                            "name": "owner",
                            "type": "address",
                            "internalType": "address"
                        },
                        {
                            "name": "balance",
                            "type": "uint256",
                            "internalType": "uint256"
                        },
                        {
                            "name": "mask",
                            "type": "uint256",
                            "internalType": "uint256"
                        },
                        {
                            "name": "amountPerSquare",
                            "type": "uint256",
                            "internalType": "uint256"
                        },
                        {
                            "name": "feePerCall",
                            "type": "uint256",
                            "internalType": "uint256"
                        },
                        {
                            "name": "randomizeMask",
                            "type": "bool",
                            "internalType": "bool"
                        },
                        {
                            "name": "active",
                            "type": "bool",
                            "internalType": "bool"
                        }
                    ]
                }
            ],
            "outputs": [],
            "stateMutability": "payable"
        },
        {
            "type": "function",
            "name": "renounceOwnership",
            "inputs": [],
            "outputs": [],
            "stateMutability": "nonpayable"
        },
        {
            "type": "function",
            "name": "resetRound",
            "inputs": [],
            "outputs": [
                {
                    "name": "requestId",
                    "type": "uint256",
                    "internalType": "uint256"
                }
            ],
            "stateMutability": "nonpayable"
        },
        {
            "type": "function",
            "name": "roundByRequest",
            "inputs": [
                {
                    "name": "",
                    "type": "uint256",
                    "internalType": "uint256"
                }
            ],
            "outputs": [
                {
                    "name": "",
                    "type": "uint64",
                    "internalType": "uint64"
                }
            ],
            "stateMutability": "view"
        },
        {
            "type": "function",
            "name": "roundWindow",
            "inputs": [
                {
                    "name": "roundId",
                    "type": "uint64",
                    "internalType": "uint64"
                }
            ],
            "outputs": [
                {
                    "name": "startBlock",
                    "type": "uint64",
                    "internalType": "uint64"
                },
                {
                    "name": "endBlock",
                    "type": "uint64",
                    "internalType": "uint64"
                }
            ],
            "stateMutability": "view"
        },
        {
            "type": "function",
            "name": "rounds",
            "inputs": [
                {
                    "name": "",
                    "type": "uint64",
                    "internalType": "uint64"
                }
            ],
            "outputs": [
                {
                    "name": "id",
                    "type": "uint64",
                    "internalType": "uint64"
                },
                {
                    "name": "startBlock",
                    "type": "uint64",
                    "internalType": "uint64"
                },
                {
                    "name": "endBlock",
                    "type": "uint64",
                    "internalType": "uint64"
                },
                {
                    "name": "checkpointDeadlineBlock",
                    "type": "uint64",
                    "internalType": "uint64"
                },
                {
                    "name": "checkpointFeeStartBlock",
                    "type": "uint64",
                    "internalType": "uint64"
                },
                {
                    "name": "totalDeployed",
                    "type": "uint256",
                    "internalType": "uint256"
                },
                {
                    "name": "winningsPool",
                    "type": "uint256",
                    "internalType": "uint256"
                },
                {
                    "name": "vaultShare",
                    "type": "uint256",
                    "internalType": "uint256"
                },
                {
                    "name": "checkpointPot",
                    "type": "uint256",
                    "internalType": "uint256"
                },
                {
                    "name": "winningSquare",
                    "type": "uint8",
                    "internalType": "uint8"
                },
                {
                    "name": "oreReward",
                    "type": "uint256",
                    "internalType": "uint256"
                },
                {
                    "name": "topMinerReward",
                    "type": "uint256",
                    "internalType": "uint256"
                },
                {
                    "name": "topMinerSample",
                    "type": "uint256",
                    "internalType": "uint256"
                },
                {
                    "name": "motherlodePayout",
                    "type": "uint256",
                    "internalType": "uint256"
                },
                {
                    "name": "topMiner",
                    "type": "address",
                    "internalType": "address"
                },
                {
                    "name": "randomnessRequested",
                    "type": "bool",
                    "internalType": "bool"
                },
                {
                    "name": "randomnessFulfilled",
                    "type": "bool",
                    "internalType": "bool"
                },
                {
                    "name": "splitReward",
                    "type": "bool",
                    "internalType": "bool"
                },
                {
                    "name": "motherlode",
                    "type": "bool",
                    "internalType": "bool"
                },
                {
                    "name": "topMinerClaimed",
                    "type": "bool",
                    "internalType": "bool"
                },
                {
                    "name": "claimedRewards",
                    "type": "uint256",
                    "internalType": "uint256"
                }
            ],
            "stateMutability": "view"
        },
        {
            "type": "function",
            "name": "setCheckpointFee",
            "inputs": [
                {
                    "name": "newFee",
                    "type": "uint256",
                    "internalType": "uint256"
                }
            ],
            "outputs": [],
            "stateMutability": "nonpayable"
        },
        {
            "type": "function",
            "name": "setConfig",
            "inputs": [
                {
                    "name": "feeCollector_",
                    "type": "address",
                    "internalType": "address"
                },
                {
                    "name": "buryAuthority_",
                    "type": "address",
                    "internalType": "address"
                },
                {
                    "name": "swapProgram_",
                    "type": "address",
                    "internalType": "address"
                }
            ],
            "outputs": [],
            "stateMutability": "nonpayable"
        },
        {
            "type": "function",
            "name": "setRoundParams",
            "inputs": [
                {
                    "name": "roundLength_",
                    "type": "uint32",
                    "internalType": "uint32"
                },
                {
                    "name": "intermission_",
                    "type": "uint32",
                    "internalType": "uint32"
                },
                {
                    "name": "checkpointGrace_",
                    "type": "uint32",
                    "internalType": "uint32"
                },
                {
                    "name": "feeBps_",
                    "type": "uint16",
                    "internalType": "uint16"
                },
                {
                    "name": "vaultBps_",
                    "type": "uint16",
                    "internalType": "uint16"
                }
            ],
            "outputs": [],
            "stateMutability": "nonpayable"
        },
        {
            "type": "function",
            "name": "setStakingContract",
            "inputs": [
                {
                    "name": "_stakingContract",
                    "type": "address",
                    "internalType": "address"
                }
            ],
            "outputs": [],
            "stateMutability": "nonpayable"
        },
        {
            "type": "function",
            "name": "setVrfConfig",
            "inputs": [
                {
                    "name": "keyHash",
                    "type": "bytes32",
                    "internalType": "bytes32"
                },
                {
                    "name": "subId",
                    "type": "uint64",
                    "internalType": "uint64"
                },
                {
                    "name": "minConf",
                    "type": "uint16",
                    "internalType": "uint16"
                },
                {
                    "name": "gasLimit",
                    "type": "uint32",
                    "internalType": "uint32"
                }
            ],
            "outputs": [],
            "stateMutability": "nonpayable"
        },
        {
            "type": "function",
            "name": "stakes",
            "inputs": [
                {
                    "name": "",
                    "type": "address",
                    "internalType": "address"
                }
            ],
            "outputs": [
                {
                    "name": "amount",
                    "type": "uint256",
                    "internalType": "uint256"
                },
                {
                    "name": "pending",
                    "type": "uint256",
                    "internalType": "uint256"
                },
                {
                    "name": "rewardDebt",
                    "type": "uint256",
                    "internalType": "uint256"
                },
                {
                    "name": "updatedAt",
                    "type": "uint48",
                    "internalType": "uint48"
                }
            ],
            "stateMutability": "view"
        },
        {
            "type": "function",
            "name": "stakingContract",
            "inputs": [],
            "outputs": [
                {
                    "name": "",
                    "type": "address",
                    "internalType": "address"
                }
            ],
            "stateMutability": "view"
        },
        {
            "type": "function",
            "name": "startGame",
            "inputs": [],
            "outputs": [],
            "stateMutability": "nonpayable"
        },
        {
            "type": "function",
            "name": "stopAutomation",
            "inputs": [
                {
                    "name": "to",
                    "type": "address",
                    "internalType": "address payable"
                }
            ],
            "outputs": [],
            "stateMutability": "nonpayable"
        },
        {
            "type": "function",
            "name": "transferOwnership",
            "inputs": [
                {
                    "name": "newOwner",
                    "type": "address",
                    "internalType": "address"
                }
            ],
            "outputs": [],
            "stateMutability": "nonpayable"
        },
        {
            "type": "function",
            "name": "treasury",
            "inputs": [],
            "outputs": [
                {
                    "name": "totalStaked",
                    "type": "uint256",
                    "internalType": "uint256"
                },
                {
                    "name": "stakeRewardsFactor",
                    "type": "uint256",
                    "internalType": "uint256"
                },
                {
                    "name": "totalOreShares",
                    "type": "uint256",
                    "internalType": "uint256"
                },
                {
                    "name": "minerRewardsFactor",
                    "type": "uint256",
                    "internalType": "uint256"
                },
                {
                    "name": "vaultEth",
                    "type": "uint256",
                    "internalType": "uint256"
                },
                {
                    "name": "motherlodeOre",
                    "type": "uint256",
                    "internalType": "uint256"
                }
            ],
            "stateMutability": "view"
        },
        {
            "type": "function",
            "name": "upgradeToAndCall",
            "inputs": [
                {
                    "name": "newImplementation",
                    "type": "address",
                    "internalType": "address"
                },
                {
                    "name": "data",
                    "type": "bytes",
                    "internalType": "bytes"
                }
            ],
            "outputs": [],
            "stateMutability": "payable"
        },
        {
            "type": "function",
            "name": "withdrawStake",
            "inputs": [
                {
                    "name": "amount",
                    "type": "uint256",
                    "internalType": "uint256"
                },
                {
                    "name": "to",
                    "type": "address",
                    "internalType": "address"
                }
            ],
            "outputs": [],
            "stateMutability": "nonpayable"
        },
        {
            "type": "function",
            "name": "wrap",
            "inputs": [
                {
                    "name": "target",
                    "type": "address",
                    "internalType": "address payable"
                },
                {
                    "name": "amount",
                    "type": "uint256",
                    "internalType": "uint256"
                }
            ],
            "outputs": [],
            "stateMutability": "nonpayable"
        },
        {
            "type": "event",
            "name": "AutomationBatchExecuted",
            "inputs": [
                {
                    "name": "roundId",
                    "type": "uint64",
                    "indexed": true,
                    "internalType": "uint64"
                },
                {
                    "name": "totalUsers",
                    "type": "uint256",
                    "indexed": false,
                    "internalType": "uint256"
                },
                {
                    "name": "successCount",
                    "type": "uint256",
                    "indexed": false,
                    "internalType": "uint256"
                },
                {
                    "name": "totalFee",
                    "type": "uint256",
                    "indexed": false,
                    "internalType": "uint256"
                },
                {
                    "name": "timestamp",
                    "type": "uint64",
                    "indexed": false,
                    "internalType": "uint64"
                }
            ],
            "anonymous": false
        },
        {
            "type": "event",
            "name": "AutomationExecuted",
            "inputs": [
                {
                    "name": "user",
                    "type": "address",
                    "indexed": true,
                    "internalType": "address"
                },
                {
                    "name": "mask",
                    "type": "uint256",
                    "indexed": false,
                    "internalType": "uint256"
                },
                {
                    "name": "totalCost",
                    "type": "uint256",
                    "indexed": false,
                    "internalType": "uint256"
                },
                {
                    "name": "timestamp",
                    "type": "uint64",
                    "indexed": false,
                    "internalType": "uint64"
                }
            ],
            "anonymous": false
        },
        {
            "type": "event",
            "name": "AutomationUpdated",
            "inputs": [
                {
                    "name": "user",
                    "type": "address",
                    "indexed": true,
                    "internalType": "address"
                },
                {
                    "name": "cfg",
                    "type": "tuple",
                    "indexed": false,
                    "internalType": "struct OreProtocol.Automation",
                    "components": [
                        {
                            "name": "owner",
                            "type": "address",
                            "internalType": "address"
                        },
                        {
                            "name": "balance",
                            "type": "uint256",
                            "internalType": "uint256"
                        },
                        {
                            "name": "mask",
                            "type": "uint256",
                            "internalType": "uint256"
                        },
                        {
                            "name": "amountPerSquare",
                            "type": "uint256",
                            "internalType": "uint256"
                        },
                        {
                            "name": "feePerCall",
                            "type": "uint256",
                            "internalType": "uint256"
                        },
                        {
                            "name": "randomizeMask",
                            "type": "bool",
                            "internalType": "bool"
                        },
                        {
                            "name": "active",
                            "type": "bool",
                            "internalType": "bool"
                        }
                    ]
                },
                {
                    "name": "timestamp",
                    "type": "uint64",
                    "indexed": false,
                    "internalType": "uint64"
                }
            ],
            "anonymous": false
        },
        {
            "type": "event",
            "name": "BuryEvent",
            "inputs": [
                {
                    "name": "amountIn",
                    "type": "uint256",
                    "indexed": false,
                    "internalType": "uint256"
                },
                {
                    "name": "oreReceived",
                    "type": "uint256",
                    "indexed": false,
                    "internalType": "uint256"
                },
                {
                    "name": "stakerShare",
                    "type": "uint256",
                    "indexed": false,
                    "internalType": "uint256"
                },
                {
                    "name": "burned",
                    "type": "uint256",
                    "indexed": false,
                    "internalType": "uint256"
                },
                {
                    "name": "router",
                    "type": "address",
                    "indexed": false,
                    "internalType": "address"
                },
                {
                    "name": "timestamp",
                    "type": "uint64",
                    "indexed": false,
                    "internalType": "uint64"
                }
            ],
            "anonymous": false
        },
        {
            "type": "event",
            "name": "CheckpointEvent",
            "inputs": [
                {
                    "name": "roundId",
                    "type": "uint64",
                    "indexed": true,
                    "internalType": "uint64"
                },
                {
                    "name": "miner",
                    "type": "address",
                    "indexed": true,
                    "internalType": "address"
                },
                {
                    "name": "ethReward",
                    "type": "uint256",
                    "indexed": false,
                    "internalType": "uint256"
                },
                {
                    "name": "oreReward",
                    "type": "uint256",
                    "indexed": false,
                    "internalType": "uint256"
                },
                {
                    "name": "bot",
                    "type": "address",
                    "indexed": false,
                    "internalType": "address"
                },
                {
                    "name": "timestamp",
                    "type": "uint64",
                    "indexed": false,
                    "internalType": "uint64"
                }
            ],
            "anonymous": false
        },
        {
            "type": "event",
            "name": "ClaimEth",
            "inputs": [
                {
                    "name": "miner",
                    "type": "address",
                    "indexed": true,
                    "internalType": "address"
                },
                {
                    "name": "roundId",
                    "type": "uint64",
                    "indexed": true,
                    "internalType": "uint64"
                },
                {
                    "name": "amount",
                    "type": "uint256",
                    "indexed": false,
                    "internalType": "uint256"
                },
                {
                    "name": "to",
                    "type": "address",
                    "indexed": false,
                    "internalType": "address"
                },
                {
                    "name": "timestamp",
                    "type": "uint64",
                    "indexed": false,
                    "internalType": "uint64"
                }
            ],
            "anonymous": false
        },
        {
            "type": "event",
            "name": "ClaimOre",
            "inputs": [
                {
                    "name": "miner",
                    "type": "address",
                    "indexed": true,
                    "internalType": "address"
                },
                {
                    "name": "roundId",
                    "type": "uint64",
                    "indexed": true,
                    "internalType": "uint64"
                },
                {
                    "name": "amount",
                    "type": "uint256",
                    "indexed": false,
                    "internalType": "uint256"
                },
                {
                    "name": "tax",
                    "type": "uint256",
                    "indexed": false,
                    "internalType": "uint256"
                },
                {
                    "name": "redistributed",
                    "type": "uint256",
                    "indexed": false,
                    "internalType": "uint256"
                },
                {
                    "name": "timestamp",
                    "type": "uint64",
                    "indexed": false,
                    "internalType": "uint64"
                }
            ],
            "anonymous": false
        },
        {
            "type": "event",
            "name": "ConfigUpdated",
            "inputs": [
                {
                    "name": "field",
                    "type": "bytes32",
                    "indexed": true,
                    "internalType": "bytes32"
                },
                {
                    "name": "timestamp",
                    "type": "uint64",
                    "indexed": false,
                    "internalType": "uint64"
                }
            ],
            "anonymous": false
        },
        {
            "type": "event",
            "name": "DeployEvent",
            "inputs": [
                {
                    "name": "roundId",
                    "type": "uint64",
                    "indexed": true,
                    "internalType": "uint64"
                },
                {
                    "name": "miner",
                    "type": "address",
                    "indexed": true,
                    "internalType": "address"
                },
                {
                    "name": "mask",
                    "type": "uint256",
                    "indexed": false,
                    "internalType": "uint256"
                },
                {
                    "name": "amountPerSquare",
                    "type": "uint256",
                    "indexed": false,
                    "internalType": "uint256"
                },
                {
                    "name": "totalAmount",
                    "type": "uint256",
                    "indexed": false,
                    "internalType": "uint256"
                },
                {
                    "name": "automation",
                    "type": "bool",
                    "indexed": false,
                    "internalType": "bool"
                },
                {
                    "name": "timestamp",
                    "type": "uint64",
                    "indexed": false,
                    "internalType": "uint64"
                }
            ],
            "anonymous": false
        },
        {
            "type": "event",
            "name": "EmergencyRefund",
            "inputs": [
                {
                    "name": "roundId",
                    "type": "uint64",
                    "indexed": true,
                    "internalType": "uint64"
                },
                {
                    "name": "totalDeployed",
                    "type": "uint256",
                    "indexed": false,
                    "internalType": "uint256"
                },
                {
                    "name": "timestamp",
                    "type": "uint64",
                    "indexed": false,
                    "internalType": "uint64"
                }
            ],
            "anonymous": false
        },
        {
            "type": "event",
            "name": "ExpiredRewardsClaimed",
            "inputs": [
                {
                    "name": "roundId",
                    "type": "uint64",
                    "indexed": true,
                    "internalType": "uint64"
                },
                {
                    "name": "unclaimedRewards",
                    "type": "uint256",
                    "indexed": false,
                    "internalType": "uint256"
                },
                {
                    "name": "unclaimedFees",
                    "type": "uint256",
                    "indexed": false,
                    "internalType": "uint256"
                },
                {
                    "name": "timestamp",
                    "type": "uint64",
                    "indexed": false,
                    "internalType": "uint64"
                }
            ],
            "anonymous": false
        },
        {
            "type": "event",
            "name": "Initialized",
            "inputs": [
                {
                    "name": "version",
                    "type": "uint64",
                    "indexed": false,
                    "internalType": "uint64"
                }
            ],
            "anonymous": false
        },
        {
            "type": "event",
            "name": "MotherlodeEvent",
            "inputs": [
                {
                    "name": "roundId",
                    "type": "uint64",
                    "indexed": true,
                    "internalType": "uint64"
                },
                {
                    "name": "amount",
                    "type": "uint256",
                    "indexed": false,
                    "internalType": "uint256"
                },
                {
                    "name": "timestamp",
                    "type": "uint64",
                    "indexed": false,
                    "internalType": "uint64"
                }
            ],
            "anonymous": false
        },
        {
            "type": "event",
            "name": "OwnershipTransferred",
            "inputs": [
                {
                    "name": "previousOwner",
                    "type": "address",
                    "indexed": true,
                    "internalType": "address"
                },
                {
                    "name": "newOwner",
                    "type": "address",
                    "indexed": true,
                    "internalType": "address"
                }
            ],
            "anonymous": false
        },
        {
            "type": "event",
            "name": "ResetEvent",
            "inputs": [
                {
                    "name": "roundId",
                    "type": "uint64",
                    "indexed": true,
                    "internalType": "uint64"
                },
                {
                    "name": "winningSquare",
                    "type": "uint8",
                    "indexed": false,
                    "internalType": "uint8"
                },
                {
                    "name": "winnings",
                    "type": "uint256",
                    "indexed": false,
                    "internalType": "uint256"
                },
                {
                    "name": "vaultShare",
                    "type": "uint256",
                    "indexed": false,
                    "internalType": "uint256"
                },
                {
                    "name": "splitReward",
                    "type": "bool",
                    "indexed": false,
                    "internalType": "bool"
                },
                {
                    "name": "motherlode",
                    "type": "bool",
                    "indexed": false,
                    "internalType": "bool"
                },
                {
                    "name": "topMiner",
                    "type": "address",
                    "indexed": false,
                    "internalType": "address"
                },
                {
                    "name": "numWinners",
                    "type": "uint256",
                    "indexed": false,
                    "internalType": "uint256"
                },
                {
                    "name": "motherlodePayout",
                    "type": "uint256",
                    "indexed": false,
                    "internalType": "uint256"
                },
                {
                    "name": "oreReward",
                    "type": "uint256",
                    "indexed": false,
                    "internalType": "uint256"
                },
                {
                    "name": "timestamp",
                    "type": "uint64",
                    "indexed": false,
                    "internalType": "uint64"
                }
            ],
            "anonymous": false
        },
        {
            "type": "event",
            "name": "ResetRequested",
            "inputs": [
                {
                    "name": "roundId",
                    "type": "uint64",
                    "indexed": true,
                    "internalType": "uint64"
                },
                {
                    "name": "requestId",
                    "type": "uint256",
                    "indexed": false,
                    "internalType": "uint256"
                },
                {
                    "name": "timestamp",
                    "type": "uint64",
                    "indexed": false,
                    "internalType": "uint64"
                }
            ],
            "anonymous": false
        },
        {
            "type": "event",
            "name": "RoundStarted",
            "inputs": [
                {
                    "name": "roundId",
                    "type": "uint64",
                    "indexed": true,
                    "internalType": "uint64"
                },
                {
                    "name": "startBlock",
                    "type": "uint64",
                    "indexed": false,
                    "internalType": "uint64"
                },
                {
                    "name": "endBlock",
                    "type": "uint64",
                    "indexed": false,
                    "internalType": "uint64"
                },
                {
                    "name": "timestamp",
                    "type": "uint64",
                    "indexed": false,
                    "internalType": "uint64"
                }
            ],
            "anonymous": false
        },
        {
            "type": "event",
            "name": "StakeClaimed",
            "inputs": [
                {
                    "name": "user",
                    "type": "address",
                    "indexed": true,
                    "internalType": "address"
                },
                {
                    "name": "to",
                    "type": "address",
                    "indexed": true,
                    "internalType": "address"
                },
                {
                    "name": "amount",
                    "type": "uint256",
                    "indexed": false,
                    "internalType": "uint256"
                },
                {
                    "name": "timestamp",
                    "type": "uint64",
                    "indexed": false,
                    "internalType": "uint64"
                }
            ],
            "anonymous": false
        },
        {
            "type": "event",
            "name": "StakeDeposited",
            "inputs": [
                {
                    "name": "user",
                    "type": "address",
                    "indexed": true,
                    "internalType": "address"
                },
                {
                    "name": "amount",
                    "type": "uint256",
                    "indexed": false,
                    "internalType": "uint256"
                },
                {
                    "name": "timestamp",
                    "type": "uint64",
                    "indexed": false,
                    "internalType": "uint64"
                }
            ],
            "anonymous": false
        },
        {
            "type": "event",
            "name": "StakeWithdrawn",
            "inputs": [
                {
                    "name": "user",
                    "type": "address",
                    "indexed": true,
                    "internalType": "address"
                },
                {
                    "name": "amount",
                    "type": "uint256",
                    "indexed": false,
                    "internalType": "uint256"
                },
                {
                    "name": "timestamp",
                    "type": "uint64",
                    "indexed": false,
                    "internalType": "uint64"
                }
            ],
            "anonymous": false
        },
        {
            "type": "event",
            "name": "Upgraded",
            "inputs": [
                {
                    "name": "implementation",
                    "type": "address",
                    "indexed": true,
                    "internalType": "address"
                }
            ],
            "anonymous": false
        },
        {
            "type": "event",
            "name": "VRFConfigUpdated",
            "inputs": [
                {
                    "name": "keyHash",
                    "type": "bytes32",
                    "indexed": false,
                    "internalType": "bytes32"
                },
                {
                    "name": "subId",
                    "type": "uint64",
                    "indexed": false,
                    "internalType": "uint64"
                },
                {
                    "name": "minConf",
                    "type": "uint16",
                    "indexed": false,
                    "internalType": "uint16"
                },
                {
                    "name": "gasLimit",
                    "type": "uint32",
                    "indexed": false,
                    "internalType": "uint32"
                },
                {
                    "name": "timestamp",
                    "type": "uint64",
                    "indexed": false,
                    "internalType": "uint64"
                }
            ],
            "anonymous": false
        },
        {
            "type": "event",
            "name": "VaultWithdraw",
            "inputs": [
                {
                    "name": "target",
                    "type": "address",
                    "indexed": true,
                    "internalType": "address"
                },
                {
                    "name": "amount",
                    "type": "uint256",
                    "indexed": false,
                    "internalType": "uint256"
                },
                {
                    "name": "timestamp",
                    "type": "uint64",
                    "indexed": false,
                    "internalType": "uint64"
                }
            ],
            "anonymous": false
        },
        {
            "type": "error",
            "name": "AddressEmptyCode",
            "inputs": [
                {
                    "name": "target",
                    "type": "address",
                    "internalType": "address"
                }
            ]
        },
        {
            "type": "error",
            "name": "AlreadyCheckpointed",
            "inputs": []
        },
        {
            "type": "error",
            "name": "AlreadyDeployedThisRound",
            "inputs": []
        },
        {
            "type": "error",
            "name": "AlreadyFinalized",
            "inputs": []
        },
        {
            "type": "error",
            "name": "AutomationAlreadyActive",
            "inputs": []
        },
        {
            "type": "error",
            "name": "AutomationInactive",
            "inputs": []
        },
        {
            "type": "error",
            "name": "AutomationNotAuthorized",
            "inputs": []
        },
        {
            "type": "error",
            "name": "ClaimWindowPassed",
            "inputs": []
        },
        {
            "type": "error",
            "name": "ERC1967InvalidImplementation",
            "inputs": [
                {
                    "name": "implementation",
                    "type": "address",
                    "internalType": "address"
                }
            ]
        },
        {
            "type": "error",
            "name": "ERC1967NonPayable",
            "inputs": []
        },
        {
            "type": "error",
            "name": "FailedCall",
            "inputs": []
        },
        {
            "type": "error",
            "name": "GameAlreadyStarted",
            "inputs": []
        },
        {
            "type": "error",
            "name": "GameNotStarted",
            "inputs": []
        },
        {
            "type": "error",
            "name": "InsufficientAutomationBalance",
            "inputs": []
        },
        {
            "type": "error",
            "name": "InsufficientVault",
            "inputs": []
        },
        {
            "type": "error",
            "name": "InvalidAmount",
            "inputs": []
        },
        {
            "type": "error",
            "name": "InvalidInitialization",
            "inputs": []
        },
        {
            "type": "error",
            "name": "InvalidMask",
            "inputs": []
        },
        {
            "type": "error",
            "name": "InvalidMask",
            "inputs": []
        },
        {
            "type": "error",
            "name": "InvalidRouter",
            "inputs": []
        },
        {
            "type": "error",
            "name": "MustCheckpointPreviousRound",
            "inputs": []
        },
        {
            "type": "error",
            "name": "NotBuryAuthority",
            "inputs": []
        },
        {
            "type": "error",
            "name": "NotInitializing",
            "inputs": []
        },
        {
            "type": "error",
            "name": "NothingToClaim",
            "inputs": []
        },
        {
            "type": "error",
            "name": "OnlyCoordinatorCanFulfill",
            "inputs": [
                {
                    "name": "have",
                    "type": "address",
                    "internalType": "address"
                },
                {
                    "name": "want",
                    "type": "address",
                    "internalType": "address"
                }
            ]
        },
        {
            "type": "error",
            "name": "OwnableInvalidOwner",
            "inputs": [
                {
                    "name": "owner",
                    "type": "address",
                    "internalType": "address"
                }
            ]
        },
        {
            "type": "error",
            "name": "OwnableUnauthorizedAccount",
            "inputs": [
                {
                    "name": "account",
                    "type": "address",
                    "internalType": "address"
                }
            ]
        },
        {
            "type": "error",
            "name": "PleaseWaitForVRF",
            "inputs": []
        },
        {
            "type": "error",
            "name": "RandomnessNotReady",
            "inputs": []
        },
        {
            "type": "error",
            "name": "RandomnessPending",
            "inputs": []
        },
        {
            "type": "error",
            "name": "ReentrancyGuardReentrantCall",
            "inputs": []
        },
        {
            "type": "error",
            "name": "RoundNotLive",
            "inputs": []
        },
        {
            "type": "error",
            "name": "UUPSUnauthorizedCallContext",
            "inputs": []
        },
        {
            "type": "error",
            "name": "UUPSUnsupportedProxiableUUID",
            "inputs": [
                {
                    "name": "slot",
                    "type": "bytes32",
                    "internalType": "bytes32"
                }
            ]
        }
    ],
    "bytecode": {
        "object": "0x60a080604052346100c257306080525f5160206160845f395f51905f525460ff8160401c166100b3576002600160401b03196001600160401b03821601610060575b604051615fbd90816100c78239608051818181612e8c0152612f5b0152f35b6001600160401b0319166001600160401b039081175f5160206160845f395f51905f525581527fc7f505b2f371ae2175ee4913f4499e1f2633a7b5936321eed1cdaeb6115181d290602090a15f80610041565b63f92ee8a960e01b5f5260045ffd5b5f80fdfe60806040526004361015610011575f80fd5b5f5f3560e01c8063078b0fb714613e3d5780630917e77614613e205780630a00909714613df85780630c34d7fa14613d085780630f3e2f51146139ae5780631325a6d61461391457806316934fc4146138b25780631734800c146138745780631fe543e3146132e7578063228f38451461323157806323a8bdca14612e305780632e1c5227146131ce5780633141e25b1461311e57806341a027aa146130eb5780634f1ef28614612ee057806352d1902d14612e7a57806361d027b314612e3057806366c90c5a14612d11578063676a630014612bc15780636c46376d14612a535780636c6804a7146127e65780636c7183851461271e5780636db8b42d14612604578063715018a61461259d5780637655bf501461255c57806377329f351461226b57806379502c55146121ee5780637b3f039c146120395780637cd3229a14611f9f578063805ccb3e14611ed657806384bf220a14611dda57806384d452ff14611d0a5780638da5cb5b14611cd55780638fd2040d14611c43578063937a007714611c1a578063940d1f2f14611bfd5780639767bae614611ac75780639dd373b914611a87578063a488dcdf14611a27578063a97958c11461191a578063ad3cb1cc146118cd578063b03fd745146118af578063b762e34314611886578063b9ad4357146117fb578063bc3ac875146116a9578063bf376c7a14611551578063cb70ffef146112b0578063cb82cc8f1461114d578063d65ab5f214611104578063db326efc14611027578063db83430614610e22578063deadd94b146108cd578063e40fd076146108a4578063e58306f91461080e578063edb39d70146106d4578063ee99205c146106ab578063f2fde38b1461067e578063f921e65c146102f25763fa4d3ab9146102a3575f80fd5b346102ef5760203660031901126102ef57604080916001600160401b036102c8613f48565b168152604360205220546001600160401b038251918181851c16835260801c166020820152f35b80fd5b50346102ef5760203660031901126102ef5760406108e0916001600160401b0361031a613f48565b835161032581613ff3565b83815283602082015283858201528360608201528360808201528360a08201528360c08201528360e08201528361010082015283610120820152836101408201528361016082015283610180820152836101a0820152836101c0820152836101e082015283610200820152836102208201528361024082015283610260820152836102808201526102c06103209186516103bf848261400f565b833682376102a08201528651926103d6818561400f565b36843701521681526043602052206105236026604051926103f684613ff3565b80546001600160401b03811685526001600160401b038160401c1660208601526001600160401b038160801c16604086015260c01c60608501526001600160401b036001820154166080850152600281015460a0850152600381015460c0850152600481015460e0850152600581015461010085015260ff600682015416610120850152600781015461014085015260088101546101608501526009810154610180850152600a8101546101a085015260ff600b82015460018060a01b0381166101c0870152818160a01c1615156101e0870152818160a81c161515610200870152818160b01c161515610220870152818160b81c16151561024087015260c01c161515610260850152600c810154610280850152610517600d820161473d565b6102a08501520161473d565b6102c082015261067c6102c0604051926001600160401b0381511684526001600160401b0360208201511660208501526001600160401b0360408201511660408501526001600160401b0360608201511660608501526001600160401b03608082015116608085015260a081015160a085015260c081015160c085015260e081015160e085015261010081015161010085015260ff610120820151166101208501526101408101516101408501526101608101516101608501526101808101516101808501526101a08101516101a085015260018060a01b036101c0820151166101c08501526101e081015115156101e0850152610200810151151561020085015261022081015115156102208501526102408101511515610240850152610260810151151561026085015261028081015161028085015261066f6102a08201516102a08601906140ce565b01516105c08301906140ce565bf35b50346102ef5760203660031901126102ef576106a861069b613ed6565b6106a36147aa565b6146cc565b80f35b50346102ef57806003193601126102ef576042546040516001600160a01b039091168152602090f35b50346102ef5760203660031901126102ef576106ee613ed6565b906106f7614772565b33815260476020526040812080549092906001600160a01b0316156107ff576001829301543383526047602052826005604082208281558260018201558260028201558260038201558260048201550155806107ad575b823381526047602052604081207f8eef97fa43c3f8e5303ca9d5d55e788311d17d2d44058bfca6fd2ba3c6038db26040518061079633946001600160401b0342169083614140565b0390a260015f516020615f285f395f51905f525580f35b8291829182916001600160a01b03165af16107c66141ff565b50156107d457805f8061074e565b606460405162461bcd60e51b81526020600482015260046024820152631cd95b9960e21b6044820152fd5b631fc2483d60e11b8252600482fd5b50346102ef5760403660031901126102ef5780610829613ed6565b6108316147aa565b6032546001600160a01b0316803b156108a0576040516340c10f1960e01b81526001600160a01b03929092166004830152602480359083015282908290604490829084905af18015610895576108845750f35b8161088e9161400f565b6102ef5780f35b6040513d84823e3d90fd5b5050fd5b50346102ef57806003193601126102ef576035546040516001600160a01b039091168152602090f35b50346102ef576102003660031901126102ef5760405161020081018181106001600160401b03821117610e0e57604052610905613ed6565b815261090f613eec565b602082015261091c613f02565b60408201526064356001600160a01b0381168103610e0a5760608201526084356001600160a01b0381168103610e0a57608082015260a43560a082015260c43560c082015260e43561ffff81168103610e0a5760e08201526101043563ffffffff81168103610e0a576101008201526101243563ffffffff81168103610e0a576101208201526101443563ffffffff81168103610e0a576101408201526101643563ffffffff81168103610e0a576101608201526101843563ffffffff81168103610e0a576101808201526101a43561ffff81168103610e0a576101a08201526101c43561ffff81168103610e0a576101c08201526101e4356101e08201525f516020615f485f395f51905f52546001600160401b0381161580610dfc575b60016001600160401b038316149081610df2575b159081610de9575b50610dda5760016001600160401b03195f516020615f485f395f51905f525416175f516020615f485f395f51905f525560ff8160401c1615610daa575b81516001600160a01b031615610d7d57610aac615dd0565b610ab4615dd0565b610abd336146cc565b610ac5615dd0565b610acd615dd0565b60015f516020615f285f395f51905f5255610ae6615dd0565b60808201516001600160a01b0316610afc615dd0565b8015610d2c5760ff926101e0916001600160601b0360a01b86541617855560018060a01b038151166001600160601b0360a01b603254161760325560018060a01b036080820151166001600160601b0360a01b604154161760415560335463ffffffff60401b61012083015160401b1663ffffffff60601b61014084015160601b16916101608401519263ffffffff841663ffffffff6101808701511690808211155f14610d245750905b6101a08601516101c087015165ffffffffffff60c01b1963ffffffff60a01b199096166001600160c01b0319909516949094179091179390931660809490941b63ffffffff60801b169390931760a093841b63ffffffff60a01b161760c092831b61ffff60c01b161760d09190911b61ffff60d01b1617601960e21b1760f087901b19166033556020830151603480546001600160a01b03199081166001600160a01b039384161790915560408086015160358054841691851691909117905560608601516036805490931693169290921790559183015160375582015160385560e08201516039805461010085015165ffffffffffff1990911661ffff939093169290921760109290921b65ffffffff000016919091179055910151603a551c1615610cd15780f35b60ff60401b195f516020615f485f395f51905f5254165f516020615f485f395f51905f52557fc7f505b2f371ae2175ee4913f4499e1f2633a7b5936321eed1cdaeb6115181d2602060405160018152a180f35b905090610ba7565b60405162461bcd60e51b815260206004820152602360248201527f6d75737420676976652076616c696420636f6f7264696e61746f72206164647260448201526265737360e81b6064820152608490fd5b60405162461bcd60e51b81526020600482015260056024820152643a37b5b2b760d91b6044820152606490fd5b600160401b60ff60401b195f516020615f485f395f51905f525416175f516020615f485f395f51905f5255610a94565b63f92ee8a960e01b8352600483fd5b9050155f610a57565b303b159150610a4f565b5060ff8160401c1615610a3b565b8280fd5b634e487b7160e01b83526041600452602483fd5b50346102ef5760403660031901126102ef57610e3c613f48565b90610e45613eec565b909182916001600160401b039091169082906001600160a01b0316815b60ff81166019811015610ebd57848652604560205260408620835f5260205260405f20815f5260205260405f2054610ea1575b5060010160ff16610e62565b610eb560ff929794600180931b17946146bb565b969150610e95565b5050929160ff851691610ecf83614030565b94610edd604051968761400f565b838652610ee984614030565b602087019590601f1901368737610f18610f0286614030565b95610f10604051978861400f565b808752614030565b602086019490601f19013686378194825b60ff81166019811015610fa057838552604560205260408520865f5260205260405f20815f526020528a60405f20549182610f6d575b50505060010160ff16610f29565b98600192610f90610f969360ff969c610f8988861680936141dd565b528d6141dd565b526146bb565b9791508a8c610f5f565b868b84878d8d604051958695606087019187526060602088015251809152608086019290845b81811061100b57505050602090858303604087015251918281520192915b818110610ff2575050500390f35b8251845285945060209384019390920191600101610fe4565b825160ff16855288975060209485019490920191600101610fc6565b50346102ef5760203660031901126102ef57611041613ed6565b611049614772565b6110516147aa565b61105a816147dd565b6110f5577f26a8dc2b9ccf97caf32e8010963836ad2f7d6132fdabd4c91e71a62fca98d96c61109f6110a461108e8461434d565b9390826110d7575b603a5490614133565b614133565b604080519283526020830191909152426001600160401b0316908201526001600160a01b03909216918060608101610796565b6110f08880808087335af16110ea6141ff565b50614689565b611096565b630e83a11b60e21b8252600482fd5b50346102ef57806003193601126102ef5761111d6147aa565b60335460ff8160f01c1661113e5760ff60f01b1916600160f01b1760335580f35b63ba26162b60e01b8252600482fd5b50346102ef5760203660031901126102ef5760043561116a614772565b80156112a15733825260486020526040822061118581614e73565b611190828254614133565b905561119e81603b54614133565b603b556032546040516323b872dd60e01b815233600482015230602482015260448101839052906020908290606490829087906001600160a01b03165af1908115611296578391611267575b50156112335760408051918252426001600160401b0316602083015233917f6e69bcfef2c5fa29f8823f7e916f754a10da9af7a9e99467cae256619820a9d09181908101610796565b60405162461bcd60e51b815260206004820152600c60248201526b7472616e7366657246726f6d60a01b6044820152606490fd5b611289915060203d60201161128f575b611281818361400f565b8101906142bc565b5f6111ea565b503d611277565b6040513d85823e3d90fd5b63162908e360e11b8252600482fd5b50346102ef5760203660031901126102ef576001600160401b036112d2613f48565b6112da6147aa565b6112e2614772565b169081815260436020526040812091600b83019283549360ff8560a01c16156115235760ff8560a81c166114f8576001600160401b036033541683036114c8576001600160401b03825460801c1694611c2086018096116114b45761136b7f9a2d5cccb5b401ebca38c9f2398ac9f3dbcd48391922c21aa633689eb409535e9495964311614581565b600160a81b9061ffff60a01b19161790556001600282019185835493558560038201558560048201556006810160ff801982541617905585600782015585600882015585600a8201556113f36001600160401b036113d463ffffffff60335460801c1643614133565b83546001600160c01b0316911660c01b6001600160c01b031916178255565b016001600160401b03804316166001600160401b03198254161790556001600160401b03421690837f81fa2c7772aa5abdc3ad284879e95a0242648f9bf182f900f753a71877963acf61014060405160ff81528860208201528860408201528860608201528860808201528860a08201528860c08201528860e08201528861010082015285610120820152a2604080519182526001600160401b03929092166020820152a26114a0615bb4565b60015f516020615f285f395f51905f525580f35b634e487b7160e01b85526011600452602485fd5b60405162461bcd60e51b81526020600482015260086024820152670858dd5c9c995b9d60c21b6044820152606490fd5b606460405162461bcd60e51b8152602060048201526004602482015263446f6e6560e01b6044820152fd5b60405162461bcd60e51b81526020600482015260066024820152652737902b292360d11b6044820152606490fd5b50346102ef5760403660031901126102ef5761156b613ed6565b602435906115776147aa565b61157f614772565b6001600160a01b031690811561167357801561164057603f5480821161163157816115a9916140f5565b603f5582808080848661c350f16115be6141ff565b50156116065760408051918252426001600160401b031660208301527f2fd5dc1cae0aeef727e9349fc28f7cd04ce60073a57be16a0268ea704462b551919081908101610796565b606460405162461bcd60e51b81526020600482015260046024820152630777261760e41b6044820152fd5b631b74457560e31b8452600484fd5b60405162461bcd60e51b815260206004820152600b60248201526a16995c9bc8185b5bdd5b9d60aa1b6044820152606490fd5b60405162461bcd60e51b815260206004820152600e60248201526d125b9d985b1a59081d185c99d95d60921b6044820152606490fd5b50346102ef5760203660031901126102ef5760406102a0916001600160401b036116d1613f48565b16815260436020522080549060ff6001600160401b0360018301541691600281015460038201546004830154600584015485600686015416600786015491600887015493600988015495600a89015497600c600b8b01549a01549b60806040519e8f906001600160401b03811682526001600160401b038160401c1660208301526001600160401b0381841c16604083015260c01c6060820152015260a08d015260c08c015260e08b01526101008a01526101208901526101408801526101608701526101808601526101a085015260018060a01b0381166101c0850152818160a01c1615156101e0850152818160a81c161515610200850152818160b01c161515610220850152818160b81c16151561024085015260c01c161515610260830152610280820152f35b50346102ef5760203660031901126102ef5760e0906040906001600160a01b03611823613ed6565b16815260476020522060ff60018060a01b0382541691600181015490600281015460038201549060056004840154930154936040519687526020870152604086015260608501526080840152818116151560a084015260081c16151560c0820152f35b50346102ef57806003193601126102ef576036546040516001600160a01b039091168152602090f35b50346102ef57806003193601126102ef576020603f54604051908152f35b50346102ef57806003193601126102ef57506119166040516118f060408261400f565b60058152640352e302e360dc1b60208201526040519182916020835260208301906140aa565b0390f35b50346102ef5760203660031901126102ef576001600160401b0361193c613f48565b1680825260436020526040822061195c60ff600b83015460a81c1661430b565b60ff600682015416918352604a6020526040832060ff83165f526020528160405f2080549061198a82614030565b95611998604051978861400f565b82875290815260208082209087015b8383106119eb5750505050600d6119be920161427b565b90549060031b1c6119e16040519384938452606060208501526060840190614062565b9060408301520390f35b600191929394506020600291604051611a0381613fbd565b848060a01b03865416815284860154838201528152019201920190918593926119a7565b50346102ef5760203660031901126102ef57604254600435906001600160a01b03163303611a7857603f54818110611a695790611a63916140f5565b603f5580f35b631b74457560e31b8352600483fd5b6360c4e54360e01b8252600482fd5b50346102ef5760203660031901126102ef57611aa1613ed6565b611aa96147aa565b60018060a01b03166001600160601b0360a01b604254161760425580f35b50346102ef5760a03660031901126102ef5760043563ffffffff81168103611bf95760243563ffffffff81168103610e0a5760443563ffffffff81168103611bf5576064359161ffff83168303611bf1576084359061ffff82168203611bed57611b2f6147aa565b6033805460c09590951b61ffff60c01b1660809490941b63ffffffff60801b167fffffffff00000000ffffffff000000000000000000000000ffffffffffffffff909516604096871b63ffffffff60401b161760609290921b63ffffffff60601b1691909117939093179190911760d09190911b61ffff60d01b1617905551426001600160401b03168152641c9bdd5b9960da1b907f76855322c5cc7335ce7f03ab0323699af75ee9c167c9c3c15f63a103065425d090602090a280f35b8580fd5b8480fd5b8380fd5b5080fd5b50346102ef5760203660031901126102ef576106a86004356145b9565b50346102ef57806003193601126102ef576032546040516001600160a01b039091168152602090f35b50346102ef5760403660031901126102ef576040611c5f613f48565b916001600160401b03611c70613eec565b931681526044602052209060018060a01b03165f5260205260c060405f208054906001810154906002810154600460038301549201549260ff604051958181161515875260081c161515602086015260408501526060840152608083015260a0820152f35b50346102ef57806003193601126102ef575f516020615ee85f395f51905f52546040516001600160a01b039091168152602090f35b50346102ef57806003193601126102ef57611d23614772565b6001600160401b036033541681526043602052604081208054906001600160401b038260401c1615611dcb57600b015460ff8160a01c16611dbc5760a81c60ff16611dad5760801c6001600160401b0316431115611d9e576020611d85615993565b60015f516020615f285f395f51905f5255604051908152f35b631328d40b60e31b8152600490fd5b63475a253560e01b8252600482fd5b63319b714360e01b8352600483fd5b631328d40b60e31b8352600483fd5b50346102ef5760203660031901126102ef57604060e091611df9613ed6565b8160c08451611e0781613fd8565b82815282602082015282868201528260608201528260808201528260a0820152015260018060a01b0316815260476020522060405190611e4682613fd8565b60018060a01b0381541691828152600182015491602082019283526002810154604083019081526003820154906060840191825260056004840154936080860194855201549460ff60c060a087019682891615158852019660081c161515865260405196875251602087015251604086015251606085015251608084015251151560a083015251151560c0820152f35b50346102ef5760803660031901126102ef57600435602435906001600160401b038216809203610e0a576044359061ffff8216809203611bf5576064359163ffffffff831690818403611bed577f5c52bd2211f9edb1ae3b3e5d1da8da87ccc689755cd68f9256ddc9f3bd224ca69460a094611f506147aa565b84603755816038558265ffffffff00006039549260101b169165ffffffffffff191617176039556040519384526020840152604083015260608201526001600160401b0342166080820152a180f35b50346102ef57806003193601126102ef5761012060335460ff604051916001600160401b038116835263ffffffff8160401c16602084015263ffffffff8160601c16604084015263ffffffff8160801c16606084015263ffffffff8160a01c16608084015261ffff8160c01c1660a084015261ffff8160d01c1660c084015261ffff8160e01c1660e084015260f01c161515610100820152f35b50346102ef5760203660031901126102ef576001600160401b0361205b613f48565b6120636147aa565b61206b614772565b16908181526043602052604081209160ff600b84015460a81c16156121c157825460c01c8015612193576202a300810180911161217f576120ad904311614581565b6120d66120c460ff600686015416600d860161427b565b90549060031b1c600385015490614133565b92600c810180548086115f14612175576120f2600591876140f5565b925b01948554916121038385614133565b80156121665795809761213a7f24e0d5b62f9d1a04b8fc88102f1e5ad451bb998d67be54c23e4798c350faa9b89798603f54614133565b603f555555604080519283526020830191909152426001600160401b0316908201528060608101610796565b6312d37ee560e31b8752600487fd5b50600584926120f4565b634e487b7160e01b83526011600452602483fd5b60405162461bcd60e51b8152602060048201526006602482015265085d985b1a5960d21b6044820152606490fd5b60405162461bcd60e51b815260206004820152600560248201526421646f6e6560d81b6044820152606490fd5b50346102ef57806003193601126102ef5761010060018060a01b036034541660018060a01b036035541663ffffffff60018060a01b03603654166037546038549060395492603a5495604051978852602088015260408701526060860152608085015261ffff811660a085015260101c1660c083015260e0820152f35b503461246b57602036600319011261246b57612285613ed6565b61228d614772565b5f612297336149be565b335f52604960205260405f2080549283159182156124e0575b6122b98161592c565b6001810191825490600283019283549383158015906124d7575b612320575b50505050505080612318575b612309576040925060015f516020615f285f395f51905f525582519182526020820152f35b6312d37ee560e31b8352600483fd5b5080156122e4565b60039293949597505f9081603d5499878b1182146124cd57612355600a8904985b61234f8b61109f8c846140f5565b9c6140f5565b603d555555603e5491829101558215908115806124c2575b61246f575b50506032546001600160a01b031690813b1561246b576040516340c10f1960e01b81526001600160a01b03909116600482015260248101869052905f908290604490829084905af1801561246057612424575b50604080518581526020810192909252810191909152426001600160401b03166060820152849033907f293210df7133869cdf9d637b506f04baa720687df15b352be9074ccf5e520a489080608081015b0390a35f80808080806122d8565b61241696505f6124369193929361400f565b5f9550907f293210df7133869cdf9d637b506f04baa720687df15b352be9074ccf5e520a486123c5565b6040513d5f823e3d90fd5b5f80fd5b670de0b6b3a7640000840291848304670de0b6b3a76400001417156124ae5761249e6124a492603d5490614115565b90614133565b603e555f80612372565b634e487b7160e01b5f52601160045260245ffd5b50603d54151561236d565b6123558298612341565b508415156122d3565b5f80825561250690808080896001600160a01b0388165af16125006141ff565b5061428a565b604080518681526001600160a01b03841660208201526001600160401b034216918101919091525f9033907fbc5ffecda03feb624bf3a030ac85b0990d6606c094b444519b282c031fbe2efb90606090a36122b0565b3461246b57602036600319011261246b5761191661258061257b613ed6565b61434d565b604080519384526020840192909252908201529081906060820190565b3461246b575f36600319011261246b576125b56147aa565b5f516020615ee85f395f51905f5280546001600160a01b031981169091555f906001600160a01b03167f8be0079c531659141344cd1fd0a4f28419497f9722a3daafe3b4186f6b6457e08280a3005b3461246b5761261236613f5e565b90601960ff831610156126e8576001600160401b0316805f52604a60205260405f2060ff83165f5260205260405f2090815461264d81614030565b9261265b604051948561400f565b81845260208401905f5260205f205f915b8383106126b4576126aa8661268f89885f526043602052600d60405f200161427b565b90549060031b1c604051928392604084526040840190614062565b9060208301520390f35b600260206001926040516126c781613fbd565b848060a01b038654168152848601548382015281520192019201919061266c565b60405162461bcd60e51b815260206004820152600e60248201526d496e76616c69642073717561726560901b6044820152606490fd5b3461246b57604036600319011261246b57612737613f48565b61273f613eec565b612747614772565b6001600160401b038216805f52604360205260ff600b60405f20015460a81c16156127d7575f52604460205260405f2060018060a01b0382165f5260205260405f205460ff81166127c85760081c60ff16156127b9576127a69161545a565b60015f516020615f285f395f51905f5255005b6312d37ee560e31b5f5260045ffd5b63cdda955f60e01b5f5260045ffd5b637b91e42d60e11b5f5260045ffd5b3461246b57604036600319011261246b576127ff613f48565b6024356001600160401b03811161246b5761281e903690600401613f18565b9190612828614772565b6001600160401b03821692835f52604360205260405f209160ff600b84015460a81c16156127d75793929061285c81614030565b9461286a604051968761400f565b81865261287682614030565b602087019590601f19013687375f935f935b8085106129b95750505050506128f0575b509060015f516020615f285f395f51905f5255604051918291602083019060208452518091526040830191905f5b8181106128d5575050500390f35b825115158452859450602093840193909201916001016128c7565b6005810180549182151590816129a2575b8161298a575b50612913575b50612899565b603a5490828211612982575b8161292b575b5061290d565b5f8281949261293c839584956140f5565b9055335af16129496141ff565b501561295757828080612925565b60405162461bcd60e51b8152602060048201526003602482015262189bdd60ea1b6044820152606490fd5b82915061291f565b6001600160401b039150600101541643101585612907565b60018101546001600160401b031615159150612901565b90919293946129d16129cc8784886141ac565b6141bc565b845f52604460205260405f2060018060a01b0382165f5260205260405f205460ff8116908115612a44575b50612a2e57600191612a11612a229286614eee565b82612a1c898d6141dd565b526141f1565b955b0193929190612888565b5094805f612a3e6001938c6141dd565b52612a24565b60ff915060081c16158b6129fc565b3461246b575f36600319011261246b576001600160401b03603354166001811115612b87575f19016001600160401b0381116124ae576001600160401b0316805f52604360205260405f2090612ab260ff600b84015460a81c1661430b565b60ff60068301541691815f52604a60205260405f2060ff84165f5260205260405f2090838254612ae181614030565b93612aef604051958661400f565b81855260208501905f5260205f205f915b838310612b4b5750505050612b1b90600d612b41930161427b565b90549060031b1c9160405194859485526020850152608060408501526080840190614062565b9060608301520390f35b600191929394506020600291604051612b6381613fbd565b848060a01b0386541681528486015483820152815201920192019091879392612b00565b60405162461bcd60e51b8152602060048201526012602482015271139bc818dbdb5c1b195d1959081c9bdd5b9960721b6044820152606490fd5b3461246b57604036600319011261246b57600435612bdd613eec565b612be5614772565b335f52604860205260405f209082158015612d07575b612cf8578260209183612c10612c6995614e73565b612c1b8382546140f5565b9055612c2982603b546140f5565b603b5560325460405163a9059cbb60e01b81526001600160a01b0392831660048201526024810193909352919384929091169082905f9082906044820190565b03925af1801561246057612c84915f91612cd9575b506142d4565b60408051918252426001600160401b0316602083015233917f8c0f54c84dcdcf847dcfa91c4e1067d4790cc58e55568bbc06739ab390e8e3e191819081015b0390a260015f516020615f285f395f51905f5255005b612cf2915060203d60201161128f57611281818361400f565b83612c7e565b63162908e360e11b5f5260045ffd5b5081548311612bfb565b3461246b57602036600319011261246b57612d2a613ed6565b612d32614772565b335f526048602052600160405f20612d4981614e73565b0180549081156127b9575f9081905560325460405163a9059cbb60e01b81526001600160a01b03858116600483015260248201859052909492602092869260449284929091165af192831561246057602093612dab915f91612e1357506142d4565b60408051838152426001600160401b031660208201526001600160a01b039092169133917f0c21507e8db42a7a9af587ae7495dda456eafb18bfd3903be62b511e7399ab5f9190819081015b0390a360015f516020615f285f395f51905f5255604051908152f35b612e2a9150853d871161128f57611281818361400f565b85612c7e565b3461246b575f36600319011261246b57603b54603c54603d54603e54603f5460408054815196875260208701959095528501929092526060840152608083015260a082015260c090f35b3461246b575f36600319011261246b577f00000000000000000000000000000000000000000000000000000000000000006001600160a01b03163003612ed15760206040515f516020615f085f395f51905f528152f35b63703e46dd60e11b5f5260045ffd5b604036600319011261246b57612ef4613ed6565b602435906001600160401b03821161246b573660238301121561246b57816004013590612f2082614047565b91612f2e604051938461400f565b8083526020830193366024838301011161246b57815f926024602093018737840101526001600160a01b037f0000000000000000000000000000000000000000000000000000000000000000163081149081156130c9575b50612ed157612f936147aa565b6040516352d1902d60e01b81526001600160a01b0382169390602081600481885afa5f9181613095575b50612fd55784634c9c8ce360e01b5f5260045260245ffd5b805f516020615f085f395f51905f528692036130835750823b15613071575f516020615f085f395f51905f5280546001600160a01b031916821790557fbc7cd75a20ee27fd9adebab32041f755214dbc6bffa90cc0225b39da2e5c2d3b5f80a2825115613058575f8091613056945190845af46130506141ff565b91615e89565b005b5050503461306257005b63b398979f60e01b5f5260045ffd5b634c9c8ce360e01b5f5260045260245ffd5b632a87526960e21b5f5260045260245ffd5b9091506020813d6020116130c1575b816130b16020938361400f565b8101031261246b57519086612fbd565b3d91506130a4565b5f516020615f085f395f51905f52546001600160a01b03161415905084612f86565b3461246b57602036600319011261246b576004355f52604660205260206001600160401b0360405f205416604051908152f35b3461246b57606036600319011261246b57613137613ed6565b61313f613eec565b613147613f02565b916131506147aa565b603480546001600160a01b03199081166001600160a01b039384161790915560358054821693831693909317909255603680549092169216919091179055604051426001600160401b0316815263636f726560e01b907f76855322c5cc7335ce7f03ab0323699af75ee9c167c9c3c15f63a103065425d090602090a2005b3461246b57602036600319011261246b576131e76147aa565b600435603a556040516001600160401b03421681527f76855322c5cc7335ce7f03ab0323699af75ee9c167c9c3c15f63a103065425d060206918da1958dadc1bda5b9d60b21b92a2005b3461246b57602036600319011261246b5761324a613ed6565b613252614772565b61325b336149be565b335f52604960205260405f2080549081156127b9575f9081905560209261329482808080876001600160a01b0387165af16125006141ff565b604080518481526001600160a01b039092166020830152426001600160401b03169082015233907fbc5ffecda03feb624bf3a030ac85b0990d6606c094b444519b282c031fbe2efb908060608101612df7565b3461246b57604036600319011261246b576004356024356001600160401b03811161246b573660238201121561246b5780600401359061332682614030565b91613334604051938461400f565b8083526024602084019160051b8301019136831161246b57602401905b8282106138645750505f546001600160a01b031690503381900361384e5750815f5260466020526001600160401b0360405f2054169182156127d7575f52604660205260405f206001600160401b03198154169055815f52604360205260405f20600b810190815460ff8160a81c1661383f5761ffff60a01b1916600160a81b17825560196133df846141d0565b51069260ff60068301941660ff1985541617845560016133fe826141d0565b51845460ff60b01b191660089190911c919091161560b01b60ff60b01b1617835561027161342b826141d0565b51600c1c061583549060ff60b81b9060b81b169060ff60b81b191617835560028201549361346060ff825416600d850161427b565b90549060031b1c8060648704968181115f146138345761348d91613483916140f5565b60648104906140f5565b61349b600a820480926140f5565b9160048601948286556134e36001600160401b036134c463ffffffff60335460801c1643614133565b89546001600160c01b0316911660c01b6001600160c01b031916178855565b60335463ffffffff808260a01c169160801c1680821161382c575b506001600160401b03885460c01c911690036001600160401b0381116124ae576001600160401b036001890191166001600160401b031982541617905560ff60c01b19885416885581155f146136bb575050917f81fa2c7772aa5abdc3ad284879e95a0242648f9bf182f900f753a71877963acf966135c76135bc60ff946101409998979661ffff60b01b198a54168a555f60078a01555f60088a01555f60098a01555f600a8a01556001600160601b0360a01b8a54168a55614133565b808655603f54614133565b603f555f60038601555b80613673575b505416926135e8846026850161427b565b90549060031b1c905460ff8160b01c16805f14613668576007850154945b600a6003820154955491015494604051978852602088015260408701521515606086015260ff8160b81c161515608086015260018060a01b031660a085015260c084015260e08301526101008201526001600160401b034216610120820152a2005b600885015494613606565b6034546001600160a01b0316156136a7575f8080806136a19460018060a01b03603454165af16110ea6141ff565b886135d7565b6136b390603f54614133565b603f556136a1565b92909695949391604054916702c68af0bb14000083018093116124ae576136ec926040556003870155603f54614133565b603f55815160011015613818577f81fa2c7772aa5abdc3ad284879e95a0242648f9bf182f900f753a71877963acf9661014096604060ff9401510680600987015583875460b01c165f146137d75750670de0b6b3a764000060078601555f600886015585546001600160a01b031916725b1171111111111111111111111111111111111786555b855460b81c8316156137cc5760408054600a870181905581519081526001600160401b03421660208201528a917f59872529ce12f19664dff7653b417a8f9cdf72e5381b48510565adec044e05bf91a25f6040556135d1565b5f600a8601556135d1565b670de0b6b3a764000060088701555f600787015582546001600160a01b03916138029186168c615dfb565b87546001600160a01b0319169116178655613773565b634e487b7160e01b5f52603260045260245ffd5b90508b6134fe565b505061348d5f613483565b63475a253560e01b5f5260045ffd5b63073e64fd60e21b5f523360045260245260445ffd5b8135815260209182019101613351565b3461246b5760206138a36001600160401b0361388f36613f5e565b91165f5260438352600d60405f200161427b565b90549060031b1c604051908152f35b3461246b57602036600319011261246b576001600160a01b036138d3613ed6565b165f526048602052608060405f2080549060018101549065ffffffffffff600360028301549201541691604051938452602084015260408301526060820152f35b604036600319011261246b5760043560243561392e614772565b6139366148b3565b61393f336149be565b61397961396d61394d61422e565b936001600160401b03603354168552336080860152806020860152614a6e565b80604085015282614102565b606083019080825215612cf85761399f9160c0840152603a54908160e085015251614133565b3403612cf8576127a690614af5565b3461246b57602036600319011261246b576004356001600160401b03811161246b576139de903690600401613f18565b6139e6614772565b6139ee6147aa565b6139f781614030565b91613a05604051938461400f565b818352601f19613a1483614030565b015f5b818110613cd35750505f5f915f5b848110613b6457505080613b0a575b603354604080519485526020850193909352918301526001600160401b03428116606084015216907ffdc550c5c39fe5113c6a01574391124646e8cecb23b0631760b82bc951a140ba90608090a260015f516020615f285f395f51905f52556040518091602082016020835281518091526020604084019201905f5b818110613abe575050500390f35b91935091602060a0600192608087518580851b03815116835284810151151585840152604081015160408401526060810151606084015201516080820152019401910191849392613ab0565b5f80808084335af1613b1a6141ff565b50613a345760405162461bcd60e51b815260206004820152601960248201527f626174636820666565207472616e73666572206661696c6564000000000000006044820152606490fd5b613b726129cc8287856141ac565b6040516307655bf560e41b81526001600160a01b0390911660048201526060816024815f305af15f918291829181613c90575b50613c205750505080613bbe6129cc60019388866141ac565b60405190613bcb82613f8e565b838060a01b031681525f60208201525f60408201525f60608201525f6080820152613bf682896141dd565b52613c0181886141dd565b50613c18613c136129cc8389876141ac565b6147dd565b505b01613a25565b91839695613c8492613c8a94613c3c6129cc6001988d8b6141ac565b9160405192613c4a84613f8e565b888060a01b0316835287602084015284604084015260608301526080820152613c73898c6141dd565b52613c7e888b6141dd565b50614133565b936141f1565b93613c1a565b93509150506060823d8211613ccb575b81613cad6060938361400f565b8101031261246b57815160208301516040909301519092918a613ba5565b3d9150613ca0565b602090604051613ce281613f8e565b5f81525f838201525f60408201525f60608201525f608082015282828801015201613a17565b60e036600319011261246b57613d1c614772565b335f52604760205260405f206005810160ff815460081c16613de95781546001600160a01b0319163317825560443560028301556064356003830155608435600483015560a4358015159081810361246b575060ff8019835416911617815560c4358015159081810361246b575061ff0082549160081b169061ff00191617905560018101613dac348254614133565b90557f8eef97fa43c3f8e5303ca9d5d55e788311d17d2d44058bfca6fd2ba3c6038db260405180612cc333946001600160401b0342169083614140565b63019b5d0960e71b5f5260045ffd5b3461246b575f36600319011261246b576041546040516001600160a01b039091168152602090f35b3461246b575f36600319011261246b576020603b54604051908152f35b3461246b57602036600319011261246b576001600160a01b03613e5e613ed6565b165f52604960205260405f208054611916613e896001840154935f9085613ea6575b60020154614133565b604051938493846040919493926060820195825260208201520152565b90506002670de0b6b3a7640000613ecd613ec7603e546003860154906140f5565b88614102565b04919050613e80565b600435906001600160a01b038216820361246b57565b602435906001600160a01b038216820361246b57565b604435906001600160a01b038216820361246b57565b9181601f8401121561246b578235916001600160401b03831161246b576020808501948460051b01011161246b57565b600435906001600160401b038216820361246b57565b604090600319011261246b576004356001600160401b038116810361246b579060243560ff8116810361246b5790565b60a081019081106001600160401b03821117613fa957604052565b634e487b7160e01b5f52604160045260245ffd5b604081019081106001600160401b03821117613fa957604052565b60e081019081106001600160401b03821117613fa957604052565b6102e081019081106001600160401b03821117613fa957604052565b90601f801991011681019081106001600160401b03821117613fa957604052565b6001600160401b038111613fa95760051b60200190565b6001600160401b038111613fa957601f01601f191660200190565b90602080835192838152019201905f5b81811061407f5750505090565b825180516001600160a01b031685526020908101518186015260409094019390920191600101614072565b805180835260209291819084018484015e5f828201840152601f01601f1916010190565b905f905b601982106140df57505050565b60208060019285518152019301910190916140d2565b919082039182116124ae57565b818102929181159184041417156124ae57565b811561411f570490565b634e487b7160e01b5f52601260045260245ffd5b919082018092116124ae57565b81546001600160a01b031681526001820154602082015260028201546040820152600382015460608201526004820154608082015260059091015460ff818116151560a084015260089190911c16151560c08201526001600160401b0390911660e08201526101000190565b91908110156138185760051b0190565b356001600160a01b038116810361246b5790565b8051156138185760200190565b80518210156138185760209160051b010190565b5f1981146124ae5760010190565b3d15614229573d9061421082614047565b9161421e604051938461400f565b82523d5f602084013e565b606090565b6040519061010082018281106001600160401b03821117613fa9576040525f60e0838281528260208201528260408201528260608201528260808201528260a08201528260c08201520152565b60198210156138185701905f90565b1561429157565b60405162461bcd60e51b81526020600482015260036024820152620cae8d60eb1b6044820152606490fd5b9081602091031261246b5751801515810361246b5790565b156142db57565b60405162461bcd60e51b81526020600482015260086024820152673a3930b739b332b960c11b6044820152606490fd5b1561431257565b60405162461bcd60e51b8152602060048201526013602482015272149bdd5b99081b9bdd08199a5b985b1a5e9959606a1b6044820152606490fd5b3033148015614561575b15614534576143646148b3565b60018060a01b0381165f52604760205260405f2090600582019060ff825460081c161561452557825461439f906001600160a01b03166149be565b6143a761422e565b6033546001600160401b038116825284546001600160a01b03166080830152925490929060ff16156145175760028401546040519160208301934285524460408501526001600160601b03199060601b1660608401526001600160401b0360c01b9060c01b166074830152607c820152607c8152614426609c8261400f565b519020925f915f5b60ff8116601981101561445f576001901b808716614453575b5060010160ff1661442e565b93909317926001614447565b5050939190918115614508575b50925b6144986144826020830195808752614a6e565b80604084015260038501548060c0850152614102565b926144ad6060830194808652603a5490614133565b9160016144c06004840194855490614133565b920180548381106144f9576144ee936144d8916140f5565b9055600160a0820152603a5460e0820152614af5565b549151925191929190565b630e83a11b60e21b5f5260045ffd5b60019150601990061b5f61446c565b50509160028201549261446f565b63b12b38eb60e01b5f5260045ffd5b60405162461bcd60e51b8152602060048201526005602482015264042c2eae8d60db1b6044820152606490fd5b505f516020615ee85f395f51905f52546001600160a01b03163314614357565b1561458857565b60405162461bcd60e51b8152602060048201526009602482015268546f6f206561726c7960b81b6044820152606490fd5b6042545f906001600160a01b0316330361467a57811561467657603b541561462957670de0b6b3a76400008202918204670de0b6b3a764000003614615575061460861461091603b5490614115565b603c54614133565b603c55565b634e487b7160e01b81526011600452602490fd5b506032546001600160a01b031690813b1561246b575f91602483926040519485938492630852cd8d60e31b845260048401525af180156124605761466a5750565b5f6146749161400f565b565b5050565b6360c4e54360e01b5f5260045ffd5b1561469057565b60405162461bcd60e51b815260206004820152600360248201526266656560e81b6044820152606490fd5b60ff1660ff81146124ae5760010190565b6001600160a01b0316801561472a575f516020615ee85f395f51905f5280546001600160a01b0319811683179091556001600160a01b03167f8be0079c531659141344cd1fd0a4f28419497f9722a3daafe3b4186f6b6457e05f80a3565b631e4fbdf760e01b5f525f60045260245ffd5b60405191905f835b6019821061475c575050506146746103208361400f565b6001602081928554815201930191019091614745565b60025f516020615f285f395f51905f52541461479b5760025f516020615f285f395f51905f5255565b633ee5aeb560e01b5f5260045ffd5b5f516020615ee85f395f51905f52546001600160a01b031633036147ca57565b63118cdaa760e01b5f523360045260245ffd5b6001600160a01b03165f8181526047602052604090206005810180549091600882901c60ff16614810575b505050505f90565b61483c614831611096600384015461482b6002860154614a6e565b90614102565b600483015490614133565b60018201541015614808577f8eef97fa43c3f8e5303ca9d5d55e788311d17d2d44058bfca6fd2ba3c6038db29261488b9261ff00191690556040519182916001600160401b0342169083614140565b0390a2600190565b906001600160401b03809116911601906001600160401b0382116124ae57565b6001600160401b03603354165f52604360205260405f206001600160401b03815460401c161561498d578054906001600160401b038260401c1643101580614977575b61467657600b019060ff825460a81c166149345760ff825460a01c1661492557631328d40b60e31b5f5260045ffd5b630776f80360e41b5f5260045ffd5b6001600160401b039150614959908263ffffffff60335460601c169160801c16614893565b16431061496857614674615bb4565b631328d40b60e31b5f5260045ffd5b506001600160401b038260801c164311156148f6565b50614674615bb4565b9067ffffffffffffffff60401b82549160401b169067ffffffffffffffff60401b1916179055565b60018060a01b0381165f526049602052600460405f20019081546001600160401b038082169160401c16811115614a6957805f52604360205260ff600b60405f20015460a81c1615614a6957805f52604460205260405f2060018060a01b0383165f5260205260405f205460ff811680918115614a5a575b50614a4657506146749250614eee565b909150614a51575050565b61467491614996565b60ff915060081c16155f614a36565b505050565b905f9180158015614ad0575b614ac1575f905b601960ff831610614a90575050565b600180821614614aaa575b600191820160ff16911c614a81565b926001614ab860ff926141f1565b94915050614a9b565b63bf3cad0b60e01b5f5260045ffd5b508060191c1515614a7a565b8054821015613818575f5260205f209060011b01905f90565b6001600160401b038151165f52604360205260405f209060ff60335460f01c16158015614e5d575b8015614e47575b61496857606081018051614b3d60028501918254614133565b905560e0820151614b5360058501918254614133565b90556001600160401b038251165f52604460205260405f20608083019060018060a01b0382511660018060a01b03165f5260205260405f209260018060a01b038251165f526049602052600460405f20019384546001600160401b038082169160401c168111614e1e57508351614bcf60018301918254614133565b9055805460ff8160081c1615614e0c575b505060c08101519160208201958651905f915b601960ff841610614c8857505050918160a080946001600160401b037f13d7440beb63bd461dfc418d23d1095bb97f3b693f75aff8d44d3f26ee923d1e97955116976001600160401b0389166001600160401b0319825416179055600180831b03905116975193519101511515916040519384526020840152604083015260608201526001600160401b0342166080820152a3565b600180821614614ca2575b600192830160ff16921c614bf3565b84516001600160401b03165f90815260456020908152604080832087516001600160a01b03168452825280832060ff8716845290915290208054614ac157614d0a84614d309289600d870191614cf8848461427b565b90549060031b1c60018201555561427b565b614d1a8983548360031b1c614133565b82545f1960039390931b92831b1916911b179055565b614d3d836026840161427b565b81548160031b1c90600182018092116124ae5782545f1960039290921b91821b191691901b1790556001600160401b038551165f52604a60205260405f2060ff84165f5260205260405f2060018060a01b038551169160405192614da084613fbd565b835260208301918883528054600160401b811015613fa957614dc791600182018155614adc565b614df957925183546001600160a01b0319166001600160a01b0391909116178355905160019290920191909155614c93565b634e487b7160e01b5f525f60045260245ffd5b61ff0019166101001790555f80614be0565b5f52604360205260ff600b60405f20015460a81c16156127d75763ceb3290760e01b5f5260045ffd5b506001600160401b03825460801c164311614b24565b506001600160401b03825460401c164310614b1d565b60039080546002820190815490603c54915f9282614ecc575b50505080614eb5575b50603c54905501805465ffffffffffff19164265ffffffffffff16179055565b614ec460018401918254614133565b90555f614e95565b670de0b6b3a76400009350614ee5929161482b916140f5565b045f8080614e8c565b906001600160401b03821690815f52604360205260405f20825f52604460205260405f2060018060a01b0383165f5260205260405f2090805460c01c8015159081615450575b50615420576002810154156153235760ff60068201541690845f52604560205260405f2060018060a01b0385165f5260205260405f2060ff83165f5260205260405f209283549283156152b757614f8e90600d840161427b565b90549060031b1c9485156127b95761ffff60335460e01c16612710614fb38287614102565b0490811590816152ae575b816152a4575b5061529c575b848111615295575b806151d7575b905f516020615f685f395f51905f5296615012614ffb87969594608099986140f5565b61249e8361500d8960038a0154614102565b614115565b95866151b1575b60028401615028888254614133565b9055835460ff191660011784556001600160a01b0383165f818152604960205260409020909b61505a91600401614996565b600c8501615069888254614133565b90555f90600b860180549160ff8360b01c168080916151a4575b1561511157505050506150a29061249e8361500d8960078a0154614102565b945b600a850154806150ea575b505050916150c2845f936150c795615d27565b615890565b60405191825260208201523360408201526001600160401b0342166060820152a3565b5f949661249e6150c29461500d6150c799979561510695614102565b9593819395506150af565b9893981580615196575b80615189575b61512e575b5050506150a4565b6001015461513c8482614133565b600989015491821015918261517f575b5050615159575b80615126565b6008870180545f9182905560ff60c01b19909316600160c01b1790915590965080615153565b1090505f8061514c565b5060088801541515615121565b5060ff8360c01c161561511b565b5060078901541515615083565b60018060a01b0383165f52604960205260405f206151d0888254614133565b9055615019565b603454909594939291906001600160a01b031615615269575f8080808960018060a01b03603454165af16152096141ff565b5015615238575f516020615f685f395f51905f5296615012614ffb6080985b9394959697985050509650614fd8565b60405162461bcd60e51b81526020600482015260096024820152686d696e65722066656560b81b6044820152606490fd5b5f516020615f685f395f51905f5296615012614ffb8861528d60809a603f54614133565b603f55615228565b5083614fd2565b506001614fca565b905015155f614fc4565b60019150614fbe565b50805460ff191660011790555050506001600160a01b03165f81815260496020526040902090926152ea91600401614996565b604080515f808252602082015233918101919091526001600160401b03421660608201525f516020615f685f395f51905f5290608090a3565b90915f925f5b601960ff8216106153df57505f6080936150c28694615381945f516020615f685f395f51905f52986153a5575b805460ff191660011790556001600160a01b0316808452604960205260408420909990600401614996565b6040519081525f60208201523360408201526001600160401b0342166060820152a3565b6001600160a01b038216855260496020526040852080546153c7908990614133565b9055600281016153d8888254614133565b9055615356565b93600161541860ff92885f52604560205260405f20838060a01b0387165f5260205260405f208489165f5260205260405f205490614133565b950116615329565b50805460ff191660011790556001600160a01b03165f81815260496020526040902090926152ea91600401614996565b905043115f614f34565b906001600160401b03821690815f52604360205260405f20825f52604460205260405f2060018060a01b0383165f5260205260405f2090805460c01c8015159081615886575b50615420576002810154156157b55760ff60068201541690845f52604560205260405f2060018060a01b0385165f5260205260405f2060ff83165f5260205260405f209283549283156152b7576154fa90600d840161427b565b90549060031b1c9485156127b95761ffff60335460e01c1661271061551f8287614102565b0490811590816157ac575b816157a2575b5061579a575b848111615793575b80615706575b905f516020615f685f395f51905f5296615567614ffb87969594608099986140f5565b95866156e0575b6002840161557d888254614133565b9055835460ff191660011784556001600160a01b0383165f818152604960205260409020909b6155af91600401614996565b600c85016155be888254614133565b90555f90600b860180549160ff8360b01c168080916156d3575b1561564057505050506155f79061249e8361500d8960078a0154614102565b945b600a85015480615618575b505050916150c2846001936150c795615d27565b6001949661249e6150c29461500d6150c799979561563595614102565b959381939550615604565b98939815806156c5575b806156b8575b61565d575b5050506155f9565b6001015461566b8482614133565b60098901549182101591826156ae575b5050615688575b80615655565b6008870180545f9182905560ff60c01b19909316600160c01b1790915590965080615682565b1090505f8061567b565b5060088801541515615650565b5060ff8360c01c161561564a565b50600789015415156155d8565b60018060a01b0383165f52604960205260405f206156ff888254614133565b905561556e565b603454909594939291906001600160a01b031615615767575f8080808960018060a01b03603454165af16157386141ff565b5015615238575f516020615f685f395f51905f5296615567614ffb6080985b9394959697985050509650615544565b5f516020615f685f395f51905f5296615567614ffb8861578b60809a603f54614133565b603f55615757565b508361553e565b506001615536565b905015155f615530565b6001915061552a565b90915f925f5b601960ff821610615845575060016080936150c28694615381945f516020615f685f395f51905f529861580f575b8460ff19825416179055838060a01b031698895f526049602052600460405f2001614996565b848060a01b0382165f52604960205260405f2061582d888254614133565b90556002810161583e888254614133565b90556157e9565b93600161587e60ff92885f52604560205260405f20838060a01b0387165f5260205260405f208489165f5260205260405f205490614133565b9501166157bb565b905043115f6154a0565b901561592957600581018054918215159081615912575b816158fa575b506158b6575050565b603a54908282116158f2575b816158cc57505050565b5f828194926158dd839584956140f5565b9055335af16158ea6141ff565b501561295757565b8291506158c2565b6001600160401b03915060010154164310155f6158ad565b60018101546001600160401b0316151591506158a7565b50565b60018101546003820191825491603e54925f938261596f575b50505081615957575b5050603e549055565b60026159669101918254614133565b90555f8061594e565b670de0b6b3a7640000939450615989929161482b916140f5565b04905f8080615945565b6001600160401b03603354165f52604360205260405f2090600282015415615b9a57600b8201805460ff60a01b1916600160a01b17905560375460385460395460405191929190602082016001600160401b03811183821017613fa9576040525f82526040519163125fa26760e31b6020840152511515602483015260248252615a1e60448361400f565b6040519360c085018581106001600160401b03821117613fa95761ffff956020955f926040528152858101928352615ad76040820195888616875263ffffffff606084019660101c16865263ffffffff608084016002815260a085019283528160018060a01b0360415416986040519c8d9b8c9a8b99634d8e1c2f60e11b8b528f60048c01525160248b01525160448a01525116606488015251166084860152511660a48401525160c060c484015260e48301906140aa565b03925af1908115612460575f91615b68575b507f9153817ff8f2c303ed190879da7ba58c0608016146e69f34fd7e5b006e560cf6615b636001600160401b03839581815416855f5260466020528260405f20911683198254161790555416926040519182916001600160401b03421690839092916001600160401b036020916040840195845216910152565b0390a2565b90506020813d602011615b92575b81615b836020938361400f565b8101031261246b57515f615ae9565b3d9150615b76565b600b909101805460ff60a81b1916600160a81b1790555f90565b60335460016001600160401b038216016001600160401b0381116124ae576001600160401b031680916001600160401b03191617603355805f5260436020527f94bff5a899e601756cf70b973df79e33ddc4794997b73d67d87e831845ba2c22606060405f20836001600160401b0319825416178155615c3d6001600160401b03431682614996565b80546001600160401b0360801b615c6b63ffffffff60335460401c166001600160401b038460401c16614893565b60801b16906001600160401b0360801b19161781555f60028201555f60038201555f60048201555f60058201555f60078201555f60088201555f60098201555f600a820155600b81016001600160601b0360a01b815416815564ffffffffff60a01b1981541690555f600c82015560018060c01b038154168155600181016001600160401b03198154169055546001600160401b0360405191818160401c16835260801c1660208201526001600160401b0342166040820152a2565b908215614a695760038101615d4284825480615d9657614133565b90556005603e54910155615d5882603d54614133565b603d556001600160a01b03165f90815260496020526040902090615d7b8261592c565b615d8a60018301918254614133565b90556003603e54910155565b670de0b6b3a7640000615db9615db3603e546005890154906140f5565b83614102565b04615dc960048701918254614133565b9055614133565b60ff5f516020615f485f395f51905f525460401c1615615dec57565b631afcd79f60e31b5f5260045ffd5b6001600160401b03165f52604a60205260ff60405f2091165f5260205260405f20905f915f918154935b848410615e355750505050505f90565b615e4d6001615e448686614adc565b50015482614133565b9082101580615e80575b615e6657600190930192615e25565b5050615e729250614adc565b50546001600160a01b031690565b50808210615e57565b90615ead5750805115615e9e57602081519101fd5b63d6bda27560e01b5f5260045ffd5b81511580615ede575b615ebe575090565b639996b31560e01b5f9081526001600160a01b0391909116600452602490fd5b50803b15615eb656fe9016d09d72d40fdae2fd8ceac6b6234c7706214fd39c1cd1e609a0528c199300360894a13ba1a3210667c828492db98dca3e2076cc3735a920a3ca505d382bbc9b779b17422d0df92223018b32b4d1fa46e071723d6817e2486d003becc55f00f0c57e16840df040f15088dc2f81fe391c3923bec73e23a9662efc9c229c6a00eea8330ac3d746dfcc2004c5a1ab2beb43845d77de0081c4412d539aea1204e1a2646970667358221220eb6b3c47dd81e3250752b0a19c0f259f6b04c3155bad9bd97fbd0e39b696a60764736f6c634300081e0033f0c57e16840df040f15088dc2f81fe391c3923bec73e23a9662efc9c229c6a00",
        "linkReferences": {}
    },
    "methodIdentifiers": {
        "ORI_TOKEN()": "937a0077",
        "UPGRADE_INTERFACE_VERSION()": "ad3cb1cc",
        "_executeAutomationInternal(address)": "7655bf50",
        "adminMint(address,uint256)": "e58306f9",
        "automations(address)": "b9ad4357",
        "batchCheckpoint(uint64,address[])": "6c6804a7",
        "board()": "7cd3229a",
        "checkpoint(uint64,address)": "6c718385",
        "claimAll(address)": "77329f35",
        "claimEth(address)": "228f3845",
        "claimStakeYield(address)": "66c90c5a",
        "config()": "79502c55",
        "coordinator()": "0a009097",
        "deductVaultEth(uint256)": "a488dcdf",
        "deployManual(uint256,uint256)": "1325a6d6",
        "depositStake(uint256)": "cb82cc8f",
        "distributeStakeRewards(uint256)": "940d1f2f",
        "emergencyResetRound(uint64)": "cb70ffef",
        "executeAutomation(address)": "db326efc",
        "executeAutomationBatch(address[])": "0f3e2f51",
        "getAutomation(address)": "84bf220a",
        "getBuryAuthority()": "e40fd076",
        "getDeployedPerSquare(uint64,uint8)": "1734800c",
        "getLastRoundWinners()": "6c46376d",
        "getMinerRoundInfo(uint64,address)": "8fd2040d",
        "getMinerSquares(uint64,address)": "db834306",
        "getRoundData(uint64)": "f921e65c",
        "getSquareParticipants(uint64,uint8)": "6db8b42d",
        "getSwapProgram()": "b762e343",
        "getTotalStaked()": "0917e776",
        "getTreasuryState()": "23a8bdca",
        "getUserRewards(address)": "078b0fb7",
        "getVaultEth()": "b03fd745",
        "getWinningSquareParticipants(uint64)": "a97958c1",
        "initialize((address,address,address,address,address,bytes32,uint256,uint16,uint32,uint32,uint32,uint32,uint32,uint16,uint16,uint256))": "deadd94b",
        "owner()": "8da5cb5b",
        "proxiableUUID()": "52d1902d",
        "rawFulfillRandomWords(uint256,uint256[])": "1fe543e3",
        "reclaimExpiredRewards(uint64)": "7b3f039c",
        "registerAutomation((address,uint256,uint256,uint256,uint256,bool,bool))": "0c34d7fa",
        "renounceOwnership()": "715018a6",
        "resetRound()": "84d452ff",
        "roundByRequest(uint256)": "41a027aa",
        "roundWindow(uint64)": "fa4d3ab9",
        "rounds(uint64)": "bc3ac875",
        "setCheckpointFee(uint256)": "2e1c5227",
        "setConfig(address,address,address)": "3141e25b",
        "setRoundParams(uint32,uint32,uint32,uint16,uint16)": "9767bae6",
        "setStakingContract(address)": "9dd373b9",
        "setVrfConfig(bytes32,uint64,uint16,uint32)": "805ccb3e",
        "stakes(address)": "16934fc4",
        "stakingContract()": "ee99205c",
        "startGame()": "d65ab5f2",
        "stopAutomation(address)": "edb39d70",
        "transferOwnership(address)": "f2fde38b",
        "treasury()": "61d027b3",
        "upgradeToAndCall(address,bytes)": "4f1ef286",
        "withdrawStake(uint256,address)": "676a6300",
        "wrap(address,uint256)": "bf376c7a"
    },
    "id": 43
}