{
    "abi": [
        {
            "type": "constructor",
            "inputs": [
                {
                    "name": "_protocol",
                    "type": "address",
                    "internalType": "address"
                }
            ],
            "stateMutability": "nonpayable"
        },
        {
            "type": "function",
            "name": "getAutomation",
            "inputs": [
                {
                    "name": "user",
                    "type": "address",
                    "internalType": "address"
                }
            ],
            "outputs": [
                {
                    "name": "",
                    "type": "tuple",
                    "internalType": "struct OreProtocol.Automation",
                    "components": [
                        {
                            "name": "owner",
                            "type": "address",
                            "internalType": "address"
                        },
                        {
                            "name": "balance",
                            "type": "uint256",
                            "internalType": "uint256"
                        },
                        {
                            "name": "mask",
                            "type": "uint256",
                            "internalType": "uint256"
                        },
                        {
                            "name": "amountPerSquare",
                            "type": "uint256",
                            "internalType": "uint256"
                        },
                        {
                            "name": "randomizeMask",
                            "type": "bool",
                            "internalType": "bool"
                        },
                        {
                            "name": "active",
                            "type": "bool",
                            "internalType": "bool"
                        }
                    ]
                }
            ],
            "stateMutability": "view"
        },
        {
            "type": "function",
            "name": "getCurrentRoundInfo",
            "inputs": [],
            "outputs": [
                {
                    "name": "roundId",
                    "type": "uint64",
                    "internalType": "uint64"
                },
                {
                    "name": "startBlock",
                    "type": "uint64",
                    "internalType": "uint64"
                },
                {
                    "name": "endBlock",
                    "type": "uint64",
                    "internalType": "uint64"
                },
                {
                    "name": "totalDeployed",
                    "type": "uint256",
                    "internalType": "uint256"
                },
                {
                    "name": "canDeploy",
                    "type": "bool",
                    "internalType": "bool"
                },
                {
                    "name": "canReset",
                    "type": "bool",
                    "internalType": "bool"
                },
                {
                    "name": "randomnessRequested",
                    "type": "bool",
                    "internalType": "bool"
                }
            ],
            "stateMutability": "view"
        },
        {
            "type": "function",
            "name": "getCurrentRoundSquareStats",
            "inputs": [],
            "outputs": [
                {
                    "name": "squareAmounts",
                    "type": "uint256[25]",
                    "internalType": "uint256[25]"
                },
                {
                    "name": "totalDeployed",
                    "type": "uint256",
                    "internalType": "uint256"
                }
            ],
            "stateMutability": "view"
        },
        {
            "type": "function",
            "name": "getCurrentRoundSquares",
            "inputs": [
                {
                    "name": "miner",
                    "type": "address",
                    "internalType": "address"
                }
            ],
            "outputs": [
                {
                    "name": "mask",
                    "type": "uint256",
                    "internalType": "uint256"
                },
                {
                    "name": "squares",
                    "type": "uint8[]",
                    "internalType": "uint8[]"
                },
                {
                    "name": "amounts",
                    "type": "uint256[]",
                    "internalType": "uint256[]"
                }
            ],
            "stateMutability": "view"
        },
        {
            "type": "function",
            "name": "getEthReward",
            "inputs": [
                {
                    "name": "roundId",
                    "type": "uint64",
                    "internalType": "uint64"
                },
                {
                    "name": "miner",
                    "type": "address",
                    "internalType": "address"
                }
            ],
            "outputs": [
                {
                    "name": "",
                    "type": "uint256",
                    "internalType": "uint256"
                }
            ],
            "stateMutability": "view"
        },
        {
            "type": "function",
            "name": "getEthRewards",
            "inputs": [
                {
                    "name": "roundIds",
                    "type": "uint64[]",
                    "internalType": "uint64[]"
                },
                {
                    "name": "miner",
                    "type": "address",
                    "internalType": "address"
                }
            ],
            "outputs": [
                {
                    "name": "totalReward",
                    "type": "uint256",
                    "internalType": "uint256"
                },
                {
                    "name": "rewards",
                    "type": "uint256[]",
                    "internalType": "uint256[]"
                }
            ],
            "stateMutability": "view"
        },
        {
            "type": "function",
            "name": "getGameState",
            "inputs": [],
            "outputs": [
                {
                    "name": "state",
                    "type": "uint8",
                    "internalType": "enum OreProtocolView.GameState"
                },
                {
                    "name": "blocksRemaining",
                    "type": "uint256",
                    "internalType": "uint256"
                }
            ],
            "stateMutability": "view"
        },
        {
            "type": "function",
            "name": "getLastRoundWinners",
            "inputs": [],
            "outputs": [
                {
                    "name": "roundId",
                    "type": "uint64",
                    "internalType": "uint64"
                },
                {
                    "name": "winningSquare",
                    "type": "uint8",
                    "internalType": "uint8"
                },
                {
                    "name": "participantList",
                    "type": "tuple[]",
                    "internalType": "struct OreProtocol.SquareParticipant[]",
                    "components": [
                        {
                            "name": "participant",
                            "type": "address",
                            "internalType": "address"
                        },
                        {
                            "name": "amount",
                            "type": "uint256",
                            "internalType": "uint256"
                        }
                    ]
                },
                {
                    "name": "totalDeployed",
                    "type": "uint256",
                    "internalType": "uint256"
                }
            ],
            "stateMutability": "view"
        },
        {
            "type": "function",
            "name": "getMinerRoundInfo",
            "inputs": [
                {
                    "name": "roundId",
                    "type": "uint64",
                    "internalType": "uint64"
                },
                {
                    "name": "miner",
                    "type": "address",
                    "internalType": "address"
                }
            ],
            "outputs": [
                {
                    "name": "checkpointed",
                    "type": "bool",
                    "internalType": "bool"
                },
                {
                    "name": "hasParticipation",
                    "type": "bool",
                    "internalType": "bool"
                },
                {
                    "name": "totalDeployed",
                    "type": "uint256",
                    "internalType": "uint256"
                },
                {
                    "name": "ethReward",
                    "type": "uint256",
                    "internalType": "uint256"
                },
                {
                    "name": "oreShares",
                    "type": "uint256",
                    "internalType": "uint256"
                },
                {
                    "name": "oreBonus",
                    "type": "uint256",
                    "internalType": "uint256"
                }
            ],
            "stateMutability": "view"
        },
        {
            "type": "function",
            "name": "getMinerSquares",
            "inputs": [
                {
                    "name": "roundId",
                    "type": "uint64",
                    "internalType": "uint64"
                },
                {
                    "name": "miner",
                    "type": "address",
                    "internalType": "address"
                }
            ],
            "outputs": [
                {
                    "name": "mask",
                    "type": "uint256",
                    "internalType": "uint256"
                },
                {
                    "name": "squares",
                    "type": "uint8[]",
                    "internalType": "uint8[]"
                },
                {
                    "name": "amounts",
                    "type": "uint256[]",
                    "internalType": "uint256[]"
                }
            ],
            "stateMutability": "view"
        },
        {
            "type": "function",
            "name": "getRoundData",
            "inputs": [
                {
                    "name": "roundId",
                    "type": "uint64",
                    "internalType": "uint64"
                }
            ],
            "outputs": [
                {
                    "name": "",
                    "type": "tuple",
                    "internalType": "struct OreProtocol.RoundData",
                    "components": [
                        {
                            "name": "id",
                            "type": "uint64",
                            "internalType": "uint64"
                        },
                        {
                            "name": "startBlock",
                            "type": "uint64",
                            "internalType": "uint64"
                        },
                        {
                            "name": "endBlock",
                            "type": "uint64",
                            "internalType": "uint64"
                        },
                        {
                            "name": "intermissionEndBlock",
                            "type": "uint64",
                            "internalType": "uint64"
                        },
                        {
                            "name": "totalDeployed",
                            "type": "uint256",
                            "internalType": "uint256"
                        },
                        {
                            "name": "winningsPool",
                            "type": "uint256",
                            "internalType": "uint256"
                        },
                        {
                            "name": "vaultShare",
                            "type": "uint256",
                            "internalType": "uint256"
                        },
                        {
                            "name": "winningSquare",
                            "type": "uint8",
                            "internalType": "uint8"
                        },
                        {
                            "name": "oreReward",
                            "type": "uint256",
                            "internalType": "uint256"
                        },
                        {
                            "name": "topMinerReward",
                            "type": "uint256",
                            "internalType": "uint256"
                        },
                        {
                            "name": "topMinerSample",
                            "type": "uint256",
                            "internalType": "uint256"
                        },
                        {
                            "name": "motherlodePayout",
                            "type": "uint256",
                            "internalType": "uint256"
                        },
                        {
                            "name": "topMiner",
                            "type": "address",
                            "internalType": "address"
                        },
                        {
                            "name": "randomnessRequested",
                            "type": "bool",
                            "internalType": "bool"
                        },
                        {
                            "name": "randomnessFulfilled",
                            "type": "bool",
                            "internalType": "bool"
                        },
                        {
                            "name": "splitReward",
                            "type": "bool",
                            "internalType": "bool"
                        },
                        {
                            "name": "motherlode",
                            "type": "bool",
                            "internalType": "bool"
                        },
                        {
                            "name": "topMinerClaimed",
                            "type": "bool",
                            "internalType": "bool"
                        },
                        {
                            "name": "claimedRewards",
                            "type": "uint256",
                            "internalType": "uint256"
                        },
                        {
                            "name": "deployedPerSquare",
                            "type": "uint256[25]",
                            "internalType": "uint256[25]"
                        },
                        {
                            "name": "minersPerSquare",
                            "type": "uint256[25]",
                            "internalType": "uint256[25]"
                        }
                    ]
                }
            ],
            "stateMutability": "view"
        },
        {
            "type": "function",
            "name": "getRoundSquareStats",
            "inputs": [
                {
                    "name": "roundId",
                    "type": "uint64",
                    "internalType": "uint64"
                }
            ],
            "outputs": [
                {
                    "name": "squareAmounts",
                    "type": "uint256[25]",
                    "internalType": "uint256[25]"
                },
                {
                    "name": "totalDeployed",
                    "type": "uint256",
                    "internalType": "uint256"
                }
            ],
            "stateMutability": "view"
        },
        {
            "type": "function",
            "name": "getSquareParticipants",
            "inputs": [
                {
                    "name": "roundId",
                    "type": "uint64",
                    "internalType": "uint64"
                },
                {
                    "name": "squareId",
                    "type": "uint8",
                    "internalType": "uint8"
                }
            ],
            "outputs": [
                {
                    "name": "participantList",
                    "type": "tuple[]",
                    "internalType": "struct OreProtocol.SquareParticipant[]",
                    "components": [
                        {
                            "name": "participant",
                            "type": "address",
                            "internalType": "address"
                        },
                        {
                            "name": "amount",
                            "type": "uint256",
                            "internalType": "uint256"
                        }
                    ]
                },
                {
                    "name": "totalDeployed",
                    "type": "uint256",
                    "internalType": "uint256"
                }
            ],
            "stateMutability": "view"
        },
        {
            "type": "function",
            "name": "getStakeInfo",
            "inputs": [
                {
                    "name": "user",
                    "type": "address",
                    "internalType": "address"
                }
            ],
            "outputs": [
                {
                    "name": "stakedAmount",
                    "type": "uint256",
                    "internalType": "uint256"
                },
                {
                    "name": "pendingRewards",
                    "type": "uint256",
                    "internalType": "uint256"
                },
                {
                    "name": "rewardDebt",
                    "type": "uint256",
                    "internalType": "uint256"
                },
                {
                    "name": "updatedAt",
                    "type": "uint48",
                    "internalType": "uint48"
                }
            ],
            "stateMutability": "view"
        },
        {
            "type": "function",
            "name": "getTreasuryState",
            "inputs": [],
            "outputs": [
                {
                    "name": "totalStaked",
                    "type": "uint256",
                    "internalType": "uint256"
                },
                {
                    "name": "stakeRewardsFactor",
                    "type": "uint256",
                    "internalType": "uint256"
                },
                {
                    "name": "totalOreShares",
                    "type": "uint256",
                    "internalType": "uint256"
                },
                {
                    "name": "minerRewardsFactor",
                    "type": "uint256",
                    "internalType": "uint256"
                },
                {
                    "name": "vaultEth",
                    "type": "uint256",
                    "internalType": "uint256"
                },
                {
                    "name": "motherlodeOre",
                    "type": "uint256",
                    "internalType": "uint256"
                }
            ],
            "stateMutability": "view"
        },
        {
            "type": "function",
            "name": "getUserRewards",
            "inputs": [
                {
                    "name": "miner",
                    "type": "address",
                    "internalType": "address"
                }
            ],
            "outputs": [
                {
                    "name": "ethAmount",
                    "type": "uint256",
                    "internalType": "uint256"
                },
                {
                    "name": "oriDirect",
                    "type": "uint256",
                    "internalType": "uint256"
                },
                {
                    "name": "oriRefined",
                    "type": "uint256",
                    "internalType": "uint256"
                }
            ],
            "stateMutability": "view"
        },
        {
            "type": "function",
            "name": "getWinningSquareParticipants",
            "inputs": [
                {
                    "name": "roundId",
                    "type": "uint64",
                    "internalType": "uint64"
                }
            ],
            "outputs": [
                {
                    "name": "winningSquare",
                    "type": "uint8",
                    "internalType": "uint8"
                },
                {
                    "name": "participantList",
                    "type": "tuple[]",
                    "internalType": "struct OreProtocol.SquareParticipant[]",
                    "components": [
                        {
                            "name": "participant",
                            "type": "address",
                            "internalType": "address"
                        },
                        {
                            "name": "amount",
                            "type": "uint256",
                            "internalType": "uint256"
                        }
                    ]
                },
                {
                    "name": "totalDeployed",
                    "type": "uint256",
                    "internalType": "uint256"
                }
            ],
            "stateMutability": "view"
        },
        {
            "type": "function",
            "name": "protocol",
            "inputs": [],
            "outputs": [
                {
                    "name": "",
                    "type": "address",
                    "internalType": "contract OreProtocol"
                }
            ],
            "stateMutability": "view"
        },
        {
            "type": "function",
            "name": "roundWindow",
            "inputs": [
                {
                    "name": "roundId",
                    "type": "uint64",
                    "internalType": "uint64"
                }
            ],
            "outputs": [
                {
                    "name": "startBlock",
                    "type": "uint64",
                    "internalType": "uint64"
                },
                {
                    "name": "endBlock",
                    "type": "uint64",
                    "internalType": "uint64"
                }
            ],
            "stateMutability": "view"
        },
        {
            "type": "function",
            "name": "treasuryVault",
            "inputs": [],
            "outputs": [
                {
                    "name": "",
                    "type": "uint256",
                    "internalType": "uint256"
                }
            ],
            "stateMutability": "view"
        },
        {
            "type": "function",
            "name": "verifyBalance",
            "inputs": [],
            "outputs": [
                {
                    "name": "isBalanced",
                    "type": "bool",
                    "internalType": "bool"
                },
                {
                    "name": "diff",
                    "type": "int256",
                    "internalType": "int256"
                },
                {
                    "name": "contractBalance",
                    "type": "uint256",
                    "internalType": "uint256"
                },
                {
                    "name": "expectedBalance",
                    "type": "uint256",
                    "internalType": "uint256"
                }
            ],
            "stateMutability": "view"
        }
    ],
    "bytecode": {
        "object": "0x60a0346100f857601f611f3e38819003918201601f19168301916001600160401b038311848410176100fc578084926020946040528339810103126100f857516001600160a01b038116908190036100f857608052604051611e2d90816101118239608051818181610142015281816102d1015281816104a00152818161055d01528181610610015281816107f4015281816108fe015281816109a201528181610a9b01528181610ba801528181610ccb01528181610d7001528181610e0e01528181610f2e015281816110d8015281816111d50152818161129d015281816113bf0152818161148a015281816119430152611c960152f35b5f80fd5b634e487b7160e01b5f52604160045260245ffdfe6080806040526004361015610012575f80fd5b5f3560e01c908163078b0fb71461144b5750806323a8bdca1461139a57806325452dd0146113795780636c46376d146112795780636db8b42d14611185578063703a4b04146110b0578063747dff4214610f0f57806384bf220a14610d9f5780638ce7442614610d5b5780638fd2040d14610ca95780639318992b14610b21578063a30988e214610a63578063a97958c114610965578063af8b1c6f146108d9578063b00328e5146107d5578063b7d0628b14610790578063c3453153146105d7578063db83430614610518578063ef84da121461045a578063f921e65c146101db5763fa4d3ab914610103575f80fd5b346101d75760203660031901126101d75761011c61153f565b604051633e48799760e21b81526001600160401b0390911660048201526108a0816024817f00000000000000000000000000000000000000000000000000000000000000006001600160a01b03165afa80156101cc576040915f9161019d575b506020818101519183015183515f196001861b019384168152921690820152f35b6101bf91506108a03d81116101c5575b6101b781836116d1565b8101906117ac565b5f61017c565b503d6101ad565b6040513d5f823e3d90fd5b5f80fd5b346101d75760203660031901126101d7576101f461153f565b604051610200816116b5565b5f81525f60208201525f60408201525f60608201525f60808201525f60a08201525f60c08201525f60e08201525f6101008201525f6101208201525f6101408201525f6101608201525f6101808201525f6101a08201525f6101c08201525f6101e08201525f6102008201525f6102208201525f6102408201526102806103209160405161028e84826116d1565b83368237610260820152604051926102a681856116d1565b3684370152604051633e48799760e21b81526001600160401b0390911660048201526108a0816024817f00000000000000000000000000000000000000000000000000000000000000006001600160a01b03165afa80156101cc576108a0915f9161043d575b5061043b6102806040519260018060401b03815116845260018060401b03602082015116602085015260018060401b03604082015116604085015260018060401b0360608201511660608501526080810151608085015260a081015160a085015260c081015160c085015260ff60e08201511660e085015261010081015161010085015261012081015161012085015261014081015161014085015261016081015161016085015260018060a01b03610180820151166101808501526101a081015115156101a08501526101c081015115156101c08501526101e081015115156101e08501526102008101511515610200850152610220810151151561022085015261024081015161024085015261042e61026082015161026086019061165f565b015161058083019061165f565bf35b6104549150823d81116101c5576101b781836116d1565b8261030c565b346101d75760403660031901126101d75761049c60c061047861153f565b610480611529565b604051638fd2040d60e01b815293849283929060048401611bd7565b03817f00000000000000000000000000000000000000000000000000000000000000006001600160a01b03165afa80156101cc576020915f916104e3575b50604051908152f35b610505915060c03d60c011610511575b6104fd81836116d1565b810190611bfa565b505050915050826104da565b503d6104f3565b346101d75760403660031901126101d7576105595f61053561153f565b61053d611529565b604051636dc1a18360e11b815293849283929060048401611bd7565b03817f00000000000000000000000000000000000000000000000000000000000000006001600160a01b03165afa80156101cc575f905f925f916105ad575b506105a99060405193849384611603565b0390f35b90506105a992506105d091503d805f833e6105c881836116d1565b810190611adb565b9092610598565b346101d75760203660031901126101d7576105f0611513565b6040516305a4d3f160e21b81526001600160a01b039182166004820152907f000000000000000000000000000000000000000000000000000000000000000016608082602481845afa9182156101cc575f915f905f925f95610735575b5081841591821561067e575b60808665ffffffffffff89888860405194855260208501526040840152166060820152f35b600491949296935060c090604051928380926311d45ee560e11b82525afa9081156101cc576106b69183915f91610700575b50611c43565b94858502958587041417156106ec576106e365ffffffffffff93670de0b6b3a76400006080970490611c36565b91948193610659565b634e487b7160e01b5f52601160045260245ffd5b610722915060c03d60c01161072e575b61071a81836116d1565b8101906116f4565b505050509050886106b0565b503d610710565b9350935050506080813d608011610788575b81610754608093836116d1565b810103126101d7578051602082015191606060408201519101519165ffffffffffff831683036101d757929091938561064d565b3d9150610747565b346101d7575f3660031901126101d7576107a8611c87565b6040519060058310156107c15760409282526020820152f35b634e487b7160e01b5f52602160045260245ffd5b346101d7575f3660031901126101d7576040516311d45ee560e11b81527f00000000000000000000000000000000000000000000000000000000000000006001600160a01b03168031919060c090829060049082905afa9081156101cc575f916108b4575b5080821061087f57906080916001916108538282611c43565b6108666001600160ff1b03821115611c50565b6040519315158452602084015260408301526060820152f35b5f9061088b8382611c43565b9261089f6001600160ff1b03851115611c50565b600160ff1b84146106ec576080935f03610866565b6108cd915060c03d60c01161072e5761071a81836116d1565b5093505050508261083a565b346101d7575f3660031901126101d7576040516311d45ee560e11b815260c0816004817f00000000000000000000000000000000000000000000000000000000000000006001600160a01b03165afa80156101cc576020915f916109405750604051908152f35b610959915060c03d60c01161072e5761071a81836116d1565b509350505050826104da565b346101d75760203660031901126101d75761097e61153f565b60405163a97958c160e01b81526001600160401b0390911660048201525f816024817f00000000000000000000000000000000000000000000000000000000000000006001600160a01b03165afa80156101cc575f905f925f91610a08575b506109fe60ff93604051948594168452606060208501526060840190611588565b9060408301520390f35b925050503d805f833e610a1b81836116d1565b8101906060818303126101d757610a3181611736565b60208201516001600160401b0381116101d7576040610a5760ff956109fe9386016119c0565b930151919293506109dd565b346101d7575f3660031901126101d757610320604051610a8382826116d1565b369037604051633e69914d60e11b815260e0816004817f00000000000000000000000000000000000000000000000000000000000000006001600160a01b03165afa80156101cc57610adc915f91610aec575b5061190a565b906105a960405192839283611555565b610b0e915060e03d60e011610b1a575b610b0681836116d1565b810190611a7a565b50505050505082610ad6565b503d610afc565b346101d75760403660031901126101d7576004356001600160401b0381116101d757366023820112156101d75760048101356001600160401b0381116101d7573660248260051b840101116101d757610b78611529565b5f610b82836119a9565b91610b9060405193846116d1565b838352601f19610b9f856119a9565b013660208501377f00000000000000000000000000000000000000000000000000000000000000006001600160a01b0316915f91905b85831015610c8b57600583901b878101602401356001600160401b03811681036101d75760c084610c1b926040519384928392638fd2040d60e01b845260048401611bd7565b0381895afa9081156101cc575f91610c67575b508651851015610c5357600192816020610c4b948a010152611c36565b920191610bd5565b634e487b7160e01b5f52603260045260245ffd5b610c7f915060c03d8111610511576104fd81836116d1565b50505091505089610c2e565b84906105a960405192839283526040602084015260408301906115d0565b346101d75760403660031901126101d757610cc760c061047861153f565b03817f00000000000000000000000000000000000000000000000000000000000000006001600160a01b03165afa9081156101cc5760c0915f915f5f5f915f935f95610d34575b5060405195151586521515602086015260408501526060840152608083015260a0820152f35b945050505050610d519150823d8411610511576104fd81836116d1565b9390929087610d0e565b346101d7575f3660031901126101d7576040517f00000000000000000000000000000000000000000000000000000000000000006001600160a01b03168152602090f35b346101d75760203660031901126101d757610db8611513565b5f60a0604051610dc781611686565b82815282602082015282604082015282606082015282608082015201526040519063425f910560e11b825260018060a01b0316600482015260c08160248160018060a01b037f0000000000000000000000000000000000000000000000000000000000000000165afa80156101cc575f90610e86575b60c09060a060405191600180831b0381511683526020810151602084015260408101516040840152606081015160608401526080810151151560808401520151151560a0820152f35b5060c0813d60c011610f07575b81610ea060c093836116d1565b810103126101d75760c090610efd60a060405192610ebd84611686565b610ec681611744565b8452602081015160208501526040810151604085015260608101516060850152610ef260808201611758565b608085015201611758565b60a0820152610e3d565b3d9150610e93565b346101d7575f3660031901126101d757604051633e69914d60e11b81527f00000000000000000000000000000000000000000000000000000000000000006001600160a01b031660e082600481845afa9182156101cc576024926108a0915f9161108b575b5060405193848092633e48799760e21b825260018060401b0316948560048301525afa9182156101cc575f9261106a575b50602082015160408381015160808501516101a090950151825163b7d0628b60e01b81526001600160401b0392831696911515949092169282600481305afa9182156101cc575f9261102d575b5060058210156107c15760e0956002936040519687526020870152604086015260608501526001811460808501521460a083015260c0820152f35b9091506040813d604011611062575b81611049604093836116d1565b810103126101d7575160058110156101d7579086610ff2565b3d915061103c565b6110849192506108a03d81116101c5576101b781836116d1565b9082610fa5565b6110a4915060e03d60e011610b1a57610b0681836116d1565b50505050505084610f74565b346101d75760203660031901126101d7576110c9611513565b604051633e69914d60e11b81527f00000000000000000000000000000000000000000000000000000000000000006001600160a01b03169160e082600481865afa9283156101cc5761113b935f938491611160575b50604051809581948293636dc1a18360e11b845260048401611bd7565b03915afa80156101cc575f905f925f916105ad57506105a99060405193849384611603565b611179915060e03d60e011610b1a57610b0681836116d1565b5050505050508561111e565b346101d75760403660031901126101d75761119e61153f565b60243560ff81168091036101d757604051636db8b42d60e01b81526001600160401b03909216600483015260248201525f816044817f00000000000000000000000000000000000000000000000000000000000000006001600160a01b03165afa80156101cc575f905f90611231575b6112279250604051928392604084526040840190611588565b9060208301520390f35b50503d805f833e61124281836116d1565b8101906040818303126101d7578051916001600160401b0383116101d7576112716020916112279484016119c0565b91015161120e565b346101d7575f3660031901126101d757604051636c46376d60e01b81525f816004817f00000000000000000000000000000000000000000000000000000000000000006001600160a01b03165afa80156101cc575f905f925f905f92611312575b506113089060ff60405195869560018060401b03168652166020850152608060408501526080840190611588565b9060608301520390f35b93505050503d805f833e61132681836116d1565b81016080828203126101d75761133b82611722565b61134760208401611736565b604084015190926001600160401b0382116101d75761136d6060916113089387016119c0565b940151919293906112da565b346101d75760203660031901126101d757610adc61139561153f565b61190a565b346101d7575f3660031901126101d7576040516311d45ee560e11b815260c0816004817f00000000000000000000000000000000000000000000000000000000000000006001600160a01b03165afa9081156101cc5760c0915f915f5f5f915f935f95611424575b50604051958652602086015260408501526060840152608083015260a0820152f35b9450505050506114419150823d841161072e5761071a81836116d1565b9390929087611402565b346101d75760203660031901126101d757611464611513565b63078b0fb760e01b82526001600160a01b039081166004830152606090829060249082907f0000000000000000000000000000000000000000000000000000000000000000165afa80156101cc575f905f5f916114d2575b6060935060405192835260208301526040820152f35b5050506060813d60601161150b575b816114ee606093836116d1565b810103126101d757805160208201516040909201516060926114bc565b3d91506114e1565b600435906001600160a01b03821682036101d757565b602435906001600160a01b03821682036101d757565b600435906001600160401b03821682036101d757565b61034081019392915f825b60198210611572575050506103200152565b6020806001928551815201930191019091611560565b90602080835192838152019201905f5b8181106115a55750505090565b825180516001600160a01b031685526020908101518186015260409094019390920191600101611598565b90602080835192838152019201905f5b8181106115ed5750505090565b82518452602093840193909201916001016115e0565b939290936060810194815260606020820152825180955260206080820193015f955b80871061164457505061164193945060408184039101526115d0565b90565b909360208060019260ff885116815201950196019590611625565b905f905b6019821061167057505050565b6020806001928551815201930191019091611663565b60c081019081106001600160401b038211176116a157604052565b634e487b7160e01b5f52604160045260245ffd5b6102a081019081106001600160401b038211176116a157604052565b601f909101601f19168101906001600160401b038211908210176116a157604052565b91908260c09103126101d75781519160208101519160408201519160608101519160a0608083015192015190565b51906001600160401b03821682036101d757565b519060ff821682036101d757565b51906001600160a01b03821682036101d757565b519081151582036101d757565b9080601f830112156101d7576103206040519261178282856116d1565b839181019283116101d757905b82821061179c5750505090565b815181526020918201910161178f565b906108a0828203126101d75761190190610580604051936117cc856116b5565b6117d581611722565b85526117e360208201611722565b60208601526117f460408201611722565b604086015261180560608201611722565b60608601526080810151608086015260a081015160a086015260c081015160c086015261183460e08201611736565b60e08601526101008101516101008601526101208101516101208601526101408101516101408601526101608101516101608601526118766101808201611744565b6101808601526118896101a08201611758565b6101a086015261189c6101c08201611758565b6101c08601526118af6101e08201611758565b6101e08601526118c26102008201611758565b6102008601526118d56102208201611758565b6102208601526102408101516102408601526118f5836102608301611765565b61026086015201611765565b61028082015290565b61032060405161191a82826116d1565b369037604051633e48799760e21b81526001600160401b0390911660048201526108a0816024817f00000000000000000000000000000000000000000000000000000000000000006001600160a01b03165afa9081156101cc575f9161198a575b50610260608082015191015191565b6119a391506108a03d81116101c5576101b781836116d1565b5f61197b565b6001600160401b0381116116a15760051b60200190565b81601f820112156101d7578051906119d7826119a9565b926119e560405194856116d1565b82845260208085019360061b830101918183116101d757602001925b828410611a0f575050505090565b6040848303126101d7576040805191908201906001600160401b038211838310176116a1576040926020928452611a4587611744565b81528287015183820152815201930192611a01565b519063ffffffff821682036101d757565b519061ffff821682036101d757565b908160e09103126101d757611a8e81611722565b91611a9b60208301611a5a565b91611aa860408201611a5a565b91611ab560608301611a6b565b91611ac260808201611a6b565b9161164160c0611ad460a08501611a6b565b9301611758565b90916060828403126101d757815160208301519093906001600160401b0381116101d757830181601f820112156101d757805190611b18826119a9565b91611b2660405193846116d1565b80835260208084019160051b830101918483116101d757602001905b828210611bbf57505050604084015190936001600160401b0382116101d757019080601f830112156101d7578151611b79816119a9565b92611b8760405194856116d1565b81845260208085019260051b8201019283116101d757602001905b828210611baf5750505090565b8151815260209182019101611ba2565b60208091611bcc84611736565b815201910190611b42565b6001600160401b0390911681526001600160a01b03909116602082015260400190565b91908260c09103126101d757611c0f82611758565b91611c1c60208201611758565b9160408201519160608101519160a0608083015192015190565b919082018092116106ec57565b919082039182116106ec57565b15611c5757565b60405162461bcd60e51b81526020600482015260086024820152676f766572666c6f7760c01b6044820152606490fd5b604051633e69914d60e11b81527f00000000000000000000000000000000000000000000000000000000000000006001600160a01b03169060e081600481855afa80156101cc575f915f91611dce575b5015611dc657604051633e48799760e21b81526001600160401b039091166004820152906108a090829060249082905afa9081156101cc575f91611da7575b5060208101516001600160401b031615611d9f576101c0810151611d73576101a0810151611d6b57604001516001600160401b031643811015611d5b57506002905f90565b611d66904390611c43565b600191565b506003905f90565b606001516001600160401b0316438111611d8f57506001905f90565b611d9a904390611c43565b600491565b506001905f90565b611dc091506108a03d81116101c5576101b781836116d1565b5f611d16565b50505f905f90565b9050611de9915060e03d60e011610b1a57610b0681836116d1565b95945050505050905f611cd756fea2646970667358221220b5a6c0f39bd1183fd147646e1761912f928918339e89c553e618f3bb7fa9ba8264736f6c634300081e0033",
        "linkReferences": {}
    },
    "methodIdentifiers": {
        "getAutomation(address)": "84bf220a",
        "getCurrentRoundInfo()": "747dff42",
        "getCurrentRoundSquareStats()": "a30988e2",
        "getCurrentRoundSquares(address)": "703a4b04",
        "getEthReward(uint64,address)": "ef84da12",
        "getEthRewards(uint64[],address)": "9318992b",
        "getGameState()": "b7d0628b",
        "getLastRoundWinners()": "6c46376d",
        "getMinerRoundInfo(uint64,address)": "8fd2040d",
        "getMinerSquares(uint64,address)": "db834306",
        "getRoundData(uint64)": "f921e65c",
        "getRoundSquareStats(uint64)": "25452dd0",
        "getSquareParticipants(uint64,uint8)": "6db8b42d",
        "getStakeInfo(address)": "c3453153",
        "getTreasuryState()": "23a8bdca",
        "getUserRewards(address)": "078b0fb7",
        "getWinningSquareParticipants(uint64)": "a97958c1",
        "protocol()": "8ce74426",
        "roundWindow(uint64)": "fa4d3ab9",
        "treasuryVault()": "af8b1c6f",
        "verifyBalance()": "b00328e5"
    },
    "id": 68
}